{
  "_format": "hh-sol-artifact-1",
  "contractName": "APIGateway",
  "sourceName": "contracts/advanced/APIGateway.sol",
  "abi": [
    {
      "inputs": [],
      "stateMutability": "nonpayable",
      "type": "constructor"
    },
    {
      "inputs": [
        {
          "internalType": "address",
          "name": "owner",
          "type": "address"
        }
      ],
      "name": "OwnableInvalidOwner",
      "type": "error"
    },
    {
      "inputs": [
        {
          "internalType": "address",
          "name": "account",
          "type": "address"
        }
      ],
      "name": "OwnableUnauthorizedAccount",
      "type": "error"
    },
    {
      "anonymous": false,
      "inputs": [
        {
          "indexed": true,
          "internalType": "string",
          "name": "contractType",
          "type": "string"
        },
        {
          "indexed": true,
          "internalType": "address",
          "name": "contractAddress",
          "type": "address"
        }
      ],
      "name": "ContractRegistered",
      "type": "event"
    },
    {
      "anonymous": false,
      "inputs": [
        {
          "indexed": true,
          "internalType": "address",
          "name": "previousOwner",
          "type": "address"
        },
        {
          "indexed": true,
          "internalType": "address",
          "name": "newOwner",
          "type": "address"
        }
      ],
      "name": "OwnershipTransferred",
      "type": "event"
    },
    {
      "anonymous": false,
      "inputs": [
        {
          "indexed": true,
          "internalType": "uint256",
          "name": "transactionId",
          "type": "uint256"
        }
      ],
      "name": "TransactionRecorded",
      "type": "event"
    },
    {
      "anonymous": false,
      "inputs": [
        {
          "indexed": true,
          "internalType": "address",
          "name": "user",
          "type": "address"
        }
      ],
      "name": "UserRegistered",
      "type": "event"
    },
    {
      "inputs": [],
      "name": "bridgeConnector",
      "outputs": [
        {
          "internalType": "address",
          "name": "",
          "type": "address"
        }
      ],
      "stateMutability": "view",
      "type": "function"
    },
    {
      "inputs": [],
      "name": "daoTreasury",
      "outputs": [
        {
          "internalType": "address",
          "name": "",
          "type": "address"
        }
      ],
      "stateMutability": "view",
      "type": "function"
    },
    {
      "inputs": [],
      "name": "getActiveUsers",
      "outputs": [
        {
          "internalType": "uint256",
          "name": "",
          "type": "uint256"
        }
      ],
      "stateMutability": "view",
      "type": "function"
    },
    {
      "inputs": [],
      "name": "getAllMetrics",
      "outputs": [
        {
          "internalType": "uint256",
          "name": "tvl",
          "type": "uint256"
        },
        {
          "internalType": "uint256",
          "name": "users",
          "type": "uint256"
        },
        {
          "internalType": "uint256",
          "name": "transactions",
          "type": "uint256"
        },
        {
          "internalType": "uint256",
          "name": "fees",
          "type": "uint256"
        },
        {
          "internalType": "uint256",
          "name": "treasury",
          "type": "uint256"
        }
      ],
      "stateMutability": "view",
      "type": "function"
    },
    {
      "inputs": [],
      "name": "getBridgeMetrics",
      "outputs": [
        {
          "components": [
            {
              "internalType": "uint256",
              "name": "totalVolume",
              "type": "uint256"
            },
            {
              "internalType": "uint256",
              "name": "totalTransactions",
              "type": "uint256"
            },
            {
              "internalType": "uint256",
              "name": "averageBridgeTime",
              "type": "uint256"
            }
          ],
          "internalType": "struct APIGateway.BridgeMetrics",
          "name": "",
          "type": "tuple"
        }
      ],
      "stateMutability": "view",
      "type": "function"
    },
    {
      "inputs": [],
      "name": "getBridgeVolume",
      "outputs": [
        {
          "internalType": "uint256",
          "name": "",
          "type": "uint256"
        }
      ],
      "stateMutability": "view",
      "type": "function"
    },
    {
      "inputs": [],
      "name": "getDAOTreasury",
      "outputs": [
        {
          "internalType": "uint256",
          "name": "",
          "type": "uint256"
        }
      ],
      "stateMutability": "view",
      "type": "function"
    },
    {
      "inputs": [],
      "name": "getLRTMetrics",
      "outputs": [
        {
          "components": [
            {
              "internalType": "uint256",
              "name": "totalStaked",
              "type": "uint256"
            },
            {
              "internalType": "uint256",
              "name": "exchangeRate",
              "type": "uint256"
            },
            {
              "internalType": "uint256",
              "name": "totalsSGT",
              "type": "uint256"
            },
            {
              "internalType": "uint256",
              "name": "estimatedAPY",
              "type": "uint256"
            }
          ],
          "internalType": "struct APIGateway.LRTMetrics",
          "name": "",
          "type": "tuple"
        }
      ],
      "stateMutability": "view",
      "type": "function"
    },
    {
      "inputs": [],
      "name": "getLendingMetrics",
      "outputs": [
        {
          "components": [
            {
              "internalType": "uint256",
              "name": "totalSupplied",
              "type": "uint256"
            },
            {
              "internalType": "uint256",
              "name": "totalBorrowed",
              "type": "uint256"
            },
            {
              "internalType": "uint256",
              "name": "utilizationRate",
              "type": "uint256"
            },
            {
              "internalType": "uint256",
              "name": "supplyAPY",
              "type": "uint256"
            },
            {
              "internalType": "uint256",
              "name": "borrowAPY",
              "type": "uint256"
            }
          ],
          "internalType": "struct APIGateway.LendingMetrics",
          "name": "",
          "type": "tuple"
        }
      ],
      "stateMutability": "view",
      "type": "function"
    },
    {
      "inputs": [],
      "name": "getProtocolMetrics",
      "outputs": [
        {
          "components": [
            {
              "internalType": "uint256",
              "name": "totalTVL",
              "type": "uint256"
            },
            {
              "internalType": "uint256",
              "name": "totalUsers",
              "type": "uint256"
            },
            {
              "internalType": "uint256",
              "name": "daoTreasury",
              "type": "uint256"
            },
            {
              "internalType": "uint256",
              "name": "totalTransactions",
              "type": "uint256"
            },
            {
              "internalType": "uint256",
              "name": "totalFees",
              "type": "uint256"
            }
          ],
          "internalType": "struct APIGateway.ProtocolMetrics",
          "name": "",
          "type": "tuple"
        }
      ],
      "stateMutability": "view",
      "type": "function"
    },
    {
      "inputs": [],
      "name": "getSGTSupply",
      "outputs": [
        {
          "internalType": "uint256",
          "name": "",
          "type": "uint256"
        }
      ],
      "stateMutability": "view",
      "type": "function"
    },
    {
      "inputs": [],
      "name": "getStakingMetrics",
      "outputs": [
        {
          "components": [
            {
              "internalType": "uint256",
              "name": "totalStaked",
              "type": "uint256"
            },
            {
              "internalType": "uint256",
              "name": "totalRewards",
              "type": "uint256"
            },
            {
              "internalType": "uint256",
              "name": "averageAPY",
              "type": "uint256"
            },
            {
              "internalType": "uint256",
              "name": "activeStakers",
              "type": "uint256"
            },
            {
              "internalType": "uint256",
              "name": "rewardRate",
              "type": "uint256"
            }
          ],
          "internalType": "struct APIGateway.StakingMetrics",
          "name": "",
          "type": "tuple"
        }
      ],
      "stateMutability": "view",
      "type": "function"
    },
    {
      "inputs": [],
      "name": "getTotalTVL",
      "outputs": [
        {
          "internalType": "uint256",
          "name": "",
          "type": "uint256"
        }
      ],
      "stateMutability": "view",
      "type": "function"
    },
    {
      "inputs": [],
      "name": "lendingProtocol",
      "outputs": [
        {
          "internalType": "address",
          "name": "",
          "type": "address"
        }
      ],
      "stateMutability": "view",
      "type": "function"
    },
    {
      "inputs": [],
      "name": "lrt",
      "outputs": [
        {
          "internalType": "address",
          "name": "",
          "type": "address"
        }
      ],
      "stateMutability": "view",
      "type": "function"
    },
    {
      "inputs": [],
      "name": "owner",
      "outputs": [
        {
          "internalType": "address",
          "name": "",
          "type": "address"
        }
      ],
      "stateMutability": "view",
      "type": "function"
    },
    {
      "inputs": [
        {
          "internalType": "uint256",
          "name": "amount",
          "type": "uint256"
        }
      ],
      "name": "recordFees",
      "outputs": [],
      "stateMutability": "nonpayable",
      "type": "function"
    },
    {
      "inputs": [],
      "name": "recordTransaction",
      "outputs": [],
      "stateMutability": "nonpayable",
      "type": "function"
    },
    {
      "inputs": [
        {
          "internalType": "address",
          "name": "user",
          "type": "address"
        }
      ],
      "name": "recordUser",
      "outputs": [],
      "stateMutability": "nonpayable",
      "type": "function"
    },
    {
      "inputs": [
        {
          "internalType": "address",
          "name": "_sgtToken",
          "type": "address"
        },
        {
          "internalType": "address",
          "name": "_stakingRewards",
          "type": "address"
        },
        {
          "internalType": "address",
          "name": "_lendingProtocol",
          "type": "address"
        },
        {
          "internalType": "address",
          "name": "_bridgeConnector",
          "type": "address"
        },
        {
          "internalType": "address",
          "name": "_lrt",
          "type": "address"
        },
        {
          "internalType": "address",
          "name": "_daoTreasury",
          "type": "address"
        }
      ],
      "name": "registerContracts",
      "outputs": [],
      "stateMutability": "nonpayable",
      "type": "function"
    },
    {
      "inputs": [
        {
          "internalType": "address",
          "name": "",
          "type": "address"
        }
      ],
      "name": "registeredUsers",
      "outputs": [
        {
          "internalType": "bool",
          "name": "",
          "type": "bool"
        }
      ],
      "stateMutability": "view",
      "type": "function"
    },
    {
      "inputs": [],
      "name": "renounceOwnership",
      "outputs": [],
      "stateMutability": "nonpayable",
      "type": "function"
    },
    {
      "inputs": [],
      "name": "sgtToken",
      "outputs": [
        {
          "internalType": "address",
          "name": "",
          "type": "address"
        }
      ],
      "stateMutability": "view",
      "type": "function"
    },
    {
      "inputs": [],
      "name": "stakingRewards",
      "outputs": [
        {
          "internalType": "address",
          "name": "",
          "type": "address"
        }
      ],
      "stateMutability": "view",
      "type": "function"
    },
    {
      "inputs": [],
      "name": "totalFeesCollected",
      "outputs": [
        {
          "internalType": "uint256",
          "name": "",
          "type": "uint256"
        }
      ],
      "stateMutability": "view",
      "type": "function"
    },
    {
      "inputs": [],
      "name": "totalTransactions",
      "outputs": [
        {
          "internalType": "uint256",
          "name": "",
          "type": "uint256"
        }
      ],
      "stateMutability": "view",
      "type": "function"
    },
    {
      "inputs": [],
      "name": "totalUsers",
      "outputs": [
        {
          "internalType": "uint256",
          "name": "",
          "type": "uint256"
        }
      ],
      "stateMutability": "view",
      "type": "function"
    },
    {
      "inputs": [
        {
          "internalType": "address",
          "name": "newOwner",
          "type": "address"
        }
      ],
      "name": "transferOwnership",
      "outputs": [],
      "stateMutability": "nonpayable",
      "type": "function"
    }
  ],
  "bytecode": "0x608060405234801561001057600080fd5b50338061003757604051631e4fbdf760e01b81526000600482015260240160405180910390fd5b61004081610046565b50610096565b600080546001600160a01b038381166001600160a01b0319831681178455604051919092169283917f8be0079c531659141344cd1fd0a4f28419497f9722a3daafe3b4186f6b6457e09190a35050565b61178b806100a56000396000f3fe608060405234801561001057600080fd5b50600436106101c45760003560e01c806385fed9d5116100f9578063c87a300811610097578063eb1d13b011610071578063eb1d13b0146103da578063eff86bc3146103e2578063f2fde38b146103ea578063f5593607146103fd57600080fd5b8063c87a3008146103b7578063d3c8b7b0146103bf578063d68ceed8146103c757600080fd5b80638e3856cc116100d35780638e3856cc14610357578063b9a6003814610392578063bff1f9e11461039b578063c56924ba146103a457600080fd5b806385fed9d51461032957806388953731146103315780638da5cb5b1461034657600080fd5b806364b87a7011610166578063780773101161014057806378077310146102c6578063785e42b0146102f057806379022a9f1461030357806384436d3e1461031657600080fd5b806364b87a70146102965780636c951015146102a9578063715018a6146102be57600080fd5b806323150b9b116101a257806323150b9b146102425780634db7adf51461024a57806360c6d8ae1461025d578063615a651e1461026657600080fd5b80630c021ae5146101c95780630e50cee5146101e4578063166ff03014610217575b600080fd5b6101d1610405565b6040519081526020015b60405180910390f35b6102076101f23660046115ec565b60076020526000908152604090205460ff1681565b60405190151581526020016101db565b60015461022a906001600160a01b031681565b6040516001600160a01b0390911681526020016101db565b6101d16105ce565b60055461022a906001600160a01b031681565b6101d1600a5481565b61026e610672565b604080519586526020860194909452928401919091526060830152608082015260a0016101db565b60025461022a906001600160a01b031681565b6102bc6102b736600461160e565b6108ef565b005b6102bc610a79565b6102ce610a8d565b60408051825181526020808401519082015291810151908201526060016101db565b6102bc6102fe3660046115ec565b610b72565b60065461022a906001600160a01b031681565b60035461022a906001600160a01b031681565b6102bc610c00565b610339610c43565b6040516101db9190611682565b6000546001600160a01b031661022a565b61035f610db0565b6040516101db91908151815260208083015190820152604080830151908201526060918201519181019190915260800190565b6101d160095481565b6101d160085481565b60045461022a906001600160a01b031681565b610339610f69565b6101d161116a565b6102bc6103d53660046116c1565b6111d6565b6103396111f8565b6101d16114b8565b6102bc6103f83660046115ec565b611518565b6008546101d1565b60025460009081906001600160a01b03161561049f57600260009054906101000a90046001600160a01b03166001600160a01b031663817b1cd26040518163ffffffff1660e01b8152600401602060405180830381865afa15801561046e573d6000803e3d6000fd5b505050506040513d601f19601f8201168201806040525081019061049291906116da565b61049c9082611709565b90505b6003546001600160a01b03161561053457600360009054906101000a90046001600160a01b03166001600160a01b031663630fd0ac6040518163ffffffff1660e01b8152600401602060405180830381865afa158015610503573d6000803e3d6000fd5b505050506040513d601f19601f8201168201806040525081019061052791906116da565b6105319082611709565b90505b6005546001600160a01b0316156105c957600560009054906101000a90046001600160a01b03166001600160a01b0316638de35f366040518163ffffffff1660e01b8152600401602060405180830381865afa158015610598573d6000803e3d6000fd5b505050506040513d601f19601f820116820180604052508101906105bc91906116da565b6105c69082611709565b90505b919050565b6006546000906001600160a01b031615806105f257506001546001600160a01b0316155b156105fd5750600090565b6001546006546040516370a0823160e01b81526001600160a01b0391821660048201529116906370a0823190602401602060405180830381865afa158015610649573d6000803e3d6000fd5b505050506040513d601f19601f8201168201806040525081019061066d91906116da565b905090565b60025460009081908190819081906001600160a01b03161561071257600260009054906101000a90046001600160a01b03166001600160a01b031663817b1cd26040518163ffffffff1660e01b8152600401602060405180830381865afa1580156106e1573d6000803e3d6000fd5b505050506040513d601f19601f8201168201806040525081019061070591906116da565b61070f9086611709565b94505b6003546001600160a01b0316156107a757600360009054906101000a90046001600160a01b03166001600160a01b031663630fd0ac6040518163ffffffff1660e01b8152600401602060405180830381865afa158015610776573d6000803e3d6000fd5b505050506040513d601f19601f8201168201806040525081019061079a91906116da565b6107a49086611709565b94505b6005546001600160a01b03161561083c57600560009054906101000a90046001600160a01b03166001600160a01b0316638de35f366040518163ffffffff1660e01b8152600401602060405180830381865afa15801561080b573d6000803e3d6000fd5b505050506040513d601f19601f8201168201806040525081019061082f91906116da565b6108399086611709565b94505b6006546001600160a01b03161580159061086057506001546001600160a01b031615155b156108d8576001546006546040516370a0823160e01b81526001600160a01b0391821660048201529116906370a0823190602401602060405180830381865afa1580156108b1573d6000803e3d6000fd5b505050506040513d601f19601f820116820180604052508101906108d591906116da565b90505b600854600954600a54919550935091509091929394565b6108f7611558565b600180546001600160a01b03199081166001600160a01b0389811691821790935560028054831689851617905560038054831688851617815560048054841688861617905560058054841687861617905560068054909316938516939093179091556040516214d1d560ea1b81529091016040519081900381209060008051602061173683398151915290600090a3604051665374616b696e6760c81b81526001600160a01b038616906007016040519081900381209060008051602061173683398151915290600090a3604051664c656e64696e6760c81b81526001600160a01b038516906007016040519081900381209060008051602061173683398151915290600090a36040516542726964676560d01b81526001600160a01b038416906006016040519081900381209060008051602061173683398151915290600090a36040516213149560ea1b81526001600160a01b038316906003016040519081900381209060008051602061173683398151915290600090a3505050505050565b610a81611558565b610a8b6000611585565b565b610ab160405180606001604052806000815260200160008152602001600081525090565b6004546001600160a01b0316610ae457604051806060016040528060008152602001600081526020016000815250905090565b60045460408051606081018083526333d0bc8d60e11b905290516001600160a01b0390921691819083906367a1791a906064808501916020918187030181865afa158015610b36573d6000803e3d6000fd5b505050506040513d601f19601f82011682018060405250810190610b5a91906116da565b81526020016000815260200161038481525091505090565b6001600160a01b03811660009081526007602052604090205460ff16610bfd576001600160a01b0381166000908152600760205260408120805460ff191660011790556008805491610bc38361171c565b90915550506040516001600160a01b038216907f54db7a5cb4735e1aac1f53db512d3390390bb6637bd30ad4bf9fc98667d9b9b990600090a25b50565b60098054906000610c108361171c565b90915550506009546040517f21d4c06c83e61e4b1a12630ddfe2283b7eeb73d82a5490a1c8ffaa4d1b90ba1190600090a2565b610c756040518060a0016040528060008152602001600081526020016000815260200160008152602001600081525090565b6002546001600160a01b0316610cb6576040518060a00160405280600081526020016000815260200160008152602001600081526020016000815250905090565b6002546040805160a081018083526340bd8e6960e11b905290516001600160a01b03909216918190839063817b1cd29060a4808501916020918187030181865afa158015610d08573d6000803e3d6000fd5b505050506040513d601f19601f82011682018060405250810190610d2c91906116da565b8152602001600081526020016000815260200160008152602001826001600160a01b0316637b0a47ee6040518163ffffffff1660e01b8152600401602060405180830381865afa158015610d84573d6000803e3d6000fd5b505050506040513d601f19601f82011682018060405250810190610da891906116da565b905292915050565b610ddb6040518060800160405280600081526020016000815260200160008152602001600081525090565b6005546001600160a01b0316610e155760405180608001604052806000815260200160008152602001600081526020016000815250905090565b60055460408051608081018083526346f1af9b60e11b905290516001600160a01b039092169181908390638de35f36906084808501916020918187030181865afa158015610e67573d6000803e3d6000fd5b505050506040513d601f19601f82011682018060405250810190610e8b91906116da565b8152602001826001600160a01b031663e6aa216c6040518163ffffffff1660e01b8152600401602060405180830381865afa158015610ece573d6000803e3d6000fd5b505050506040513d601f19601f82011682018060405250810190610ef291906116da565b8152602001826001600160a01b03166318160ddd6040518163ffffffff1660e01b8152600401602060405180830381865afa158015610f35573d6000803e3d6000fd5b505050506040513d601f19601f82011682018060405250810190610f5991906116da565b8152602001600081525091505090565b610f9b6040518060a0016040528060008152602001600081526020016000815260200160008152602001600081525090565b6003546001600160a01b0316610fdc576040518060a00160405280600081526020016000815260200160008152602001600081526020016000815250905090565b6003546040805160a081018083526318c3f42b60e21b905290516001600160a01b03909216918190839063630fd0ac9060a4808501916020918187030181865afa15801561102e573d6000803e3d6000fd5b505050506040513d601f19601f8201168201806040525081019061105291906116da565b815260200160008152602001826001600160a01b0316636c321c8a6040518163ffffffff1660e01b8152600401602060405180830381865afa15801561109c573d6000803e3d6000fd5b505050506040513d601f19601f820116820180604052508101906110c091906116da565b8152602001826001600160a01b0316635733d9486040518163ffffffff1660e01b8152600401602060405180830381865afa158015611103573d6000803e3d6000fd5b505050506040513d601f19601f8201168201806040525081019061112791906116da565b8152602001826001600160a01b031663cabca6436040518163ffffffff1660e01b8152600401602060405180830381865afa158015610d84573d6000803e3d6000fd5b6001546000906001600160a01b03166111835750600090565b600160009054906101000a90046001600160a01b03166001600160a01b03166318160ddd6040518163ffffffff1660e01b8152600401602060405180830381865afa158015610649573d6000803e3d6000fd5b6111de611558565b80600a60008282546111f09190611709565b909155505050565b61122a6040518060a0016040528060008152602001600081526020016000815260200160008152602001600081525090565b6002546000906001600160a01b0316156112c257600260009054906101000a90046001600160a01b03166001600160a01b031663817b1cd26040518163ffffffff1660e01b8152600401602060405180830381865afa158015611291573d6000803e3d6000fd5b505050506040513d601f19601f820116820180604052508101906112b591906116da565b6112bf9082611709565b90505b6003546001600160a01b03161561135757600360009054906101000a90046001600160a01b03166001600160a01b031663630fd0ac6040518163ffffffff1660e01b8152600401602060405180830381865afa158015611326573d6000803e3d6000fd5b505050506040513d601f19601f8201168201806040525081019061134a91906116da565b6113549082611709565b90505b6005546001600160a01b0316156113ec57600560009054906101000a90046001600160a01b03166001600160a01b0316638de35f366040518163ffffffff1660e01b8152600401602060405180830381865afa1580156113bb573d6000803e3d6000fd5b505050506040513d601f19601f820116820180604052508101906113df91906116da565b6113e99082611709565b90505b6006546000906001600160a01b03161580159061141357506001546001600160a01b031615155b1561148b576001546006546040516370a0823160e01b81526001600160a01b0391821660048201529116906370a0823190602401602060405180830381865afa158015611464573d6000803e3d6000fd5b505050506040513d601f19601f8201168201806040525081019061148891906116da565b90505b6040805160a08101825292835260085460208401528201526009546060820152600a546080820152919050565b6004546000906001600160a01b03166114d15750600090565b60048054604080516333d0bc8d60e11b815290516001600160a01b03909216926367a1791a9282820192602092908290030181865afa158015610649573d6000803e3d6000fd5b611520611558565b6001600160a01b03811661154f57604051631e4fbdf760e01b8152600060048201526024015b60405180910390fd5b610bfd81611585565b6000546001600160a01b03163314610a8b5760405163118cdaa760e01b8152336004820152602401611546565b600080546001600160a01b038381166001600160a01b0319831681178455604051919092169283917f8be0079c531659141344cd1fd0a4f28419497f9722a3daafe3b4186f6b6457e09190a35050565b80356001600160a01b03811681146105c957600080fd5b6000602082840312156115fe57600080fd5b611607826115d5565b9392505050565b60008060008060008060c0878903121561162757600080fd5b611630876115d5565b955061163e602088016115d5565b945061164c604088016115d5565b935061165a606088016115d5565b9250611668608088016115d5565b915061167660a088016115d5565b90509295509295509295565b60a081016116bb828480518252602081015160208301526040810151604083015260608101516060830152608081015160808301525050565b92915050565b6000602082840312156116d357600080fd5b5035919050565b6000602082840312156116ec57600080fd5b5051919050565b634e487b7160e01b600052601160045260246000fd5b808201808211156116bb576116bb6116f3565b60006001820161172e5761172e6116f3565b506001019056fe2a88e68a891ddb61f7aebfdeefd9fb74964fcd5371b692ea59cca73fc58f4805a2646970667358221220f8864ba111e97a2c56a384bdf3acab6fc8db858362452bd899b6a91d4c42cd5564736f6c63430008180033",
  "linkReferences": {},
  "deployedLinkReferences": {}
}