{
  "_format": "hh-sol-artifact-1",
  "contractName": "BridgeConnector",
  "sourceName": "contracts/BridgeConnector.sol",
  "abi": [
    {
      "inputs": [
        {
          "internalType": "address",
          "name": "_scrollMessenger",
          "type": "address"
        }
      ],
      "stateMutability": "nonpayable",
      "type": "constructor"
    },
    {
      "inputs": [
        {
          "internalType": "address",
          "name": "owner",
          "type": "address"
        }
      ],
      "name": "OwnableInvalidOwner",
      "type": "error"
    },
    {
      "inputs": [
        {
          "internalType": "address",
          "name": "account",
          "type": "address"
        }
      ],
      "name": "OwnableUnauthorizedAccount",
      "type": "error"
    },
    {
      "inputs": [],
      "name": "ReentrancyGuardReentrantCall",
      "type": "error"
    },
    {
      "anonymous": false,
      "inputs": [
        {
          "indexed": true,
          "internalType": "address",
          "name": "user",
          "type": "address"
        },
        {
          "indexed": false,
          "internalType": "uint256",
          "name": "amount",
          "type": "uint256"
        },
        {
          "indexed": false,
          "internalType": "address",
          "name": "token",
          "type": "address"
        },
        {
          "indexed": true,
          "internalType": "bytes32",
          "name": "txHash",
          "type": "bytes32"
        }
      ],
      "name": "DepositInitiated",
      "type": "event"
    },
    {
      "anonymous": false,
      "inputs": [
        {
          "indexed": false,
          "internalType": "uint256",
          "name": "depositFee",
          "type": "uint256"
        },
        {
          "indexed": false,
          "internalType": "uint256",
          "name": "withdrawalFee",
          "type": "uint256"
        }
      ],
      "name": "FeeUpdated",
      "type": "event"
    },
    {
      "anonymous": false,
      "inputs": [
        {
          "indexed": true,
          "internalType": "address",
          "name": "previousOwner",
          "type": "address"
        },
        {
          "indexed": true,
          "internalType": "address",
          "name": "newOwner",
          "type": "address"
        }
      ],
      "name": "OwnershipTransferred",
      "type": "event"
    },
    {
      "anonymous": false,
      "inputs": [
        {
          "indexed": true,
          "internalType": "bytes32",
          "name": "txHash",
          "type": "bytes32"
        },
        {
          "indexed": false,
          "internalType": "enum BridgeConnector.BridgeStatus",
          "name": "oldStatus",
          "type": "uint8"
        },
        {
          "indexed": false,
          "internalType": "enum BridgeConnector.BridgeStatus",
          "name": "newStatus",
          "type": "uint8"
        }
      ],
      "name": "TransactionStatusUpdated",
      "type": "event"
    },
    {
      "anonymous": false,
      "inputs": [
        {
          "indexed": true,
          "internalType": "address",
          "name": "user",
          "type": "address"
        },
        {
          "indexed": true,
          "internalType": "bytes32",
          "name": "txHash",
          "type": "bytes32"
        },
        {
          "indexed": false,
          "internalType": "uint256",
          "name": "amount",
          "type": "uint256"
        }
      ],
      "name": "WithdrawalClaimed",
      "type": "event"
    },
    {
      "anonymous": false,
      "inputs": [
        {
          "indexed": true,
          "internalType": "address",
          "name": "user",
          "type": "address"
        },
        {
          "indexed": false,
          "internalType": "uint256",
          "name": "amount",
          "type": "uint256"
        },
        {
          "indexed": false,
          "internalType": "address",
          "name": "token",
          "type": "address"
        },
        {
          "indexed": true,
          "internalType": "bytes32",
          "name": "txHash",
          "type": "bytes32"
        }
      ],
      "name": "WithdrawalInitiated",
      "type": "event"
    },
    {
      "inputs": [],
      "name": "WITHDRAWAL_DELAY",
      "outputs": [
        {
          "internalType": "uint256",
          "name": "",
          "type": "uint256"
        }
      ],
      "stateMutability": "view",
      "type": "function"
    },
    {
      "inputs": [
        {
          "internalType": "bytes32",
          "name": "txHash",
          "type": "bytes32"
        }
      ],
      "name": "claimWithdrawal",
      "outputs": [],
      "stateMutability": "nonpayable",
      "type": "function"
    },
    {
      "inputs": [],
      "name": "depositFee",
      "outputs": [
        {
          "internalType": "uint256",
          "name": "",
          "type": "uint256"
        }
      ],
      "stateMutability": "view",
      "type": "function"
    },
    {
      "inputs": [
        {
          "internalType": "bytes32",
          "name": "txHash",
          "type": "bytes32"
        }
      ],
      "name": "getTimeUntilClaimable",
      "outputs": [
        {
          "internalType": "uint256",
          "name": "",
          "type": "uint256"
        }
      ],
      "stateMutability": "view",
      "type": "function"
    },
    {
      "inputs": [
        {
          "internalType": "bytes32",
          "name": "txHash",
          "type": "bytes32"
        }
      ],
      "name": "getTransaction",
      "outputs": [
        {
          "components": [
            {
              "internalType": "address",
              "name": "user",
              "type": "address"
            },
            {
              "internalType": "uint256",
              "name": "amount",
              "type": "uint256"
            },
            {
              "internalType": "address",
              "name": "token",
              "type": "address"
            },
            {
              "internalType": "uint256",
              "name": "timestamp",
              "type": "uint256"
            },
            {
              "internalType": "bytes32",
              "name": "l1TxHash",
              "type": "bytes32"
            },
            {
              "internalType": "bytes32",
              "name": "l2TxHash",
              "type": "bytes32"
            },
            {
              "internalType": "enum BridgeConnector.BridgeDirection",
              "name": "direction",
              "type": "uint8"
            },
            {
              "internalType": "enum BridgeConnector.BridgeStatus",
              "name": "status",
              "type": "uint8"
            },
            {
              "internalType": "uint256",
              "name": "claimableAt",
              "type": "uint256"
            }
          ],
          "internalType": "struct BridgeConnector.BridgeTransaction",
          "name": "",
          "type": "tuple"
        }
      ],
      "stateMutability": "view",
      "type": "function"
    },
    {
      "inputs": [
        {
          "internalType": "bytes32",
          "name": "txHash",
          "type": "bytes32"
        }
      ],
      "name": "getTransactionStatus",
      "outputs": [
        {
          "internalType": "enum BridgeConnector.BridgeStatus",
          "name": "",
          "type": "uint8"
        }
      ],
      "stateMutability": "view",
      "type": "function"
    },
    {
      "inputs": [
        {
          "internalType": "address",
          "name": "user",
          "type": "address"
        }
      ],
      "name": "getUserTransactions",
      "outputs": [
        {
          "internalType": "bytes32[]",
          "name": "",
          "type": "bytes32[]"
        }
      ],
      "stateMutability": "view",
      "type": "function"
    },
    {
      "inputs": [
        {
          "internalType": "uint256",
          "name": "amount",
          "type": "uint256"
        },
        {
          "internalType": "address",
          "name": "token",
          "type": "address"
        },
        {
          "internalType": "bytes32",
          "name": "l1TxHash",
          "type": "bytes32"
        }
      ],
      "name": "initiateDeposit",
      "outputs": [],
      "stateMutability": "payable",
      "type": "function"
    },
    {
      "inputs": [
        {
          "internalType": "uint256",
          "name": "amount",
          "type": "uint256"
        },
        {
          "internalType": "address",
          "name": "token",
          "type": "address"
        },
        {
          "internalType": "bytes32",
          "name": "l2TxHash",
          "type": "bytes32"
        }
      ],
      "name": "initiateWithdrawal",
      "outputs": [],
      "stateMutability": "payable",
      "type": "function"
    },
    {
      "inputs": [
        {
          "internalType": "bytes32",
          "name": "txHash",
          "type": "bytes32"
        }
      ],
      "name": "isClaimable",
      "outputs": [
        {
          "internalType": "bool",
          "name": "",
          "type": "bool"
        }
      ],
      "stateMutability": "view",
      "type": "function"
    },
    {
      "inputs": [],
      "name": "owner",
      "outputs": [
        {
          "internalType": "address",
          "name": "",
          "type": "address"
        }
      ],
      "stateMutability": "view",
      "type": "function"
    },
    {
      "inputs": [],
      "name": "renounceOwnership",
      "outputs": [],
      "stateMutability": "nonpayable",
      "type": "function"
    },
    {
      "inputs": [],
      "name": "scrollMessenger",
      "outputs": [
        {
          "internalType": "address",
          "name": "",
          "type": "address"
        }
      ],
      "stateMutability": "view",
      "type": "function"
    },
    {
      "inputs": [
        {
          "internalType": "bytes32",
          "name": "",
          "type": "bytes32"
        }
      ],
      "name": "transactions",
      "outputs": [
        {
          "internalType": "address",
          "name": "user",
          "type": "address"
        },
        {
          "internalType": "uint256",
          "name": "amount",
          "type": "uint256"
        },
        {
          "internalType": "address",
          "name": "token",
          "type": "address"
        },
        {
          "internalType": "uint256",
          "name": "timestamp",
          "type": "uint256"
        },
        {
          "internalType": "bytes32",
          "name": "l1TxHash",
          "type": "bytes32"
        },
        {
          "internalType": "bytes32",
          "name": "l2TxHash",
          "type": "bytes32"
        },
        {
          "internalType": "enum BridgeConnector.BridgeDirection",
          "name": "direction",
          "type": "uint8"
        },
        {
          "internalType": "enum BridgeConnector.BridgeStatus",
          "name": "status",
          "type": "uint8"
        },
        {
          "internalType": "uint256",
          "name": "claimableAt",
          "type": "uint256"
        }
      ],
      "stateMutability": "view",
      "type": "function"
    },
    {
      "inputs": [
        {
          "internalType": "address",
          "name": "newOwner",
          "type": "address"
        }
      ],
      "name": "transferOwnership",
      "outputs": [],
      "stateMutability": "nonpayable",
      "type": "function"
    },
    {
      "inputs": [
        {
          "internalType": "uint256",
          "name": "_depositFee",
          "type": "uint256"
        },
        {
          "internalType": "uint256",
          "name": "_withdrawalFee",
          "type": "uint256"
        }
      ],
      "name": "updateFees",
      "outputs": [],
      "stateMutability": "nonpayable",
      "type": "function"
    },
    {
      "inputs": [
        {
          "internalType": "address",
          "name": "_scrollMessenger",
          "type": "address"
        }
      ],
      "name": "updateScrollMessenger",
      "outputs": [],
      "stateMutability": "nonpayable",
      "type": "function"
    },
    {
      "inputs": [
        {
          "internalType": "bytes32",
          "name": "txHash",
          "type": "bytes32"
        },
        {
          "internalType": "enum BridgeConnector.BridgeStatus",
          "name": "newStatus",
          "type": "uint8"
        }
      ],
      "name": "updateTransactionStatus",
      "outputs": [],
      "stateMutability": "nonpayable",
      "type": "function"
    },
    {
      "inputs": [
        {
          "internalType": "address",
          "name": "",
          "type": "address"
        },
        {
          "internalType": "uint256",
          "name": "",
          "type": "uint256"
        }
      ],
      "name": "userTransactions",
      "outputs": [
        {
          "internalType": "bytes32",
          "name": "",
          "type": "bytes32"
        }
      ],
      "stateMutability": "view",
      "type": "function"
    },
    {
      "inputs": [],
      "name": "withdrawFees",
      "outputs": [],
      "stateMutability": "nonpayable",
      "type": "function"
    },
    {
      "inputs": [],
      "name": "withdrawalFee",
      "outputs": [
        {
          "internalType": "uint256",
          "name": "",
          "type": "uint256"
        }
      ],
      "stateMutability": "view",
      "type": "function"
    },
    {
      "stateMutability": "payable",
      "type": "receive"
    }
  ],
  "bytecode": "0x608060405234801561001057600080fd5b50604051620015c4380380620015c48339810160408190526100319161012f565b338061005857604051631e4fbdf760e01b8152600060048201526024015b60405180910390fd5b610061816100df565b50600180556001600160a01b0381166100b05760405162461bcd60e51b815260206004820152601160248201527024b73b30b634b21036b2b9b9b2b733b2b960791b604482015260640161004f565b600480546001600160a01b0319166001600160a01b03929092169190911790556000600581905560065561015f565b600080546001600160a01b038381166001600160a01b0319831681178455604051919092169283917f8be0079c531659141344cd1fd0a4f28419497f9722a3daafe3b4186f6b6457e09190a35050565b60006020828403121561014157600080fd5b81516001600160a01b038116811461015857600080fd5b9392505050565b611455806200016f6000396000f3fe60806040526004361061012e5760003560e01c80638bc7e8c4116100ab578063ce24099f1161006f578063ce24099f146103b1578063d2087ad9146103d1578063d7060a8c146103f1578063d94c2aed14610404578063ef92539914610424578063f2fde38b1461045157600080fd5b80638bc7e8c4146102e45780638da5cb5b146102fa5780638e88eccc1461032c578063944074651461034c578063b842ec441461039157600080fd5b8063642f2eaf116100f2578063642f2eaf146101f857806367a52793146102865780636db794371461029c578063715018a6146102bc578063863615a7146102d157600080fd5b80630ebb172a1461013a5780630f31493414610164578063455f468f14610184578063476343ee146101b45780634aae13ca146101cb57600080fd5b3661013557005b600080fd5b34801561014657600080fd5b5061015162093a8081565b6040519081526020015b60405180910390f35b34801561017057600080fd5b5061015161017f36600461114d565b610471565b34801561019057600080fd5b506101a461019f36600461114d565b61057a565b604051901515815260200161015b565b3480156101c057600080fd5b506101c9610685565b005b3480156101d757600080fd5b506101eb6101e636600461114d565b610713565b60405161015b91906111a0565b34801561020457600080fd5b5061027161021336600461114d565b6002602081905260009182526040909120805460018201549282015460038301546004840154600585015460068601546007909601546001600160a01b039586169796959094169492939192909160ff808316926101009004169089565b60405161015b99989796959493929190611220565b34801561029257600080fd5b5061015160055481565b3480156102a857600080fd5b506101c96102b7366004611284565b610846565b3480156102c857600080fd5b506101c9610895565b6101c96102df3660046112c2565b6108a9565b3480156102f057600080fd5b5061015160065481565b34801561030657600080fd5b506000546001600160a01b03165b6040516001600160a01b03909116815260200161015b565b34801561033857600080fd5b506101c961034736600461114d565b610acc565b34801561035857600080fd5b5061038461036736600461114d565b600090815260026020526040902060060154610100900460ff1690565b60405161015b91906112f7565b34801561039d57600080fd5b506101516103ac36600461130b565b610c9e565b3480156103bd57600080fd5b506101c96103cc366004611335565b610ccf565b3480156103dd57600080fd5b50600454610314906001600160a01b031681565b6101c96103ff3660046112c2565b610d43565b34801561041057600080fd5b506101c961041f366004611350565b610f29565b34801561043057600080fd5b5061044461043f366004611335565b610fff565b60405161015b9190611384565b34801561045d57600080fd5b506101c961046c366004611335565b61106b565b600081815260026020818152604080842081516101208101835281546001600160a01b0390811682526001808401549583019590955294820154909416918401919091526003810154606084015260048101546080840152600581015460a0840152600681015484939260c084019160ff16908111156104f3576104f3611166565b600181111561050457610504611166565b81526020016006820160019054906101000a900460ff16600681111561052c5761052c611166565b600681111561053d5761053d611166565b8152602001600782015481525050905080610100015142106105625750600092915050565b4281610100015161057391906113de565b9392505050565b600081815260026020818152604080842081516101208101835281546001600160a01b0390811682526001808401549583019590955294820154909416918401919091526003810154606084015260048101546080840152600581015460a0840152600681015484939260c084019160ff16908111156105fc576105fc611166565b600181111561060d5761060d611166565b81526020016006820160019054906101000a900460ff16600681111561063557610635611166565b600681111561064657610646611166565b815260079190910154602090910152905060048160e00151600681111561066f5761066f611166565b1480156105735750610100015142101592915050565b61068d6110a6565b47806106d65760405162461bcd60e51b81526020600482015260136024820152724e6f206665657320746f20776974686472617760681b60448201526064015b60405180910390fd5b600080546040516001600160a01b039091169183156108fc02918491818181858888f1935050505015801561070f573d6000803e3d6000fd5b5050565b6107626040805161012081018252600080825260208201819052918101829052606081018290526080810182905260a081018290529060c0820190815260200160008152602001600081525090565b60008281526002602081815260409283902083516101208101855281546001600160a01b0390811682526001808401549483019490945293820154909316938301939093526003830154606083015260048301546080830152600583015460a0830152600683015491929160c084019160ff909116908111156107e7576107e7611166565b60018111156107f8576107f8611166565b81526020016006820160019054906101000a900460ff16600681111561082057610820611166565b600681111561083157610831611166565b81526020016007820154815250509050919050565b61084e6110a6565b6005829055600681905560408051838152602081018390527f528d9479e9f9889a87a3c30c7f7ba537e5e59c4c85a37733b16e57c62df61302910160405180910390a15050565b61089d6110a6565b6108a760006110d3565b565b6108b1611123565b600083116108f65760405162461bcd60e51b81526020600482015260126024820152710416d6f756e74206d757374206265203e20360741b60448201526064016106cd565b6001600160a01b03821661093c5760405162461bcd60e51b815260206004820152600d60248201526c24b73b30b634b2103a37b5b2b760991b60448201526064016106cd565b6006543410156109815760405162461bcd60e51b815260206004820152601060248201526f496e73756666696369656e742066656560801b60448201526064016106cd565b600081815260026020526040902080546001600160a01b0316156109e75760405162461bcd60e51b815260206004820152601a60248201527f5472616e73616374696f6e20616c72656164792065786973747300000000000060448201526064016106cd565b8054336001600160a01b031991821617825560018083018690556002830180549092166001600160a01b0386161790915542600383018190556005830184905560068301805461ffff1916909217909155610a469062093a80906113f1565b600782015533600081815260036020908152604080832080546001810182559084529190922001849055518391907f5238bc1eea5103d08cdff92a9c333bd7127dd88e7b4f0205f2f1dacdd759c32c90610ab590889088909182526001600160a01b0316602082015260400190565b60405180910390a350610ac760018055565b505050565b610ad4611123565b600081815260026020526040902080546001600160a01b03163314610b335760405162461bcd60e51b81526020600482015260156024820152742737ba103a3930b739b0b1ba34b7b71037bbb732b960591b60448201526064016106cd565b6001600682015460ff166001811115610b4e57610b4e611166565b14610b8e5760405162461bcd60e51b815260206004820152601060248201526f139bdd0818481dda5d1a191c985dd85b60821b60448201526064016106cd565b6004600682810154610100900460ff1690811115610bae57610bae611166565b14610bf05760405162461bcd60e51b81526020600482015260126024820152714e6f7420726561647920746f20636c61696d60701b60448201526064016106cd565b8060070154421015610c445760405162461bcd60e51b815260206004820152601960248201527f5374696c6c20696e206368616c6c656e676520706572696f640000000000000060448201526064016106cd565b60068101805461ff0019166105001790556001810154604051908152829033907f84396add8db3ebf4773bd540256f3a4357001e69305efcb1a95d565284fbdae49060200160405180910390a350610c9b60018055565b50565b60036020528160005260406000208181548110610cba57600080fd5b90600052602060002001600091509150505481565b610cd76110a6565b6001600160a01b038116610d215760405162461bcd60e51b815260206004820152601160248201527024b73b30b634b21036b2b9b9b2b733b2b960791b60448201526064016106cd565b600480546001600160a01b0319166001600160a01b0392909216919091179055565b610d4b611123565b60008311610d905760405162461bcd60e51b81526020600482015260126024820152710416d6f756e74206d757374206265203e20360741b60448201526064016106cd565b6001600160a01b038216610dd65760405162461bcd60e51b815260206004820152600d60248201526c24b73b30b634b2103a37b5b2b760991b60448201526064016106cd565b600554341015610e1b5760405162461bcd60e51b815260206004820152601060248201526f496e73756666696369656e742066656560801b60448201526064016106cd565b600081815260026020526040902080546001600160a01b031615610e815760405162461bcd60e51b815260206004820152601a60248201527f5472616e73616374696f6e20616c72656164792065786973747300000000000060448201526064016106cd565b80546001600160a01b031990811633908117835560018084018790556002840180546001600160a01b038816941684179055426003808601919091556004850186905560068501805461ffff191690556000838152602091825260408082208054948501815582529082902090920186905581518881529081019390935284927f22d0f5106cfa7501ffd3cbd0c456811372ed897b45c6a4dd2d0b126c66d1117d9101610ab5565b610f316110a6565b600082815260026020526040902080546001600160a01b0316610f8e5760405162461bcd60e51b8152602060048201526015602482015274151c985b9cd858dd1a5bdb881b9bdd08199bdd5b99605a1b60448201526064016106cd565b6006818101805461010080820460ff169386939261ff00191691908490811115610fba57610fba611166565b0217905550837fc8a7adcd793ee2c31f7814aeef44437537b00ebc2e9ab3dec66d7561411b4d7b8285604051610ff1929190611404565b60405180910390a250505050565b6001600160a01b03811660009081526003602090815260409182902080548351818402810184019094528084526060939283018282801561105f57602002820191906000526020600020905b81548152602001906001019080831161104b575b50505050509050919050565b6110736110a6565b6001600160a01b03811661109d57604051631e4fbdf760e01b8152600060048201526024016106cd565b610c9b816110d3565b6000546001600160a01b031633146108a75760405163118cdaa760e01b81523360048201526024016106cd565b600080546001600160a01b038381166001600160a01b0319831681178455604051919092169283917f8be0079c531659141344cd1fd0a4f28419497f9722a3daafe3b4186f6b6457e09190a35050565b60026001540361114657604051633ee5aeb560e01b815260040160405180910390fd5b6002600155565b60006020828403121561115f57600080fd5b5035919050565b634e487b7160e01b600052602160045260246000fd5b6002811061118c5761118c611166565b9052565b6007811061118c5761118c611166565b60006101208201905060018060a01b038084511683526020840151602084015280604085015116604084015250606083015160608301526080830151608083015260a083015160a083015260c08301516111fd60c084018261117c565b5060e083015161121060e0840182611190565b5061010092830151919092015290565b6001600160a01b038a81168252602082018a905288166040820152606081018790526080810186905260a08101859052610120810161126260c083018661117c565b61126f60e0830185611190565b826101008301529a9950505050505050505050565b6000806040838503121561129757600080fd5b50508035926020909101359150565b80356001600160a01b03811681146112bd57600080fd5b919050565b6000806000606084860312156112d757600080fd5b833592506112e7602085016112a6565b9150604084013590509250925092565b602081016113058284611190565b92915050565b6000806040838503121561131e57600080fd5b611327836112a6565b946020939093013593505050565b60006020828403121561134757600080fd5b610573826112a6565b6000806040838503121561136357600080fd5b8235915060208301356007811061137957600080fd5b809150509250929050565b6020808252825182820181905260009190848201906040850190845b818110156113bc578351835292840192918401916001016113a0565b50909695505050505050565b634e487b7160e01b600052601160045260246000fd5b81810381811115611305576113056113c8565b80820180821115611305576113056113c8565b604081016114128285611190565b610573602083018461119056fea2646970667358221220a995846c9b8186a6c746f9c8027a176d96199e51291dddd4dd166e6930a6415564736f6c63430008180033",
  "linkReferences": {},
  "deployedLinkReferences": {}
}