{
  "_format": "hh-sol-artifact-1",
  "contractName": "RestakeHub",
  "sourceName": "contracts/ai/RestakeHub.sol",
  "abi": [
    {
      "inputs": [
        {
          "internalType": "address",
          "name": "_sgtToken",
          "type": "address"
        },
        {
          "internalType": "address",
          "name": "_sSGTToken",
          "type": "address"
        }
      ],
      "stateMutability": "nonpayable",
      "type": "constructor"
    },
    {
      "inputs": [
        {
          "internalType": "address",
          "name": "owner",
          "type": "address"
        }
      ],
      "name": "OwnableInvalidOwner",
      "type": "error"
    },
    {
      "inputs": [
        {
          "internalType": "address",
          "name": "account",
          "type": "address"
        }
      ],
      "name": "OwnableUnauthorizedAccount",
      "type": "error"
    },
    {
      "inputs": [],
      "name": "ReentrancyGuardReentrantCall",
      "type": "error"
    },
    {
      "anonymous": false,
      "inputs": [
        {
          "indexed": true,
          "internalType": "address",
          "name": "operator",
          "type": "address"
        },
        {
          "indexed": false,
          "internalType": "string",
          "name": "name",
          "type": "string"
        },
        {
          "indexed": false,
          "internalType": "uint256",
          "name": "commission",
          "type": "uint256"
        }
      ],
      "name": "OperatorRegistered",
      "type": "event"
    },
    {
      "anonymous": false,
      "inputs": [
        {
          "indexed": true,
          "internalType": "address",
          "name": "operator",
          "type": "address"
        },
        {
          "indexed": false,
          "internalType": "uint256",
          "name": "commission",
          "type": "uint256"
        },
        {
          "indexed": false,
          "internalType": "bool",
          "name": "active",
          "type": "bool"
        }
      ],
      "name": "OperatorUpdated",
      "type": "event"
    },
    {
      "anonymous": false,
      "inputs": [
        {
          "indexed": true,
          "internalType": "address",
          "name": "previousOwner",
          "type": "address"
        },
        {
          "indexed": true,
          "internalType": "address",
          "name": "newOwner",
          "type": "address"
        }
      ],
      "name": "OwnershipTransferred",
      "type": "event"
    },
    {
      "anonymous": false,
      "inputs": [
        {
          "indexed": true,
          "internalType": "address",
          "name": "protocol",
          "type": "address"
        },
        {
          "indexed": false,
          "internalType": "string",
          "name": "name",
          "type": "string"
        },
        {
          "indexed": false,
          "internalType": "uint256",
          "name": "baseAPY",
          "type": "uint256"
        }
      ],
      "name": "ProtocolIntegrated",
      "type": "event"
    },
    {
      "anonymous": false,
      "inputs": [
        {
          "indexed": true,
          "internalType": "address",
          "name": "user",
          "type": "address"
        },
        {
          "indexed": true,
          "internalType": "address",
          "name": "operator",
          "type": "address"
        },
        {
          "indexed": false,
          "internalType": "uint256",
          "name": "amount",
          "type": "uint256"
        },
        {
          "indexed": false,
          "internalType": "uint256",
          "name": "timestamp",
          "type": "uint256"
        }
      ],
      "name": "Restaked",
      "type": "event"
    },
    {
      "anonymous": false,
      "inputs": [
        {
          "indexed": true,
          "internalType": "address",
          "name": "user",
          "type": "address"
        },
        {
          "indexed": false,
          "internalType": "uint256",
          "name": "amount",
          "type": "uint256"
        }
      ],
      "name": "RewardsClaimed",
      "type": "event"
    },
    {
      "anonymous": false,
      "inputs": [
        {
          "indexed": true,
          "internalType": "address",
          "name": "user",
          "type": "address"
        },
        {
          "indexed": true,
          "internalType": "address",
          "name": "operator",
          "type": "address"
        },
        {
          "indexed": false,
          "internalType": "uint256",
          "name": "amount",
          "type": "uint256"
        },
        {
          "indexed": false,
          "internalType": "uint256",
          "name": "timestamp",
          "type": "uint256"
        }
      ],
      "name": "Unrestaked",
      "type": "event"
    },
    {
      "anonymous": false,
      "inputs": [
        {
          "indexed": true,
          "internalType": "address",
          "name": "operator",
          "type": "address"
        },
        {
          "indexed": false,
          "internalType": "uint256",
          "name": "totalAmount",
          "type": "uint256"
        },
        {
          "indexed": false,
          "internalType": "uint256",
          "name": "timestamp",
          "type": "uint256"
        }
      ],
      "name": "YieldDistributed",
      "type": "event"
    },
    {
      "inputs": [],
      "name": "BASIS_POINTS",
      "outputs": [
        {
          "internalType": "uint256",
          "name": "",
          "type": "uint256"
        }
      ],
      "stateMutability": "view",
      "type": "function"
    },
    {
      "inputs": [
        {
          "internalType": "uint256",
          "name": "restakingIndex",
          "type": "uint256"
        }
      ],
      "name": "claimRewards",
      "outputs": [],
      "stateMutability": "nonpayable",
      "type": "function"
    },
    {
      "inputs": [
        {
          "internalType": "address",
          "name": "operator",
          "type": "address"
        },
        {
          "internalType": "uint256",
          "name": "amount",
          "type": "uint256"
        }
      ],
      "name": "distributeYield",
      "outputs": [],
      "stateMutability": "nonpayable",
      "type": "function"
    },
    {
      "inputs": [],
      "name": "getActiveOperators",
      "outputs": [
        {
          "internalType": "address[]",
          "name": "",
          "type": "address[]"
        }
      ],
      "stateMutability": "view",
      "type": "function"
    },
    {
      "inputs": [
        {
          "internalType": "address",
          "name": "user",
          "type": "address"
        },
        {
          "internalType": "uint256",
          "name": "index",
          "type": "uint256"
        }
      ],
      "name": "getActiveRestaking",
      "outputs": [
        {
          "internalType": "address",
          "name": "operator",
          "type": "address"
        },
        {
          "internalType": "uint256",
          "name": "amount",
          "type": "uint256"
        },
        {
          "internalType": "uint256",
          "name": "startTime",
          "type": "uint256"
        },
        {
          "internalType": "uint256",
          "name": "pendingRewards",
          "type": "uint256"
        },
        {
          "internalType": "bool",
          "name": "active",
          "type": "bool"
        }
      ],
      "stateMutability": "view",
      "type": "function"
    },
    {
      "inputs": [
        {
          "internalType": "address",
          "name": "operator",
          "type": "address"
        }
      ],
      "name": "getOperatorInfo",
      "outputs": [
        {
          "internalType": "string",
          "name": "name",
          "type": "string"
        },
        {
          "internalType": "uint256",
          "name": "commission",
          "type": "uint256"
        },
        {
          "internalType": "uint256",
          "name": "totalRestaked",
          "type": "uint256"
        },
        {
          "internalType": "uint256",
          "name": "maxCapacity",
          "type": "uint256"
        },
        {
          "internalType": "uint256",
          "name": "reputationScore",
          "type": "uint256"
        },
        {
          "internalType": "uint256",
          "name": "uptime",
          "type": "uint256"
        },
        {
          "internalType": "bool",
          "name": "active",
          "type": "bool"
        }
      ],
      "stateMutability": "view",
      "type": "function"
    },
    {
      "inputs": [
        {
          "internalType": "address",
          "name": "user",
          "type": "address"
        }
      ],
      "name": "getUserRestakings",
      "outputs": [
        {
          "components": [
            {
              "internalType": "address",
              "name": "user",
              "type": "address"
            },
            {
              "internalType": "address",
              "name": "operator",
              "type": "address"
            },
            {
              "internalType": "uint256",
              "name": "amount",
              "type": "uint256"
            },
            {
              "internalType": "uint256",
              "name": "startTime",
              "type": "uint256"
            },
            {
              "internalType": "uint256",
              "name": "lastClaimTime",
              "type": "uint256"
            },
            {
              "internalType": "uint256",
              "name": "rewardsAccrued",
              "type": "uint256"
            },
            {
              "internalType": "bool",
              "name": "active",
              "type": "bool"
            }
          ],
          "internalType": "struct RestakeHub.Restaking[]",
          "name": "",
          "type": "tuple[]"
        }
      ],
      "stateMutability": "view",
      "type": "function"
    },
    {
      "inputs": [
        {
          "internalType": "address",
          "name": "protocolAddress",
          "type": "address"
        },
        {
          "internalType": "string",
          "name": "name",
          "type": "string"
        },
        {
          "internalType": "uint256",
          "name": "baseAPY",
          "type": "uint256"
        }
      ],
      "name": "integrateProtocol",
      "outputs": [],
      "stateMutability": "nonpayable",
      "type": "function"
    },
    {
      "inputs": [],
      "name": "minRestakeAmount",
      "outputs": [
        {
          "internalType": "uint256",
          "name": "",
          "type": "uint256"
        }
      ],
      "stateMutability": "view",
      "type": "function"
    },
    {
      "inputs": [
        {
          "internalType": "uint256",
          "name": "",
          "type": "uint256"
        }
      ],
      "name": "operatorList",
      "outputs": [
        {
          "internalType": "address",
          "name": "",
          "type": "address"
        }
      ],
      "stateMutability": "view",
      "type": "function"
    },
    {
      "inputs": [
        {
          "internalType": "address",
          "name": "",
          "type": "address"
        }
      ],
      "name": "operatorRewards",
      "outputs": [
        {
          "internalType": "uint256",
          "name": "",
          "type": "uint256"
        }
      ],
      "stateMutability": "view",
      "type": "function"
    },
    {
      "inputs": [
        {
          "internalType": "address",
          "name": "",
          "type": "address"
        }
      ],
      "name": "operators",
      "outputs": [
        {
          "internalType": "address",
          "name": "operatorAddress",
          "type": "address"
        },
        {
          "internalType": "string",
          "name": "name",
          "type": "string"
        },
        {
          "internalType": "uint256",
          "name": "commission",
          "type": "uint256"
        },
        {
          "internalType": "uint256",
          "name": "totalRestaked",
          "type": "uint256"
        },
        {
          "internalType": "uint256",
          "name": "maxCapacity",
          "type": "uint256"
        },
        {
          "internalType": "bool",
          "name": "active",
          "type": "bool"
        },
        {
          "internalType": "uint256",
          "name": "reputationScore",
          "type": "uint256"
        },
        {
          "internalType": "uint256",
          "name": "uptime",
          "type": "uint256"
        }
      ],
      "stateMutability": "view",
      "type": "function"
    },
    {
      "inputs": [],
      "name": "owner",
      "outputs": [
        {
          "internalType": "address",
          "name": "",
          "type": "address"
        }
      ],
      "stateMutability": "view",
      "type": "function"
    },
    {
      "inputs": [
        {
          "internalType": "uint256",
          "name": "",
          "type": "uint256"
        }
      ],
      "name": "protocolList",
      "outputs": [
        {
          "internalType": "address",
          "name": "",
          "type": "address"
        }
      ],
      "stateMutability": "view",
      "type": "function"
    },
    {
      "inputs": [
        {
          "internalType": "address",
          "name": "",
          "type": "address"
        }
      ],
      "name": "protocols",
      "outputs": [
        {
          "internalType": "address",
          "name": "protocolAddress",
          "type": "address"
        },
        {
          "internalType": "string",
          "name": "name",
          "type": "string"
        },
        {
          "internalType": "uint256",
          "name": "baseAPY",
          "type": "uint256"
        },
        {
          "internalType": "bool",
          "name": "active",
          "type": "bool"
        }
      ],
      "stateMutability": "view",
      "type": "function"
    },
    {
      "inputs": [
        {
          "internalType": "string",
          "name": "name",
          "type": "string"
        },
        {
          "internalType": "uint256",
          "name": "commission",
          "type": "uint256"
        },
        {
          "internalType": "uint256",
          "name": "maxCapacity",
          "type": "uint256"
        }
      ],
      "name": "registerOperator",
      "outputs": [],
      "stateMutability": "nonpayable",
      "type": "function"
    },
    {
      "inputs": [],
      "name": "renounceOwnership",
      "outputs": [],
      "stateMutability": "nonpayable",
      "type": "function"
    },
    {
      "inputs": [
        {
          "internalType": "address",
          "name": "operator",
          "type": "address"
        },
        {
          "internalType": "uint256",
          "name": "amount",
          "type": "uint256"
        },
        {
          "internalType": "bool",
          "name": "useSGT",
          "type": "bool"
        }
      ],
      "name": "restake",
      "outputs": [],
      "stateMutability": "nonpayable",
      "type": "function"
    },
    {
      "inputs": [],
      "name": "sSGTToken",
      "outputs": [
        {
          "internalType": "contract IERC20",
          "name": "",
          "type": "address"
        }
      ],
      "stateMutability": "view",
      "type": "function"
    },
    {
      "inputs": [
        {
          "internalType": "uint256",
          "name": "newMin",
          "type": "uint256"
        }
      ],
      "name": "setMinRestakeAmount",
      "outputs": [],
      "stateMutability": "nonpayable",
      "type": "function"
    },
    {
      "inputs": [
        {
          "internalType": "uint256",
          "name": "newPeriod",
          "type": "uint256"
        }
      ],
      "name": "setUnstakeLockPeriod",
      "outputs": [],
      "stateMutability": "nonpayable",
      "type": "function"
    },
    {
      "inputs": [],
      "name": "sgtToken",
      "outputs": [
        {
          "internalType": "contract IERC20",
          "name": "",
          "type": "address"
        }
      ],
      "stateMutability": "view",
      "type": "function"
    },
    {
      "inputs": [],
      "name": "totalRestaked",
      "outputs": [
        {
          "internalType": "uint256",
          "name": "",
          "type": "uint256"
        }
      ],
      "stateMutability": "view",
      "type": "function"
    },
    {
      "inputs": [
        {
          "internalType": "address",
          "name": "newOwner",
          "type": "address"
        }
      ],
      "name": "transferOwnership",
      "outputs": [],
      "stateMutability": "nonpayable",
      "type": "function"
    },
    {
      "inputs": [
        {
          "internalType": "uint256",
          "name": "restakingIndex",
          "type": "uint256"
        }
      ],
      "name": "unrestake",
      "outputs": [],
      "stateMutability": "nonpayable",
      "type": "function"
    },
    {
      "inputs": [],
      "name": "unstakeLockPeriod",
      "outputs": [
        {
          "internalType": "uint256",
          "name": "",
          "type": "uint256"
        }
      ],
      "stateMutability": "view",
      "type": "function"
    },
    {
      "inputs": [
        {
          "internalType": "uint256",
          "name": "newCommission",
          "type": "uint256"
        },
        {
          "internalType": "uint256",
          "name": "newMaxCapacity",
          "type": "uint256"
        },
        {
          "internalType": "bool",
          "name": "active",
          "type": "bool"
        }
      ],
      "name": "updateOperator",
      "outputs": [],
      "stateMutability": "nonpayable",
      "type": "function"
    },
    {
      "inputs": [
        {
          "internalType": "address",
          "name": "operator",
          "type": "address"
        },
        {
          "internalType": "uint256",
          "name": "reputationScore",
          "type": "uint256"
        },
        {
          "internalType": "uint256",
          "name": "uptime",
          "type": "uint256"
        }
      ],
      "name": "updateOperatorMetrics",
      "outputs": [],
      "stateMutability": "nonpayable",
      "type": "function"
    },
    {
      "inputs": [
        {
          "internalType": "address",
          "name": "",
          "type": "address"
        },
        {
          "internalType": "uint256",
          "name": "",
          "type": "uint256"
        }
      ],
      "name": "userRestakings",
      "outputs": [
        {
          "internalType": "address",
          "name": "user",
          "type": "address"
        },
        {
          "internalType": "address",
          "name": "operator",
          "type": "address"
        },
        {
          "internalType": "uint256",
          "name": "amount",
          "type": "uint256"
        },
        {
          "internalType": "uint256",
          "name": "startTime",
          "type": "uint256"
        },
        {
          "internalType": "uint256",
          "name": "lastClaimTime",
          "type": "uint256"
        },
        {
          "internalType": "uint256",
          "name": "rewardsAccrued",
          "type": "uint256"
        },
        {
          "internalType": "bool",
          "name": "active",
          "type": "bool"
        }
      ],
      "stateMutability": "view",
      "type": "function"
    }
  ],
  "bytecode": "0x608060405268056bc75e2d63100000600b5562093a80600c553480156200002557600080fd5b50604051620026593803806200265983398101604081905262000048916200018e565b33806200007057604051631e4fbdf760e01b8152600060048201526024015b60405180910390fd5b6200007b8162000121565b50600180556001600160a01b03821615801590620000a157506001600160a01b03811615155b620000ef5760405162461bcd60e51b815260206004820152601760248201527f496e76616c696420746f6b656e20616464726573736573000000000000000000604482015260640162000067565b600280546001600160a01b039384166001600160a01b03199182161790915560038054929093169116179055620001c6565b600080546001600160a01b038381166001600160a01b0319831681178455604051919092169283917f8be0079c531659141344cd1fd0a4f28419497f9722a3daafe3b4186f6b6457e09190a35050565b80516001600160a01b03811681146200018957600080fd5b919050565b60008060408385031215620001a257600080fd5b620001ad8362000171565b9150620001bd6020840162000171565b90509250929050565b61248380620001d66000396000f3fe608060405234801561001057600080fd5b50600436106101cf5760003560e01c8063703aa2e811610104578063bd4ba9c0116100a2578063dd85ce8711610071578063dd85ce871461047a578063e1f1c4a71461048d578063f2fde38b14610496578063fa87e219146104a957600080fd5b8063bd4ba9c01461042e578063cb38f40714610441578063d2d3069914610454578063d4e7721f1461046757600080fd5b80638da5cb5b116100de5780638da5cb5b146103a357806398f198ac146103b4578063b6b981c4146103c7578063baf4a8851461040e57600080fd5b8063703aa2e814610389578063715018a6146103925780637548bb2a1461039a57600080fd5b80632e1eb1861161017157806341a2b8d61161014b57806341a2b8d61461032e57806364bdc67e1461034e5780636627631b146103635780636d0ef8d41461037657600080fd5b80632e1eb186146102b35780633493b8b314610308578063356aabf61461031b57600080fd5b8063166ff030116101ad578063166ff0301461024057806326638a0a1461025357806326bf1c031461027657806327d9ab5d1461028d57600080fd5b806307c28c26146101d45780630962ef791461020457806313e7c9d814610219575b600080fd5b6101e76101e2366004611d55565b6104bc565b6040516001600160a01b0390911681526020015b60405180910390f35b610217610212366004611d55565b6104e6565b005b61022c610227366004611d8a565b61053b565b6040516101fb989796959493929190611df2565b6002546101e7906001600160a01b031681565b610266610261366004611d8a565b610614565b6040516101fb9493929190611e4a565b61027f600c5481565b6040519081526020016101fb565b6102a061029b366004611d8a565b6106d3565b6040516101fb9796959493929190611e86565b6102c66102c1366004611ecc565b610832565b604080516001600160a01b039889168152979096166020880152948601939093526060850191909152608084015260a0830152151560c082015260e0016101fb565b610217610316366004611f04565b61089c565b610217610329366004611d55565b6109b1565b61027f61033c366004611d8a565b60076020526000908152604090205481565b610356610c00565b6040516101fb9190611f3d565b610217610371366004611d55565b610d84565b610217610384366004611d55565b610d91565b61027f600b5481565b610217610de3565b61027f600a5481565b6000546001600160a01b03166101e7565b6003546101e7906001600160a01b031681565b6103da6103d5366004611ecc565b610df7565b604080516001600160a01b03909616865260208601949094529284019190915260608301521515608082015260a0016101fb565b61042161041c366004611d8a565b610f03565b6040516101fb9190611f8a565b61021761043c366004611ecc565b610fcb565b6101e761044f366004611d55565b611119565b610217610462366004612063565b611129565b6102176104753660046120bd565b611321565b61021761048836600461210e565b611592565b61027f61271081565b6102176104a4366004611d8a565b61164c565b6102176104b7366004612141565b611687565b600981815481106104cc57600080fd5b6000918252602090912001546001600160a01b0316905081565b6104ee61198d565b3360009081526005602052604090205481106105255760405162461bcd60e51b815260040161051c90612176565b60405180910390fd5b61052f33826119b7565b61053860018055565b50565b600460205260009081526040902080546001820180546001600160a01b0390921692916105679061219d565b80601f01602080910402602001604051908101604052809291908181526020018280546105939061219d565b80156105e05780601f106105b5576101008083540402835291602001916105e0565b820191906000526020600020905b8154815290600101906020018083116105c357829003601f168201915b505050600284015460038501546004860154600587015460068801546007909801549697939692955090935060ff16919088565b600660205260009081526040902080546001820180546001600160a01b0390921692916106409061219d565b80601f016020809104026020016040519081016040528092919081815260200182805461066c9061219d565b80156106b95780601f1061068e576101008083540402835291602001916106b9565b820191906000526020600020905b81548152906001019060200180831161069c57829003601f168201915b50505050600283015460039093015491929160ff16905084565b6001600160a01b03808216600090815260046020908152604080832081516101008101909252805490941681526001840180546060958594859485948594859485949092908401916107249061219d565b80601f01602080910402602001604051908101604052809291908181526020018280546107509061219d565b801561079d5780601f106107725761010080835404028352916020019161079d565b820191906000526020600020905b81548152906001019060200180831161078057829003601f168201915b505050505081526020016002820154815260200160038201548152602001600482015481526020016005820160009054906101000a900460ff1615151515815260200160068201548152602001600782015481525050905080602001518160400151826060015183608001518460c001518560e001518660a00151975097509750975097509750975050919395979092949650565b6005602052816000526040600020818154811061084e57600080fd5b600091825260209091206007909102018054600182015460028301546003840154600485015460058601546006909601546001600160a01b0395861698509490931695509093909260ff1687565b3360009081526004602052604090206005015460ff16806108bb575080155b6108f85760405162461bcd60e51b815260206004820152600e60248201526d139bdd081c9959da5cdd195c995960921b604482015260640161051c565b6107d08311156109405760405162461bcd60e51b8152602060048201526013602482015272086dedadad2e6e6d2dedc40e8dede40d0d2ced606b1b604482015260640161051c565b336000818152600460208181526040928390206002810188905591820186905560058201805460ff19168615159081179091558351888152918201529092917fb9b48cbb9bbcbb8bf83160b3e9e9136f95689bf56c10b478e7883d559208c6a991015b60405180910390a250505050565b6109b961198d565b3360009081526005602052604090205481106109e75760405162461bcd60e51b815260040161051c90612176565b336000908152600560205260408120805483908110610a0857610a086121d7565b60009182526020909120600790910201600681015490915060ff16610a5c5760405162461bcd60e51b815260206004820152600a6024820152694e6f742061637469766560b01b604482015260640161051c565b600c548160030154610a6e9190612203565b421015610aac5760405162461bcd60e51b815260206004820152600c60248201526b14dd1a5b1b081b1bd8dad95960a21b604482015260640161051c565b600281015460018201546001600160a01b0316610ac933856119b7565b60068301805460ff191690556001600160a01b03811660009081526004602052604081206003018054849290610b00908490612216565b9250508190555081600a6000828254610b199190612216565b909155505060025460405163a9059cbb60e01b8152336004820152602481018490526001600160a01b039091169063a9059cbb906044016020604051808303816000875af1158015610b6f573d6000803e3d6000fd5b505050506040513d601f19601f82011682018060405250810190610b939190612229565b610baf5760405162461bcd60e51b815260040161051c90612246565b604080518381524260208201526001600160a01b0383169133917f20e7bfaa98f929f7296b2130e0a91084e333a8222f77963cb4c8a5822625f158910160405180910390a350505061053860018055565b60606000805b600854811015610c6d576004600060088381548110610c2757610c276121d7565b60009182526020808320909101546001600160a01b0316835282019290925260400190206005015460ff1615610c655781610c618161226f565b9250505b600101610c06565b5060008167ffffffffffffffff811115610c8957610c89612288565b604051908082528060200260200182016040528015610cb2578160200160208202803683370190505b5090506000805b600854811015610d7b576004600060088381548110610cda57610cda6121d7565b60009182526020808320909101546001600160a01b0316835282019290925260400190206005015460ff1615610d735760088181548110610d1d57610d1d6121d7565b9060005260206000200160009054906101000a90046001600160a01b0316838381518110610d4d57610d4d6121d7565b6001600160a01b039092166020928302919091019091015281610d6f8161226f565b9250505b600101610cb9565b50909392505050565b610d8c611bcd565b600b55565b610d99611bcd565b62278d00811115610dde5760405162461bcd60e51b815260206004820152600f60248201526e506572696f6420746f6f206c6f6e6760881b604482015260640161051c565b600c55565b610deb611bcd565b610df56000611bfa565b565b6001600160a01b03821660009081526005602052604081205481908190819081908610610e365760405162461bcd60e51b815260040161051c90612176565b6001600160a01b0387166000908152600560205260408120805488908110610e6057610e606121d7565b600091825260208083206040805160e081018252600790940290910180546001600160a01b039081168552600182015416928401929092526002820154908301526003810154606083015260048101546080830152600581015460a08301526006015460ff16151560c08201529150610ed98989611c4a565b60208301516040840151606085015160c090950151919c909b509399509097509550909350505050565b6001600160a01b0381166000908152600560209081526040808320805482518185028101850190935280835260609492939192909184015b82821015610fc05760008481526020908190206040805160e0810182526007860290920180546001600160a01b039081168452600180830154909116848601526002820154928401929092526003810154606084015260048101546080840152600581015460a08401526006015460ff16151560c08301529083529092019101610f3b565b505050509050919050565b610fd3611bcd565b6001600160a01b03821660009081526004602052604090206005015460ff1661100e5760405162461bcd60e51b815260040161051c9061229e565b6002546040516323b872dd60e01b8152336004820152306024820152604481018390526001600160a01b03909116906323b872dd906064016020604051808303816000875af1158015611065573d6000803e3d6000fd5b505050506040513d601f19601f820116820180604052508101906110899190612229565b6110a55760405162461bcd60e51b815260040161051c90612246565b6001600160a01b038216600090815260076020526040812080548392906110cd908490612203565b9091555050604080518281524260208201526001600160a01b038416917feb7e0363c2ab135c59a60c2c11ff34cf51eb456ec3b0b41852c4c4fd22116b4a910160405180910390a25050565b600881815481106104cc57600080fd5b611131611bcd565b6001600160a01b0384166111795760405162461bcd60e51b815260206004820152600f60248201526e496e76616c6964206164647265737360881b604482015260640161051c565b6001600160a01b03841660009081526006602052604090206003015460ff16156111da5760405162461bcd60e51b8152602060048201526012602482015271105b1c9958591e481a5b9d1959dc985d195960721b604482015260640161051c565b6040518060800160405280856001600160a01b0316815260200184848080601f01602080910402602001604051908101604052809392919081815260200183838082843760009201829052509385525050506020808301859052600160409384018190526001600160a01b0389811684526006835293909220845181546001600160a01b03191694169390931783558301519082019061127a908261231b565b5060408281015160028301556060909201516003909101805460ff1916911515919091179055600980546001810182556000919091527f6e1540171b6c0c960b71a7020d9f60077f6af931a8bbf590da0223dacf75c7af0180546001600160a01b0319166001600160a01b03871690811790915590517fa4d6b8e63a4e5c7ba09643d60b42b2642d4178a62e0ce2ae03bd6efe849720a3906109a3908690869086906123db565b3360009081526004602052604090206005015460ff16156113795760405162461bcd60e51b8152602060048201526012602482015271105b1c9958591e481c9959da5cdd195c995960721b604482015260640161051c565b6107d08211156113c15760405162461bcd60e51b8152602060048201526013602482015272086dedadad2e6e6d2dedc40e8dede40d0d2ced606b1b604482015260640161051c565b683635c9adc5dea0000081101561140d5760405162461bcd60e51b815260206004820152601060248201526f436170616369747920746f6f206c6f7760801b604482015260640161051c565b604051806101000160405280336001600160a01b0316815260200185858080601f01602080910402602001604051908101604052809392919081815260200183838082843760009201829052509385525050506020808301869052604080840183905260608401869052600160808501819052606460a0860181905260c09095019490945233835260048252909120835181546001600160a01b0319166001600160a01b039091161781559083015190918201906114cb908261231b565b506040828101516002830155606083015160038301556080830151600483015560a083015160058301805460ff191691151591909117905560c0830151600683015560e090920151600790910155600880546001810182556000919091527ff3f7a9fe364faab93b216da50a3214154f22a0a2b415b23a84c8169e8b636ee3018054336001600160a01b0319909116811790915590517f0325e023e75ac2114042e38b0fee854bc331624f22d72bb6c3a6dc9f4f25638d906109a3908790879087906123db565b61159a611bcd565b6001600160a01b03831660009081526004602052604090206005015460ff166115d55760405162461bcd60e51b815260040161051c9061229e565b606482111580156115e7575060648111155b6116255760405162461bcd60e51b815260206004820152600f60248201526e496e76616c6964206d65747269637360881b604482015260640161051c565b6001600160a01b039092166000908152600460205260409020600681019190915560070155565b611654611bcd565b6001600160a01b03811661167e57604051631e4fbdf760e01b81526000600482015260240161051c565b61053881611bfa565b61168f61198d565b6001600160a01b03831660009081526004602052604090206005015460ff166116ca5760405162461bcd60e51b815260040161051c9061229e565b600b5482101561170d5760405162461bcd60e51b815260206004820152600e60248201526d416d6f756e7420746f6f206c6f7760901b604482015260640161051c565b6001600160a01b038316600090815260046020819052604090912090810154600382015461173c908590612203565b11156117815760405162461bcd60e51b81526020600482015260146024820152734f70657261746f7220617420636170616369747960601b604482015260640161051c565b600082611799576003546001600160a01b03166117a6565b6002546001600160a01b03165b6040516323b872dd60e01b8152336004820152306024820152604481018690529091506001600160a01b038216906323b872dd906064016020604051808303816000875af11580156117fc573d6000803e3d6000fd5b505050506040513d601f19601f820116820180604052508101906118209190612229565b61183c5760405162461bcd60e51b815260040161051c90612246565b336000818152600560208181526040808420815160e0810183529586526001600160a01b038b81168785019081529287018b8152426060890181815260808a0191825260a08a01898152600160c08c0181815287548083018955978c52988b209b516007909702909b0180549686166001600160a01b031997881617815596519a870180549b9095169a909516999099179092555160028401559551600380840191909155955160048301555192810192909255516006909101805491151560ff19909216919091179055908301805486929061191a908490612203565b9250508190555083600a60008282546119339190612203565b9091555050604080518581524260208201526001600160a01b0387169133917ffe6033bff7b824611801ae0a406210e36c3eeb8bc4572d54ea4cd9b764ee8060910160405180910390a3505061198860018055565b505050565b6002600154036119b057604051633ee5aeb560e01b815260040160405180910390fd5b6002600155565b6001600160a01b03821660009081526005602052604081208054839081106119e1576119e16121d7565b60009182526020909120600790910201600681015490915060ff16611a355760405162461bcd60e51b815260206004820152600a6024820152694e6f742061637469766560b01b604482015260640161051c565b6000611a418484611c4a565b90508015611bc75780826005016000828254611a5d9190612203565b90915550504260048084019190915560018301546001600160a01b0316600090815260209190915260408120600281015490919061271090611a9f9085612414565b611aa9919061242b565b90506000611ab78285612216565b60018601546001600160a01b0316600090815260076020526040812080549293508492909190611ae8908490612203565b909155505060025460405163a9059cbb60e01b81526001600160a01b038981166004830152602482018490529091169063a9059cbb906044016020604051808303816000875af1158015611b40573d6000803e3d6000fd5b505050506040513d601f19601f82011682018060405250810190611b649190612229565b611b805760405162461bcd60e51b815260040161051c90612246565b866001600160a01b03167ffc30cddea38e2bf4d6ea7d3f9ed3b6ad7f176419f4963bd81318067a4aee73fe82604051611bbb91815260200190565b60405180910390a25050505b50505050565b6000546001600160a01b03163314610df55760405163118cdaa760e01b815233600482015260240161051c565b600080546001600160a01b038381166001600160a01b0319831681178455604051919092169283917f8be0079c531659141344cd1fd0a4f28419497f9722a3daafe3b4186f6b6457e09190a35050565b6001600160a01b0382166000908152600560205260408120805482919084908110611c7757611c776121d7565b60009182526020918290206040805160e081018252600790930290910180546001600160a01b039081168452600182015416938301939093526002830154908201526003820154606082015260048201546080820152600582015460a082015260069091015460ff16151560c08201819052909150611cfa576000915050611d4f565b6000816080015142611d0c9190612216565b90506105dc6000611d236127106301e13380612414565b83838660400151611d349190612414565b611d3e9190612414565b611d48919061242b565b9450505050505b92915050565b600060208284031215611d6757600080fd5b5035919050565b80356001600160a01b0381168114611d8557600080fd5b919050565b600060208284031215611d9c57600080fd5b611da582611d6e565b9392505050565b6000815180845260005b81811015611dd257602081850181015186830182015201611db6565b506000602082860101526020601f19601f83011685010191505092915050565b6001600160a01b038916815261010060208201819052600090611e178382018b611dac565b604084019990995250506060810195909552608085019390935290151560a084015260c083015260e09091015292915050565b6001600160a01b0385168152608060208201819052600090611e6e90830186611dac565b60408301949094525090151560609091015292915050565b60e081526000611e9960e083018a611dac565b60208301989098525060408101959095526060850193909352608084019190915260a0830152151560c090910152919050565b60008060408385031215611edf57600080fd5b611ee883611d6e565b946020939093013593505050565b801515811461053857600080fd5b600080600060608486031215611f1957600080fd5b83359250602084013591506040840135611f3281611ef6565b809150509250925092565b6020808252825182820181905260009190848201906040850190845b81811015611f7e5783516001600160a01b031683529284019291840191600101611f59565b50909695505050505050565b602080825282518282018190526000919060409081850190868401855b8281101561200d57815180516001600160a01b0390811686528782015116878601528581015186860152606080820151908601526080808201519086015260a0808201519086015260c09081015115159085015260e09093019290850190600101611fa7565b5091979650505050505050565b60008083601f84011261202c57600080fd5b50813567ffffffffffffffff81111561204457600080fd5b60208301915083602082850101111561205c57600080fd5b9250929050565b6000806000806060858703121561207957600080fd5b61208285611d6e565b9350602085013567ffffffffffffffff81111561209e57600080fd5b6120aa8782880161201a565b9598909750949560400135949350505050565b600080600080606085870312156120d357600080fd5b843567ffffffffffffffff8111156120ea57600080fd5b6120f68782880161201a565b90989097506020870135966040013595509350505050565b60008060006060848603121561212357600080fd5b61212c84611d6e565b95602085013595506040909401359392505050565b60008060006060848603121561215657600080fd5b61215f84611d6e565b9250602084013591506040840135611f3281611ef6565b6020808252600d908201526c092dcecc2d8d2c840d2dcc8caf609b1b604082015260600190565b600181811c908216806121b157607f821691505b6020821081036121d157634e487b7160e01b600052602260045260246000fd5b50919050565b634e487b7160e01b600052603260045260246000fd5b634e487b7160e01b600052601160045260246000fd5b80820180821115611d4f57611d4f6121ed565b81810381811115611d4f57611d4f6121ed565b60006020828403121561223b57600080fd5b8151611da581611ef6565b6020808252600f908201526e151c985b9cd9995c8819985a5b1959608a1b604082015260600190565b600060018201612281576122816121ed565b5060010190565b634e487b7160e01b600052604160045260246000fd5b6020808252601390820152724f70657261746f72206e6f742061637469766560681b604082015260600190565b601f821115611988576000816000526020600020601f850160051c810160208610156122f45750805b601f850160051c820191505b8181101561231357828155600101612300565b505050505050565b815167ffffffffffffffff81111561233557612335612288565b61234981612343845461219d565b846122cb565b602080601f83116001811461237e57600084156123665750858301515b600019600386901b1c1916600185901b178555612313565b600085815260208120601f198616915b828110156123ad5788860151825594840194600190910190840161238e565b50858210156123cb5787850151600019600388901b60f8161c191681555b5050505050600190811b01905550565b604081528260408201528284606083013760006060848301015260006060601f19601f8601168301019050826020830152949350505050565b8082028115828204841417611d4f57611d4f6121ed565b60008261244857634e487b7160e01b600052601260045260246000fd5b50049056fea2646970667358221220ab0575c12fbaec24ad7cf63071017eb61e48f8e19b5cb4595da1cf309e9c162864736f6c63430008180033",
  "linkReferences": {},
  "deployedLinkReferences": {}
}