{
  "_format": "hh-sol-artifact-1",
  "contractName": "SGTFaucet",
  "sourceName": "contracts/SGTFaucet.sol",
  "abi": [
    {
      "inputs": [
        {
          "internalType": "address",
          "name": "_sgt",
          "type": "address"
        },
        {
          "internalType": "bool",
          "name": "_useMint",
          "type": "bool"
        }
      ],
      "stateMutability": "nonpayable",
      "type": "constructor"
    },
    {
      "inputs": [
        {
          "internalType": "address",
          "name": "owner",
          "type": "address"
        }
      ],
      "name": "OwnableInvalidOwner",
      "type": "error"
    },
    {
      "inputs": [
        {
          "internalType": "address",
          "name": "account",
          "type": "address"
        }
      ],
      "name": "OwnableUnauthorizedAccount",
      "type": "error"
    },
    {
      "anonymous": false,
      "inputs": [
        {
          "indexed": false,
          "internalType": "uint256",
          "name": "newAmount",
          "type": "uint256"
        }
      ],
      "name": "AmountPerClaimSet",
      "type": "event"
    },
    {
      "anonymous": false,
      "inputs": [
        {
          "indexed": true,
          "internalType": "address",
          "name": "user",
          "type": "address"
        },
        {
          "indexed": false,
          "internalType": "uint256",
          "name": "amount",
          "type": "uint256"
        }
      ],
      "name": "Claimed",
      "type": "event"
    },
    {
      "anonymous": false,
      "inputs": [
        {
          "indexed": true,
          "internalType": "address",
          "name": "from",
          "type": "address"
        },
        {
          "indexed": false,
          "internalType": "uint256",
          "name": "amount",
          "type": "uint256"
        }
      ],
      "name": "Funded",
      "type": "event"
    },
    {
      "anonymous": false,
      "inputs": [
        {
          "indexed": true,
          "internalType": "address",
          "name": "previousOwner",
          "type": "address"
        },
        {
          "indexed": true,
          "internalType": "address",
          "name": "newOwner",
          "type": "address"
        }
      ],
      "name": "OwnershipTransferred",
      "type": "event"
    },
    {
      "anonymous": false,
      "inputs": [
        {
          "indexed": false,
          "internalType": "bool",
          "name": "enabled",
          "type": "bool"
        }
      ],
      "name": "UseMintSet",
      "type": "event"
    },
    {
      "anonymous": false,
      "inputs": [
        {
          "indexed": true,
          "internalType": "address",
          "name": "to",
          "type": "address"
        },
        {
          "indexed": false,
          "internalType": "uint256",
          "name": "amount",
          "type": "uint256"
        }
      ],
      "name": "Withdrawn",
      "type": "event"
    },
    {
      "inputs": [],
      "name": "amountPerClaim",
      "outputs": [
        {
          "internalType": "uint256",
          "name": "",
          "type": "uint256"
        }
      ],
      "stateMutability": "view",
      "type": "function"
    },
    {
      "inputs": [
        {
          "internalType": "address",
          "name": "user",
          "type": "address"
        }
      ],
      "name": "claim",
      "outputs": [],
      "stateMutability": "nonpayable",
      "type": "function"
    },
    {
      "inputs": [
        {
          "internalType": "uint256",
          "name": "amount",
          "type": "uint256"
        }
      ],
      "name": "fund",
      "outputs": [],
      "stateMutability": "nonpayable",
      "type": "function"
    },
    {
      "inputs": [
        {
          "internalType": "address",
          "name": "",
          "type": "address"
        }
      ],
      "name": "hasClaimed",
      "outputs": [
        {
          "internalType": "bool",
          "name": "",
          "type": "bool"
        }
      ],
      "stateMutability": "view",
      "type": "function"
    },
    {
      "inputs": [
        {
          "internalType": "address",
          "name": "user",
          "type": "address"
        }
      ],
      "name": "hasUserClaimed",
      "outputs": [
        {
          "internalType": "bool",
          "name": "",
          "type": "bool"
        }
      ],
      "stateMutability": "view",
      "type": "function"
    },
    {
      "inputs": [],
      "name": "owner",
      "outputs": [
        {
          "internalType": "address",
          "name": "",
          "type": "address"
        }
      ],
      "stateMutability": "view",
      "type": "function"
    },
    {
      "inputs": [],
      "name": "renounceOwnership",
      "outputs": [],
      "stateMutability": "nonpayable",
      "type": "function"
    },
    {
      "inputs": [
        {
          "internalType": "uint256",
          "name": "newAmount",
          "type": "uint256"
        }
      ],
      "name": "setAmountPerClaim",
      "outputs": [],
      "stateMutability": "nonpayable",
      "type": "function"
    },
    {
      "inputs": [
        {
          "internalType": "bool",
          "name": "enabled",
          "type": "bool"
        }
      ],
      "name": "setUseMint",
      "outputs": [],
      "stateMutability": "nonpayable",
      "type": "function"
    },
    {
      "inputs": [],
      "name": "sgt",
      "outputs": [
        {
          "internalType": "contract ISGT",
          "name": "",
          "type": "address"
        }
      ],
      "stateMutability": "view",
      "type": "function"
    },
    {
      "inputs": [
        {
          "internalType": "address",
          "name": "newOwner",
          "type": "address"
        }
      ],
      "name": "transferOwnership",
      "outputs": [],
      "stateMutability": "nonpayable",
      "type": "function"
    },
    {
      "inputs": [],
      "name": "useMint",
      "outputs": [
        {
          "internalType": "bool",
          "name": "",
          "type": "bool"
        }
      ],
      "stateMutability": "view",
      "type": "function"
    },
    {
      "inputs": [
        {
          "internalType": "uint256",
          "name": "amount",
          "type": "uint256"
        }
      ],
      "name": "withdraw",
      "outputs": [],
      "stateMutability": "nonpayable",
      "type": "function"
    }
  ],
  "bytecode": "0x608060405269043c33c193756480000060025534801561001e57600080fd5b5060405161096138038061096183398101604081905261003d916100f4565b338061006357604051631e4fbdf760e01b81526000600482015260240160405180910390fd5b61006c816100a4565b50600180546001600160a01b0319166001600160a01b0393909316929092179091556004805460ff191691151591909117905561013f565b600080546001600160a01b038381166001600160a01b0319831681178455604051919092169283917f8be0079c531659141344cd1fd0a4f28419497f9722a3daafe3b4186f6b6457e09190a35050565b6000806040838503121561010757600080fd5b82516001600160a01b038116811461011e57600080fd5b6020840151909250801515811461013457600080fd5b809150509250929050565b6108138061014e6000396000f3fe608060405234801561001057600080fd5b50600436106100cf5760003560e01c806373b2e80e1161008c578063a195b69c11610066578063a195b69c146101b5578063ca1d209d146101e1578063f2fde38b146101f4578063f43db9c41461020757600080fd5b806373b2e80e1461015e5780638da5cb5b14610191578063a0755722146101a257600080fd5b8063013d8847146100d45780631e83409a146100f057806329997d5d146101055780632e1a7d4d14610118578063357a0ba21461012b578063715018a614610156575b600080fd5b6100dd60025481565b6040519081526020015b60405180910390f35b6101036100fe36600461074c565b610214565b005b61010361011336600461077c565b610414565b61010361012636600461077c565b610458565b60015461013e906001600160a01b031681565b6040516001600160a01b0390911681526020016100e7565b610103610545565b61018161016c36600461074c565b60036020526000908152604090205460ff1681565b60405190151581526020016100e7565b6000546001600160a01b031661013e565b6101036101b03660046107a3565b610559565b6101816101c336600461074c565b6001600160a01b031660009081526003602052604090205460ff1690565b6101036101ef36600461077c565b6105a2565b61010361020236600461074c565b610691565b6004546101819060ff1681565b6001600160a01b03811660009081526003602052604090205460ff16156102745760405162461bcd60e51b815260206004820152600f60248201526e105b1c9958591e4818db185a5b5959608a1b60448201526064015b60405180910390fd5b6001600160a01b0381166000908152600360205260409020805460ff1916600117905560045460ff1615610310576001546002546040516340c10f1960e01b81526001600160a01b03848116600483015260248201929092529116906340c10f1990604401600060405180830381600087803b1580156102f357600080fd5b505af1158015610307573d6000803e3d6000fd5b505050506103cc565b60015460025460405163a9059cbb60e01b81526001600160a01b038481166004830152602482019290925291169063a9059cbb906044016020604051808303816000875af1158015610366573d6000803e3d6000fd5b505050506040513d601f19601f8201168201806040525081019061038a91906107c0565b6103cc5760405162461bcd60e51b815260206004820152601360248201527214d1d5081d1c985b9cd9995c8819985a5b1959606a1b604482015260640161026b565b806001600160a01b03167fd8138f8a3f377c5259ca548e70e4c2de94f129f5a11036a15b69513cba2b426a60025460405161040991815260200190565b60405180910390a250565b61041c6106cf565b60028190556040518181527fec74e3005ab57e0eb5eff4a67e789f9df4339741ecca692dc0a1cde425b57252906020015b60405180910390a150565b6104606106cf565b60015460405163a9059cbb60e01b8152336004820152602481018390526001600160a01b039091169063a9059cbb906044016020604051808303816000875af11580156104b1573d6000803e3d6000fd5b505050506040513d601f19601f820116820180604052508101906104d591906107c0565b6105135760405162461bcd60e51b815260206004820152600f60248201526e15da5d1a191c985dc819985a5b1959608a1b604482015260640161026b565b60405181815233907f7084f5476618d8e60b11ef0d7d3f06914655adb8793e28ff7f018d4c76d505d590602001610409565b61054d6106cf565b61055760006106fc565b565b6105616106cf565b6004805460ff19168215159081179091556040519081527f015c9d88b415972928f19a272d778214a12c941f9a1f2f8b77e74770e7e441609060200161044d565b6105aa6106cf565b6001546040516323b872dd60e01b8152336004820152306024820152604481018390526001600160a01b03909116906323b872dd906064016020604051808303816000875af1158015610601573d6000803e3d6000fd5b505050506040513d601f19601f8201168201806040525081019061062591906107c0565b61065f5760405162461bcd60e51b815260206004820152600b60248201526a119d5b990819985a5b195960aa1b604482015260640161026b565b60405181815233907f5af8184bef8e4b45eb9f6ed7734d04da38ced226495548f46e0c8ff8d7d9a52490602001610409565b6106996106cf565b6001600160a01b0381166106c357604051631e4fbdf760e01b81526000600482015260240161026b565b6106cc816106fc565b50565b6000546001600160a01b031633146105575760405163118cdaa760e01b815233600482015260240161026b565b600080546001600160a01b038381166001600160a01b0319831681178455604051919092169283917f8be0079c531659141344cd1fd0a4f28419497f9722a3daafe3b4186f6b6457e09190a35050565b60006020828403121561075e57600080fd5b81356001600160a01b038116811461077557600080fd5b9392505050565b60006020828403121561078e57600080fd5b5035919050565b80151581146106cc57600080fd5b6000602082840312156107b557600080fd5b813561077581610795565b6000602082840312156107d257600080fd5b81516107758161079556fea2646970667358221220bf9f2a0a77d3ac9ec3b4c56f5c81cda8adcea9eaa6a9b52619d7441f6b8faace64736f6c63430008180033",
  "linkReferences": {},
  "deployedLinkReferences": {}
}