{
  "_format": "hh-sol-artifact-1",
  "contractName": "LendingProtocol",
  "sourceName": "contracts/LendingProtocol.sol",
  "abi": [
    {
      "inputs": [
        {
          "internalType": "address",
          "name": "_collateralToken",
          "type": "address"
        }
      ],
      "stateMutability": "nonpayable",
      "type": "constructor"
    },
    {
      "inputs": [
        {
          "internalType": "address",
          "name": "owner",
          "type": "address"
        }
      ],
      "name": "OwnableInvalidOwner",
      "type": "error"
    },
    {
      "inputs": [
        {
          "internalType": "address",
          "name": "account",
          "type": "address"
        }
      ],
      "name": "OwnableUnauthorizedAccount",
      "type": "error"
    },
    {
      "inputs": [],
      "name": "ReentrancyGuardReentrantCall",
      "type": "error"
    },
    {
      "inputs": [
        {
          "internalType": "address",
          "name": "token",
          "type": "address"
        }
      ],
      "name": "SafeERC20FailedOperation",
      "type": "error"
    },
    {
      "anonymous": false,
      "inputs": [
        {
          "indexed": true,
          "internalType": "address",
          "name": "asset",
          "type": "address"
        }
      ],
      "name": "AssetAdded",
      "type": "event"
    },
    {
      "anonymous": false,
      "inputs": [
        {
          "indexed": true,
          "internalType": "address",
          "name": "asset",
          "type": "address"
        }
      ],
      "name": "AssetRemoved",
      "type": "event"
    },
    {
      "anonymous": false,
      "inputs": [
        {
          "indexed": true,
          "internalType": "address",
          "name": "user",
          "type": "address"
        },
        {
          "indexed": true,
          "internalType": "address",
          "name": "asset",
          "type": "address"
        },
        {
          "indexed": false,
          "internalType": "uint256",
          "name": "amount",
          "type": "uint256"
        },
        {
          "indexed": false,
          "internalType": "uint256",
          "name": "borrowIndex",
          "type": "uint256"
        }
      ],
      "name": "Borrowed",
      "type": "event"
    },
    {
      "anonymous": false,
      "inputs": [
        {
          "indexed": true,
          "internalType": "address",
          "name": "user",
          "type": "address"
        },
        {
          "indexed": false,
          "internalType": "uint256",
          "name": "borrowIndex",
          "type": "uint256"
        },
        {
          "indexed": true,
          "internalType": "address",
          "name": "liquidator",
          "type": "address"
        }
      ],
      "name": "Liquidated",
      "type": "event"
    },
    {
      "anonymous": false,
      "inputs": [
        {
          "indexed": true,
          "internalType": "address",
          "name": "previousOwner",
          "type": "address"
        },
        {
          "indexed": true,
          "internalType": "address",
          "name": "newOwner",
          "type": "address"
        }
      ],
      "name": "OwnershipTransferred",
      "type": "event"
    },
    {
      "anonymous": false,
      "inputs": [
        {
          "indexed": true,
          "internalType": "address",
          "name": "user",
          "type": "address"
        },
        {
          "indexed": false,
          "internalType": "uint256",
          "name": "borrowIndex",
          "type": "uint256"
        },
        {
          "indexed": false,
          "internalType": "uint256",
          "name": "amount",
          "type": "uint256"
        }
      ],
      "name": "Repaid",
      "type": "event"
    },
    {
      "anonymous": false,
      "inputs": [
        {
          "indexed": true,
          "internalType": "address",
          "name": "user",
          "type": "address"
        },
        {
          "indexed": false,
          "internalType": "uint256",
          "name": "amount",
          "type": "uint256"
        }
      ],
      "name": "Supplied",
      "type": "event"
    },
    {
      "anonymous": false,
      "inputs": [
        {
          "indexed": true,
          "internalType": "address",
          "name": "user",
          "type": "address"
        },
        {
          "indexed": false,
          "internalType": "uint256",
          "name": "amount",
          "type": "uint256"
        }
      ],
      "name": "Withdrawn",
      "type": "event"
    },
    {
      "inputs": [],
      "name": "BASE_RATE",
      "outputs": [
        {
          "internalType": "uint256",
          "name": "",
          "type": "uint256"
        }
      ],
      "stateMutability": "view",
      "type": "function"
    },
    {
      "inputs": [],
      "name": "LIQUIDATION_PENALTY",
      "outputs": [
        {
          "internalType": "uint256",
          "name": "",
          "type": "uint256"
        }
      ],
      "stateMutability": "view",
      "type": "function"
    },
    {
      "inputs": [],
      "name": "LIQUIDATION_THRESHOLD",
      "outputs": [
        {
          "internalType": "uint256",
          "name": "",
          "type": "uint256"
        }
      ],
      "stateMutability": "view",
      "type": "function"
    },
    {
      "inputs": [],
      "name": "LTV_RATIO",
      "outputs": [
        {
          "internalType": "uint256",
          "name": "",
          "type": "uint256"
        }
      ],
      "stateMutability": "view",
      "type": "function"
    },
    {
      "inputs": [],
      "name": "OPTIMAL_UTILIZATION",
      "outputs": [
        {
          "internalType": "uint256",
          "name": "",
          "type": "uint256"
        }
      ],
      "stateMutability": "view",
      "type": "function"
    },
    {
      "inputs": [],
      "name": "PRECISION",
      "outputs": [
        {
          "internalType": "uint256",
          "name": "",
          "type": "uint256"
        }
      ],
      "stateMutability": "view",
      "type": "function"
    },
    {
      "inputs": [],
      "name": "RATE_SLOPE_1",
      "outputs": [
        {
          "internalType": "uint256",
          "name": "",
          "type": "uint256"
        }
      ],
      "stateMutability": "view",
      "type": "function"
    },
    {
      "inputs": [],
      "name": "RATE_SLOPE_2",
      "outputs": [
        {
          "internalType": "uint256",
          "name": "",
          "type": "uint256"
        }
      ],
      "stateMutability": "view",
      "type": "function"
    },
    {
      "inputs": [
        {
          "internalType": "address",
          "name": "asset",
          "type": "address"
        }
      ],
      "name": "addSupportedAsset",
      "outputs": [],
      "stateMutability": "nonpayable",
      "type": "function"
    },
    {
      "inputs": [
        {
          "internalType": "address",
          "name": "asset",
          "type": "address"
        },
        {
          "internalType": "uint256",
          "name": "amount",
          "type": "uint256"
        }
      ],
      "name": "borrow",
      "outputs": [],
      "stateMutability": "nonpayable",
      "type": "function"
    },
    {
      "inputs": [],
      "name": "borrowAPY",
      "outputs": [
        {
          "internalType": "uint256",
          "name": "",
          "type": "uint256"
        }
      ],
      "stateMutability": "view",
      "type": "function"
    },
    {
      "inputs": [
        {
          "internalType": "address",
          "name": "",
          "type": "address"
        },
        {
          "internalType": "uint256",
          "name": "",
          "type": "uint256"
        }
      ],
      "name": "borrows",
      "outputs": [
        {
          "internalType": "uint256",
          "name": "collateral",
          "type": "uint256"
        },
        {
          "internalType": "uint256",
          "name": "borrowed",
          "type": "uint256"
        },
        {
          "internalType": "address",
          "name": "asset",
          "type": "address"
        },
        {
          "internalType": "uint256",
          "name": "timestamp",
          "type": "uint256"
        },
        {
          "internalType": "uint256",
          "name": "interestAccrued",
          "type": "uint256"
        },
        {
          "internalType": "uint256",
          "name": "lastUpdateTime",
          "type": "uint256"
        }
      ],
      "stateMutability": "view",
      "type": "function"
    },
    {
      "inputs": [
        {
          "internalType": "address",
          "name": "user",
          "type": "address"
        },
        {
          "internalType": "uint256",
          "name": "borrowIndex",
          "type": "uint256"
        }
      ],
      "name": "calculateHealthFactor",
      "outputs": [
        {
          "internalType": "uint256",
          "name": "",
          "type": "uint256"
        }
      ],
      "stateMutability": "view",
      "type": "function"
    },
    {
      "inputs": [],
      "name": "collateralToken",
      "outputs": [
        {
          "internalType": "contract IERC20",
          "name": "",
          "type": "address"
        }
      ],
      "stateMutability": "view",
      "type": "function"
    },
    {
      "inputs": [
        {
          "internalType": "address",
          "name": "user",
          "type": "address"
        }
      ],
      "name": "getTotalBorrowed",
      "outputs": [
        {
          "internalType": "uint256",
          "name": "",
          "type": "uint256"
        }
      ],
      "stateMutability": "view",
      "type": "function"
    },
    {
      "inputs": [
        {
          "internalType": "address",
          "name": "user",
          "type": "address"
        }
      ],
      "name": "getUserBorrows",
      "outputs": [
        {
          "components": [
            {
              "internalType": "uint256",
              "name": "collateral",
              "type": "uint256"
            },
            {
              "internalType": "uint256",
              "name": "borrowed",
              "type": "uint256"
            },
            {
              "internalType": "address",
              "name": "asset",
              "type": "address"
            },
            {
              "internalType": "uint256",
              "name": "timestamp",
              "type": "uint256"
            },
            {
              "internalType": "uint256",
              "name": "interestAccrued",
              "type": "uint256"
            },
            {
              "internalType": "uint256",
              "name": "lastUpdateTime",
              "type": "uint256"
            }
          ],
          "internalType": "struct LendingProtocol.Borrow[]",
          "name": "",
          "type": "tuple[]"
        }
      ],
      "stateMutability": "view",
      "type": "function"
    },
    {
      "inputs": [
        {
          "internalType": "address",
          "name": "user",
          "type": "address"
        },
        {
          "internalType": "uint256",
          "name": "borrowIndex",
          "type": "uint256"
        }
      ],
      "name": "liquidate",
      "outputs": [],
      "stateMutability": "nonpayable",
      "type": "function"
    },
    {
      "inputs": [],
      "name": "owner",
      "outputs": [
        {
          "internalType": "address",
          "name": "",
          "type": "address"
        }
      ],
      "stateMutability": "view",
      "type": "function"
    },
    {
      "inputs": [
        {
          "internalType": "address",
          "name": "asset",
          "type": "address"
        }
      ],
      "name": "removeSupportedAsset",
      "outputs": [],
      "stateMutability": "nonpayable",
      "type": "function"
    },
    {
      "inputs": [],
      "name": "renounceOwnership",
      "outputs": [],
      "stateMutability": "nonpayable",
      "type": "function"
    },
    {
      "inputs": [
        {
          "internalType": "uint256",
          "name": "borrowIndex",
          "type": "uint256"
        },
        {
          "internalType": "uint256",
          "name": "amount",
          "type": "uint256"
        }
      ],
      "name": "repay",
      "outputs": [],
      "stateMutability": "nonpayable",
      "type": "function"
    },
    {
      "inputs": [
        {
          "internalType": "address",
          "name": "",
          "type": "address"
        }
      ],
      "name": "supplies",
      "outputs": [
        {
          "internalType": "uint256",
          "name": "amount",
          "type": "uint256"
        },
        {
          "internalType": "uint256",
          "name": "timestamp",
          "type": "uint256"
        },
        {
          "internalType": "uint256",
          "name": "interestEarned",
          "type": "uint256"
        },
        {
          "internalType": "uint256",
          "name": "lastUpdateTime",
          "type": "uint256"
        }
      ],
      "stateMutability": "view",
      "type": "function"
    },
    {
      "inputs": [
        {
          "internalType": "uint256",
          "name": "amount",
          "type": "uint256"
        }
      ],
      "name": "supply",
      "outputs": [],
      "stateMutability": "nonpayable",
      "type": "function"
    },
    {
      "inputs": [],
      "name": "supplyAPY",
      "outputs": [
        {
          "internalType": "uint256",
          "name": "",
          "type": "uint256"
        }
      ],
      "stateMutability": "view",
      "type": "function"
    },
    {
      "inputs": [
        {
          "internalType": "address",
          "name": "",
          "type": "address"
        }
      ],
      "name": "supportedAssets",
      "outputs": [
        {
          "internalType": "bool",
          "name": "",
          "type": "bool"
        }
      ],
      "stateMutability": "view",
      "type": "function"
    },
    {
      "inputs": [
        {
          "internalType": "address",
          "name": "",
          "type": "address"
        }
      ],
      "name": "totalBorrowedByAsset",
      "outputs": [
        {
          "internalType": "uint256",
          "name": "",
          "type": "uint256"
        }
      ],
      "stateMutability": "view",
      "type": "function"
    },
    {
      "inputs": [],
      "name": "totalCollateral",
      "outputs": [
        {
          "internalType": "uint256",
          "name": "",
          "type": "uint256"
        }
      ],
      "stateMutability": "view",
      "type": "function"
    },
    {
      "inputs": [],
      "name": "totalSupplied",
      "outputs": [
        {
          "internalType": "uint256",
          "name": "",
          "type": "uint256"
        }
      ],
      "stateMutability": "view",
      "type": "function"
    },
    {
      "inputs": [
        {
          "internalType": "address",
          "name": "newOwner",
          "type": "address"
        }
      ],
      "name": "transferOwnership",
      "outputs": [],
      "stateMutability": "nonpayable",
      "type": "function"
    },
    {
      "inputs": [],
      "name": "utilizationRate",
      "outputs": [
        {
          "internalType": "uint256",
          "name": "",
          "type": "uint256"
        }
      ],
      "stateMutability": "view",
      "type": "function"
    },
    {
      "inputs": [
        {
          "internalType": "uint256",
          "name": "amount",
          "type": "uint256"
        }
      ],
      "name": "withdraw",
      "outputs": [],
      "stateMutability": "nonpayable",
      "type": "function"
    }
  ],
  "bytecode": "0x60a06040523480156200001157600080fd5b5060405162001c9038038062001c90833981016040819052620000349162000126565b33806200005c57604051631e4fbdf760e01b8152600060048201526024015b60405180910390fd5b6200006781620000d6565b50600180556001600160a01b038116620000c45760405162461bcd60e51b815260206004820152601860248201527f496e76616c696420636f6c6c61746572616c20746f6b656e0000000000000000604482015260640162000053565b6001600160a01b031660805262000158565b600080546001600160a01b038381166001600160a01b0319831681178455604051919092169283917f8be0079c531659141344cd1fd0a4f28419497f9722a3daafe3b4186f6b6457e09190a35050565b6000602082840312156200013957600080fd5b81516001600160a01b03811681146200015157600080fd5b9392505050565b608051611af962000197600039600081816103f6015281816106ba015281816107ba0152818161093b01528181611045015261108b0152611af96000f3fe608060405234801561001057600080fd5b50600436106101e55760003560e01c80636c321c8a1161010f578063b2016bd4116100a2578063cf762dfa11610071578063cf762dfa14610466578063d8aed1451461046e578063f2fde38b14610481578063fac09e871461049457600080fd5b8063b2016bd4146103f1578063bcbaf48714610418578063bd81579e1461042b578063cabca6431461045e57600080fd5b806390a8ae9b116100de57806390a8ae9b146103b957806393bce638146103c15780639b8621d5146103e1578063aaf5eb68146103e957600080fd5b80636c321c8a14610371578063715018a61461037957806384212635146103815780638da5cb5b1461039457600080fd5b8063397ef642116101875780634b8a3529116101565780634b8a3529146103455780635696b189146103585780635733d94814610360578063630fd0ac1461036857600080fd5b8063397ef642146102d15780633d4e3da81461031f57806341910f901461032e5780634ac8eb5f1461033c57600080fd5b8063274cee31116101c3578063274cee31146102345780632e1a7d4d1461028b578063338a19961461029e57806335403023146102be57600080fd5b80630d408512146101ea5780631c46bc6f14610210578063211ecbcb14610225575b600080fd5b6101fd6101f8366004611917565b6104a7565b6040519081526020015b60405180910390f35b61022361021e366004611941565b6105d9565b005b6101fd67011c37937e08000081565b61026b610242366004611941565b600260208190526000918252604090912080546001820154928201546003909201549092919084565b604080519485526020850193909352918301526060820152608001610207565b610223610299366004611963565b61062a565b6102b16102ac366004611941565b610824565b604051610207919061197c565b6102236102cc366004611963565b6108d8565b6102e46102df366004611917565b6109f1565b6040805196875260208701959095526001600160a01b03909316938501939093526060840152608083019190915260a082015260c001610207565b6101fd67058d15e17628000081565b6101fd66470de4df82000081565b6101fd60075481565b610223610353366004611917565b610a4e565b6101fd604281565b6101fd610d35565b6101fd60065481565b6101fd610d6b565b610223610da8565b6101fd61038f366004611941565b610dbc565b6000546001600160a01b03165b6040516001600160a01b039091168152602001610207565b6101fd604b81565b6101fd6103cf366004611941565b60056020526000908152604090205481565b6101fd600a81565b6101fd606481565b6103a17f000000000000000000000000000000000000000000000000000000000000000081565b610223610426366004611917565b610e8a565b61044e610439366004611941565b60046020526000908152604090205460ff1681565b6040519015158152602001610207565b6101fd61115a565b6101fd605081565b61022361047c3660046119fd565b6111f8565b61022361048f366004611941565b611494565b6102236104a2366004611941565b6114cf565b6001600160a01b03821660009081526003602052604081205482106104ce575060006105d3565b6001600160a01b03831660009081526003602052604081208054849081106104f8576104f8611a1f565b600091825260208083206040805160c081018252600690940290910180548452600181015492840183905260028101546001600160a01b03169184019190915260038101546060840152600481015460808401526005015460a08301529092509003610569576000199150506105d3565b60006064604b836000015161057e9190611a4b565b6105889190611a62565b90506000826080015183602001516105a09190611a84565b9050806000036105b75760001993505050506105d3565b806105c3606484611a4b565b6105cd9190611a62565b93505050505b92915050565b6105e1611569565b6001600160a01b038116600081815260046020526040808220805460ff19169055517f37803e2125c48ee96c38ddf04e826daf335b0e1603579040fd275aba6d06b6fc9190a250565b610632611596565b336000908152600260205260409020805482111561068d5760405162461bcd60e51b8152602060048201526013602482015272496e73756666696369656e7420737570706c7960681b60448201526064015b60405180910390fd5b610696336115c0565b6007546040516370a0823160e01b8152306004820152600091906001600160a01b037f000000000000000000000000000000000000000000000000000000000000000016906370a0823190602401602060405180830381865afa158015610701573d6000803e3d6000fd5b505050506040513d601f19601f820116820180604052508101906107259190611a97565b61072f9190611ab0565b90508281101561077a5760405162461bcd60e51b8152602060048201526016602482015275496e73756666696369656e74206c697175696469747960501b6044820152606401610684565b8282600001600082825461078e9190611ab0565b9250508190555082600660008282546107a79190611ab0565b909155506107e190506001600160a01b037f0000000000000000000000000000000000000000000000000000000000000000163385611663565b60405183815233907f7084f5476618d8e60b11ef0d7d3f06914655adb8793e28ff7f018d4c76d505d59060200160405180910390a2505061082160018055565b50565b6001600160a01b0381166000908152600360209081526040808320805482518185028101850190935280835260609492939192909184015b828210156108cd5760008481526020908190206040805160c08101825260068602909201805483526001808201548486015260028201546001600160a01b03169284019290925260038101546060840152600481015460808401526005015460a0830152908352909201910161085c565b505050509050919050565b6108e0611596565b600081116109255760405162461bcd60e51b81526020600482015260126024820152710416d6f756e74206d757374206265203e20360741b6044820152606401610684565b61092e336115c0565b6109636001600160a01b037f0000000000000000000000000000000000000000000000000000000000000000163330846116c7565b336000908152600260205260408120805490918391839190610986908490611a84565b909155505042600182018190556003820155600680548391906000906109ad908490611a84565b909155505060405182815233907f6473c9f7da8f23a3d810f05b3e8fb3945f0ad17deadcc09e302cdf5d58e48fe79060200160405180910390a25061082160018055565b60036020528160005260406000208181548110610a0d57600080fd5b60009182526020909120600690910201805460018201546002830154600384015460048501546005909501549396509194506001600160a01b031692909186565b610a56611596565b6001600160a01b03821660009081526004602052604090205460ff16610ab45760405162461bcd60e51b8152602060048201526013602482015272105cdcd95d081b9bdd081cdd5c1c1bdc9d1959606a1b6044820152606401610684565b60008111610af95760405162461bcd60e51b81526020600482015260126024820152710416d6f756e74206d757374206265203e20360741b6044820152606401610684565b3360009081526002602052604090208054610b4f5760405162461bcd60e51b8152602060048201526016602482015275139bc818dbdb1b185d195c985b081cdd5c1c1b1a595960521b6044820152606401610684565b6000606460428360000154610b649190611a4b565b610b6e9190611a62565b90506000610b7b33610dbc565b905081610b888583611a84565b1115610bd65760405162461bcd60e51b815260206004820152601760248201527f4578636565647320626f72726f772063617061636974790000000000000000006044820152606401610684565b336000908152600360208181526040808420815160c081018352885481528084018a81526001600160a01b038c81168386018181524260608601818152608087018c815260a08801928352885460018082018b55998e528b8e209851600690910290980197885595519787019790975590516002860180546001600160a01b03191691909416179092559351968301969096555160048201559351600594850155845291905281208054869290610c8e908490611a84565b9091555050825460078054600090610ca7908490611a84565b90915550610cc190506001600160a01b0386163386611663565b336000818152600360205260409020546001600160a01b03871691907fc14e9e6b4d98a542b05a0f6b64acd5f4cbdb914be88432d87486b664e97071a7908790610d0d90600190611ab0565b6040805192835260208301919091520160405180910390a3505050610d3160018055565b5050565b600080610d40610d6b565b90506000610d4c61115a565b90506064610d5a8383611a4b565b610d649190611a62565b9250505090565b6000600654600003610d7d5750600090565b6000610d87611706565b600654909150610d98606483611a4b565b610da29190611a62565b91505090565b610db0611569565b610dba6000611770565b565b600080805b6001600160a01b038416600090815260036020526040902054811015610e83576001600160a01b0384166000908152600360205260409020805482908110610e0b57610e0b611a1f565b90600052602060002090600602016004015460036000866001600160a01b03166001600160a01b031681526020019081526020016000208281548110610e5357610e53611a1f565b906000526020600020906006020160010154610e6f9190611a84565b610e799083611a84565b9150600101610dc1565b5092915050565b610e92611596565b6001600160a01b0382166000908152600360205260409020548110610ef05760405162461bcd60e51b8152602060048201526014602482015273092dcecc2d8d2c840c4dee4e4deee40d2dcc8caf60631b6044820152606401610684565b6001600160a01b0382166000908152600360205260408120805483908110610f1a57610f1a611a1f565b906000526020600020906006020190506000816001015411610f7e5760405162461bcd60e51b815260206004820152601760248201527f506f736974696f6e20616c726561647920636c6f7365640000000000000000006044820152606401610684565b610f8883836117c0565b6000610f9484846104a7565b905060648110610fdc5760405162461bcd60e51b8152602060048201526013602482015272506f736974696f6e206973206865616c74687960681b6044820152606401610684565b600082600401548360010154610ff29190611a84565b835490915060006064611006600a84611a4b565b6110109190611a62565b600286015490915061102d906001600160a01b03163330866116c7565b61106c3361103b8385611ab0565b6001600160a01b037f0000000000000000000000000000000000000000000000000000000000000000169190611663565b6110b26110816000546001600160a01b031690565b6001600160a01b037f0000000000000000000000000000000000000000000000000000000000000000169083611663565b600185015460028601546001600160a01b0316600090815260056020526040812080549091906110e3908490611ab0565b90915550508454600780546000906110fc908490611ab0565b9091555050600060018601819055855560405186815233906001600160a01b038916907f0c210dbb07f7aab03c41ec07f0da12daaa276057060fdded4ad506ce2d5035959060200160405180910390a35050505050610d3160018055565b600080611165610d6b565b90506050811161119e57605061118367011c37937e08000083611a4b565b61118d9190611a62565b610da29066470de4df820000611a84565b60006111ab605083611ab0565b90506111b960506064611ab0565b6111cb67058d15e17628000083611a4b565b6111d59190611a62565b6111ee67011c37937e08000066470de4df820000611a84565b610d649190611a84565b611200611596565b3360009081526003602052604090205482106112555760405162461bcd60e51b8152602060048201526014602482015273092dcecc2d8d2c840c4dee4e4deee40d2dcc8caf60631b6044820152606401610684565b33600090815260036020526040812080548490811061127657611276611a1f565b9060005260206000209060060201905060008160010154116112d25760405162461bcd60e51b8152602060048201526015602482015274109bdc9c9bddc8185b1c9958591e481c995c185a59605a1b6044820152606401610684565b6112dc33846117c0565b6000816004015482600101546112f29190611a84565b90508083111561133a5760405162461bcd60e51b8152602060048201526013602482015272105b5bdd5b9d08195e18d959591cc81919589d606a1b6044820152606401610684565b6002820154611354906001600160a01b03163330866116c7565b8083106113bd57600182015460028301546001600160a01b03166000908152600560205260408120805490919061138c908490611ab0565b90915550508154600780546000906113a5908490611ab0565b9091555050600060018301819055600483015561144e565b81600401548311156114345760008260040154846113db9190611ab0565b9050808360010160008282546113f19190611ab0565b909155505060006004840181905560028401546001600160a01b031681526005602052604081208054839290611428908490611ab0565b9091555061144e915050565b828260040160008282546114489190611ab0565b90915550505b604080518581526020810185905233917f1b8cd61ed43bec7c6bdad3a18ffee613f99c853d16c50678d248d879e1b43438910160405180910390a25050610d3160018055565b61149c611569565b6001600160a01b0381166114c657604051631e4fbdf760e01b815260006004820152602401610684565b61082181611770565b6114d7611569565b6001600160a01b03811661151d5760405162461bcd60e51b815260206004820152600d60248201526c125b9d985b1a5908185cdcd95d609a1b6044820152606401610684565b6001600160a01b038116600081815260046020526040808220805460ff19166001179055517f0e3c58ebfb2e7465fbb1c32e6b4f40c3c4f5ca77e8218a386aff8617831260d79190a250565b6000546001600160a01b03163314610dba5760405163118cdaa760e01b8152336004820152602401610684565b6002600154036115b957604051633ee5aeb560e01b815260040160405180910390fd5b6002600155565b6001600160a01b038116600090815260026020526040812080549091036115e5575050565b60008160030154426115f79190611ab0565b90506000611603610d35565b905060006a1a1601fc4ea7109e000000838386600001546116249190611a4b565b61162e9190611a4b565b6116389190611a62565b90508084600201600082825461164e9190611a84565b90915550504260039094019390935550505050565b6040516001600160a01b038381166024830152604482018390526116c291859182169063a9059cbb906064015b604051602081830303815290604052915060e01b6020820180516001600160e01b03838183161783525050505061188a565b505050565b6040516001600160a01b0384811660248301528381166044830152606482018390526117009186918216906323b872dd90608401611690565b50505050565b600080805b3360009081526003602052604090205481101561176a5733600090815260036020526040902080548290811061174357611743611a1f565b906000526020600020906006020160010154826117609190611a84565b915060010161170b565b50919050565b600080546001600160a01b038381166001600160a01b0319831681178455604051919092169283917f8be0079c531659141344cd1fd0a4f28419497f9722a3daafe3b4186f6b6457e09190a35050565b6001600160a01b03821660009081526003602052604081208054839081106117ea576117ea611a1f565b90600052602060002090600602019050806001015460000361180b57505050565b600081600501544261181d9190611ab0565b9050600061182961115a565b905060006a1a1601fc4ea7109e0000008383866001015461184a9190611a4b565b6118549190611a4b565b61185e9190611a62565b9050808460040160008282546118749190611a84565b9091555050426005909401939093555050505050565b600080602060008451602086016000885af1806118ad576040513d6000823e3d81fd5b50506000513d915081156118c55780600114156118d2565b6001600160a01b0384163b155b1561170057604051635274afe760e01b81526001600160a01b0385166004820152602401610684565b80356001600160a01b038116811461191257600080fd5b919050565b6000806040838503121561192a57600080fd5b611933836118fb565b946020939093013593505050565b60006020828403121561195357600080fd5b61195c826118fb565b9392505050565b60006020828403121561197557600080fd5b5035919050565b602080825282518282018190526000919060409081850190868401855b828110156119f0578151805185528681015187860152858101516001600160a01b031686860152606080820151908601526080808201519086015260a0908101519085015260c09093019290850190600101611999565b5091979650505050505050565b60008060408385031215611a1057600080fd5b50508035926020909101359150565b634e487b7160e01b600052603260045260246000fd5b634e487b7160e01b600052601160045260246000fd5b80820281158282048414176105d3576105d3611a35565b600082611a7f57634e487b7160e01b600052601260045260246000fd5b500490565b808201808211156105d3576105d3611a35565b600060208284031215611aa957600080fd5b5051919050565b818103818111156105d3576105d3611a3556fea2646970667358221220c1f5c64c7c7a79a4ce84046a04c4a4f16ababe7373acefe0317ce7d3c0be811a64736f6c63430008180033",
  "linkReferences": {},
  "deployedLinkReferences": {}
}