{
  "_format": "hh-sol-artifact-1",
  "contractName": "ScrollGenBridge",
  "sourceName": "contracts/advanced/ScrollGenBridge.sol",
  "abi": [
    {
      "inputs": [
        {
          "internalType": "address",
          "name": "_sgtToken",
          "type": "address"
        }
      ],
      "stateMutability": "nonpayable",
      "type": "constructor"
    },
    {
      "inputs": [
        {
          "internalType": "address",
          "name": "owner",
          "type": "address"
        }
      ],
      "name": "OwnableInvalidOwner",
      "type": "error"
    },
    {
      "inputs": [
        {
          "internalType": "address",
          "name": "account",
          "type": "address"
        }
      ],
      "name": "OwnableUnauthorizedAccount",
      "type": "error"
    },
    {
      "inputs": [],
      "name": "ReentrancyGuardReentrantCall",
      "type": "error"
    },
    {
      "inputs": [
        {
          "internalType": "address",
          "name": "token",
          "type": "address"
        }
      ],
      "name": "SafeERC20FailedOperation",
      "type": "error"
    },
    {
      "anonymous": false,
      "inputs": [
        {
          "indexed": true,
          "internalType": "address",
          "name": "recipient",
          "type": "address"
        },
        {
          "indexed": false,
          "internalType": "uint256",
          "name": "amount",
          "type": "uint256"
        },
        {
          "indexed": true,
          "internalType": "bytes32",
          "name": "txHash",
          "type": "bytes32"
        }
      ],
      "name": "BridgeClaimed",
      "type": "event"
    },
    {
      "anonymous": false,
      "inputs": [
        {
          "indexed": true,
          "internalType": "address",
          "name": "recipient",
          "type": "address"
        },
        {
          "indexed": false,
          "internalType": "uint256",
          "name": "amount",
          "type": "uint256"
        },
        {
          "indexed": true,
          "internalType": "bytes32",
          "name": "txHash",
          "type": "bytes32"
        }
      ],
      "name": "BridgeCompleted",
      "type": "event"
    },
    {
      "anonymous": false,
      "inputs": [
        {
          "indexed": true,
          "internalType": "bytes32",
          "name": "txHash",
          "type": "bytes32"
        },
        {
          "indexed": false,
          "internalType": "string",
          "name": "reason",
          "type": "string"
        }
      ],
      "name": "BridgeFailed",
      "type": "event"
    },
    {
      "anonymous": false,
      "inputs": [
        {
          "indexed": true,
          "internalType": "address",
          "name": "sender",
          "type": "address"
        },
        {
          "indexed": true,
          "internalType": "address",
          "name": "recipient",
          "type": "address"
        },
        {
          "indexed": false,
          "internalType": "uint256",
          "name": "amount",
          "type": "uint256"
        },
        {
          "indexed": false,
          "internalType": "uint256",
          "name": "sourceChain",
          "type": "uint256"
        },
        {
          "indexed": false,
          "internalType": "uint256",
          "name": "destinationChain",
          "type": "uint256"
        },
        {
          "indexed": true,
          "internalType": "bytes32",
          "name": "txHash",
          "type": "bytes32"
        }
      ],
      "name": "BridgeInitiated",
      "type": "event"
    },
    {
      "anonymous": false,
      "inputs": [
        {
          "indexed": false,
          "internalType": "bool",
          "name": "status",
          "type": "bool"
        }
      ],
      "name": "BridgePaused",
      "type": "event"
    },
    {
      "anonymous": false,
      "inputs": [
        {
          "indexed": true,
          "internalType": "bytes32",
          "name": "txHash",
          "type": "bytes32"
        },
        {
          "indexed": true,
          "internalType": "address",
          "name": "relayer",
          "type": "address"
        }
      ],
      "name": "BridgeRelayed",
      "type": "event"
    },
    {
      "anonymous": false,
      "inputs": [
        {
          "indexed": true,
          "internalType": "address",
          "name": "previousOwner",
          "type": "address"
        },
        {
          "indexed": true,
          "internalType": "address",
          "name": "newOwner",
          "type": "address"
        }
      ],
      "name": "OwnershipTransferred",
      "type": "event"
    },
    {
      "anonymous": false,
      "inputs": [
        {
          "indexed": true,
          "internalType": "address",
          "name": "relayer",
          "type": "address"
        },
        {
          "indexed": false,
          "internalType": "bool",
          "name": "status",
          "type": "bool"
        }
      ],
      "name": "RelayerUpdated",
      "type": "event"
    },
    {
      "inputs": [],
      "name": "ETHEREUM_CHAIN_ID",
      "outputs": [
        {
          "internalType": "uint256",
          "name": "",
          "type": "uint256"
        }
      ],
      "stateMutability": "view",
      "type": "function"
    },
    {
      "inputs": [],
      "name": "SCROLL_CHAIN_ID",
      "outputs": [
        {
          "internalType": "uint256",
          "name": "",
          "type": "uint256"
        }
      ],
      "stateMutability": "view",
      "type": "function"
    },
    {
      "inputs": [],
      "name": "bridgeDelay",
      "outputs": [
        {
          "internalType": "uint256",
          "name": "",
          "type": "uint256"
        }
      ],
      "stateMutability": "view",
      "type": "function"
    },
    {
      "inputs": [],
      "name": "bridgeFee",
      "outputs": [
        {
          "internalType": "uint256",
          "name": "",
          "type": "uint256"
        }
      ],
      "stateMutability": "view",
      "type": "function"
    },
    {
      "inputs": [
        {
          "internalType": "uint256",
          "name": "amount",
          "type": "uint256"
        }
      ],
      "name": "calculateBridgeFee",
      "outputs": [
        {
          "internalType": "uint256",
          "name": "",
          "type": "uint256"
        }
      ],
      "stateMutability": "view",
      "type": "function"
    },
    {
      "inputs": [],
      "name": "dailyLimit",
      "outputs": [
        {
          "internalType": "uint256",
          "name": "",
          "type": "uint256"
        }
      ],
      "stateMutability": "view",
      "type": "function"
    },
    {
      "inputs": [
        {
          "internalType": "uint256",
          "name": "",
          "type": "uint256"
        }
      ],
      "name": "dailyVolume",
      "outputs": [
        {
          "internalType": "uint256",
          "name": "",
          "type": "uint256"
        }
      ],
      "stateMutability": "view",
      "type": "function"
    },
    {
      "inputs": [
        {
          "internalType": "address",
          "name": "token",
          "type": "address"
        },
        {
          "internalType": "uint256",
          "name": "amount",
          "type": "uint256"
        }
      ],
      "name": "emergencyWithdraw",
      "outputs": [],
      "stateMutability": "nonpayable",
      "type": "function"
    },
    {
      "inputs": [
        {
          "internalType": "bytes32",
          "name": "txHash",
          "type": "bytes32"
        }
      ],
      "name": "getBridgeTransaction",
      "outputs": [
        {
          "components": [
            {
              "internalType": "address",
              "name": "sender",
              "type": "address"
            },
            {
              "internalType": "address",
              "name": "recipient",
              "type": "address"
            },
            {
              "internalType": "uint256",
              "name": "amount",
              "type": "uint256"
            },
            {
              "internalType": "uint256",
              "name": "sourceChain",
              "type": "uint256"
            },
            {
              "internalType": "uint256",
              "name": "destinationChain",
              "type": "uint256"
            },
            {
              "internalType": "uint256",
              "name": "timestamp",
              "type": "uint256"
            },
            {
              "internalType": "bytes32",
              "name": "txHash",
              "type": "bytes32"
            },
            {
              "internalType": "enum ScrollGenBridge.BridgeStatus",
              "name": "status",
              "type": "uint8"
            },
            {
              "internalType": "uint256",
              "name": "fee",
              "type": "uint256"
            }
          ],
          "internalType": "struct ScrollGenBridge.BridgeTransaction",
          "name": "",
          "type": "tuple"
        }
      ],
      "stateMutability": "view",
      "type": "function"
    },
    {
      "inputs": [
        {
          "internalType": "uint256",
          "name": "amount",
          "type": "uint256"
        }
      ],
      "name": "getEstimatedBridgeTime",
      "outputs": [
        {
          "internalType": "uint256",
          "name": "",
          "type": "uint256"
        }
      ],
      "stateMutability": "view",
      "type": "function"
    },
    {
      "inputs": [
        {
          "internalType": "address",
          "name": "user",
          "type": "address"
        }
      ],
      "name": "getUserTransactions",
      "outputs": [
        {
          "internalType": "bytes32[]",
          "name": "",
          "type": "bytes32[]"
        }
      ],
      "stateMutability": "view",
      "type": "function"
    },
    {
      "inputs": [
        {
          "internalType": "uint256",
          "name": "amount",
          "type": "uint256"
        },
        {
          "internalType": "uint256",
          "name": "destinationChain",
          "type": "uint256"
        },
        {
          "internalType": "address",
          "name": "recipient",
          "type": "address"
        }
      ],
      "name": "lockSGT",
      "outputs": [
        {
          "internalType": "bytes32",
          "name": "",
          "type": "bytes32"
        }
      ],
      "stateMutability": "payable",
      "type": "function"
    },
    {
      "inputs": [],
      "name": "maxBridgeAmount",
      "outputs": [
        {
          "internalType": "uint256",
          "name": "",
          "type": "uint256"
        }
      ],
      "stateMutability": "view",
      "type": "function"
    },
    {
      "inputs": [
        {
          "internalType": "address",
          "name": "recipient",
          "type": "address"
        },
        {
          "internalType": "uint256",
          "name": "amount",
          "type": "uint256"
        },
        {
          "internalType": "bytes32",
          "name": "sourceTxHash",
          "type": "bytes32"
        }
      ],
      "name": "mintBridgedSGT",
      "outputs": [],
      "stateMutability": "nonpayable",
      "type": "function"
    },
    {
      "inputs": [],
      "name": "owner",
      "outputs": [
        {
          "internalType": "address",
          "name": "",
          "type": "address"
        }
      ],
      "stateMutability": "view",
      "type": "function"
    },
    {
      "inputs": [],
      "name": "paused",
      "outputs": [
        {
          "internalType": "bool",
          "name": "",
          "type": "bool"
        }
      ],
      "stateMutability": "view",
      "type": "function"
    },
    {
      "inputs": [
        {
          "internalType": "address",
          "name": "",
          "type": "address"
        }
      ],
      "name": "relayers",
      "outputs": [
        {
          "internalType": "bool",
          "name": "",
          "type": "bool"
        }
      ],
      "stateMutability": "view",
      "type": "function"
    },
    {
      "inputs": [
        {
          "internalType": "address",
          "name": "recipient",
          "type": "address"
        },
        {
          "internalType": "uint256",
          "name": "amount",
          "type": "uint256"
        },
        {
          "internalType": "bytes32",
          "name": "burnTxHash",
          "type": "bytes32"
        }
      ],
      "name": "releaseSGT",
      "outputs": [],
      "stateMutability": "nonpayable",
      "type": "function"
    },
    {
      "inputs": [],
      "name": "renounceOwnership",
      "outputs": [],
      "stateMutability": "nonpayable",
      "type": "function"
    },
    {
      "inputs": [
        {
          "internalType": "bool",
          "name": "_paused",
          "type": "bool"
        }
      ],
      "name": "setPaused",
      "outputs": [],
      "stateMutability": "nonpayable",
      "type": "function"
    },
    {
      "inputs": [
        {
          "internalType": "address",
          "name": "relayer",
          "type": "address"
        },
        {
          "internalType": "bool",
          "name": "status",
          "type": "bool"
        }
      ],
      "name": "setRelayer",
      "outputs": [],
      "stateMutability": "nonpayable",
      "type": "function"
    },
    {
      "inputs": [],
      "name": "sgtToken",
      "outputs": [
        {
          "internalType": "contract IERC20",
          "name": "",
          "type": "address"
        }
      ],
      "stateMutability": "view",
      "type": "function"
    },
    {
      "inputs": [],
      "name": "totalBridged",
      "outputs": [
        {
          "internalType": "uint256",
          "name": "",
          "type": "uint256"
        }
      ],
      "stateMutability": "view",
      "type": "function"
    },
    {
      "inputs": [],
      "name": "totalFees",
      "outputs": [
        {
          "internalType": "uint256",
          "name": "",
          "type": "uint256"
        }
      ],
      "stateMutability": "view",
      "type": "function"
    },
    {
      "inputs": [
        {
          "internalType": "bytes32",
          "name": "",
          "type": "bytes32"
        }
      ],
      "name": "transactions",
      "outputs": [
        {
          "internalType": "address",
          "name": "sender",
          "type": "address"
        },
        {
          "internalType": "address",
          "name": "recipient",
          "type": "address"
        },
        {
          "internalType": "uint256",
          "name": "amount",
          "type": "uint256"
        },
        {
          "internalType": "uint256",
          "name": "sourceChain",
          "type": "uint256"
        },
        {
          "internalType": "uint256",
          "name": "destinationChain",
          "type": "uint256"
        },
        {
          "internalType": "uint256",
          "name": "timestamp",
          "type": "uint256"
        },
        {
          "internalType": "bytes32",
          "name": "txHash",
          "type": "bytes32"
        },
        {
          "internalType": "enum ScrollGenBridge.BridgeStatus",
          "name": "status",
          "type": "uint8"
        },
        {
          "internalType": "uint256",
          "name": "fee",
          "type": "uint256"
        }
      ],
      "stateMutability": "view",
      "type": "function"
    },
    {
      "inputs": [
        {
          "internalType": "address",
          "name": "newOwner",
          "type": "address"
        }
      ],
      "name": "transferOwnership",
      "outputs": [],
      "stateMutability": "nonpayable",
      "type": "function"
    },
    {
      "inputs": [
        {
          "internalType": "uint256",
          "name": "newFee",
          "type": "uint256"
        },
        {
          "internalType": "uint256",
          "name": "newMaxAmount",
          "type": "uint256"
        },
        {
          "internalType": "uint256",
          "name": "newDailyLimit",
          "type": "uint256"
        }
      ],
      "name": "updateBridgeParams",
      "outputs": [],
      "stateMutability": "nonpayable",
      "type": "function"
    },
    {
      "inputs": [
        {
          "internalType": "bytes32",
          "name": "txHash",
          "type": "bytes32"
        },
        {
          "internalType": "enum ScrollGenBridge.BridgeStatus",
          "name": "newStatus",
          "type": "uint8"
        }
      ],
      "name": "updateBridgeStatus",
      "outputs": [],
      "stateMutability": "nonpayable",
      "type": "function"
    },
    {
      "inputs": [
        {
          "internalType": "address",
          "name": "",
          "type": "address"
        },
        {
          "internalType": "uint256",
          "name": "",
          "type": "uint256"
        }
      ],
      "name": "userTransactions",
      "outputs": [
        {
          "internalType": "bytes32",
          "name": "",
          "type": "bytes32"
        }
      ],
      "stateMutability": "view",
      "type": "function"
    },
    {
      "inputs": [],
      "name": "withdrawFees",
      "outputs": [],
      "stateMutability": "nonpayable",
      "type": "function"
    },
    {
      "stateMutability": "payable",
      "type": "receive"
    }
  ],
  "bytecode": "0x60a060405266038d7ea4c6800060025569021e19e0c9bab240000060035569152d02c7e14af68000006004556103846005553480156200003e57600080fd5b5060405162001a8938038062001a8983398101604081905262000061916200016d565b33806200008957604051631e4fbdf760e01b8152600060048201526024015b60405180910390fd5b62000094816200011d565b50600180556001600160a01b038116620000f15760405162461bcd60e51b815260206004820152601360248201527f496e76616c696420534754206164647265737300000000000000000000000000604482015260640162000080565b6001600160a01b0316608052336000908152600960205260409020805460ff191660011790556200019f565b600080546001600160a01b038381166001600160a01b0319831681178455604051919092169283917f8be0079c531659141344cd1fd0a4f28419497f9722a3daafe3b4186f6b6457e09190a35050565b6000602082840312156200018057600080fd5b81516001600160a01b03811681146200019857600080fd5b9392505050565b6080516118b9620001d0600039600081816102480152818161096f01528181610c7a01526112b501526118b96000f3fe6080604052600436106101d05760003560e01c8063943ca3b9116100f7578063ea037ebf11610095578063f20f4a2311610064578063f20f4a23146105a6578063f2fde38b146105c6578063f365d99b146105e6578063f574891d1461060657600080fd5b8063ea037ebf14610519578063ecd8dc3a14610539578063ef92539914610559578063efc6de6c1461058657600080fd5b8063a97c49e3116100d1578063a97c49e3146104af578063ade1af12146104c6578063b842ec44146104e6578063c47b8dff1461050657600080fd5b8063943ca3b91461044257806395ccea671461046f5780639f2f22161461048f57600080fd5b80635c975abb1161016f57806367eeba0c1161013e57806367eeba0c146103e3578063715018a6146103f957806382b12dd71461040e5780638da5cb5b1461042457600080fd5b80635c975abb1461031057806360132c9c1461032a578063642f2eaf1461034057806367a1791a146103cd57600080fd5b806316c38b3c116101ab57806316c38b3c146102825780631dac56d3146102a4578063476343ee146102bb5780635300f841146102d057600080fd5b806224a1b8146101dc57806313114a9d14610212578063166ff0301461023657600080fd5b366101d757005b600080fd5b3480156101e857600080fd5b506101fc6101f73660046114d6565b61061c565b6040516102099190611527565b60405180910390f35b34801561021e57600080fd5b50610228600b5481565b604051908152602001610209565b34801561024257600080fd5b5061026a7f000000000000000000000000000000000000000000000000000000000000000081565b6040516001600160a01b039091168152602001610209565b34801561028e57600080fd5b506102a261029d3660046115b3565b610716565b005b3480156102b057600080fd5b5061022862aa36a781565b3480156102c757600080fd5b506102a2610765565b3480156102dc57600080fd5b506103006102eb3660046115e5565b60096020526000908152604090205460ff1681565b6040519015158152602001610209565b34801561031c57600080fd5b50600c546103009060ff1681565b34801561033657600080fd5b5061022860035481565b34801561034c57600080fd5b506103b861035b3660046114d6565b60066020819052600091825260409091208054600182015460028301546003840154600485015460058601549686015460078701546008909701546001600160a01b039687169895909616969395929491939192909160ff169089565b60405161020999989796959493929190611600565b3480156103d957600080fd5b50610228600a5481565b3480156103ef57600080fd5b5061022860045481565b34801561040557600080fd5b506102a26107f3565b34801561041a57600080fd5b5061022860025481565b34801561043057600080fd5b506000546001600160a01b031661026a565b34801561044e57600080fd5b5061022861045d3660046114d6565b60086020526000908152604090205481565b34801561047b57600080fd5b506102a261048a36600461165e565b610807565b34801561049b57600080fd5b506102a26104aa366004611688565b610835565b3480156104bb57600080fd5b506102286208274f81565b3480156104d257600080fd5b506102286104e13660046114d6565b6109f1565b3480156104f257600080fd5b5061022861050136600461165e565b610a50565b6102286105143660046116bb565b610a81565b34801561052557600080fd5b506102286105343660046114d6565b610eec565b34801561054557600080fd5b506102a26105543660046116f0565b610f37565b34801561056557600080fd5b506105796105743660046115e5565b610f9e565b6040516102099190611723565b34801561059257600080fd5b506102a26105a1366004611767565b61100a565b3480156105b257600080fd5b506102a26105c1366004611793565b611020565b3480156105d257600080fd5b506102a26105e13660046115e5565b611113565b3480156105f257600080fd5b506102a2610601366004611688565b611151565b34801561061257600080fd5b5061022860055481565b6040805161012081018252600080825260208201819052918101829052606081018290526080810182905260a0810182905260c0810182905260e0810182905261010081019190915260008281526006602081815260409283902083516101208101855281546001600160a01b03908116825260018301541692810192909252600281015493820193909352600383015460608201526004808401546080830152600584015460a08301529183015460c0820152600783015490929160e084019160ff16908111156106f0576106f06114ef565b6004811115610701576107016114ef565b81526020016008820154815250509050919050565b61071e611320565b600c805460ff19168215159081179091556040519081527f7109bb8b9c800f0b1e082cdd408e79256a83c41ca094c286d4e199ecc95ec8e29060200160405180910390a150565b61076d611320565b47806107b65760405162461bcd60e51b81526020600482015260136024820152724e6f206665657320746f20776974686472617760681b60448201526064015b60405180910390fd5b600080546040516001600160a01b039091169183156108fc02918491818181858888f193505050501580156107ef573d6000803e3d6000fd5b5050565b6107fb611320565b610805600061134d565b565b61080f611320565b6107ef6108246000546001600160a01b031690565b6001600160a01b038416908361139d565b3360009081526009602052604090205460ff168061085d57506000546001600160a01b031633145b6108795760405162461bcd60e51b81526004016107ad906117c7565b6108816113fc565b600c5460ff16156108a45760405162461bcd60e51b81526004016107ad906117f7565b60008181526006602052604090206002600782015460ff1660048111156108cd576108cd6114ef565b1461090a5760405162461bcd60e51b815260206004820152600d60248201526c139bdd0818dbdb5c1b195d1959609a1b60448201526064016107ad565b600554816005015461091c9190611837565b42101561095b5760405162461bcd60e51b815260206004820152600d60248201526c11195b185e481b9bdd081b595d609a1b60448201526064016107ad565b60078101805460ff1916600317905561099e7f00000000000000000000000000000000000000000000000000000000000000006001600160a01b0316858561139d565b81846001600160a01b03167f21fcb07822f22474311b4f2d61e20b09e8e8f9600693f7a047be26cf20d09d44856040516109da91815260200190565b60405180910390a3506109ec60018055565b505050565b6000683635c9adc5dea00000821015610a0c57505060025490565b69010f0cf064dd59200000821015610a3f576064600254605f610a2f919061184a565b610a399190611861565b92915050565b6064600254605a610a2f919061184a565b60076020528160005260406000208181548110610a6c57600080fd5b90600052602060002001600091509150505481565b6000610a8b6113fc565b600c5460ff1615610aae5760405162461bcd60e51b81526004016107ad906117f7565b600084118015610ac057506003548411155b610afd5760405162461bcd60e51b815260206004820152600e60248201526d125b9d985b1a5908185b5bdd5b9d60921b60448201526064016107ad565b600254341015610b4f5760405162461bcd60e51b815260206004820152601760248201527f496e73756666696369656e74206272696467652066656500000000000000000060448201526064016107ad565b6001600160a01b038216610b995760405162461bcd60e51b8152602060048201526011602482015270125b9d985b1a59081c9958da5c1a595b9d607a1b60448201526064016107ad565b6208274f831480610bac575062aa36a783145b610bf85760405162461bcd60e51b815260206004820152601960248201527f496e76616c69642064657374696e6174696f6e20636861696e0000000000000060448201526064016107ad565b6000610c076201518042611861565b60045460008281526008602052604090205491925090610c28908790611837565b1115610c6d5760405162461bcd60e51b815260206004820152601460248201527311185a5b1e481b1a5b5a5d08195e18d95959195960621b60448201526064016107ad565b610ca26001600160a01b037f000000000000000000000000000000000000000000000000000000000000000016333088611426565b6040516bffffffffffffffffffffffff1933606090811b8216602084015285901b1660348201526048810186905242606882015246608882015260009060a801604051602081830303815290604052805190602001209050604051806101200160405280336001600160a01b03168152602001856001600160a01b0316815260200187815260200146815260200186815260200142815260200182815260200160006004811115610d5557610d556114ef565b81523460209182015260008381526006808352604091829020845181546001600160a01b039182166001600160a01b03199182161783559486015160018084018054929093169190961617905591840151600283015560608401516003830155608084015160048084019190915560a0850151600584015560c08501519183019190915560e084015160078301805493949193909260ff1990911691908490811115610e0357610e036114ef565b021790555061010091909101516008918201553360009081526007602090815260408083208054600181018255908452828420018590558583529290529081208054889290610e53908490611837565b9250508190555085600a6000828254610e6c9190611837565b9250508190555034600b6000828254610e859190611837565b90915550506040805187815246602082015290810186905281906001600160a01b0386169033907f2cc0b9da3b778d644169f7f3b6d68ba4ade513bfe60b0b10b21782e336ef025f9060600160405180910390a4915050610ee560018055565b9392505050565b6000683635c9adc5dea00000821015610f0757505060055490565b69010f0cf064dd59200000821015610f2857600554610a399061012c611837565b600554610a3990610258611837565b610f3f611320565b6001600160a01b038216600081815260096020908152604091829020805460ff191685151590811790915591519182527f4b36b2e66f38ed349bec532105790177f1283bcbc094e6cd48565195d3033c43910160405180910390a25050565b6001600160a01b038116600090815260076020908152604091829020805483518184028101840190945280845260609392830182828015610ffe57602002820191906000526020600020905b815481526020019060010190808311610fea575b50505050509050919050565b611012611320565b600292909255600355600455565b3360009081526009602052604090205460ff168061104857506000546001600160a01b031633145b6110645760405162461bcd60e51b81526004016107ad906117c7565b600082815260066020526040902060028101546110bb5760405162461bcd60e51b8152602060048201526015602482015274151c985b9cd858dd1a5bdb881b9bdd08199bdd5b99605a1b60448201526064016107ad565b60078101805483919060ff191660018360048111156110dc576110dc6114ef565b0217905550604051339084907ffedf96f9c40e8bc4d7435c1a3ddb2c6dff6ff69d746d42b75352b2d5d41bfbda90600090a3505050565b61111b611320565b6001600160a01b03811661114557604051631e4fbdf760e01b8152600060048201526024016107ad565b61114e8161134d565b50565b3360009081526009602052604090205460ff168061117957506000546001600160a01b031633145b6111955760405162461bcd60e51b81526004016107ad906117c7565b61119d6113fc565b600c5460ff16156111c05760405162461bcd60e51b81526004016107ad906117f7565b600081815260066020526040812090600782015460ff1660048111156111e8576111e86114ef565b148061120c57506001600782015460ff16600481111561120a5761120a6114ef565b145b6112495760405162461bcd60e51b815260206004820152600e60248201526d496e76616c69642073746174757360901b60448201526064016107ad565b600554816005015461125b9190611837565b4210156112a15760405162461bcd60e51b8152602060048201526014602482015273109c9a5919d94819195b185e481b9bdd081b595d60621b60448201526064016107ad565b60078101805460ff191660021790556112e47f00000000000000000000000000000000000000000000000000000000000000006001600160a01b0316858561139d565b81846001600160a01b03167f33f38e7a49fedf52213d97d1cff9071b1ba135b909db42330f488493e90002b2856040516109da91815260200190565b6000546001600160a01b031633146108055760405163118cdaa760e01b81523360048201526024016107ad565b600080546001600160a01b038381166001600160a01b0319831681178455604051919092169283917f8be0079c531659141344cd1fd0a4f28419497f9722a3daafe3b4186f6b6457e09190a35050565b6040516001600160a01b038381166024830152604482018390526109ec91859182169063a9059cbb906064015b604051602081830303815290604052915060e01b6020820180516001600160e01b038381831617835250505050611465565b60026001540361141f57604051633ee5aeb560e01b815260040160405180910390fd5b6002600155565b6040516001600160a01b03848116602483015283811660448301526064820183905261145f9186918216906323b872dd906084016113ca565b50505050565b600080602060008451602086016000885af180611488576040513d6000823e3d81fd5b50506000513d915081156114a05780600114156114ad565b6001600160a01b0384163b155b1561145f57604051635274afe760e01b81526001600160a01b03851660048201526024016107ad565b6000602082840312156114e857600080fd5b5035919050565b634e487b7160e01b600052602160045260246000fd5b6005811061152357634e487b7160e01b600052602160045260246000fd5b9052565b60006101208201905060018060a01b038084511683528060208501511660208401525060408301516040830152606083015160608301526080830151608083015260a083015160a083015260c083015160c083015260e083015161158e60e0840182611505565b5061010092830151919092015290565b803580151581146115ae57600080fd5b919050565b6000602082840312156115c557600080fd5b610ee58261159e565b80356001600160a01b03811681146115ae57600080fd5b6000602082840312156115f757600080fd5b610ee5826115ce565b6001600160a01b038a811682528916602082015260408101889052606081018790526080810186905260a0810185905260c08101849052610120810161164960e0830185611505565b826101008301529a9950505050505050505050565b6000806040838503121561167157600080fd5b61167a836115ce565b946020939093013593505050565b60008060006060848603121561169d57600080fd5b6116a6846115ce565b95602085013595506040909401359392505050565b6000806000606084860312156116d057600080fd5b83359250602084013591506116e7604085016115ce565b90509250925092565b6000806040838503121561170357600080fd5b61170c836115ce565b915061171a6020840161159e565b90509250929050565b6020808252825182820181905260009190848201906040850190845b8181101561175b5783518352928401929184019160010161173f565b50909695505050505050565b60008060006060848603121561177c57600080fd5b505081359360208301359350604090920135919050565b600080604083850312156117a657600080fd5b823591506020830135600581106117bc57600080fd5b809150509250929050565b6020808252601690820152752737ba1030baba3437b934bd32b2103932b630bcb2b960511b604082015260600190565b60208082526010908201526f109c9a5919d9481a5cc81c185d5cd95960821b604082015260600190565b634e487b7160e01b600052601160045260246000fd5b80820180821115610a3957610a39611821565b8082028115828204841417610a3957610a39611821565b60008261187e57634e487b7160e01b600052601260045260246000fd5b50049056fea2646970667358221220a619b20d27924af9e48210d2ca37748bbecf8a624c8ffcbb5f42db96fc7e6fd564736f6c63430008180033",
  "linkReferences": {},
  "deployedLinkReferences": {}
}