{
  "_format": "hh-sol-artifact-1",
  "contractName": "ScrollGenToken",
  "sourceName": "contracts/ScrollGenToken.sol",
  "abi": [
    {
      "inputs": [
        {
          "internalType": "uint256",
          "name": "initialSupply",
          "type": "uint256"
        }
      ],
      "stateMutability": "nonpayable",
      "type": "constructor"
    },
    {
      "inputs": [
        {
          "internalType": "address",
          "name": "spender",
          "type": "address"
        },
        {
          "internalType": "uint256",
          "name": "allowance",
          "type": "uint256"
        },
        {
          "internalType": "uint256",
          "name": "needed",
          "type": "uint256"
        }
      ],
      "name": "ERC20InsufficientAllowance",
      "type": "error"
    },
    {
      "inputs": [
        {
          "internalType": "address",
          "name": "sender",
          "type": "address"
        },
        {
          "internalType": "uint256",
          "name": "balance",
          "type": "uint256"
        },
        {
          "internalType": "uint256",
          "name": "needed",
          "type": "uint256"
        }
      ],
      "name": "ERC20InsufficientBalance",
      "type": "error"
    },
    {
      "inputs": [
        {
          "internalType": "address",
          "name": "approver",
          "type": "address"
        }
      ],
      "name": "ERC20InvalidApprover",
      "type": "error"
    },
    {
      "inputs": [
        {
          "internalType": "address",
          "name": "receiver",
          "type": "address"
        }
      ],
      "name": "ERC20InvalidReceiver",
      "type": "error"
    },
    {
      "inputs": [
        {
          "internalType": "address",
          "name": "sender",
          "type": "address"
        }
      ],
      "name": "ERC20InvalidSender",
      "type": "error"
    },
    {
      "inputs": [
        {
          "internalType": "address",
          "name": "spender",
          "type": "address"
        }
      ],
      "name": "ERC20InvalidSpender",
      "type": "error"
    },
    {
      "inputs": [
        {
          "internalType": "address",
          "name": "owner",
          "type": "address"
        }
      ],
      "name": "OwnableInvalidOwner",
      "type": "error"
    },
    {
      "inputs": [
        {
          "internalType": "address",
          "name": "account",
          "type": "address"
        }
      ],
      "name": "OwnableUnauthorizedAccount",
      "type": "error"
    },
    {
      "anonymous": false,
      "inputs": [
        {
          "indexed": true,
          "internalType": "address",
          "name": "owner",
          "type": "address"
        },
        {
          "indexed": true,
          "internalType": "address",
          "name": "spender",
          "type": "address"
        },
        {
          "indexed": false,
          "internalType": "uint256",
          "name": "value",
          "type": "uint256"
        }
      ],
      "name": "Approval",
      "type": "event"
    },
    {
      "anonymous": false,
      "inputs": [
        {
          "indexed": true,
          "internalType": "address",
          "name": "previousOwner",
          "type": "address"
        },
        {
          "indexed": true,
          "internalType": "address",
          "name": "newOwner",
          "type": "address"
        }
      ],
      "name": "OwnershipTransferred",
      "type": "event"
    },
    {
      "anonymous": false,
      "inputs": [
        {
          "indexed": true,
          "internalType": "address",
          "name": "from",
          "type": "address"
        },
        {
          "indexed": false,
          "internalType": "uint256",
          "name": "amount",
          "type": "uint256"
        }
      ],
      "name": "TokensBurned",
      "type": "event"
    },
    {
      "anonymous": false,
      "inputs": [
        {
          "indexed": true,
          "internalType": "address",
          "name": "to",
          "type": "address"
        },
        {
          "indexed": false,
          "internalType": "uint256",
          "name": "amount",
          "type": "uint256"
        }
      ],
      "name": "TokensMinted",
      "type": "event"
    },
    {
      "anonymous": false,
      "inputs": [
        {
          "indexed": true,
          "internalType": "address",
          "name": "from",
          "type": "address"
        },
        {
          "indexed": true,
          "internalType": "address",
          "name": "to",
          "type": "address"
        },
        {
          "indexed": false,
          "internalType": "uint256",
          "name": "value",
          "type": "uint256"
        }
      ],
      "name": "Transfer",
      "type": "event"
    },
    {
      "inputs": [
        {
          "internalType": "address",
          "name": "owner",
          "type": "address"
        },
        {
          "internalType": "address",
          "name": "spender",
          "type": "address"
        }
      ],
      "name": "allowance",
      "outputs": [
        {
          "internalType": "uint256",
          "name": "",
          "type": "uint256"
        }
      ],
      "stateMutability": "view",
      "type": "function"
    },
    {
      "inputs": [
        {
          "internalType": "address",
          "name": "spender",
          "type": "address"
        },
        {
          "internalType": "uint256",
          "name": "value",
          "type": "uint256"
        }
      ],
      "name": "approve",
      "outputs": [
        {
          "internalType": "bool",
          "name": "",
          "type": "bool"
        }
      ],
      "stateMutability": "nonpayable",
      "type": "function"
    },
    {
      "inputs": [
        {
          "internalType": "address",
          "name": "account",
          "type": "address"
        }
      ],
      "name": "balanceOf",
      "outputs": [
        {
          "internalType": "uint256",
          "name": "",
          "type": "uint256"
        }
      ],
      "stateMutability": "view",
      "type": "function"
    },
    {
      "inputs": [
        {
          "internalType": "uint256",
          "name": "amount",
          "type": "uint256"
        }
      ],
      "name": "burn",
      "outputs": [],
      "stateMutability": "nonpayable",
      "type": "function"
    },
    {
      "inputs": [],
      "name": "decimals",
      "outputs": [
        {
          "internalType": "uint8",
          "name": "",
          "type": "uint8"
        }
      ],
      "stateMutability": "view",
      "type": "function"
    },
    {
      "inputs": [],
      "name": "getTokenInfo",
      "outputs": [
        {
          "internalType": "string",
          "name": "tokenName",
          "type": "string"
        },
        {
          "internalType": "string",
          "name": "tokenSymbol",
          "type": "string"
        },
        {
          "internalType": "uint8",
          "name": "tokenDecimals",
          "type": "uint8"
        },
        {
          "internalType": "uint256",
          "name": "tokenTotalSupply",
          "type": "uint256"
        }
      ],
      "stateMutability": "view",
      "type": "function"
    },
    {
      "inputs": [
        {
          "internalType": "address",
          "name": "to",
          "type": "address"
        },
        {
          "internalType": "uint256",
          "name": "amount",
          "type": "uint256"
        }
      ],
      "name": "mint",
      "outputs": [],
      "stateMutability": "nonpayable",
      "type": "function"
    },
    {
      "inputs": [],
      "name": "name",
      "outputs": [
        {
          "internalType": "string",
          "name": "",
          "type": "string"
        }
      ],
      "stateMutability": "view",
      "type": "function"
    },
    {
      "inputs": [],
      "name": "owner",
      "outputs": [
        {
          "internalType": "address",
          "name": "",
          "type": "address"
        }
      ],
      "stateMutability": "view",
      "type": "function"
    },
    {
      "inputs": [],
      "name": "renounceOwnership",
      "outputs": [],
      "stateMutability": "nonpayable",
      "type": "function"
    },
    {
      "inputs": [],
      "name": "symbol",
      "outputs": [
        {
          "internalType": "string",
          "name": "",
          "type": "string"
        }
      ],
      "stateMutability": "view",
      "type": "function"
    },
    {
      "inputs": [],
      "name": "totalSupply",
      "outputs": [
        {
          "internalType": "uint256",
          "name": "",
          "type": "uint256"
        }
      ],
      "stateMutability": "view",
      "type": "function"
    },
    {
      "inputs": [
        {
          "internalType": "address",
          "name": "to",
          "type": "address"
        },
        {
          "internalType": "uint256",
          "name": "value",
          "type": "uint256"
        }
      ],
      "name": "transfer",
      "outputs": [
        {
          "internalType": "bool",
          "name": "",
          "type": "bool"
        }
      ],
      "stateMutability": "nonpayable",
      "type": "function"
    },
    {
      "inputs": [
        {
          "internalType": "address",
          "name": "from",
          "type": "address"
        },
        {
          "internalType": "address",
          "name": "to",
          "type": "address"
        },
        {
          "internalType": "uint256",
          "name": "value",
          "type": "uint256"
        }
      ],
      "name": "transferFrom",
      "outputs": [
        {
          "internalType": "bool",
          "name": "",
          "type": "bool"
        }
      ],
      "stateMutability": "nonpayable",
      "type": "function"
    },
    {
      "inputs": [
        {
          "internalType": "address",
          "name": "newOwner",
          "type": "address"
        }
      ],
      "name": "transferOwnership",
      "outputs": [],
      "stateMutability": "nonpayable",
      "type": "function"
    }
  ],
  "bytecode": "0x60806040523480156200001157600080fd5b5060405162001223380380620012238339810160408190526200003491620002c7565b336040518060400160405280600f81526020016e29b1b937b63623b2b7102a37b5b2b760891b8152506040518060400160405280600381526020016214d1d560ea1b81525081600390816200008a919062000388565b50600462000099828262000388565b5050506001600160a01b038116620000cc57604051631e4fbdf760e01b8152600060048201526024015b60405180910390fd5b620000d78162000104565b50620000fd33620000eb6012600a62000569565b620000f7908462000581565b62000156565b50620005b1565b600580546001600160a01b038381166001600160a01b0319831681179093556040519116919082907f8be0079c531659141344cd1fd0a4f28419497f9722a3daafe3b4186f6b6457e090600090a35050565b6001600160a01b038216620001825760405163ec442f0560e01b815260006004820152602401620000c3565b620001906000838362000194565b5050565b6001600160a01b038316620001c3578060026000828254620001b791906200059b565b90915550620002379050565b6001600160a01b03831660009081526020819052604090205481811015620002185760405163391434e360e21b81526001600160a01b03851660048201526024810182905260448101839052606401620000c3565b6001600160a01b03841660009081526020819052604090209082900390555b6001600160a01b038216620002555760028054829003905562000274565b6001600160a01b03821660009081526020819052604090208054820190555b816001600160a01b0316836001600160a01b03167fddf252ad1be2c89b69c2b068fc378daa952ba7f163c4a11628f55a4df523b3ef83604051620002ba91815260200190565b60405180910390a3505050565b600060208284031215620002da57600080fd5b5051919050565b634e487b7160e01b600052604160045260246000fd5b600181811c908216806200030c57607f821691505b6020821081036200032d57634e487b7160e01b600052602260045260246000fd5b50919050565b601f82111562000383576000816000526020600020601f850160051c810160208610156200035e5750805b601f850160051c820191505b818110156200037f578281556001016200036a565b5050505b505050565b81516001600160401b03811115620003a457620003a4620002e1565b620003bc81620003b58454620002f7565b8462000333565b602080601f831160018114620003f45760008415620003db5750858301515b600019600386901b1c1916600185901b1785556200037f565b600085815260208120601f198616915b82811015620004255788860151825594840194600190910190840162000404565b5085821015620004445787850151600019600388901b60f8161c191681555b5050505050600190811b01905550565b634e487b7160e01b600052601160045260246000fd5b600181815b80851115620004ab5781600019048211156200048f576200048f62000454565b808516156200049d57918102915b93841c93908002906200046f565b509250929050565b600082620004c45750600162000563565b81620004d35750600062000563565b8160018114620004ec5760028114620004f75762000517565b600191505062000563565b60ff8411156200050b576200050b62000454565b50506001821b62000563565b5060208310610133831016604e8410600b84101617156200053c575081810a62000563565b6200054883836200046a565b80600019048211156200055f576200055f62000454565b0290505b92915050565b60006200057a60ff841683620004b3565b9392505050565b808202811582820484141762000563576200056362000454565b8082018082111562000563576200056362000454565b610c6280620005c16000396000f3fe608060405234801561001057600080fd5b50600436106100f55760003560e01c806370a0823111610097578063a9059cbb11610066578063a9059cbb146101eb578063abb1dc44146101fe578063dd62ed3e14610216578063f2fde38b1461024f57600080fd5b806370a0823114610197578063715018a6146101c05780638da5cb5b146101c857806395d89b41146101e357600080fd5b806323b872dd116100d357806323b872dd1461014d578063313ce5671461016057806340c10f191461016f57806342966c681461018457600080fd5b806306fdde03146100fa578063095ea7b31461011857806318160ddd1461013b575b600080fd5b610102610262565b60405161010f9190610980565b60405180910390f35b61012b6101263660046109b6565b6102f4565b604051901515815260200161010f565b6002545b60405190815260200161010f565b61012b61015b3660046109e0565b61030e565b6040516012815260200161010f565b61018261017d3660046109b6565b610332565b005b610182610192366004610a1c565b610401565b61013f6101a5366004610a35565b6001600160a01b031660009081526020819052604090205490565b6101826104be565b6005546040516001600160a01b03909116815260200161010f565b6101026104d2565b61012b6101f93660046109b6565b6104e1565b6102066104ef565b60405161010f9493929190610a50565b61013f610224366004610a8c565b6001600160a01b03918216600090815260016020908152604080832093909416825291909152205490565b61018261025d366004610a35565b61051e565b60606003805461027190610abf565b80601f016020809104026020016040519081016040528092919081815260200182805461029d90610abf565b80156102ea5780601f106102bf576101008083540402835291602001916102ea565b820191906000526020600020905b8154815290600101906020018083116102cd57829003601f168201915b5050505050905090565b60003361030281858561055c565b60019150505b92915050565b60003361031c85828561056e565b6103278585856105ed565b506001949350505050565b61033a61064c565b6001600160a01b0382166103955760405162461bcd60e51b815260206004820152601b60248201527f43616e6e6f74206d696e7420746f207a65726f2061646472657373000000000060448201526064015b60405180910390fd5b60006103a36012600a610bf3565b6103ad9083610c02565b90506103b98382610679565b826001600160a01b03167f3f2c9d57c068687834f0de942a9babb9e5acab57d516d3480a3c16ee165a4273826040516103f491815260200190565b60405180910390a2505050565b600061040f6012600a610bf3565b6104199083610c02565b3360009081526020819052604090205490915081111561047b5760405162461bcd60e51b815260206004820152601c60248201527f496e73756666696369656e742062616c616e636520746f206275726e00000000604482015260640161038c565b61048533826106b3565b60405181815233907ffd38818f5291bf0bb3a2a48aadc06ba8757865d1dabd804585338aab3009dcb69060200160405180910390a25050565b6104c661064c565b6104d060006106e9565b565b60606004805461027190610abf565b6000336103028185856105ed565b6060806000806104fd610262565b93506105076104d2565b92506012915061051660025490565b905090919293565b61052661064c565b6001600160a01b03811661055057604051631e4fbdf760e01b81526000600482015260240161038c565b610559816106e9565b50565b610569838383600161073b565b505050565b6001600160a01b038381166000908152600160209081526040808320938616835292905220546000198110156105e757818110156105d857604051637dc7a0d960e11b81526001600160a01b0384166004820152602481018290526044810183905260640161038c565b6105e78484848403600061073b565b50505050565b6001600160a01b03831661061757604051634b637e8f60e11b81526000600482015260240161038c565b6001600160a01b0382166106415760405163ec442f0560e01b81526000600482015260240161038c565b610569838383610810565b6005546001600160a01b031633146104d05760405163118cdaa760e01b815233600482015260240161038c565b6001600160a01b0382166106a35760405163ec442f0560e01b81526000600482015260240161038c565b6106af60008383610810565b5050565b6001600160a01b0382166106dd57604051634b637e8f60e11b81526000600482015260240161038c565b6106af82600083610810565b600580546001600160a01b038381166001600160a01b0319831681179093556040519116919082907f8be0079c531659141344cd1fd0a4f28419497f9722a3daafe3b4186f6b6457e090600090a35050565b6001600160a01b0384166107655760405163e602df0560e01b81526000600482015260240161038c565b6001600160a01b03831661078f57604051634a1406b160e11b81526000600482015260240161038c565b6001600160a01b03808516600090815260016020908152604080832093871683529290522082905580156105e757826001600160a01b0316846001600160a01b03167f8c5be1e5ebec7d5bd14f71427d1e84f3dd0314c0f7b2291e5b200ac8c7c3b9258460405161080291815260200190565b60405180910390a350505050565b6001600160a01b03831661083b5780600260008282546108309190610c19565b909155506108ad9050565b6001600160a01b0383166000908152602081905260409020548181101561088e5760405163391434e360e21b81526001600160a01b0385166004820152602481018290526044810183905260640161038c565b6001600160a01b03841660009081526020819052604090209082900390555b6001600160a01b0382166108c9576002805482900390556108e8565b6001600160a01b03821660009081526020819052604090208054820190555b816001600160a01b0316836001600160a01b03167fddf252ad1be2c89b69c2b068fc378daa952ba7f163c4a11628f55a4df523b3ef8360405161092d91815260200190565b60405180910390a3505050565b6000815180845260005b8181101561096057602081850181015186830182015201610944565b506000602082860101526020601f19601f83011685010191505092915050565b602081526000610993602083018461093a565b9392505050565b80356001600160a01b03811681146109b157600080fd5b919050565b600080604083850312156109c957600080fd5b6109d28361099a565b946020939093013593505050565b6000806000606084860312156109f557600080fd5b6109fe8461099a565b9250610a0c6020850161099a565b9150604084013590509250925092565b600060208284031215610a2e57600080fd5b5035919050565b600060208284031215610a4757600080fd5b6109938261099a565b608081526000610a63608083018761093a565b8281036020840152610a75818761093a565b60ff95909516604084015250506060015292915050565b60008060408385031215610a9f57600080fd5b610aa88361099a565b9150610ab66020840161099a565b90509250929050565b600181811c90821680610ad357607f821691505b602082108103610af357634e487b7160e01b600052602260045260246000fd5b50919050565b634e487b7160e01b600052601160045260246000fd5b600181815b80851115610b4a578160001904821115610b3057610b30610af9565b80851615610b3d57918102915b93841c9390800290610b14565b509250929050565b600082610b6157506001610308565b81610b6e57506000610308565b8160018114610b845760028114610b8e57610baa565b6001915050610308565b60ff841115610b9f57610b9f610af9565b50506001821b610308565b5060208310610133831016604e8410600b8410161715610bcd575081810a610308565b610bd78383610b0f565b8060001904821115610beb57610beb610af9565b029392505050565b600061099360ff841683610b52565b808202811582820484141761030857610308610af9565b8082018082111561030857610308610af956fea26469706673582212205640e6651530744c2268071354e13416bf825c4a51b184cbbc115f42d551627764736f6c63430008180033",
  "linkReferences": {},
  "deployedLinkReferences": {}
}