{
  "_format": "hh-sol-artifact-1",
  "contractName": "NFTStaking",
  "sourceName": "contracts/NFTStaking.sol",
  "abi": [
    {
      "inputs": [
        {
          "internalType": "address",
          "name": "_sgtToken",
          "type": "address"
        },
        {
          "internalType": "address",
          "name": "_genesisBadge",
          "type": "address"
        }
      ],
      "stateMutability": "nonpayable",
      "type": "constructor"
    },
    {
      "inputs": [
        {
          "internalType": "address",
          "name": "owner",
          "type": "address"
        }
      ],
      "name": "OwnableInvalidOwner",
      "type": "error"
    },
    {
      "inputs": [
        {
          "internalType": "address",
          "name": "account",
          "type": "address"
        }
      ],
      "name": "OwnableUnauthorizedAccount",
      "type": "error"
    },
    {
      "inputs": [],
      "name": "ReentrancyGuardReentrantCall",
      "type": "error"
    },
    {
      "anonymous": false,
      "inputs": [
        {
          "indexed": true,
          "internalType": "address",
          "name": "user",
          "type": "address"
        },
        {
          "indexed": false,
          "internalType": "uint256",
          "name": "tokenId",
          "type": "uint256"
        },
        {
          "indexed": false,
          "internalType": "uint8",
          "name": "tier",
          "type": "uint8"
        }
      ],
      "name": "BadgeClaimed",
      "type": "event"
    },
    {
      "anonymous": false,
      "inputs": [
        {
          "indexed": true,
          "internalType": "address",
          "name": "previousOwner",
          "type": "address"
        },
        {
          "indexed": true,
          "internalType": "address",
          "name": "newOwner",
          "type": "address"
        }
      ],
      "name": "OwnershipTransferred",
      "type": "event"
    },
    {
      "anonymous": false,
      "inputs": [
        {
          "indexed": true,
          "internalType": "address",
          "name": "user",
          "type": "address"
        },
        {
          "indexed": false,
          "internalType": "uint256",
          "name": "amount",
          "type": "uint256"
        },
        {
          "indexed": false,
          "internalType": "uint256",
          "name": "timestamp",
          "type": "uint256"
        }
      ],
      "name": "Staked",
      "type": "event"
    },
    {
      "anonymous": false,
      "inputs": [
        {
          "indexed": true,
          "internalType": "address",
          "name": "user",
          "type": "address"
        },
        {
          "indexed": false,
          "internalType": "uint256",
          "name": "amount",
          "type": "uint256"
        },
        {
          "indexed": false,
          "internalType": "uint256",
          "name": "timestamp",
          "type": "uint256"
        }
      ],
      "name": "Unstaked",
      "type": "event"
    },
    {
      "inputs": [
        {
          "internalType": "address",
          "name": "user",
          "type": "address"
        }
      ],
      "name": "canClaimBadge",
      "outputs": [
        {
          "internalType": "bool",
          "name": "eligible",
          "type": "bool"
        },
        {
          "internalType": "uint8",
          "name": "tier",
          "type": "uint8"
        }
      ],
      "stateMutability": "view",
      "type": "function"
    },
    {
      "inputs": [],
      "name": "claimBadge",
      "outputs": [
        {
          "internalType": "uint256",
          "name": "",
          "type": "uint256"
        }
      ],
      "stateMutability": "nonpayable",
      "type": "function"
    },
    {
      "inputs": [
        {
          "internalType": "uint8",
          "name": "",
          "type": "uint8"
        }
      ],
      "name": "defaultMetadataURIs",
      "outputs": [
        {
          "internalType": "string",
          "name": "",
          "type": "string"
        }
      ],
      "stateMutability": "view",
      "type": "function"
    },
    {
      "inputs": [],
      "name": "emergencyWithdraw",
      "outputs": [],
      "stateMutability": "nonpayable",
      "type": "function"
    },
    {
      "inputs": [],
      "name": "genesisBadge",
      "outputs": [
        {
          "internalType": "contract GenesisBadge",
          "name": "",
          "type": "address"
        }
      ],
      "stateMutability": "view",
      "type": "function"
    },
    {
      "inputs": [
        {
          "internalType": "address",
          "name": "user",
          "type": "address"
        }
      ],
      "name": "getEligibleTier",
      "outputs": [
        {
          "internalType": "uint8",
          "name": "",
          "type": "uint8"
        }
      ],
      "stateMutability": "view",
      "type": "function"
    },
    {
      "inputs": [
        {
          "internalType": "address",
          "name": "user",
          "type": "address"
        }
      ],
      "name": "getStakeInfo",
      "outputs": [
        {
          "internalType": "uint256",
          "name": "amount",
          "type": "uint256"
        },
        {
          "internalType": "uint256",
          "name": "startTime",
          "type": "uint256"
        },
        {
          "internalType": "uint256",
          "name": "duration",
          "type": "uint256"
        },
        {
          "internalType": "uint8",
          "name": "tier",
          "type": "uint8"
        },
        {
          "internalType": "bool",
          "name": "claimed",
          "type": "bool"
        }
      ],
      "stateMutability": "view",
      "type": "function"
    },
    {
      "inputs": [
        {
          "internalType": "uint8",
          "name": "tier",
          "type": "uint8"
        }
      ],
      "name": "getTierRequirements",
      "outputs": [
        {
          "internalType": "uint256",
          "name": "minAmount",
          "type": "uint256"
        },
        {
          "internalType": "uint256",
          "name": "minDuration",
          "type": "uint256"
        }
      ],
      "stateMutability": "view",
      "type": "function"
    },
    {
      "inputs": [],
      "name": "owner",
      "outputs": [
        {
          "internalType": "address",
          "name": "",
          "type": "address"
        }
      ],
      "stateMutability": "view",
      "type": "function"
    },
    {
      "inputs": [],
      "name": "renounceOwnership",
      "outputs": [],
      "stateMutability": "nonpayable",
      "type": "function"
    },
    {
      "inputs": [
        {
          "internalType": "uint8",
          "name": "tier",
          "type": "uint8"
        },
        {
          "internalType": "string",
          "name": "uri",
          "type": "string"
        }
      ],
      "name": "setDefaultMetadataURI",
      "outputs": [],
      "stateMutability": "nonpayable",
      "type": "function"
    },
    {
      "inputs": [],
      "name": "sgtToken",
      "outputs": [
        {
          "internalType": "contract IERC20",
          "name": "",
          "type": "address"
        }
      ],
      "stateMutability": "view",
      "type": "function"
    },
    {
      "inputs": [
        {
          "internalType": "uint256",
          "name": "amount",
          "type": "uint256"
        }
      ],
      "name": "stake",
      "outputs": [],
      "stateMutability": "nonpayable",
      "type": "function"
    },
    {
      "inputs": [
        {
          "internalType": "address",
          "name": "",
          "type": "address"
        }
      ],
      "name": "stakes",
      "outputs": [
        {
          "internalType": "uint256",
          "name": "amount",
          "type": "uint256"
        },
        {
          "internalType": "uint256",
          "name": "startTime",
          "type": "uint256"
        },
        {
          "internalType": "uint8",
          "name": "tier",
          "type": "uint8"
        },
        {
          "internalType": "bool",
          "name": "claimed",
          "type": "bool"
        }
      ],
      "stateMutability": "view",
      "type": "function"
    },
    {
      "inputs": [
        {
          "internalType": "uint8",
          "name": "",
          "type": "uint8"
        }
      ],
      "name": "tierRequirements",
      "outputs": [
        {
          "internalType": "uint256",
          "name": "minAmount",
          "type": "uint256"
        },
        {
          "internalType": "uint256",
          "name": "minDuration",
          "type": "uint256"
        }
      ],
      "stateMutability": "view",
      "type": "function"
    },
    {
      "inputs": [],
      "name": "totalStaked",
      "outputs": [
        {
          "internalType": "uint256",
          "name": "",
          "type": "uint256"
        }
      ],
      "stateMutability": "view",
      "type": "function"
    },
    {
      "inputs": [
        {
          "internalType": "address",
          "name": "newOwner",
          "type": "address"
        }
      ],
      "name": "transferOwnership",
      "outputs": [],
      "stateMutability": "nonpayable",
      "type": "function"
    },
    {
      "inputs": [],
      "name": "unstake",
      "outputs": [],
      "stateMutability": "nonpayable",
      "type": "function"
    }
  ],
  "bytecode": "0x60c06040523480156200001157600080fd5b506040516200182a3803806200182a8339810160408190526200003491620003cd565b33806200005c57604051631e4fbdf760e01b8152600060048201526024015b60405180910390fd5b620000678162000360565b50600180556001600160a01b038216620000c45760405162461bcd60e51b815260206004820152601960248201527f496e76616c69642053475420746f6b656e206164647265737300000000000000604482015260640162000053565b6001600160a01b0381166200011c5760405162461bcd60e51b815260206004820152601d60248201527f496e76616c69642047656e657369732042616467652061646472657373000000604482015260640162000053565b6001600160a01b03808316608052811660a0526200035860408051808201825268056bc75e2d6310000081526201518060208083019182526000808052600380835293517f3617319a054d772f909f7c479a2cebe5066e836a939412e32403c99029b92eff5591517f3617319a054d772f909f7c479a2cebe5066e836a939412e32403c99029b92f005583518085018552681b1ae4d6e2ef500000815262093a808183019081526001845284835290517fa15bc60c955c405d20d9149c709e2460f1c2d9a497496a7f46004d1772c3054c55517fa15bc60c955c405d20d9149c709e2460f1c2d9a497496a7f46004d1772c3054d5583518085018552683635c9adc5dea00000815262278d008183019081526002845284835290517fc3a24b0501bd2c13a7e57f2db4369ec4c223447539fc0724a9d55ac4a06ebd4d55517fc3a24b0501bd2c13a7e57f2db4369ec4c223447539fc0724a9d55ac4a06ebd4e558351808501855269010f0cf064dd5920000081526276a70081830190815284845284835290517fcbc4e5fb02c3d1de23a9f1e014b4d2ee5aeaea9505df5e855c9210bf472495af55517fcbc4e5fb02c3d1de23a9f1e014b4d2ee5aeaea9505df5e855c9210bf472495b055835180850190945269021e19e0c9bab2400000845262ed4e0084820190815260049092529190915290517f83ec6a1f0257b830b5e016457c9cf1435391bf56cc98f369a58a54fe9377246555517f83ec6a1f0257b830b5e016457c9cf1435391bf56cc98f369a58a54fe9377246655565b505062000405565b600080546001600160a01b038381166001600160a01b0319831681178455604051919092169283917f8be0079c531659141344cd1fd0a4f28419497f9722a3daafe3b4186f6b6457e09190a35050565b80516001600160a01b0381168114620003c857600080fd5b919050565b60008060408385031215620003e157600080fd5b620003ec83620003b0565b9150620003fc60208401620003b0565b90509250929050565b60805160a0516113dc6200044e60003960008181610120015261084b015260008181610190015281816104b001528181610ae201528181610d560152610dcd01526113dc6000f3fe608060405234801561001057600080fd5b50600436106101165760003560e01c8063817b1cd2116100a2578063c345315311610071578063c3453153146102c4578063c68cc3b614610304578063db2e21bc14610340578063eeb8183c14610348578063f2fde38b1461035b57600080fd5b8063817b1cd2146102845780638da5cb5b1461028d578063a694fc3a1461029e578063af243226146102b157600080fd5b80632def6620116100e95780632def6620146102175780633230a0ce1461022157806356e5694214610241578063697ef82214610257578063715018a61461027c57600080fd5b80630d09e6cd1461011b57806313d1781a1461015f578063166ff0301461018b57806316934fc4146101b2575b600080fd5b6101427f000000000000000000000000000000000000000000000000000000000000000081565b6040516001600160a01b0390911681526020015b60405180910390f35b61017261016d366004610ff5565b61036e565b60408051921515835260ff909116602083015201610156565b6101427f000000000000000000000000000000000000000000000000000000000000000081565b6101ec6101c0366004610ff5565b600260208190526000918252604090912080546001820154919092015460ff8082169161010090041684565b6040516101569493929190938452602084019290925260ff1660408301521515606082015260800190565b61021f6103fa565b005b61023461022f36600461103b565b610588565b604051610156919061109c565b610249610622565b604051908152602001610156565b61026a610265366004610ff5565b610918565b60405160ff9091168152602001610156565b61021f610a0f565b61024960045481565b6000546001600160a01b0316610142565b61021f6102ac3660046110af565b610a21565b61021f6102bf3660046110c8565b610c31565b6102d76102d2366004610ff5565b610c9f565b6040805195865260208601949094529284019190915260ff1660608301521515608082015260a001610156565b61032b61031236600461103b565b6003602052600090815260409020805460019091015482565b60408051928352602083019190915201610156565b61021f610d36565b61032b61035636600461103b565b610e99565b61021f610369366004610ff5565b610f13565b6001600160a01b03811660009081526002602081815260408084208151608081018352815480825260018301549482019490945293015460ff808216928501929092526101009004161515606083015282919015806103ce575080606001515b156103e0575060009360ff9350915050565b6103e984610918565b915060ff8260ff1610925050915091565b610402610f4e565b33600090815260026020526040902080546104565760405162461bcd60e51b815260206004820152600f60248201526e4e6f20616374697665207374616b6560881b60448201526064015b60405180910390fd5b805433600090815260026020819052604082208281556001810183905501805461ffff191690556004805483929061048f908490611161565b909155505060405163a9059cbb60e01b8152336004820152602481018290527f00000000000000000000000000000000000000000000000000000000000000006001600160a01b03169063a9059cbb906044016020604051808303816000875af1158015610501573d6000803e3d6000fd5b505050506040513d601f19601f82011682018060405250810190610525919061117a565b6105415760405162461bcd60e51b815260040161044d9061119c565b6040805182815242602082015233917f7fc4727e062e336010f2c282598ef5f14facb3de68cf8195c2f23e1454b2b74e910160405180910390a2505061058660018055565b565b600560205260009081526040902080546105a1906111c5565b80601f01602080910402602001604051908101604052809291908181526020018280546105cd906111c5565b801561061a5780601f106105ef5761010080835404028352916020019161061a565b820191906000526020600020905b8154815290600101906020018083116105fd57829003601f168201915b505050505081565b600061062c610f4e565b336000908152600260205260409020805461067b5760405162461bcd60e51b815260206004820152600f60248201526e4e6f20616374697665207374616b6560881b604482015260640161044d565b6002810154610100900460ff16156106cd5760405162461bcd60e51b815260206004820152601560248201527410985919d948185b1c9958591e4818db185a5b5959605a1b604482015260640161044d565b60006106d833610918565b905060ff8160ff161061072d5760405162461bcd60e51b815260206004820152601960248201527f4e6f7420656c696769626c6520666f7220616e79207469657200000000000000604482015260640161044d565b60028201805460ff831661ffff1990911681176101001790915560009081526005602052604081208054610760906111c5565b80601f016020809104026020016040519081016040528092919081815260200182805461078c906111c5565b80156107d95780601f106107ae576101008083540402835291602001916107d9565b820191906000526020600020905b8154815290600101906020018083116107bc57829003601f168201915b5050505050905060008151116108315760405162461bcd60e51b815260206004820152601d60248201527f4d6574616461746120555249206e6f742073657420666f722074696572000000604482015260640161044d565b60405163fc1cc1d160e01b81526000906001600160a01b037f0000000000000000000000000000000000000000000000000000000000000000169063fc1cc1d190610884903390879087906004016111ff565b6020604051808303816000875af11580156108a3573d6000803e3d6000fd5b505050506040513d601f19601f820116820180604052508101906108c79190611235565b6040805182815260ff8616602082015291925033917fd16eec11c4ddd61d73ef3daec88f389c3bf64c82451462f9f1a1bf4e58143c7e910160405180910390a2935050505061091560018055565b90565b6001600160a01b03811660009081526002602081815260408084208151608081018352815480825260018301549482019490945293015460ff80821692850192909252610100900416151560608301528203610977575060ff92915050565b60008160200151426109899190611161565b905060045b60ff811660009081526003602090815260409182902082518084019093528054808452600190910154918301919091528451108015906109d2575080602001518310155b156109e05750949350505050565b8160ff166000036109f15750610a04565b50806109fc8161124e565b91505061098e565b5060ff949350505050565b610a17610f78565b6105866000610fa5565b610a29610f4e565b60008111610a715760405162461bcd60e51b815260206004820152601560248201527443616e6e6f74207374616b65203020746f6b656e7360581b604482015260640161044d565b3360009081526002602052604090205415610ac05760405162461bcd60e51b815260206004820152600f60248201526e416c7265616479207374616b696e6760881b604482015260640161044d565b6040516323b872dd60e01b8152336004820152306024820152604481018290527f00000000000000000000000000000000000000000000000000000000000000006001600160a01b0316906323b872dd906064016020604051808303816000875af1158015610b33573d6000803e3d6000fd5b505050506040513d601f19601f82011682018060405250810190610b57919061117a565b610b735760405162461bcd60e51b815260040161044d9061119c565b604080516080810182528281524260208083019182526000838501818152606085018281523383526002938490529582209451855592516001850155915192018054935115156101000261ffff1990941660ff939093169290921792909217905560048054839290610be690849061126b565b90915550506040805182815242602082015233917f1449c6dd7851abc30abf37f57715f492010519147cc2652fbc38202c18a6ee90910160405180910390a2610c2e60018055565b50565b610c39610f78565b60048360ff161115610c7c5760405162461bcd60e51b815260206004820152600c60248201526b24b73b30b634b2103a34b2b960a11b604482015260640161044d565b60ff83166000908152600560205260409020610c998284836112e5565b50505050565b6001600160a01b03811660009081526002602081815260408084208151608081018352815480825260018301549482019490945293015460ff80821692850192909252610100900416151560608301528291829182918291610d02576000610d11565b6020810151610d119042611161565b815160208301516040840151606090940151919a909950919750919550909350915050565b610d3e610f78565b6040516370a0823160e01b81523060048201526000907f00000000000000000000000000000000000000000000000000000000000000006001600160a01b0316906370a0823190602401602060405180830381865afa158015610da5573d6000803e3d6000fd5b505050506040513d601f19601f82011682018060405250810190610dc99190611235565b90507f00000000000000000000000000000000000000000000000000000000000000006001600160a01b031663a9059cbb610e0c6000546001600160a01b031690565b6040516001600160e01b031960e084901b1681526001600160a01b039091166004820152602481018490526044016020604051808303816000875af1158015610e59573d6000803e3d6000fd5b505050506040513d601f19601f82011682018060405250810190610e7d919061117a565b610c2e5760405162461bcd60e51b815260040161044d9061119c565b60008060048360ff161115610edf5760405162461bcd60e51b815260206004820152600c60248201526b24b73b30b634b2103a34b2b960a11b604482015260640161044d565b505060ff16600090815260036020908152604091829020825180840190935280548084526001909101549290910182905291565b610f1b610f78565b6001600160a01b038116610f4557604051631e4fbdf760e01b81526000600482015260240161044d565b610c2e81610fa5565b600260015403610f7157604051633ee5aeb560e01b815260040160405180910390fd5b6002600155565b6000546001600160a01b031633146105865760405163118cdaa760e01b815233600482015260240161044d565b600080546001600160a01b038381166001600160a01b0319831681178455604051919092169283917f8be0079c531659141344cd1fd0a4f28419497f9722a3daafe3b4186f6b6457e09190a35050565b60006020828403121561100757600080fd5b81356001600160a01b038116811461101e57600080fd5b9392505050565b803560ff8116811461103657600080fd5b919050565b60006020828403121561104d57600080fd5b61101e82611025565b6000815180845260005b8181101561107c57602081850181015186830182015201611060565b506000602082860101526020601f19601f83011685010191505092915050565b60208152600061101e6020830184611056565b6000602082840312156110c157600080fd5b5035919050565b6000806000604084860312156110dd57600080fd5b6110e684611025565b9250602084013567ffffffffffffffff8082111561110357600080fd5b818601915086601f83011261111757600080fd5b81358181111561112657600080fd5b87602082850101111561113857600080fd5b6020830194508093505050509250925092565b634e487b7160e01b600052601160045260246000fd5b818103818111156111745761117461114b565b92915050565b60006020828403121561118c57600080fd5b8151801515811461101e57600080fd5b6020808252600f908201526e151c985b9cd9995c8819985a5b1959608a1b604082015260600190565b600181811c908216806111d957607f821691505b6020821081036111f957634e487b7160e01b600052602260045260246000fd5b50919050565b6001600160a01b038416815260ff8316602082015260606040820181905260009061122c90830184611056565b95945050505050565b60006020828403121561124757600080fd5b5051919050565b600060ff8216806112615761126161114b565b6000190192915050565b808201808211156111745761117461114b565b634e487b7160e01b600052604160045260246000fd5b601f8211156112e0576000816000526020600020601f850160051c810160208610156112bd5750805b601f850160051c820191505b818110156112dc578281556001016112c9565b5050505b505050565b67ffffffffffffffff8311156112fd576112fd61127e565b6113118361130b83546111c5565b83611294565b6000601f841160018114611345576000851561132d5750838201355b600019600387901b1c1916600186901b17835561139f565b600083815260209020601f19861690835b828110156113765786850135825560209485019460019092019101611356565b50868210156113935760001960f88860031b161c19848701351681555b505060018560011b0183555b505050505056fea264697066735822122026354d9956ccac55842449d972f52aa0a5e5e23fe79fd81f519551789158cf2a64736f6c63430008180033",
  "linkReferences": {},
  "deployedLinkReferences": {}
}