{
  "_format": "hh-sol-artifact-1",
  "contractName": "AIYieldManager",
  "sourceName": "contracts/ai/AIYieldManager.sol",
  "abi": [
    {
      "inputs": [],
      "stateMutability": "nonpayable",
      "type": "constructor"
    },
    {
      "inputs": [
        {
          "internalType": "address",
          "name": "owner",
          "type": "address"
        }
      ],
      "name": "OwnableInvalidOwner",
      "type": "error"
    },
    {
      "inputs": [
        {
          "internalType": "address",
          "name": "account",
          "type": "address"
        }
      ],
      "name": "OwnableUnauthorizedAccount",
      "type": "error"
    },
    {
      "inputs": [],
      "name": "ReentrancyGuardReentrantCall",
      "type": "error"
    },
    {
      "anonymous": false,
      "inputs": [
        {
          "indexed": true,
          "internalType": "uint256",
          "name": "proposalId",
          "type": "uint256"
        },
        {
          "indexed": false,
          "internalType": "string",
          "name": "reasoning",
          "type": "string"
        }
      ],
      "name": "AIVerdictReceived",
      "type": "event"
    },
    {
      "anonymous": false,
      "inputs": [
        {
          "indexed": true,
          "internalType": "address",
          "name": "previousOwner",
          "type": "address"
        },
        {
          "indexed": true,
          "internalType": "address",
          "name": "newOwner",
          "type": "address"
        }
      ],
      "name": "OwnershipTransferred",
      "type": "event"
    },
    {
      "anonymous": false,
      "inputs": [
        {
          "indexed": true,
          "internalType": "address",
          "name": "poolAddress",
          "type": "address"
        },
        {
          "indexed": false,
          "internalType": "uint256",
          "name": "initialAPY",
          "type": "uint256"
        }
      ],
      "name": "PoolRegistered",
      "type": "event"
    },
    {
      "anonymous": false,
      "inputs": [
        {
          "indexed": true,
          "internalType": "uint256",
          "name": "proposalId",
          "type": "uint256"
        },
        {
          "indexed": true,
          "internalType": "address",
          "name": "user",
          "type": "address"
        },
        {
          "indexed": false,
          "internalType": "uint256",
          "name": "actualAPY",
          "type": "uint256"
        }
      ],
      "name": "RebalanceExecuted",
      "type": "event"
    },
    {
      "anonymous": false,
      "inputs": [
        {
          "indexed": true,
          "internalType": "uint256",
          "name": "proposalId",
          "type": "uint256"
        },
        {
          "indexed": false,
          "internalType": "address",
          "name": "fromPool",
          "type": "address"
        },
        {
          "indexed": false,
          "internalType": "address",
          "name": "toPool",
          "type": "address"
        },
        {
          "indexed": false,
          "internalType": "uint256",
          "name": "amount",
          "type": "uint256"
        }
      ],
      "name": "RebalanceTriggered",
      "type": "event"
    },
    {
      "anonymous": false,
      "inputs": [
        {
          "indexed": true,
          "internalType": "address",
          "name": "user",
          "type": "address"
        },
        {
          "indexed": true,
          "internalType": "address",
          "name": "pool",
          "type": "address"
        },
        {
          "indexed": false,
          "internalType": "string",
          "name": "reason",
          "type": "string"
        }
      ],
      "name": "RiskAlert",
      "type": "event"
    },
    {
      "anonymous": false,
      "inputs": [
        {
          "indexed": true,
          "internalType": "address",
          "name": "user",
          "type": "address"
        },
        {
          "indexed": false,
          "internalType": "uint256",
          "name": "targetAPY",
          "type": "uint256"
        },
        {
          "indexed": false,
          "internalType": "uint256",
          "name": "maxVolatility",
          "type": "uint256"
        }
      ],
      "name": "StrategyUpdated",
      "type": "event"
    },
    {
      "anonymous": false,
      "inputs": [
        {
          "indexed": true,
          "internalType": "address",
          "name": "pool",
          "type": "address"
        },
        {
          "indexed": false,
          "internalType": "uint256",
          "name": "newAPY",
          "type": "uint256"
        },
        {
          "indexed": false,
          "internalType": "uint256",
          "name": "liquidity",
          "type": "uint256"
        },
        {
          "indexed": false,
          "internalType": "uint256",
          "name": "volatility",
          "type": "uint256"
        }
      ],
      "name": "YieldUpdated",
      "type": "event"
    },
    {
      "inputs": [],
      "name": "FEE_DENOMINATOR",
      "outputs": [
        {
          "internalType": "uint256",
          "name": "",
          "type": "uint256"
        }
      ],
      "stateMutability": "view",
      "type": "function"
    },
    {
      "inputs": [],
      "name": "aiOracle",
      "outputs": [
        {
          "internalType": "address",
          "name": "",
          "type": "address"
        }
      ],
      "stateMutability": "view",
      "type": "function"
    },
    {
      "inputs": [
        {
          "internalType": "uint256",
          "name": "proposalId",
          "type": "uint256"
        }
      ],
      "name": "executeRebalance",
      "outputs": [],
      "stateMutability": "nonpayable",
      "type": "function"
    },
    {
      "inputs": [],
      "name": "getActivePools",
      "outputs": [
        {
          "internalType": "address[]",
          "name": "",
          "type": "address[]"
        }
      ],
      "stateMutability": "view",
      "type": "function"
    },
    {
      "inputs": [
        {
          "internalType": "address",
          "name": "poolAddress",
          "type": "address"
        }
      ],
      "name": "getPoolMetrics",
      "outputs": [
        {
          "internalType": "uint256",
          "name": "apy",
          "type": "uint256"
        },
        {
          "internalType": "uint256",
          "name": "liquidity",
          "type": "uint256"
        },
        {
          "internalType": "uint256",
          "name": "volatility",
          "type": "uint256"
        },
        {
          "internalType": "uint256",
          "name": "lastUpdate",
          "type": "uint256"
        },
        {
          "internalType": "bool",
          "name": "active",
          "type": "bool"
        }
      ],
      "stateMutability": "view",
      "type": "function"
    },
    {
      "inputs": [
        {
          "internalType": "uint256",
          "name": "proposalId",
          "type": "uint256"
        }
      ],
      "name": "getProposal",
      "outputs": [
        {
          "internalType": "address",
          "name": "fromPool",
          "type": "address"
        },
        {
          "internalType": "address",
          "name": "toPool",
          "type": "address"
        },
        {
          "internalType": "uint256",
          "name": "amount",
          "type": "uint256"
        },
        {
          "internalType": "uint256",
          "name": "expectedAPY",
          "type": "uint256"
        },
        {
          "internalType": "bool",
          "name": "executed",
          "type": "bool"
        },
        {
          "internalType": "string",
          "name": "reasoning",
          "type": "string"
        }
      ],
      "stateMutability": "view",
      "type": "function"
    },
    {
      "inputs": [
        {
          "internalType": "address",
          "name": "user",
          "type": "address"
        }
      ],
      "name": "getUserStrategy",
      "outputs": [
        {
          "internalType": "uint256",
          "name": "targetAPY",
          "type": "uint256"
        },
        {
          "internalType": "uint256",
          "name": "maxVolatility",
          "type": "uint256"
        },
        {
          "internalType": "uint256",
          "name": "minLiquidity",
          "type": "uint256"
        },
        {
          "internalType": "bool",
          "name": "autoRebalance",
          "type": "bool"
        }
      ],
      "stateMutability": "view",
      "type": "function"
    },
    {
      "inputs": [],
      "name": "owner",
      "outputs": [
        {
          "internalType": "address",
          "name": "",
          "type": "address"
        }
      ],
      "stateMutability": "view",
      "type": "function"
    },
    {
      "inputs": [
        {
          "internalType": "uint256",
          "name": "",
          "type": "uint256"
        }
      ],
      "name": "poolList",
      "outputs": [
        {
          "internalType": "address",
          "name": "",
          "type": "address"
        }
      ],
      "stateMutability": "view",
      "type": "function"
    },
    {
      "inputs": [
        {
          "internalType": "address",
          "name": "",
          "type": "address"
        }
      ],
      "name": "pools",
      "outputs": [
        {
          "internalType": "address",
          "name": "poolAddress",
          "type": "address"
        },
        {
          "internalType": "uint256",
          "name": "currentAPY",
          "type": "uint256"
        },
        {
          "internalType": "uint256",
          "name": "liquidity",
          "type": "uint256"
        },
        {
          "internalType": "uint256",
          "name": "volatility",
          "type": "uint256"
        },
        {
          "internalType": "uint256",
          "name": "lastUpdate",
          "type": "uint256"
        },
        {
          "internalType": "bool",
          "name": "active",
          "type": "bool"
        }
      ],
      "stateMutability": "view",
      "type": "function"
    },
    {
      "inputs": [],
      "name": "proposalCount",
      "outputs": [
        {
          "internalType": "uint256",
          "name": "",
          "type": "uint256"
        }
      ],
      "stateMutability": "view",
      "type": "function"
    },
    {
      "inputs": [
        {
          "internalType": "uint256",
          "name": "",
          "type": "uint256"
        }
      ],
      "name": "proposals",
      "outputs": [
        {
          "internalType": "address",
          "name": "fromPool",
          "type": "address"
        },
        {
          "internalType": "address",
          "name": "toPool",
          "type": "address"
        },
        {
          "internalType": "uint256",
          "name": "amount",
          "type": "uint256"
        },
        {
          "internalType": "uint256",
          "name": "expectedAPY",
          "type": "uint256"
        },
        {
          "internalType": "uint256",
          "name": "timestamp",
          "type": "uint256"
        },
        {
          "internalType": "bool",
          "name": "executed",
          "type": "bool"
        },
        {
          "internalType": "string",
          "name": "aiReasoning",
          "type": "string"
        }
      ],
      "stateMutability": "view",
      "type": "function"
    },
    {
      "inputs": [
        {
          "internalType": "address",
          "name": "user",
          "type": "address"
        },
        {
          "internalType": "address",
          "name": "fromPool",
          "type": "address"
        },
        {
          "internalType": "address",
          "name": "toPool",
          "type": "address"
        },
        {
          "internalType": "uint256",
          "name": "amount",
          "type": "uint256"
        },
        {
          "internalType": "uint256",
          "name": "expectedAPY",
          "type": "uint256"
        },
        {
          "internalType": "string",
          "name": "aiReasoning",
          "type": "string"
        }
      ],
      "name": "proposeRebalance",
      "outputs": [
        {
          "internalType": "uint256",
          "name": "",
          "type": "uint256"
        }
      ],
      "stateMutability": "nonpayable",
      "type": "function"
    },
    {
      "inputs": [],
      "name": "rebalanceFee",
      "outputs": [
        {
          "internalType": "uint256",
          "name": "",
          "type": "uint256"
        }
      ],
      "stateMutability": "view",
      "type": "function"
    },
    {
      "inputs": [
        {
          "internalType": "address",
          "name": "poolAddress",
          "type": "address"
        },
        {
          "internalType": "uint256",
          "name": "initialAPY",
          "type": "uint256"
        },
        {
          "internalType": "uint256",
          "name": "initialLiquidity",
          "type": "uint256"
        }
      ],
      "name": "registerPool",
      "outputs": [],
      "stateMutability": "nonpayable",
      "type": "function"
    },
    {
      "inputs": [],
      "name": "renounceOwnership",
      "outputs": [],
      "stateMutability": "nonpayable",
      "type": "function"
    },
    {
      "inputs": [
        {
          "internalType": "address",
          "name": "_aiOracle",
          "type": "address"
        }
      ],
      "name": "setAIOracle",
      "outputs": [],
      "stateMutability": "nonpayable",
      "type": "function"
    },
    {
      "inputs": [
        {
          "internalType": "uint256",
          "name": "newFee",
          "type": "uint256"
        }
      ],
      "name": "setRebalanceFee",
      "outputs": [],
      "stateMutability": "nonpayable",
      "type": "function"
    },
    {
      "inputs": [
        {
          "internalType": "uint256",
          "name": "targetAPY",
          "type": "uint256"
        },
        {
          "internalType": "uint256",
          "name": "maxVolatility",
          "type": "uint256"
        },
        {
          "internalType": "uint256",
          "name": "minLiquidity",
          "type": "uint256"
        },
        {
          "internalType": "bool",
          "name": "autoRebalance",
          "type": "bool"
        }
      ],
      "name": "setUserStrategy",
      "outputs": [],
      "stateMutability": "nonpayable",
      "type": "function"
    },
    {
      "inputs": [
        {
          "internalType": "address",
          "name": "newOwner",
          "type": "address"
        }
      ],
      "name": "transferOwnership",
      "outputs": [],
      "stateMutability": "nonpayable",
      "type": "function"
    },
    {
      "inputs": [
        {
          "internalType": "address",
          "name": "poolAddress",
          "type": "address"
        },
        {
          "internalType": "uint256",
          "name": "newAPY",
          "type": "uint256"
        },
        {
          "internalType": "uint256",
          "name": "newLiquidity",
          "type": "uint256"
        },
        {
          "internalType": "uint256",
          "name": "newVolatility",
          "type": "uint256"
        }
      ],
      "name": "updatePoolMetrics",
      "outputs": [],
      "stateMutability": "nonpayable",
      "type": "function"
    },
    {
      "inputs": [
        {
          "internalType": "address",
          "name": "",
          "type": "address"
        }
      ],
      "name": "userStrategies",
      "outputs": [
        {
          "internalType": "uint256",
          "name": "targetAPY",
          "type": "uint256"
        },
        {
          "internalType": "uint256",
          "name": "maxVolatility",
          "type": "uint256"
        },
        {
          "internalType": "uint256",
          "name": "minLiquidity",
          "type": "uint256"
        },
        {
          "internalType": "bool",
          "name": "autoRebalance",
          "type": "bool"
        }
      ],
      "stateMutability": "view",
      "type": "function"
    }
  ],
  "bytecode": "0x6080604052600a60085534801561001557600080fd5b50338061003c57604051631e4fbdf760e01b81526000600482015260240160405180910390fd5b61004581610061565b5060018055600280546001600160a01b031916331790556100b1565b600080546001600160a01b038381166001600160a01b0319831681178455604051919092169283917f8be0079c531659141344cd1fd0a4f28419497f9722a3daafe3b4186f6b6457e09190a35050565b6119d4806100c06000396000f3fe608060405234801561001057600080fd5b50600436106101425760003560e01c80637e2d41a0116100b8578063c7f758a81161007c578063c7f758a8146103ff578063d652834614610424578063d73792a914610437578063da35c66414610440578063dc5c7d3114610449578063f2fde38b146104af57600080fd5b80637e2d41a0146103275780638da5cb5b1461033a5780638ec083541461034b57806397edb94514610360578063a4063dbc1461037357600080fd5b80632e35bcca1161010a5780632e35bcca146101ea57806331b221cd146101f3578063487bb96514610206578063503c8f82146102605780635b41cde41461030c578063715018a61461031f57600080fd5b8063013cf08b146101475780630d947ddb146101765780631aa632b31461018b5780631b4da72d1461019e5780632a48235b146101bf575b600080fd5b61015a610155366004611471565b6104c2565b60405161016d97969594939291906114d0565b60405180910390f35b61018961018436600461153e565b61059b565b005b610189610199366004611571565b610766565b6101b16101ac366004611593565b6107df565b60405190815260200161016d565b6101d26101cd366004611471565b610aee565b6040516001600160a01b03909116815260200161016d565b6101b160085481565b6002546101d2906001600160a01b031681565b61023e610214366004611571565b60046020526000908152604090208054600182015460028301546003909301549192909160ff1684565b604080519485526020850193909352918301521515606082015260800161016d565b6102e261026e366004611571565b6001600160a01b03908116600090815260036020818152604092839020835160c0810185528154909516855260018101549185018290526002810154938501849052918201546060850181905260048301546080860181905260059093015460ff16151560a0909501859052909492939092565b6040805195865260208601949094529284019190915260608301521515608082015260a00161016d565b61018961031a36600461164b565b610b18565b610189610bb0565b610189610335366004611471565b610bc4565b6000546001600160a01b03166101d2565b610353610c8e565b60405161016d9190611691565b61018961036e366004611471565b610e12565b6103c6610381366004611571565b60036020819052600091825260409091208054600182015460028301549383015460048401546005909401546001600160a01b03909316949193919290919060ff1686565b604080516001600160a01b03909716875260208701959095529385019290925260608401526080830152151560a082015260c00161016d565b61041261040d366004611471565b610e5f565b60405161016d969594939291906116de565b61018961043236600461172c565b610f9b565b6101b161271081565b6101b160075481565b61023e610457366004611571565b6001600160a01b0316600090815260046020908152604091829020825160808101845281548082526001830154938201849052600283015494820185905260039092015460ff16151560609091018190529093919291565b6101896104bd366004611571565b6110e4565b600560208190526000918252604090912080546001820154600283015460038401546004850154958501546006860180546001600160a01b03968716989590961696939592949360ff9092169261051890611765565b80601f016020809104026020016040519081016040528092919081815260200182805461054490611765565b80156105915780601f1061056657610100808354040283529160200191610591565b820191906000526020600020905b81548152906001019060200180831161057457829003601f168201915b5050505050905087565b6105a361111f565b6001600160a01b0383166105f55760405162461bcd60e51b8152602060048201526014602482015273496e76616c696420706f6f6c206164647265737360601b60448201526064015b60405180910390fd5b6001600160a01b03831660009081526003602052604090206005015460ff16156106615760405162461bcd60e51b815260206004820152601760248201527f506f6f6c20616c7265616479207265676973746572656400000000000000000060448201526064016105ec565b6040805160c0810182526001600160a01b0385811680835260208084018781528486018781526000606087018181524260808901908152600160a08a0181815288855260038089528c86209b518c546001600160a01b031990811691909c16178c5596518b830155945160028b01559151948901949094559251600488015590516005909601805460ff1916961515969096179095556006805491820181559094527ff652222313e28459528d920b65115c16c04f3efc82aaedc97be59f3f377c0d3f9093018054909216811790915591518481527f8e7aeb727a8d0fd229ea085622d6ed0bf0ec5eda2885f3b38e6438cf586970fa910160405180910390a2505050565b61076e61111f565b6001600160a01b0381166107bd5760405162461bcd60e51b8152602060048201526016602482015275496e76616c6964206f7261636c65206164647265737360501b60448201526064016105ec565b600280546001600160a01b0319166001600160a01b0392909216919091179055565b6002546000906001600160a01b031633148061080557506000546001600160a01b031633145b6108485760405162461bcd60e51b815260206004820152601460248201527327b7363c9037b930b1b6329037b91037bbb732b960611b60448201526064016105ec565b6001600160a01b03871660009081526003602052604090206005015460ff16801561088e57506001600160a01b03861660009081526003602052604090206005015460ff165b6108ca5760405162461bcd60e51b815260206004820152600d60248201526c496e76616c696420706f6f6c7360981b60448201526064016105ec565b60078054600091826108db836117b5565b9190505590506040518060e00160405280896001600160a01b03168152602001886001600160a01b0316815260200187815260200186815260200142815260200160001515815260200185858080601f016020809104026020016040519081016040528093929190818152602001838380828437600092018290525093909452505083815260056020818152604092839020855181546001600160a01b03199081166001600160a01b0392831617835592870151600183018054909416911617909155918401516002830155606084015160038301556080840151600483015560a0840151908201805460ff191691151591909117905560c083015190915060068201906109e99082611834565b5050604080516001600160a01b03808c1682528a1660208201529081018890528291507fd71d363644d03c5e4a3605a16c1566c7215045c44b64623f493e31c7d09d14059060600160405180910390a2807f02584065ef8d6ea8ecdef43330ca46e788df1fdb1e75304707f5c4ec9cbd3fcf8585604051610a6b9291906118f4565b60405180910390a26001600160a01b03891660009081526004602090815260409182902082516080810184528154815260018201549281019290925260028101549282019290925260039091015460ff161580156060830181905290610ad2575080518610155b15610ae157610ae1828b61114c565b5098975050505050505050565b60068181548110610afe57600080fd5b6000918252602090912001546001600160a01b0316905081565b6040805160808101825285815260208082018681528284018681528515156060850190815233600081815260048652879020955186559251600186015590516002850155516003909301805460ff191693151593909317909255825187815290810186905290917f36535b0d6c4df3e3f4a1bd7a4c8214552b30ab0d1ad28d4d9fefe157a7777c0e910160405180910390a250505050565b610bb861111f565b610bc260006111f1565b565b610bcc611241565b60008181526005602081905260409091209081015460ff1615610c245760405162461bcd60e51b815260206004820152601060248201526f105b1c9958591e48195e1958dd5d195960821b60448201526064016105ec565b6004810154610c3590610e10611923565b421115610c775760405162461bcd60e51b815260206004820152601060248201526f141c9bdc1bdcd85b08195e1c1a5c995960821b60448201526064016105ec565b610c81823361114c565b50610c8b60018055565b50565b60606000805b600654811015610cfb576003600060068381548110610cb557610cb561193c565b60009182526020808320909101546001600160a01b0316835282019290925260400190206005015460ff1615610cf35781610cef816117b5565b9250505b600101610c94565b5060008167ffffffffffffffff811115610d1757610d176117ce565b604051908082528060200260200182016040528015610d40578160200160208202803683370190505b5090506000805b600654811015610e09576003600060068381548110610d6857610d6861193c565b60009182526020808320909101546001600160a01b0316835282019290925260400190206005015460ff1615610e015760068181548110610dab57610dab61193c565b9060005260206000200160009054906101000a90046001600160a01b0316838381518110610ddb57610ddb61193c565b6001600160a01b039092166020928302919091019091015281610dfd816117b5565b9250505b600101610d47565b50909392505050565b610e1a61111f565b6064811115610e5a5760405162461bcd60e51b815260206004820152600c60248201526b08ccaca40e8dede40d0d2ced60a31b60448201526064016105ec565b600855565b6000818152600560208181526040808420815160e08101835281546001600160a01b039081168252600183015416938101939093526002810154918301919091526003810154606083810191909152600482015460808401529281015460ff16151560a083015260068101805485948594859485949293859360c0840191610ee690611765565b80601f0160208091040260200160405190810160405280929190818152602001828054610f1290611765565b8015610f5f5780601f10610f3457610100808354040283529160200191610f5f565b820191906000526020600020905b815481529060010190602001808311610f4257829003601f168201915b505050919092525050815160208301516040840151606085015160a086015160c090960151939e929d50909b5099509297509550909350505050565b6002546001600160a01b0316331480610fbe57506000546001600160a01b031633145b6110015760405162461bcd60e51b815260206004820152601460248201527327b7363c9037b930b1b6329037b91037bbb732b960611b60448201526064016105ec565b6001600160a01b03841660009081526003602052604090206005015460ff1661105e5760405162461bcd60e51b815260206004820152600f60248201526e506f6f6c206e6f742061637469766560881b60448201526064016105ec565b6001600160a01b0384166000818152600360208181526040928390206001810188905560028101879055918201859055426004830155825187815290810186905291820184905291907f133d4d2bf8cdc31d287cdb9508cf61fd2e8191c6362a848576335fe1dd64e4fd9060600160405180910390a26110dd8561126b565b5050505050565b6110ec61111f565b6001600160a01b03811661111657604051631e4fbdf760e01b8152600060048201526024016105ec565b610c8b816111f1565b6000546001600160a01b03163314610bc25760405163118cdaa760e01b81523360048201526024016105ec565b60008281526005602081905260408220908101805460ff1916600117905560085460028201549192916127109161118291611952565b61118c9190611969565b905060008183600201546111a0919061198b565b9050836001600160a01b0316857ff1fdadf1a6c79430c8568adb887fc2ac9e23787517ea90c992a78b50721fcfde85600301546040516111e291815260200190565b60405180910390a35050505050565b600080546001600160a01b038381166001600160a01b0319831681178455604051919092169283917f8be0079c531659141344cd1fd0a4f28419497f9722a3daafe3b4186f6b6457e09190a35050565b60026001540361126457604051633ee5aeb560e01b815260040160405180910390fd5b6002600155565b6001600160a01b038082166000908152600360208181526040808420815160c08101835281549096168652600181015492860192909252600282015490850152908101546060840152600481015460808401526005015460ff16151560a08301525b60065481101561146c576000600682815481106112ec576112ec61193c565b60009182526020808320909101546001600160a01b031680835260048252604092839020835160808101855281548082526001830154948201949094526002820154948101949094526003015460ff1615156060840152925015611462578060200151846060015111156113d657846001600160a01b0316826001600160a01b03167fb70a6f168375b96a9937813295206c1b86982f0c6f7b144f1225f5d9b114972d6040516113cd906020808252601c908201527f566f6c6174696c6974792065786365656473207468726573686f6c6400000000604082015260600190565b60405180910390a35b80604001518460400151101561146257846001600160a01b0316826001600160a01b03167fb70a6f168375b96a9937813295206c1b86982f0c6f7b144f1225f5d9b114972d6040516114599060208082526019908201527f4c69717569646974792062656c6f77207468726573686f6c6400000000000000604082015260600190565b60405180910390a35b50506001016112cd565b505050565b60006020828403121561148357600080fd5b5035919050565b6000815180845260005b818110156114b057602081850181015186830182015201611494565b506000602082860101526020601f19601f83011685010191505092915050565b600060018060a01b03808a16835280891660208401525086604083015285606083015284608083015283151560a083015260e060c083015261151560e083018461148a565b9998505050505050505050565b80356001600160a01b038116811461153957600080fd5b919050565b60008060006060848603121561155357600080fd5b61155c84611522565b95602085013595506040909401359392505050565b60006020828403121561158357600080fd5b61158c82611522565b9392505050565b600080600080600080600060c0888a0312156115ae57600080fd5b6115b788611522565b96506115c560208901611522565b95506115d360408901611522565b9450606088013593506080880135925060a088013567ffffffffffffffff808211156115fe57600080fd5b818a0191508a601f83011261161257600080fd5b81358181111561162157600080fd5b8b602082850101111561163357600080fd5b60208301945080935050505092959891949750929550565b6000806000806080858703121561166157600080fd5b8435935060208501359250604085013591506060850135801515811461168657600080fd5b939692955090935050565b6020808252825182820181905260009190848201906040850190845b818110156116d25783516001600160a01b0316835292840192918401916001016116ad565b50909695505050505050565b6001600160a01b038781168252861660208201526040810185905260608101849052821515608082015260c060a082018190526000906117209083018461148a565b98975050505050505050565b6000806000806080858703121561174257600080fd5b61174b85611522565b966020860135965060408601359560600135945092505050565b600181811c9082168061177957607f821691505b60208210810361179957634e487b7160e01b600052602260045260246000fd5b50919050565b634e487b7160e01b600052601160045260246000fd5b6000600182016117c7576117c761179f565b5060010190565b634e487b7160e01b600052604160045260246000fd5b601f82111561146c576000816000526020600020601f850160051c8101602086101561180d5750805b601f850160051c820191505b8181101561182c57828155600101611819565b505050505050565b815167ffffffffffffffff81111561184e5761184e6117ce565b6118628161185c8454611765565b846117e4565b602080601f831160018114611897576000841561187f5750858301515b600019600386901b1c1916600185901b17855561182c565b600085815260208120601f198616915b828110156118c6578886015182559484019460019091019084016118a7565b50858210156118e45787850151600019600388901b60f8161c191681555b5050505050600190811b01905550565b60208152816020820152818360408301376000818301604090810191909152601f909201601f19160101919050565b808201808211156119365761193661179f565b92915050565b634e487b7160e01b600052603260045260246000fd5b80820281158282048414176119365761193661179f565b60008261198657634e487b7160e01b600052601260045260246000fd5b500490565b818103818111156119365761193661179f56fea2646970667358221220276ec1647dd488c09192d3100a702cf8459080cc01c42740a7bc62cfacbe86d764736f6c63430008180033",
  "linkReferences": {},
  "deployedLinkReferences": {}
}