{
  "_format": "hh-sol-artifact-1",
  "contractName": "StakingRewards",
  "sourceName": "contracts/StakingRewards.sol",
  "abi": [
    {
      "inputs": [
        {
          "internalType": "address",
          "name": "_stakingToken",
          "type": "address"
        },
        {
          "internalType": "address",
          "name": "_rewardToken",
          "type": "address"
        },
        {
          "internalType": "uint256",
          "name": "_initialRewardRate",
          "type": "uint256"
        }
      ],
      "stateMutability": "nonpayable",
      "type": "constructor"
    },
    {
      "inputs": [
        {
          "internalType": "address",
          "name": "owner",
          "type": "address"
        }
      ],
      "name": "OwnableInvalidOwner",
      "type": "error"
    },
    {
      "inputs": [
        {
          "internalType": "address",
          "name": "account",
          "type": "address"
        }
      ],
      "name": "OwnableUnauthorizedAccount",
      "type": "error"
    },
    {
      "inputs": [],
      "name": "ReentrancyGuardReentrantCall",
      "type": "error"
    },
    {
      "inputs": [
        {
          "internalType": "address",
          "name": "token",
          "type": "address"
        }
      ],
      "name": "SafeERC20FailedOperation",
      "type": "error"
    },
    {
      "anonymous": false,
      "inputs": [
        {
          "indexed": true,
          "internalType": "address",
          "name": "user",
          "type": "address"
        },
        {
          "indexed": false,
          "internalType": "uint256",
          "name": "amount",
          "type": "uint256"
        },
        {
          "indexed": false,
          "internalType": "uint256",
          "name": "stakeIndex",
          "type": "uint256"
        }
      ],
      "name": "Compounded",
      "type": "event"
    },
    {
      "anonymous": false,
      "inputs": [
        {
          "indexed": true,
          "internalType": "address",
          "name": "previousOwner",
          "type": "address"
        },
        {
          "indexed": true,
          "internalType": "address",
          "name": "newOwner",
          "type": "address"
        }
      ],
      "name": "OwnershipTransferred",
      "type": "event"
    },
    {
      "anonymous": false,
      "inputs": [
        {
          "indexed": false,
          "internalType": "uint256",
          "name": "newRate",
          "type": "uint256"
        }
      ],
      "name": "RewardRateUpdated",
      "type": "event"
    },
    {
      "anonymous": false,
      "inputs": [
        {
          "indexed": true,
          "internalType": "address",
          "name": "user",
          "type": "address"
        },
        {
          "indexed": false,
          "internalType": "uint256",
          "name": "amount",
          "type": "uint256"
        }
      ],
      "name": "RewardsClaimed",
      "type": "event"
    },
    {
      "anonymous": false,
      "inputs": [
        {
          "indexed": true,
          "internalType": "address",
          "name": "user",
          "type": "address"
        },
        {
          "indexed": false,
          "internalType": "uint256",
          "name": "amount",
          "type": "uint256"
        },
        {
          "indexed": false,
          "internalType": "uint256",
          "name": "lockDuration",
          "type": "uint256"
        },
        {
          "indexed": false,
          "internalType": "uint256",
          "name": "stakeIndex",
          "type": "uint256"
        }
      ],
      "name": "Staked",
      "type": "event"
    },
    {
      "anonymous": false,
      "inputs": [
        {
          "indexed": true,
          "internalType": "address",
          "name": "user",
          "type": "address"
        },
        {
          "indexed": false,
          "internalType": "uint256",
          "name": "amount",
          "type": "uint256"
        },
        {
          "indexed": false,
          "internalType": "uint256",
          "name": "stakeIndex",
          "type": "uint256"
        }
      ],
      "name": "Unstaked",
      "type": "event"
    },
    {
      "inputs": [],
      "name": "MIN_STAKE",
      "outputs": [
        {
          "internalType": "uint256",
          "name": "",
          "type": "uint256"
        }
      ],
      "stateMutability": "view",
      "type": "function"
    },
    {
      "inputs": [],
      "name": "PRECISION",
      "outputs": [
        {
          "internalType": "uint256",
          "name": "",
          "type": "uint256"
        }
      ],
      "stateMutability": "view",
      "type": "function"
    },
    {
      "inputs": [
        {
          "internalType": "address",
          "name": "user",
          "type": "address"
        },
        {
          "internalType": "uint256",
          "name": "stakeIndex",
          "type": "uint256"
        }
      ],
      "name": "calculateStakeReward",
      "outputs": [
        {
          "internalType": "uint256",
          "name": "",
          "type": "uint256"
        }
      ],
      "stateMutability": "view",
      "type": "function"
    },
    {
      "inputs": [],
      "name": "claimRewards",
      "outputs": [],
      "stateMutability": "nonpayable",
      "type": "function"
    },
    {
      "inputs": [
        {
          "internalType": "uint256",
          "name": "stakeIndex",
          "type": "uint256"
        }
      ],
      "name": "compound",
      "outputs": [],
      "stateMutability": "nonpayable",
      "type": "function"
    },
    {
      "inputs": [
        {
          "internalType": "address",
          "name": "user",
          "type": "address"
        }
      ],
      "name": "earned",
      "outputs": [
        {
          "internalType": "uint256",
          "name": "",
          "type": "uint256"
        }
      ],
      "stateMutability": "view",
      "type": "function"
    },
    {
      "inputs": [
        {
          "internalType": "uint256",
          "name": "amount",
          "type": "uint256"
        }
      ],
      "name": "emergencyWithdrawRewards",
      "outputs": [],
      "stateMutability": "nonpayable",
      "type": "function"
    },
    {
      "inputs": [
        {
          "internalType": "uint256",
          "name": "lockDuration",
          "type": "uint256"
        }
      ],
      "name": "getMultiplier",
      "outputs": [
        {
          "internalType": "uint8",
          "name": "",
          "type": "uint8"
        }
      ],
      "stateMutability": "pure",
      "type": "function"
    },
    {
      "inputs": [
        {
          "internalType": "address",
          "name": "user",
          "type": "address"
        }
      ],
      "name": "getUserStakes",
      "outputs": [
        {
          "components": [
            {
              "internalType": "uint256",
              "name": "amount",
              "type": "uint256"
            },
            {
              "internalType": "uint256",
              "name": "startTime",
              "type": "uint256"
            },
            {
              "internalType": "uint256",
              "name": "lockDuration",
              "type": "uint256"
            },
            {
              "internalType": "uint256",
              "name": "rewardDebt",
              "type": "uint256"
            },
            {
              "internalType": "bool",
              "name": "autoCompound",
              "type": "bool"
            },
            {
              "internalType": "uint8",
              "name": "multiplier",
              "type": "uint8"
            }
          ],
          "internalType": "struct StakingRewards.Stake[]",
          "name": "",
          "type": "tuple[]"
        }
      ],
      "stateMutability": "view",
      "type": "function"
    },
    {
      "inputs": [
        {
          "internalType": "address",
          "name": "user",
          "type": "address"
        }
      ],
      "name": "getUserTotalStaked",
      "outputs": [
        {
          "internalType": "uint256",
          "name": "",
          "type": "uint256"
        }
      ],
      "stateMutability": "view",
      "type": "function"
    },
    {
      "inputs": [],
      "name": "lastUpdateTime",
      "outputs": [
        {
          "internalType": "uint256",
          "name": "",
          "type": "uint256"
        }
      ],
      "stateMutability": "view",
      "type": "function"
    },
    {
      "inputs": [],
      "name": "owner",
      "outputs": [
        {
          "internalType": "address",
          "name": "",
          "type": "address"
        }
      ],
      "stateMutability": "view",
      "type": "function"
    },
    {
      "inputs": [],
      "name": "renounceOwnership",
      "outputs": [],
      "stateMutability": "nonpayable",
      "type": "function"
    },
    {
      "inputs": [],
      "name": "rewardPerToken",
      "outputs": [
        {
          "internalType": "uint256",
          "name": "",
          "type": "uint256"
        }
      ],
      "stateMutability": "view",
      "type": "function"
    },
    {
      "inputs": [],
      "name": "rewardPerTokenStored",
      "outputs": [
        {
          "internalType": "uint256",
          "name": "",
          "type": "uint256"
        }
      ],
      "stateMutability": "view",
      "type": "function"
    },
    {
      "inputs": [],
      "name": "rewardRate",
      "outputs": [
        {
          "internalType": "uint256",
          "name": "",
          "type": "uint256"
        }
      ],
      "stateMutability": "view",
      "type": "function"
    },
    {
      "inputs": [],
      "name": "rewardToken",
      "outputs": [
        {
          "internalType": "contract IERC20",
          "name": "",
          "type": "address"
        }
      ],
      "stateMutability": "view",
      "type": "function"
    },
    {
      "inputs": [
        {
          "internalType": "address",
          "name": "",
          "type": "address"
        }
      ],
      "name": "rewards",
      "outputs": [
        {
          "internalType": "uint256",
          "name": "",
          "type": "uint256"
        }
      ],
      "stateMutability": "view",
      "type": "function"
    },
    {
      "inputs": [
        {
          "internalType": "uint256",
          "name": "newRate",
          "type": "uint256"
        }
      ],
      "name": "setRewardRate",
      "outputs": [],
      "stateMutability": "nonpayable",
      "type": "function"
    },
    {
      "inputs": [
        {
          "internalType": "uint256",
          "name": "amount",
          "type": "uint256"
        },
        {
          "internalType": "uint256",
          "name": "lockDuration",
          "type": "uint256"
        },
        {
          "internalType": "bool",
          "name": "autoCompound",
          "type": "bool"
        }
      ],
      "name": "stake",
      "outputs": [],
      "stateMutability": "nonpayable",
      "type": "function"
    },
    {
      "inputs": [
        {
          "internalType": "address",
          "name": "",
          "type": "address"
        },
        {
          "internalType": "uint256",
          "name": "",
          "type": "uint256"
        }
      ],
      "name": "stakes",
      "outputs": [
        {
          "internalType": "uint256",
          "name": "amount",
          "type": "uint256"
        },
        {
          "internalType": "uint256",
          "name": "startTime",
          "type": "uint256"
        },
        {
          "internalType": "uint256",
          "name": "lockDuration",
          "type": "uint256"
        },
        {
          "internalType": "uint256",
          "name": "rewardDebt",
          "type": "uint256"
        },
        {
          "internalType": "bool",
          "name": "autoCompound",
          "type": "bool"
        },
        {
          "internalType": "uint8",
          "name": "multiplier",
          "type": "uint8"
        }
      ],
      "stateMutability": "view",
      "type": "function"
    },
    {
      "inputs": [],
      "name": "stakingToken",
      "outputs": [
        {
          "internalType": "contract IERC20",
          "name": "",
          "type": "address"
        }
      ],
      "stateMutability": "view",
      "type": "function"
    },
    {
      "inputs": [],
      "name": "totalStaked",
      "outputs": [
        {
          "internalType": "uint256",
          "name": "",
          "type": "uint256"
        }
      ],
      "stateMutability": "view",
      "type": "function"
    },
    {
      "inputs": [
        {
          "internalType": "address",
          "name": "newOwner",
          "type": "address"
        }
      ],
      "name": "transferOwnership",
      "outputs": [],
      "stateMutability": "nonpayable",
      "type": "function"
    },
    {
      "inputs": [
        {
          "internalType": "uint256",
          "name": "stakeIndex",
          "type": "uint256"
        }
      ],
      "name": "unstake",
      "outputs": [],
      "stateMutability": "nonpayable",
      "type": "function"
    },
    {
      "inputs": [
        {
          "internalType": "address",
          "name": "",
          "type": "address"
        }
      ],
      "name": "userRewardPerTokenPaid",
      "outputs": [
        {
          "internalType": "uint256",
          "name": "",
          "type": "uint256"
        }
      ],
      "stateMutability": "view",
      "type": "function"
    }
  ],
  "bytecode": "0x60c06040523480156200001157600080fd5b5060405162001770380380620017708339810160408190526200003491620001a9565b33806200005c57604051631e4fbdf760e01b8152600060048201526024015b60405180910390fd5b62000067816200013c565b50600180556001600160a01b038316620000c45760405162461bcd60e51b815260206004820152601560248201527f496e76616c6964207374616b696e6720746f6b656e0000000000000000000000604482015260640162000053565b6001600160a01b0382166200011c5760405162461bcd60e51b815260206004820152601460248201527f496e76616c69642072657761726420746f6b656e000000000000000000000000604482015260640162000053565b6001600160a01b03928316608052911660a05260025542600455620001ea565b600080546001600160a01b038381166001600160a01b0319831681178455604051919092169283917f8be0079c531659141344cd1fd0a4f28419497f9722a3daafe3b4186f6b6457e09190a35050565b80516001600160a01b0381168114620001a457600080fd5b919050565b600080600060608486031215620001bf57600080fd5b620001ca846200018c565b9250620001da602085016200018c565b9150604084015190509250925092565b60805160a0516115446200022c600039600081816103cc015281816106e301526107cf0152600081816102930152818161061f015261098101526115446000f3fe608060405234801561001057600080fd5b506004361061018d5760003560e01c8063842e2981116100de578063adf8252d11610097578063cd3daf9d11610071578063cd3daf9d146103a3578063df136d65146103ab578063f2fde38b146103b4578063f7c618c1146103c757600080fd5b8063adf8252d14610365578063c8f33c911461038a578063cb1c2b5c1461039357600080fd5b8063842e2981146102df5780638b876347146102ff5780638da5cb5b1461031f5780639e447fc614610330578063aa5f7e2614610343578063aaf5eb681461035657600080fd5b8063584b62a11161014b578063715018a611610125578063715018a61461028657806372f702f31461028e5780637b0a47ee146102cd578063817b1cd2146102d657600080fd5b8063584b62a11461021b57806360391c92146102605780636e2f16961461027357600080fd5b80628cc262146101925780630700037d146101b85780632e17de78146101d857806330409c85146101ed578063372500ab14610200578063561b246314610208575b600080fd5b6101a56101a0366004611363565b6103ee565b6040519081526020015b60405180910390f35b6101a56101c6366004611363565b60086020526000908152604090205481565b6101eb6101e6366004611385565b61044e565b005b6101eb6101fb366004611385565b6106bc565b6101eb61070a565b6101eb61021636600461139e565b610840565b61022e6102293660046113dc565b610ad6565b6040805196875260208701959095529385019290925260608401521515608083015260ff1660a082015260c0016101af565b6101a561026e3660046113dc565b610b30565b6101a5610281366004611363565b610c73565b6101eb610ce9565b6102b57f000000000000000000000000000000000000000000000000000000000000000081565b6040516001600160a01b0390911681526020016101af565b6101a560025481565b6101a560035481565b6102f26102ed366004611363565b610cfb565b6040516101af9190611406565b6101a561030d366004611363565b60076020526000908152604090205481565b6000546001600160a01b03166102b5565b6101eb61033e366004611385565b610daf565b6101eb610351366004611385565b610e48565b6101a5670de0b6b3a764000081565b610378610373366004611385565b611093565b60405160ff90911681526020016101af565b6101a560045481565b6101a568056bc75e2d6310000081565b6101a56110f6565b6101a560055481565b6101eb6103c2366004611363565b611156565b6102b57f000000000000000000000000000000000000000000000000000000000000000081565b6001600160a01b038116600090815260086020526040812054815b6001600160a01b038416600090815260066020526040902054811015610447576104338482610b30565b61043d9083611499565b9150600101610409565b5092915050565b610456611191565b3361045f6110f6565b600555426004556001600160a01b038116156104aa5761047e816103ee565b6001600160a01b0382166000908152600860209081526040808320939093556005546007909152919020555b3360009081526006602052604090205482106105035760405162461bcd60e51b8152602060048201526013602482015272092dcecc2d8d2c840e6e8c2d6ca40d2dcc8caf606b1b60448201526064015b60405180910390fd5b336000908152600660205260408120805484908110610524576105246114ac565b9060005260206000209060050201905060008160000154116105885760405162461bcd60e51b815260206004820152601760248201527f5374616b6520616c72656164792077697468647261776e00000000000000000060448201526064016104fa565b8060020154816001015461059c9190611499565b4210156105e05760405162461bcd60e51b815260206004820152601260248201527114dd185ad9481cdd1a5b1b081b1bd8dad95960721b60448201526064016104fa565b805460006105ee3386610b30565b905060008360000181905550816003600082825461060c91906114c2565b9091555061064690506001600160a01b037f00000000000000000000000000000000000000000000000000000000000000001633846111bb565b801561067157336000908152600860205260408120805483929061066b908490611499565b90915550505b604080518381526020810187905233917f7fc4727e062e336010f2c282598ef5f14facb3de68cf8195c2f23e1454b2b74e910160405180910390a2505050506106b960018055565b50565b6106c461121a565b6106b96106d96000546001600160a01b031690565b6001600160a01b037f00000000000000000000000000000000000000000000000000000000000000001690836111bb565b610712611191565b3361071b6110f6565b600555426004556001600160a01b038116156107665761073a816103ee565b6001600160a01b0382166000908152600860209081526040808320939093556005546007909152919020555b33600090815260086020526040902054806107b95760405162461bcd60e51b81526020600482015260136024820152724e6f207265776172647320746f20636c61696d60681b60448201526064016104fa565b336000818152600860205260408120556107fe907f00000000000000000000000000000000000000000000000000000000000000006001600160a01b031690836111bb565b60405181815233907ffc30cddea38e2bf4d6ea7d3f9ed3b6ad7f176419f4963bd81318067a4aee73fe9060200160405180910390a2505061083e60018055565b565b610848611191565b336108516110f6565b600555426004556001600160a01b0381161561089c57610870816103ee565b6001600160a01b0382166000908152600860209081526040808320939093556005546007909152919020555b68056bc75e2d631000008410156108ec5760405162461bcd60e51b8152602060048201526014602482015273416d6f756e742062656c6f77206d696e696d756d60601b60448201526064016104fa565b8215806108fb57508262278d00145b806109085750826276a700145b8061091557508262ed4e00145b806109235750826301e13380145b6109675760405162461bcd60e51b815260206004820152601560248201527424b73b30b634b2103637b1b590323ab930ba34b7b760591b60448201526064016104fa565b600061097284611093565b90506109a96001600160a01b037f000000000000000000000000000000000000000000000000000000000000000016333088611247565b336000908152600660209081526040808320815160c08101835289815242818501908152928101898152606082018681528915156080840190815260ff808a1660a08601908152865460018181018955978b52988a2095516005909902909501978855955194870194909455905160028601555160038086019190915591516004909401805491519093166101000261ff00199415159490941661ffff19909116179290921790558054879290610a61908490611499565b9091555050336000818152600660205260409020547fb4caaf29adda3eefee3ad552a8e85058589bf834c7466cae4ee58787f70589ed9087908790610aa8906001906114c2565b6040805193845260208401929092529082015260600160405180910390a25050610ad160018055565b505050565b60066020528160005260406000208181548110610af257600080fd5b600091825260209091206005909102018054600182015460028301546003840154600490940154929550909350919060ff8082169161010090041686565b6001600160a01b0382166000908152600660205260408120548210610b5757506000610c6d565b6001600160a01b0383166000908152600660205260408120805484908110610b8157610b816114ac565b600091825260208083206040805160c08101825260059094029091018054808552600182015493850193909352600281015491840191909152600381015460608401526004015460ff808216151560808501526101009091041660a08301529092509003610bf3576000915050610c6d565b6000816020015142610c0591906114c2565b90506000610c1f670de0b6b3a76400006301e133806114d5565b60025484518491610c2f916114d5565b610c3991906114d5565b610c4391906114ec565b90506000600a8460a0015160ff1683610c5c91906114d5565b610c6691906114ec565b9450505050505b92915050565b600080805b6001600160a01b038416600090815260066020526040902054811015610447576001600160a01b0384166000908152600660205260409020805482908110610cc257610cc26114ac565b90600052602060002090600502016000015482610cdf9190611499565b9150600101610c78565b610cf161121a565b61083e6000611286565b6001600160a01b0381166000908152600660209081526040808320805482518185028101850190935280835260609492939192909184015b82821015610da45760008481526020908190206040805160c081018252600586029092018054835260018082015484860152600282015492840192909252600381015460608401526004015460ff808216151560808501526101009091041660a08301529083529092019101610d33565b505050509050919050565b610db761121a565b6000610dc16110f6565b600555426004556001600160a01b03811615610e0c57610de0816103ee565b6001600160a01b0382166000908152600860209081526040808320939093556005546007909152919020555b60028290556040518281527f41d466ebd06fb97e7786086ac8b69b7eb7da798592036251291d34e9791cde019060200160405180910390a15050565b610e50611191565b33610e596110f6565b600555426004556001600160a01b03811615610ea457610e78816103ee565b6001600160a01b0382166000908152600860209081526040808320939093556005546007909152919020555b336000908152600660205260409020548210610ef85760405162461bcd60e51b8152602060048201526013602482015272092dcecc2d8d2c840e6e8c2d6ca40d2dcc8caf606b1b60448201526064016104fa565b336000908152600660205260408120805484908110610f1957610f196114ac565b906000526020600020906005020190506000816000015411610f6f5760405162461bcd60e51b815260206004820152600f60248201526e29ba30b5b2903bb4ba34323930bbb760891b60448201526064016104fa565b600481015460ff16610fc35760405162461bcd60e51b815260206004820152601960248201527f4175746f2d636f6d706f756e64206e6f7420656e61626c65640000000000000060448201526064016104fa565b6000610fcf3385610b30565b90506000811161101a5760405162461bcd60e51b8152602060048201526016602482015275139bc81c995dd85c991cc81d1bc818dbdb5c1bdd5b9960521b60448201526064016104fa565b8082600001600082825461102e9190611499565b9250508190555080600360008282546110479190611499565b9091555050604080518281526020810186905233917f820cea42e8517cf1ec6d4e9db93909255f07c45f7eb0a7c7b5a0f8bdcfc2e5bf910160405180910390a25050506106b960018055565b6000816000036110a55750600a919050565b8162278d00036110b75750600f919050565b816276a700036110c957506014919050565b8162ed4e00036110db5750601e919050565b816301e13380036110ee57506032919050565b50600a919050565b6000600354600003611109575060055490565b600354670de0b6b3a76400006002546004544261112691906114c2565b61113091906114d5565b61113a91906114d5565b61114491906114ec565b6005546111519190611499565b905090565b61115e61121a565b6001600160a01b03811661118857604051631e4fbdf760e01b8152600060048201526024016104fa565b6106b981611286565b6002600154036111b457604051633ee5aeb560e01b815260040160405180910390fd5b6002600155565b6040516001600160a01b03838116602483015260448201839052610ad191859182169063a9059cbb906064015b604051602081830303815290604052915060e01b6020820180516001600160e01b0383818316178352505050506112d6565b6000546001600160a01b0316331461083e5760405163118cdaa760e01b81523360048201526024016104fa565b6040516001600160a01b0384811660248301528381166044830152606482018390526112809186918216906323b872dd906084016111e8565b50505050565b600080546001600160a01b038381166001600160a01b0319831681178455604051919092169283917f8be0079c531659141344cd1fd0a4f28419497f9722a3daafe3b4186f6b6457e09190a35050565b600080602060008451602086016000885af1806112f9576040513d6000823e3d81fd5b50506000513d9150811561131157806001141561131e565b6001600160a01b0384163b155b1561128057604051635274afe760e01b81526001600160a01b03851660048201526024016104fa565b80356001600160a01b038116811461135e57600080fd5b919050565b60006020828403121561137557600080fd5b61137e82611347565b9392505050565b60006020828403121561139757600080fd5b5035919050565b6000806000606084860312156113b357600080fd5b8335925060208401359150604084013580151581146113d157600080fd5b809150509250925092565b600080604083850312156113ef57600080fd5b6113f883611347565b946020939093013593505050565b602080825282518282018190526000919060409081850190868401855b8281101561147657815180518552868101518786015285810151868601526060808201519086015260808082015115159086015260a09081015160ff169085015260c09093019290850190600101611423565b5091979650505050505050565b634e487b7160e01b600052601160045260246000fd5b80820180821115610c6d57610c6d611483565b634e487b7160e01b600052603260045260246000fd5b81810381811115610c6d57610c6d611483565b8082028115828204841417610c6d57610c6d611483565b60008261150957634e487b7160e01b600052601260045260246000fd5b50049056fea26469706673582212206a4713247f580791bfcc16a29106f22e2fafa7f31de1eab7bd1a82d50064b1c964736f6c63430008180033",
  "linkReferences": {},
  "deployedLinkReferences": {}
}