{
  "_format": "hh-sol-artifact-1",
  "contractName": "ScrollGenLRT",
  "sourceName": "contracts/advanced/ScrollGenLRT.sol",
  "abi": [
    {
      "inputs": [
        {
          "internalType": "address",
          "name": "_sgtToken",
          "type": "address"
        }
      ],
      "stateMutability": "nonpayable",
      "type": "constructor"
    },
    {
      "inputs": [
        {
          "internalType": "address",
          "name": "spender",
          "type": "address"
        },
        {
          "internalType": "uint256",
          "name": "allowance",
          "type": "uint256"
        },
        {
          "internalType": "uint256",
          "name": "needed",
          "type": "uint256"
        }
      ],
      "name": "ERC20InsufficientAllowance",
      "type": "error"
    },
    {
      "inputs": [
        {
          "internalType": "address",
          "name": "sender",
          "type": "address"
        },
        {
          "internalType": "uint256",
          "name": "balance",
          "type": "uint256"
        },
        {
          "internalType": "uint256",
          "name": "needed",
          "type": "uint256"
        }
      ],
      "name": "ERC20InsufficientBalance",
      "type": "error"
    },
    {
      "inputs": [
        {
          "internalType": "address",
          "name": "approver",
          "type": "address"
        }
      ],
      "name": "ERC20InvalidApprover",
      "type": "error"
    },
    {
      "inputs": [
        {
          "internalType": "address",
          "name": "receiver",
          "type": "address"
        }
      ],
      "name": "ERC20InvalidReceiver",
      "type": "error"
    },
    {
      "inputs": [
        {
          "internalType": "address",
          "name": "sender",
          "type": "address"
        }
      ],
      "name": "ERC20InvalidSender",
      "type": "error"
    },
    {
      "inputs": [
        {
          "internalType": "address",
          "name": "spender",
          "type": "address"
        }
      ],
      "name": "ERC20InvalidSpender",
      "type": "error"
    },
    {
      "inputs": [
        {
          "internalType": "address",
          "name": "owner",
          "type": "address"
        }
      ],
      "name": "OwnableInvalidOwner",
      "type": "error"
    },
    {
      "inputs": [
        {
          "internalType": "address",
          "name": "account",
          "type": "address"
        }
      ],
      "name": "OwnableUnauthorizedAccount",
      "type": "error"
    },
    {
      "inputs": [],
      "name": "ReentrancyGuardReentrantCall",
      "type": "error"
    },
    {
      "inputs": [
        {
          "internalType": "address",
          "name": "token",
          "type": "address"
        }
      ],
      "name": "SafeERC20FailedOperation",
      "type": "error"
    },
    {
      "anonymous": false,
      "inputs": [
        {
          "indexed": true,
          "internalType": "address",
          "name": "owner",
          "type": "address"
        },
        {
          "indexed": true,
          "internalType": "address",
          "name": "spender",
          "type": "address"
        },
        {
          "indexed": false,
          "internalType": "uint256",
          "name": "value",
          "type": "uint256"
        }
      ],
      "name": "Approval",
      "type": "event"
    },
    {
      "anonymous": false,
      "inputs": [
        {
          "indexed": true,
          "internalType": "address",
          "name": "previousOwner",
          "type": "address"
        },
        {
          "indexed": true,
          "internalType": "address",
          "name": "newOwner",
          "type": "address"
        }
      ],
      "name": "OwnershipTransferred",
      "type": "event"
    },
    {
      "anonymous": false,
      "inputs": [
        {
          "indexed": true,
          "internalType": "address",
          "name": "user",
          "type": "address"
        },
        {
          "indexed": false,
          "internalType": "uint256",
          "name": "requestId",
          "type": "uint256"
        },
        {
          "indexed": false,
          "internalType": "uint256",
          "name": "sgtAmount",
          "type": "uint256"
        }
      ],
      "name": "RedemptionClaimed",
      "type": "event"
    },
    {
      "anonymous": false,
      "inputs": [
        {
          "indexed": true,
          "internalType": "address",
          "name": "user",
          "type": "address"
        },
        {
          "indexed": false,
          "internalType": "uint256",
          "name": "requestId",
          "type": "uint256"
        },
        {
          "indexed": false,
          "internalType": "uint256",
          "name": "sSGTAmount",
          "type": "uint256"
        }
      ],
      "name": "RedemptionRequested",
      "type": "event"
    },
    {
      "anonymous": false,
      "inputs": [
        {
          "indexed": true,
          "internalType": "address",
          "name": "user",
          "type": "address"
        },
        {
          "indexed": false,
          "internalType": "uint256",
          "name": "sgtAmount",
          "type": "uint256"
        },
        {
          "indexed": false,
          "internalType": "uint256",
          "name": "sSGTMinted",
          "type": "uint256"
        }
      ],
      "name": "Restaked",
      "type": "event"
    },
    {
      "anonymous": false,
      "inputs": [
        {
          "indexed": true,
          "internalType": "address",
          "name": "from",
          "type": "address"
        },
        {
          "indexed": true,
          "internalType": "address",
          "name": "to",
          "type": "address"
        },
        {
          "indexed": false,
          "internalType": "uint256",
          "name": "value",
          "type": "uint256"
        }
      ],
      "name": "Transfer",
      "type": "event"
    },
    {
      "anonymous": false,
      "inputs": [
        {
          "indexed": false,
          "internalType": "uint256",
          "name": "amount",
          "type": "uint256"
        },
        {
          "indexed": false,
          "internalType": "uint256",
          "name": "newExchangeRate",
          "type": "uint256"
        }
      ],
      "name": "YieldAccrued",
      "type": "event"
    },
    {
      "anonymous": false,
      "inputs": [
        {
          "indexed": false,
          "internalType": "uint256",
          "name": "newRate",
          "type": "uint256"
        }
      ],
      "name": "YieldRateUpdated",
      "type": "event"
    },
    {
      "inputs": [],
      "name": "PRECISION",
      "outputs": [
        {
          "internalType": "uint256",
          "name": "",
          "type": "uint256"
        }
      ],
      "stateMutability": "view",
      "type": "function"
    },
    {
      "inputs": [],
      "name": "accrueYield",
      "outputs": [],
      "stateMutability": "nonpayable",
      "type": "function"
    },
    {
      "inputs": [
        {
          "internalType": "address",
          "name": "owner",
          "type": "address"
        },
        {
          "internalType": "address",
          "name": "spender",
          "type": "address"
        }
      ],
      "name": "allowance",
      "outputs": [
        {
          "internalType": "uint256",
          "name": "",
          "type": "uint256"
        }
      ],
      "stateMutability": "view",
      "type": "function"
    },
    {
      "inputs": [
        {
          "internalType": "address",
          "name": "spender",
          "type": "address"
        },
        {
          "internalType": "uint256",
          "name": "value",
          "type": "uint256"
        }
      ],
      "name": "approve",
      "outputs": [
        {
          "internalType": "bool",
          "name": "",
          "type": "bool"
        }
      ],
      "stateMutability": "nonpayable",
      "type": "function"
    },
    {
      "inputs": [
        {
          "internalType": "address",
          "name": "account",
          "type": "address"
        }
      ],
      "name": "balanceOf",
      "outputs": [
        {
          "internalType": "uint256",
          "name": "",
          "type": "uint256"
        }
      ],
      "stateMutability": "view",
      "type": "function"
    },
    {
      "inputs": [
        {
          "internalType": "uint256",
          "name": "requestId",
          "type": "uint256"
        }
      ],
      "name": "claimRedeem",
      "outputs": [],
      "stateMutability": "nonpayable",
      "type": "function"
    },
    {
      "inputs": [
        {
          "internalType": "uint256",
          "name": "sSGTAmount",
          "type": "uint256"
        }
      ],
      "name": "convertToSGT",
      "outputs": [
        {
          "internalType": "uint256",
          "name": "",
          "type": "uint256"
        }
      ],
      "stateMutability": "view",
      "type": "function"
    },
    {
      "inputs": [
        {
          "internalType": "uint256",
          "name": "sgtAmount",
          "type": "uint256"
        }
      ],
      "name": "convertTosSGT",
      "outputs": [
        {
          "internalType": "uint256",
          "name": "",
          "type": "uint256"
        }
      ],
      "stateMutability": "view",
      "type": "function"
    },
    {
      "inputs": [],
      "name": "decimals",
      "outputs": [
        {
          "internalType": "uint8",
          "name": "",
          "type": "uint8"
        }
      ],
      "stateMutability": "view",
      "type": "function"
    },
    {
      "inputs": [
        {
          "internalType": "uint256",
          "name": "amount",
          "type": "uint256"
        }
      ],
      "name": "depositYield",
      "outputs": [],
      "stateMutability": "nonpayable",
      "type": "function"
    },
    {
      "inputs": [],
      "name": "getEstimatedAPY",
      "outputs": [
        {
          "internalType": "uint256",
          "name": "",
          "type": "uint256"
        }
      ],
      "stateMutability": "view",
      "type": "function"
    },
    {
      "inputs": [],
      "name": "getExchangeRate",
      "outputs": [
        {
          "internalType": "uint256",
          "name": "",
          "type": "uint256"
        }
      ],
      "stateMutability": "view",
      "type": "function"
    },
    {
      "inputs": [
        {
          "internalType": "uint256",
          "name": "requestId",
          "type": "uint256"
        }
      ],
      "name": "getTimeUntilClaimable",
      "outputs": [
        {
          "internalType": "uint256",
          "name": "",
          "type": "uint256"
        }
      ],
      "stateMutability": "view",
      "type": "function"
    },
    {
      "inputs": [],
      "name": "getTotalStakedValue",
      "outputs": [
        {
          "internalType": "uint256",
          "name": "",
          "type": "uint256"
        }
      ],
      "stateMutability": "view",
      "type": "function"
    },
    {
      "inputs": [
        {
          "internalType": "address",
          "name": "user",
          "type": "address"
        }
      ],
      "name": "getUserRequests",
      "outputs": [
        {
          "internalType": "uint256[]",
          "name": "",
          "type": "uint256[]"
        }
      ],
      "stateMutability": "view",
      "type": "function"
    },
    {
      "inputs": [
        {
          "internalType": "uint256",
          "name": "requestId",
          "type": "uint256"
        }
      ],
      "name": "isClaimable",
      "outputs": [
        {
          "internalType": "bool",
          "name": "",
          "type": "bool"
        }
      ],
      "stateMutability": "view",
      "type": "function"
    },
    {
      "inputs": [],
      "name": "lastYieldUpdate",
      "outputs": [
        {
          "internalType": "uint256",
          "name": "",
          "type": "uint256"
        }
      ],
      "stateMutability": "view",
      "type": "function"
    },
    {
      "inputs": [],
      "name": "minRestakeAmount",
      "outputs": [
        {
          "internalType": "uint256",
          "name": "",
          "type": "uint256"
        }
      ],
      "stateMutability": "view",
      "type": "function"
    },
    {
      "inputs": [],
      "name": "name",
      "outputs": [
        {
          "internalType": "string",
          "name": "",
          "type": "string"
        }
      ],
      "stateMutability": "view",
      "type": "function"
    },
    {
      "inputs": [],
      "name": "nextRequestId",
      "outputs": [
        {
          "internalType": "uint256",
          "name": "",
          "type": "uint256"
        }
      ],
      "stateMutability": "view",
      "type": "function"
    },
    {
      "inputs": [],
      "name": "owner",
      "outputs": [
        {
          "internalType": "address",
          "name": "",
          "type": "address"
        }
      ],
      "stateMutability": "view",
      "type": "function"
    },
    {
      "inputs": [],
      "name": "redemptionDelay",
      "outputs": [
        {
          "internalType": "uint256",
          "name": "",
          "type": "uint256"
        }
      ],
      "stateMutability": "view",
      "type": "function"
    },
    {
      "inputs": [
        {
          "internalType": "uint256",
          "name": "",
          "type": "uint256"
        }
      ],
      "name": "redemptionRequests",
      "outputs": [
        {
          "internalType": "address",
          "name": "user",
          "type": "address"
        },
        {
          "internalType": "uint256",
          "name": "sSGTAmount",
          "type": "uint256"
        },
        {
          "internalType": "uint256",
          "name": "sgtAmount",
          "type": "uint256"
        },
        {
          "internalType": "uint256",
          "name": "requestTime",
          "type": "uint256"
        },
        {
          "internalType": "bool",
          "name": "processed",
          "type": "bool"
        }
      ],
      "stateMutability": "view",
      "type": "function"
    },
    {
      "inputs": [],
      "name": "renounceOwnership",
      "outputs": [],
      "stateMutability": "nonpayable",
      "type": "function"
    },
    {
      "inputs": [
        {
          "internalType": "uint256",
          "name": "sSGTAmount",
          "type": "uint256"
        }
      ],
      "name": "requestRedeem",
      "outputs": [
        {
          "internalType": "uint256",
          "name": "requestId",
          "type": "uint256"
        }
      ],
      "stateMutability": "nonpayable",
      "type": "function"
    },
    {
      "inputs": [
        {
          "internalType": "uint256",
          "name": "amount",
          "type": "uint256"
        }
      ],
      "name": "restake",
      "outputs": [
        {
          "internalType": "uint256",
          "name": "sSGTMinted",
          "type": "uint256"
        }
      ],
      "stateMutability": "nonpayable",
      "type": "function"
    },
    {
      "inputs": [
        {
          "internalType": "uint256",
          "name": "newMin",
          "type": "uint256"
        }
      ],
      "name": "setMinRestakeAmount",
      "outputs": [],
      "stateMutability": "nonpayable",
      "type": "function"
    },
    {
      "inputs": [
        {
          "internalType": "uint256",
          "name": "newDelay",
          "type": "uint256"
        }
      ],
      "name": "setRedemptionDelay",
      "outputs": [],
      "stateMutability": "nonpayable",
      "type": "function"
    },
    {
      "inputs": [
        {
          "internalType": "uint256",
          "name": "newRate",
          "type": "uint256"
        }
      ],
      "name": "setYieldRate",
      "outputs": [],
      "stateMutability": "nonpayable",
      "type": "function"
    },
    {
      "inputs": [],
      "name": "sgtToken",
      "outputs": [
        {
          "internalType": "contract IERC20",
          "name": "",
          "type": "address"
        }
      ],
      "stateMutability": "view",
      "type": "function"
    },
    {
      "inputs": [],
      "name": "symbol",
      "outputs": [
        {
          "internalType": "string",
          "name": "",
          "type": "string"
        }
      ],
      "stateMutability": "view",
      "type": "function"
    },
    {
      "inputs": [],
      "name": "totalStakedSGT",
      "outputs": [
        {
          "internalType": "uint256",
          "name": "",
          "type": "uint256"
        }
      ],
      "stateMutability": "view",
      "type": "function"
    },
    {
      "inputs": [],
      "name": "totalSupply",
      "outputs": [
        {
          "internalType": "uint256",
          "name": "",
          "type": "uint256"
        }
      ],
      "stateMutability": "view",
      "type": "function"
    },
    {
      "inputs": [],
      "name": "totalYieldAccrued",
      "outputs": [
        {
          "internalType": "uint256",
          "name": "",
          "type": "uint256"
        }
      ],
      "stateMutability": "view",
      "type": "function"
    },
    {
      "inputs": [
        {
          "internalType": "address",
          "name": "to",
          "type": "address"
        },
        {
          "internalType": "uint256",
          "name": "value",
          "type": "uint256"
        }
      ],
      "name": "transfer",
      "outputs": [
        {
          "internalType": "bool",
          "name": "",
          "type": "bool"
        }
      ],
      "stateMutability": "nonpayable",
      "type": "function"
    },
    {
      "inputs": [
        {
          "internalType": "address",
          "name": "from",
          "type": "address"
        },
        {
          "internalType": "address",
          "name": "to",
          "type": "address"
        },
        {
          "internalType": "uint256",
          "name": "value",
          "type": "uint256"
        }
      ],
      "name": "transferFrom",
      "outputs": [
        {
          "internalType": "bool",
          "name": "",
          "type": "bool"
        }
      ],
      "stateMutability": "nonpayable",
      "type": "function"
    },
    {
      "inputs": [
        {
          "internalType": "address",
          "name": "newOwner",
          "type": "address"
        }
      ],
      "name": "transferOwnership",
      "outputs": [],
      "stateMutability": "nonpayable",
      "type": "function"
    },
    {
      "inputs": [
        {
          "internalType": "address",
          "name": "",
          "type": "address"
        },
        {
          "internalType": "uint256",
          "name": "",
          "type": "uint256"
        }
      ],
      "name": "userRequests",
      "outputs": [
        {
          "internalType": "uint256",
          "name": "",
          "type": "uint256"
        }
      ],
      "stateMutability": "view",
      "type": "function"
    },
    {
      "inputs": [],
      "name": "yieldRate",
      "outputs": [
        {
          "internalType": "uint256",
          "name": "",
          "type": "uint256"
        }
      ],
      "stateMutability": "view",
      "type": "function"
    }
  ],
  "bytecode": "0x60a060405262093a8060095568056bc75e2d63100000600a556001600c5567016345785d8a0000600e553480156200003657600080fd5b5060405162001b7338038062001b738339810160408190526200005991620001d1565b336040518060400160405280601681526020017f5374616b6564205363726f6c6c47656e20546f6b656e00000000000000000000815250604051806040016040528060048152602001631cd4d1d560e21b8152508160039081620000be9190620002aa565b506004620000cd8282620002aa565b5050506001600160a01b0381166200010057604051631e4fbdf760e01b8152600060048201526024015b60405180910390fd5b6200010b816200017f565b5060016006556001600160a01b038116620001695760405162461bcd60e51b815260206004820152601360248201527f496e76616c6964205347542061646472657373000000000000000000000000006044820152606401620000f7565b6001600160a01b031660805242600f5562000376565b600580546001600160a01b038381166001600160a01b0319831681179093556040519116919082907f8be0079c531659141344cd1fd0a4f28419497f9722a3daafe3b4186f6b6457e090600090a35050565b600060208284031215620001e457600080fd5b81516001600160a01b0381168114620001fc57600080fd5b9392505050565b634e487b7160e01b600052604160045260246000fd5b600181811c908216806200022e57607f821691505b6020821081036200024f57634e487b7160e01b600052602260045260246000fd5b50919050565b601f821115620002a5576000816000526020600020601f850160051c81016020861015620002805750805b601f850160051c820191505b81811015620002a1578281556001016200028c565b5050505b505050565b81516001600160401b03811115620002c657620002c662000203565b620002de81620002d7845462000219565b8462000255565b602080601f831160018114620003165760008415620002fd5750858301515b600019600386901b1c1916600185901b178555620002a1565b600085815260208120601f198616915b82811015620003475788860151825594840194600190910190840162000326565b5085821015620003665787850151600019600388901b60f8161c191681555b5050505050600190811b01905550565b6080516117cc620003a7600039600081816102c6015281816107fa01528181610bdc0152610df101526117cc6000f3fe608060405234801561001057600080fd5b506004361061023d5760003560e01c806389610a091161013b578063b337cf74116100b8578063e46cf7471161007c578063e46cf7471461054b578063e6aa216c1461055e578063ee6c3bf214610566578063f1a9ee031461056f578063f2fde38b1461058257600080fd5b8063b337cf7414610459578063bce1b52014610479578063ccaad55d1461048c578063dd62ed3e14610494578063e1a0cc6f146104cd57600080fd5b8063986d95a4116100ff578063986d95a4146104085780639b31c3a81461041b578063a9059cbb14610424578063aa2f892d14610437578063aaf5eb681461044a57600080fd5b806389610a09146103ca5780638da5cb5b146103dd5780638de35f36146103ee5780638f8c8aee146103f757806395d89b411461040057600080fd5b8063313ce567116101c95780636a84a9851161018d5780636a84a98514610374578063703aa2e81461037d57806370a0823114610386578063715018a6146103af5780637cf4c01b146103b757600080fd5b8063313ce5671461032e5780633999c4881461033d5780635620a36d146103455780636627631b146103585780636999ac931461036b57600080fd5b80631630ad91116102105780631630ad91146102a0578063166ff030146102c157806318160ddd1461030057806323b872dd14610308578063263cb6b61461031b57600080fd5b8063059d9c751461024257806306fdde031461024c578063095ea7b31461026a5780631411dab01461028d575b600080fd5b61024a610595565b005b61025461059f565b6040516102619190611557565b60405180910390f35b61027d6102783660046115bd565b610631565b6040519015158152602001610261565b61024a61029b3660046115e7565b61064b565b6102b36102ae3660046115e7565b610697565b604051908152602001610261565b6102e87f000000000000000000000000000000000000000000000000000000000000000081565b6040516001600160a01b039091168152602001610261565b6002546102b3565b61027d610316366004611600565b610734565b6102b36103293660046115bd565b610758565b60405160128152602001610261565b6102b3610789565b6102b36103533660046115e7565b6107a0565b61024a6103663660046115e7565b6107c6565b6102b3600e5481565b6102b3600c5481565b6102b3600a5481565b6102b361039436600461163c565b6001600160a01b031660009081526020819052604090205490565b61024a6107d3565b61024a6103c53660046115e7565b6107e5565b61027d6103d83660046115e7565b610879565b6005546001600160a01b03166102e8565b6102b360075481565b6102b3600f5481565b6102546108f4565b6102b36104163660046115e7565b610903565b6102b360095481565b61027d6104323660046115bd565b610920565b6102b36104453660046115e7565b61092e565b6102b3670de0b6b3a764000081565b61046c61046736600461163c565b610b08565b6040516102619190611657565b6102b36104873660046115e7565b610b74565b6102b3610c90565b6102b36104a236600461169b565b6001600160a01b03918216600090815260016020908152604080832093909416825291909152205490565b6105176104db3660046115e7565b600b60205260009081526040902080546001820154600283015460038401546004909401546001600160a01b0390931693919290919060ff1685565b604080516001600160a01b03909616865260208601949094529284019190915260608301521515608082015260a001610261565b61024a6105593660046115e7565b610cd2565b6102b3610e88565b6102b360085481565b61024a61057d3660046115e7565b610ee5565b61024a61059036600461163c565b610f44565b61059d610f7f565b565b6060600380546105ae906116ce565b80601f01602080910402602001604051908101604052809291908181526020018280546105da906116ce565b80156106275780601f106105fc57610100808354040283529160200191610627565b820191906000526020600020905b81548152906001019060200180831161060a57829003601f168201915b5050505050905090565b60003361063f818585611046565b60019150505b92915050565b610653611058565b61065b610f7f565b600e8190556040518181527f5842a31a46ea5ce5b950bf6d04c8b832a9deae72e0e54bcf928f0d72123f2865906020015b60405180910390a150565b6000818152600b60209081526040808320815160a08101835281546001600160a01b03168152600182015493810193909352600281015491830191909152600381015460608301526004015460ff1615801560808301526106fb5750600092915050565b6000600954826060015161070f919061171e565b9050804210610722575060009392505050565b61072c4282611731565b949350505050565b600033610742858285611085565b61074d858585611104565b506001949350505050565b600d602052816000526040600020818154811061077457600080fd5b90600052602060002001600091509150505481565b600060085460075461079b919061171e565b905090565b60006107aa610e88565b6107bc670de0b6b3a764000084611744565b610645919061175b565b6107ce611058565b600a55565b6107db611058565b61059d6000611163565b6107ed611058565b6108226001600160a01b037f0000000000000000000000000000000000000000000000000000000000000000163330846111b5565b8060086000828254610834919061171e565b909155507ffe2ebf53456a69d7b70affc98b9021c791a9bce3af6fa5d24dfbc2db0f817b54905081610864610e88565b6040805192835260208301919091520161068c565b6000818152600b60209081526040808320815160a08101835281546001600160a01b03168152600182015493810193909352600281015491830191909152600381015460608301526004015460ff16158015608083018190526108ed575060095481606001516108e9919061171e565b4210155b9392505050565b6060600480546105ae906116ce565b6000670de0b6b3a7640000610916610e88565b6107bc9084611744565b60003361063f818585611104565b600061093861121c565b6000821161097b5760405162461bcd60e51b815260206004820152600b60248201526a16995c9bc8185b5bdd5b9d60aa1b60448201526064015b60405180910390fd5b336000908152602081905260409020548211156109d15760405162461bcd60e51b8152602060048201526014602482015273496e73756666696369656e742062616c616e636560601b6044820152606401610972565b6109d9610f7f565b6000670de0b6b3a76400006109ec610e88565b6109f69085611744565b610a00919061175b565b9050610a0c3384611246565b600c8054906000610a1c8361177d565b909155506040805160a0810182523380825260208083018881528385018781524260608601908152600060808701818152898252600b8652888220975188546001600160a01b0319166001600160a01b039091161788559351600180890191909155925160028801559051600387015591516004909501805460ff191695151595909517909455828152600d825284812080549485018155815281902090920184905582518481529182018790529294507f46949ee51143d5b58e4df83122d6c382a04f7bffbe563f78cd7fa61ee519ec08910160405180910390a250610b036001600655565b919050565b6001600160a01b0381166000908152600d6020908152604091829020805483518184028101840190945280845260609392830182828015610b6857602002820191906000526020600020905b815481526020019060010190808311610b54575b50505050509050919050565b6000610b7e61121c565b600a54821015610bc75760405162461bcd60e51b8152602060048201526014602482015273416d6f756e742062656c6f77206d696e696d756d60601b6044820152606401610972565b610bcf610f7f565b610c046001600160a01b037f0000000000000000000000000000000000000000000000000000000000000000163330856111b5565b610c0c610e88565b610c1e670de0b6b3a764000084611744565b610c28919061175b565b9050610c343382611280565b8160076000828254610c46919061171e565b9091555050604080518381526020810183905233917fa217c421e0e9357b7b1815d752952b142ddc0e23f9f14ecb8233f8f83d563c4d910160405180910390a2610b036001600655565b6000600754600003610ca25750600090565b670de0b6b3a7640000600e546301e13380610cbd9190611744565b610cc8906064611744565b61079b919061175b565b610cda61121c565b6000818152600b6020526040902080546001600160a01b03163314610d355760405162461bcd60e51b81526020600482015260116024820152702737ba103932b8bab2b9ba1037bbb732b960791b6044820152606401610972565b600481015460ff1615610d7e5760405162461bcd60e51b8152602060048201526011602482015270105b1c9958591e481c1c9bd8d95cdcd959607a1b6044820152606401610972565b6009548160030154610d90919061171e565b421015610dcf5760405162461bcd60e51b815260206004820152600d60248201526c11195b185e481b9bdd081b595d609a1b6044820152606401610972565b60048101805460ff191660011790556002810154610e19906001600160a01b037f0000000000000000000000000000000000000000000000000000000000000000169033906112b6565b806002015460076000828254610e2f9190611731565b9091555050600281015460405133917f20e504fdcba8387aee6a4eabd2423467c9dab4c788aec326e5e96cd83a8b26fb91610e7291868252602082015260400190565b60405180910390a250610e856001600655565b50565b600080610e9460025490565b905080600003610ead57670de0b6b3a764000091505090565b6000600854600754610ebf919061171e565b905081610ed4670de0b6b3a764000083611744565b610ede919061175b565b9250505090565b610eed611058565b620151808110158015610f03575062278d008111155b610f3f5760405162461bcd60e51b815260206004820152600d60248201526c496e76616c69642064656c617960981b6044820152606401610972565b600955565b610f4c611058565b6001600160a01b038116610f7657604051631e4fbdf760e01b815260006004820152602401610972565b610e8581611163565b6000600f5442610f8f9190611731565b9050801580610f9e5750600754155b15610fa65750565b6000610fbe670de0b6b3a76400006301e13380611744565b82600e54600754610fcf9190611744565b610fd99190611744565b610fe3919061175b565b90508060086000828254610ff7919061171e565b909155505042600f557ffe2ebf53456a69d7b70affc98b9021c791a9bce3af6fa5d24dfbc2db0f817b548161102a610e88565b6040805192835260208301919091520160405180910390a15050565b61105383838360016112e7565b505050565b6005546001600160a01b0316331461059d5760405163118cdaa760e01b8152336004820152602401610972565b6001600160a01b038381166000908152600160209081526040808320938616835292905220546000198110156110fe57818110156110ef57604051637dc7a0d960e11b81526001600160a01b03841660048201526024810182905260448101839052606401610972565b6110fe848484840360006112e7565b50505050565b6001600160a01b03831661112e57604051634b637e8f60e11b815260006004820152602401610972565b6001600160a01b0382166111585760405163ec442f0560e01b815260006004820152602401610972565b6110538383836113bc565b600580546001600160a01b038381166001600160a01b0319831681179093556040519116919082907f8be0079c531659141344cd1fd0a4f28419497f9722a3daafe3b4186f6b6457e090600090a35050565b6040516001600160a01b0384811660248301528381166044830152606482018390526110fe9186918216906323b872dd906084015b604051602081830303815290604052915060e01b6020820180516001600160e01b0383818316178352505050506114e6565b60026006540361123f57604051633ee5aeb560e01b815260040160405180910390fd5b6002600655565b6001600160a01b03821661127057604051634b637e8f60e11b815260006004820152602401610972565b61127c826000836113bc565b5050565b6001600160a01b0382166112aa5760405163ec442f0560e01b815260006004820152602401610972565b61127c600083836113bc565b6040516001600160a01b0383811660248301526044820183905261105391859182169063a9059cbb906064016111ea565b6001600160a01b0384166113115760405163e602df0560e01b815260006004820152602401610972565b6001600160a01b03831661133b57604051634a1406b160e11b815260006004820152602401610972565b6001600160a01b03808516600090815260016020908152604080832093871683529290522082905580156110fe57826001600160a01b0316846001600160a01b03167f8c5be1e5ebec7d5bd14f71427d1e84f3dd0314c0f7b2291e5b200ac8c7c3b925846040516113ae91815260200190565b60405180910390a350505050565b6001600160a01b0383166113e75780600260008282546113dc919061171e565b909155506114599050565b6001600160a01b0383166000908152602081905260409020548181101561143a5760405163391434e360e21b81526001600160a01b03851660048201526024810182905260448101839052606401610972565b6001600160a01b03841660009081526020819052604090209082900390555b6001600160a01b03821661147557600280548290039055611494565b6001600160a01b03821660009081526020819052604090208054820190555b816001600160a01b0316836001600160a01b03167fddf252ad1be2c89b69c2b068fc378daa952ba7f163c4a11628f55a4df523b3ef836040516114d991815260200190565b60405180910390a3505050565b600080602060008451602086016000885af180611509576040513d6000823e3d81fd5b50506000513d9150811561152157806001141561152e565b6001600160a01b0384163b155b156110fe57604051635274afe760e01b81526001600160a01b0385166004820152602401610972565b60006020808352835180602085015260005b8181101561158557858101830151858201604001528201611569565b506000604082860101526040601f19601f8301168501019250505092915050565b80356001600160a01b0381168114610b0357600080fd5b600080604083850312156115d057600080fd5b6115d9836115a6565b946020939093013593505050565b6000602082840312156115f957600080fd5b5035919050565b60008060006060848603121561161557600080fd5b61161e846115a6565b925061162c602085016115a6565b9150604084013590509250925092565b60006020828403121561164e57600080fd5b6108ed826115a6565b6020808252825182820181905260009190848201906040850190845b8181101561168f57835183529284019291840191600101611673565b50909695505050505050565b600080604083850312156116ae57600080fd5b6116b7836115a6565b91506116c5602084016115a6565b90509250929050565b600181811c908216806116e257607f821691505b60208210810361170257634e487b7160e01b600052602260045260246000fd5b50919050565b634e487b7160e01b600052601160045260246000fd5b8082018082111561064557610645611708565b8181038181111561064557610645611708565b808202811582820484141761064557610645611708565b60008261177857634e487b7160e01b600052601260045260246000fd5b500490565b60006001820161178f5761178f611708565b506001019056fea264697066735822122089a4955de00a5a821eaf990f60ee2d374092c427d1a70046f43722e7d6c153b464736f6c63430008180033",
  "linkReferences": {},
  "deployedLinkReferences": {}
}