{
  "_format": "hh-sol-artifact-1",
  "contractName": "NFTMarketplace",
  "sourceName": "contracts/NFTMarketplace.sol",
  "abi": [
    {
      "inputs": [
        {
          "internalType": "address",
          "name": "_genesisBadge",
          "type": "address"
        },
        {
          "internalType": "address",
          "name": "_sgtToken",
          "type": "address"
        }
      ],
      "stateMutability": "nonpayable",
      "type": "constructor"
    },
    {
      "inputs": [
        {
          "internalType": "address",
          "name": "owner",
          "type": "address"
        }
      ],
      "name": "OwnableInvalidOwner",
      "type": "error"
    },
    {
      "inputs": [
        {
          "internalType": "address",
          "name": "account",
          "type": "address"
        }
      ],
      "name": "OwnableUnauthorizedAccount",
      "type": "error"
    },
    {
      "inputs": [],
      "name": "ReentrancyGuardReentrantCall",
      "type": "error"
    },
    {
      "anonymous": false,
      "inputs": [
        {
          "indexed": true,
          "internalType": "uint256",
          "name": "tokenId",
          "type": "uint256"
        },
        {
          "indexed": true,
          "internalType": "address",
          "name": "seller",
          "type": "address"
        },
        {
          "indexed": false,
          "internalType": "uint256",
          "name": "timestamp",
          "type": "uint256"
        }
      ],
      "name": "Cancelled",
      "type": "event"
    },
    {
      "anonymous": false,
      "inputs": [
        {
          "indexed": false,
          "internalType": "uint256",
          "name": "oldFee",
          "type": "uint256"
        },
        {
          "indexed": false,
          "internalType": "uint256",
          "name": "newFee",
          "type": "uint256"
        }
      ],
      "name": "FeeUpdated",
      "type": "event"
    },
    {
      "anonymous": false,
      "inputs": [
        {
          "indexed": true,
          "internalType": "uint256",
          "name": "tokenId",
          "type": "uint256"
        },
        {
          "indexed": true,
          "internalType": "address",
          "name": "seller",
          "type": "address"
        },
        {
          "indexed": false,
          "internalType": "uint256",
          "name": "price",
          "type": "uint256"
        },
        {
          "indexed": false,
          "internalType": "uint256",
          "name": "timestamp",
          "type": "uint256"
        }
      ],
      "name": "Listed",
      "type": "event"
    },
    {
      "anonymous": false,
      "inputs": [
        {
          "indexed": true,
          "internalType": "address",
          "name": "previousOwner",
          "type": "address"
        },
        {
          "indexed": true,
          "internalType": "address",
          "name": "newOwner",
          "type": "address"
        }
      ],
      "name": "OwnershipTransferred",
      "type": "event"
    },
    {
      "anonymous": false,
      "inputs": [
        {
          "indexed": true,
          "internalType": "uint256",
          "name": "tokenId",
          "type": "uint256"
        },
        {
          "indexed": true,
          "internalType": "address",
          "name": "seller",
          "type": "address"
        },
        {
          "indexed": true,
          "internalType": "address",
          "name": "buyer",
          "type": "address"
        },
        {
          "indexed": false,
          "internalType": "uint256",
          "name": "price",
          "type": "uint256"
        },
        {
          "indexed": false,
          "internalType": "uint256",
          "name": "fee",
          "type": "uint256"
        },
        {
          "indexed": false,
          "internalType": "uint256",
          "name": "timestamp",
          "type": "uint256"
        }
      ],
      "name": "Sold",
      "type": "event"
    },
    {
      "inputs": [
        {
          "internalType": "uint256",
          "name": "tokenId",
          "type": "uint256"
        }
      ],
      "name": "buyNFT",
      "outputs": [],
      "stateMutability": "nonpayable",
      "type": "function"
    },
    {
      "inputs": [
        {
          "internalType": "uint256",
          "name": "price",
          "type": "uint256"
        }
      ],
      "name": "calculateFee",
      "outputs": [
        {
          "internalType": "uint256",
          "name": "",
          "type": "uint256"
        }
      ],
      "stateMutability": "view",
      "type": "function"
    },
    {
      "inputs": [
        {
          "internalType": "uint256",
          "name": "tokenId",
          "type": "uint256"
        }
      ],
      "name": "cancelListing",
      "outputs": [],
      "stateMutability": "nonpayable",
      "type": "function"
    },
    {
      "inputs": [],
      "name": "feesCollected",
      "outputs": [
        {
          "internalType": "uint256",
          "name": "",
          "type": "uint256"
        }
      ],
      "stateMutability": "view",
      "type": "function"
    },
    {
      "inputs": [],
      "name": "genesisBadge",
      "outputs": [
        {
          "internalType": "contract IERC721",
          "name": "",
          "type": "address"
        }
      ],
      "stateMutability": "view",
      "type": "function"
    },
    {
      "inputs": [
        {
          "internalType": "uint256",
          "name": "offset",
          "type": "uint256"
        },
        {
          "internalType": "uint256",
          "name": "limit",
          "type": "uint256"
        }
      ],
      "name": "getActiveListings",
      "outputs": [
        {
          "internalType": "uint256[]",
          "name": "tokenIds",
          "type": "uint256[]"
        },
        {
          "internalType": "address[]",
          "name": "sellers",
          "type": "address[]"
        },
        {
          "internalType": "uint256[]",
          "name": "prices",
          "type": "uint256[]"
        }
      ],
      "stateMutability": "view",
      "type": "function"
    },
    {
      "inputs": [],
      "name": "getActiveListingsCount",
      "outputs": [
        {
          "internalType": "uint256",
          "name": "",
          "type": "uint256"
        }
      ],
      "stateMutability": "view",
      "type": "function"
    },
    {
      "inputs": [
        {
          "internalType": "uint256",
          "name": "tokenId",
          "type": "uint256"
        }
      ],
      "name": "getListing",
      "outputs": [
        {
          "internalType": "address",
          "name": "seller",
          "type": "address"
        },
        {
          "internalType": "uint256",
          "name": "price",
          "type": "uint256"
        },
        {
          "internalType": "bool",
          "name": "active",
          "type": "bool"
        }
      ],
      "stateMutability": "view",
      "type": "function"
    },
    {
      "inputs": [
        {
          "internalType": "address",
          "name": "seller",
          "type": "address"
        }
      ],
      "name": "getSellerListings",
      "outputs": [
        {
          "internalType": "uint256[]",
          "name": "",
          "type": "uint256[]"
        }
      ],
      "stateMutability": "view",
      "type": "function"
    },
    {
      "inputs": [
        {
          "internalType": "uint256",
          "name": "tokenId",
          "type": "uint256"
        },
        {
          "internalType": "uint256",
          "name": "price",
          "type": "uint256"
        }
      ],
      "name": "listNFT",
      "outputs": [],
      "stateMutability": "nonpayable",
      "type": "function"
    },
    {
      "inputs": [
        {
          "internalType": "uint256",
          "name": "",
          "type": "uint256"
        }
      ],
      "name": "listings",
      "outputs": [
        {
          "internalType": "address",
          "name": "seller",
          "type": "address"
        },
        {
          "internalType": "uint256",
          "name": "price",
          "type": "uint256"
        },
        {
          "internalType": "bool",
          "name": "active",
          "type": "bool"
        }
      ],
      "stateMutability": "view",
      "type": "function"
    },
    {
      "inputs": [],
      "name": "marketplaceFee",
      "outputs": [
        {
          "internalType": "uint256",
          "name": "",
          "type": "uint256"
        }
      ],
      "stateMutability": "view",
      "type": "function"
    },
    {
      "inputs": [],
      "name": "owner",
      "outputs": [
        {
          "internalType": "address",
          "name": "",
          "type": "address"
        }
      ],
      "stateMutability": "view",
      "type": "function"
    },
    {
      "inputs": [],
      "name": "renounceOwnership",
      "outputs": [],
      "stateMutability": "nonpayable",
      "type": "function"
    },
    {
      "inputs": [
        {
          "internalType": "uint256",
          "name": "tokenId",
          "type": "uint256"
        }
      ],
      "name": "rescueNFT",
      "outputs": [],
      "stateMutability": "nonpayable",
      "type": "function"
    },
    {
      "inputs": [
        {
          "internalType": "uint256",
          "name": "newFee",
          "type": "uint256"
        }
      ],
      "name": "setMarketplaceFee",
      "outputs": [],
      "stateMutability": "nonpayable",
      "type": "function"
    },
    {
      "inputs": [],
      "name": "sgtToken",
      "outputs": [
        {
          "internalType": "contract IERC20",
          "name": "",
          "type": "address"
        }
      ],
      "stateMutability": "view",
      "type": "function"
    },
    {
      "inputs": [
        {
          "internalType": "address",
          "name": "newOwner",
          "type": "address"
        }
      ],
      "name": "transferOwnership",
      "outputs": [],
      "stateMutability": "nonpayable",
      "type": "function"
    },
    {
      "inputs": [
        {
          "internalType": "uint256",
          "name": "tokenId",
          "type": "uint256"
        },
        {
          "internalType": "uint256",
          "name": "newPrice",
          "type": "uint256"
        }
      ],
      "name": "updatePrice",
      "outputs": [],
      "stateMutability": "nonpayable",
      "type": "function"
    },
    {
      "inputs": [],
      "name": "withdrawFees",
      "outputs": [],
      "stateMutability": "nonpayable",
      "type": "function"
    }
  ],
  "bytecode": "0x60c060405260fa6002553480156200001657600080fd5b5060405162001b5238038062001b528339810160408190526200003991620001a6565b33806200006157604051631e4fbdf760e01b8152600060048201526024015b60405180910390fd5b6200006c8162000139565b50600180556001600160a01b038216620000c95760405162461bcd60e51b815260206004820152601360248201527f496e76616c6964204e4654206164647265737300000000000000000000000000604482015260640162000058565b6001600160a01b038116620001215760405162461bcd60e51b815260206004820152601360248201527f496e76616c696420534754206164647265737300000000000000000000000000604482015260640162000058565b6001600160a01b039182166080521660a052620001de565b600080546001600160a01b038381166001600160a01b0319831681178455604051919092169283917f8be0079c531659141344cd1fd0a4f28419497f9722a3daafe3b4186f6b6457e09190a35050565b80516001600160a01b0381168114620001a157600080fd5b919050565b60008060408385031215620001ba57600080fd5b620001c58362000189565b9150620001d56020840162000189565b90509250929050565b60805160a0516119166200023c600039600081816101f80152818161056b01528181610775015261085c015260008181610136015281816104440152818161094801528181610d8001528181610f24015261103f01526119166000f3fe608060405234801561001057600080fd5b506004361061012c5760003560e01c806382367b2d116100ad57806399a5d7471161007157806399a5d747146102ee578063c128b23114610301578063de74e57b14610323578063f071db5a1461035f578063f2fde38b1461036857600080fd5b806382367b2d146102915780638da5cb5b146102a45780638f78e6a1146102b55780639407ea98146102c857806394383f14146102db57600080fd5b806351ed8288116100f457806351ed8288146102375780635f42da091461024a5780636a1669641461026a578063715018a6146102815780637b55927c1461028957600080fd5b80630d09e6cd14610131578063107a274a14610175578063166ff030146101f3578063305a67a81461021a578063476343ee1461022f575b600080fd5b6101587f000000000000000000000000000000000000000000000000000000000000000081565b6040516001600160a01b0390911681526020015b60405180910390f35b6101cc610183366004611677565b600081815260036020908152604091829020825160608101845281546001600160a01b0316808252600183015493820184905260029092015460ff161515930183905293909250565b604080516001600160a01b039094168452602084019290925215159082015260600161016c565b6101587f000000000000000000000000000000000000000000000000000000000000000081565b61022d610228366004611677565b61037b565b005b61022d610506565b61022d610245366004611677565b61065f565b61025d6102583660046116a5565b610a23565b60405161016c9190611705565b61027360025481565b60405190815260200161016c565b61022d610bd1565b600554610273565b61022d61029f366004611718565b610be3565b6000546001600160a01b0316610158565b61022d6102c3366004611677565b610d14565b61022d6102d6366004611677565b610e14565b61022d6102e9366004611718565b610eac565b6102736102fc366004611677565b6111b6565b61031461030f366004611718565b6111d9565b60405161016c9392919061173a565b6101cc610331366004611677565b6003602052600090815260409020805460018201546002909201546001600160a01b03909116919060ff1683565b61027360075481565b61022d6103763660046116a5565b61140e565b610383611449565b6000818152600360205260409020600281015460ff166103d75760405162461bcd60e51b815260206004820152600a602482015269139bdd081b1a5cdd195960b21b60448201526064015b60405180910390fd5b80546001600160a01b031633146104215760405162461bcd60e51b815260206004820152600e60248201526d2737ba103a34329039b2b63632b960911b60448201526064016103ce565b60028101805460ff191690556040516323b872dd60e01b81526001600160a01b037f000000000000000000000000000000000000000000000000000000000000000016906323b872dd9061047d903090339087906004016117ad565b600060405180830381600087803b15801561049757600080fd5b505af11580156104ab573d6000803e3d6000fd5b505050506104b93383611473565b6104c28261153d565b604051428152339083907faa17fdf5ffb610a4cc0887f35c13c501975a370005080f68441055871952eb819060200160405180910390a35061050360018055565b50565b61050e6115fa565b610516611449565b6007548061055c5760405162461bcd60e51b81526020600482015260136024820152724e6f206665657320746f20776974686472617760681b60448201526064016103ce565b60006007556001600160a01b037f00000000000000000000000000000000000000000000000000000000000000001663a9059cbb6105a26000546001600160a01b031690565b6040516001600160e01b031960e084901b1681526001600160a01b039091166004820152602481018490526044016020604051808303816000875af11580156105ef573d6000803e3d6000fd5b505050506040513d601f19601f8201168201806040525081019061061391906117d1565b6106535760405162461bcd60e51b815260206004820152601160248201527015da5d1a191c985dd85b0819985a5b1959607a1b60448201526064016103ce565b5061065d60018055565b565b610667611449565b6000818152600360205260409020600281015460ff166106bf5760405162461bcd60e51b81526020600482015260136024820152724e6f74206c697374656420666f722073616c6560681b60448201526064016103ce565b80546001600160a01b031633036107185760405162461bcd60e51b815260206004820152601760248201527f43616e6e6f742062757920796f7572206f776e204e465400000000000000000060448201526064016103ce565b6001810154600254600090612710906107319084611809565b61073b9190611820565b905060006107498284611842565b60028501805460ff1916905584546040516323b872dd60e01b81529192506001600160a01b03908116917f0000000000000000000000000000000000000000000000000000000000000000909116906323b872dd906107b0903390859087906004016117ad565b6020604051808303816000875af11580156107cf573d6000803e3d6000fd5b505050506040513d601f19601f820116820180604052508101906107f391906117d1565b61083f5760405162461bcd60e51b815260206004820152601860248201527f5061796d656e7420746f2073656c6c6572206661696c6564000000000000000060448201526064016103ce565b8215610931576040516323b872dd60e01b81526001600160a01b037f000000000000000000000000000000000000000000000000000000000000000016906323b872dd90610895903390309088906004016117ad565b6020604051808303816000875af11580156108b4573d6000803e3d6000fd5b505050506040513d601f19601f820116820180604052508101906108d891906117d1565b6109195760405162461bcd60e51b8152602060048201526012602482015271119959481c185e5b595b9d0819985a5b195960721b60448201526064016103ce565b826007600082825461092b9190611855565b90915550505b6040516323b872dd60e01b81526001600160a01b037f000000000000000000000000000000000000000000000000000000000000000016906323b872dd9061098190309033908b906004016117ad565b600060405180830381600087803b15801561099b57600080fd5b505af11580156109af573d6000803e3d6000fd5b505050506109bd8187611473565b6109c68661153d565b60408051858152602081018590524281830152905133916001600160a01b0384169189917f2938a0a3a4a7c19c3a1fe6ef25340b7acd26dfac11de87836084d42fccc18656919081900360600190a4505050505061050360018055565b6001600160a01b0381166000908152600460209081526040808320805482518185028101850190935280835260609493830182828015610a8257602002820191906000526020600020905b815481526020019060010190808311610a6e575b505050505090506000805b8251811015610ae85760036000848381518110610aac57610aac611868565b60209081029190910181015182528101919091526040016000206002015460ff1615610ae05781610adc8161187e565b9250505b600101610a8d565b5060008167ffffffffffffffff811115610b0457610b04611897565b604051908082528060200260200182016040528015610b2d578160200160208202803683370190505b5090506000805b8451811015610bc65760036000868381518110610b5357610b53611868565b60209081029190910181015182528101919091526040016000206002015460ff1615610bbe57848181518110610b8b57610b8b611868565b6020026020010151838381518110610ba557610ba5611868565b602090810291909101015281610bba8161187e565b9250505b600101610b34565b509095945050505050565b610bd96115fa565b61065d6000611627565b6000828152600360205260409020600281015460ff16610c325760405162461bcd60e51b815260206004820152600a602482015269139bdd081b1a5cdd195960b21b60448201526064016103ce565b80546001600160a01b03163314610c7c5760405162461bcd60e51b815260206004820152600e60248201526d2737ba103a34329039b2b63632b960911b60448201526064016103ce565b60008211610ccc5760405162461bcd60e51b815260206004820152601c60248201527f5072696365206d7573742062652067726561746572207468616e20300000000060448201526064016103ce565b6001810182905560408051838152426020820152339185917f98868c46d49b200d82c273c9f28d73265826ca6567690262736450563dfff64c910160405180910390a3505050565b610d1c6115fa565b60008181526003602052604090206002015460ff1615610d7e5760405162461bcd60e51b815260206004820152601c60248201527f43616e6e6f742072657363756520616374697665206c697374696e670000000060448201526064016103ce565b7f00000000000000000000000000000000000000000000000000000000000000006001600160a01b03166323b872dd30610dc06000546001600160a01b031690565b846040518463ffffffff1660e01b8152600401610ddf939291906117ad565b600060405180830381600087803b158015610df957600080fd5b505af1158015610e0d573d6000803e3d6000fd5b5050505050565b610e1c6115fa565b6103e8811115610e675760405162461bcd60e51b815260206004820152601660248201527546656520746f6f206869676820286d6178203130252960501b60448201526064016103ce565b600280549082905560408051828152602081018490527f528d9479e9f9889a87a3c30c7f7ba537e5e59c4c85a37733b16e57c62df61302910160405180910390a15050565b610eb4611449565b60008111610f045760405162461bcd60e51b815260206004820152601c60248201527f5072696365206d7573742062652067726561746572207468616e20300000000060448201526064016103ce565b6040516331a9108f60e11b81526004810183905233906001600160a01b037f00000000000000000000000000000000000000000000000000000000000000001690636352211e90602401602060405180830381865afa158015610f6b573d6000803e3d6000fd5b505050506040513d601f19601f82011682018060405250810190610f8f91906118ad565b6001600160a01b031614610fd55760405162461bcd60e51b815260206004820152600d60248201526c2737ba103a34329037bbb732b960991b60448201526064016103ce565b60008281526003602052604090206002015460ff16156110285760405162461bcd60e51b815260206004820152600e60248201526d105b1c9958591e481b1a5cdd195960921b60448201526064016103ce565b6040516323b872dd60e01b81526001600160a01b037f000000000000000000000000000000000000000000000000000000000000000016906323b872dd90611078903390309087906004016117ad565b600060405180830381600087803b15801561109257600080fd5b505af11580156110a6573d6000803e3d6000fd5b505060408051606081018252338082526020808301878152600184860181815260008b815260038552878120965187546001600160a01b0319166001600160a01b03909116178755925186830155516002909501805460ff1916951515959095179094559182526004815283822080548085018255908352818320018890556005805489845260069092529382208190559182018355919091527f036b6384b5eca791c62761152d0c79bb0604c104a5fb6f4eb0703f3154bb3db0018490555061116d9050565b60408051828152426020820152339184917f98868c46d49b200d82c273c9f28d73265826ca6567690262736450563dfff64c910160405180910390a36111b260018055565b5050565b6000612710600254836111c99190611809565b6111d39190611820565b92915050565b600554606090819081908086106112145750506040805160008082526020820181815282840191825260608301909352909350909150611407565b60006112208783611842565b905060008682106112315786611233565b815b90508067ffffffffffffffff81111561124e5761124e611897565b604051908082528060200260200182016040528015611277578160200160208202803683370190505b5095508067ffffffffffffffff81111561129357611293611897565b6040519080825280602002602001820160405280156112bc578160200160208202803683370190505b5094508067ffffffffffffffff8111156112d8576112d8611897565b604051908082528060200260200182016040528015611301578160200160208202803683370190505b50935060005b81811015611402576000600561131d838c611855565b8154811061132d5761132d611868565b600091825260208083209091015480835260038252604092839020835160608101855281546001600160a01b031681526001820154938101939093526002015460ff1615159282019290925289519192509082908a908590811061139357611393611868565b60200260200101818152505080600001518884815181106113b6576113b6611868565b60200260200101906001600160a01b031690816001600160a01b03168152505080602001518784815181106113ed576113ed611868565b60209081029190910101525050600101611307565b505050505b9250925092565b6114166115fa565b6001600160a01b03811661144057604051631e4fbdf760e01b8152600060048201526024016103ce565b61050381611627565b60026001540361146c57604051633ee5aeb560e01b815260040160405180910390fd5b6002600155565b6001600160a01b0382166000908152600460205260408120905b815481101561153757828282815481106114a9576114a9611868565b90600052602060002001540361152f57815482906114c990600190611842565b815481106114d9576114d9611868565b90600052602060002001548282815481106114f6576114f6611868565b906000526020600020018190555081805480611514576115146118ca565b60019003818190600052602060002001600090559055611537565b60010161148d565b50505050565b60008181526006602052604081205460055490919061155e90600190611842565b90508082146115bd5760006005828154811061157c5761157c611868565b90600052602060002001549050806005848154811061159d5761159d611868565b600091825260208083209091019290925591825260069052604090208290555b60058054806115ce576115ce6118ca565b600082815260208082208301600019908101839055909201909255938152600690935250506040812055565b6000546001600160a01b0316331461065d5760405163118cdaa760e01b81523360048201526024016103ce565b600080546001600160a01b038381166001600160a01b0319831681178455604051919092169283917f8be0079c531659141344cd1fd0a4f28419497f9722a3daafe3b4186f6b6457e09190a35050565b60006020828403121561168957600080fd5b5035919050565b6001600160a01b038116811461050357600080fd5b6000602082840312156116b757600080fd5b81356116c281611690565b9392505050565b60008151808452602080850194506020840160005b838110156116fa578151875295820195908201906001016116de565b509495945050505050565b6020815260006116c260208301846116c9565b6000806040838503121561172b57600080fd5b50508035926020909101359150565b60608152600061174d60608301866116c9565b82810360208481019190915285518083528682019282019060005b8181101561178d5784516001600160a01b031683529383019391830191600101611768565b505084810360408601526117a181876116c9565b98975050505050505050565b6001600160a01b039384168152919092166020820152604081019190915260600190565b6000602082840312156117e357600080fd5b815180151581146116c257600080fd5b634e487b7160e01b600052601160045260246000fd5b80820281158282048414176111d3576111d36117f3565b60008261183d57634e487b7160e01b600052601260045260246000fd5b500490565b818103818111156111d3576111d36117f3565b808201808211156111d3576111d36117f3565b634e487b7160e01b600052603260045260246000fd5b600060018201611890576118906117f3565b5060010190565b634e487b7160e01b600052604160045260246000fd5b6000602082840312156118bf57600080fd5b81516116c281611690565b634e487b7160e01b600052603160045260246000fdfea2646970667358221220b3c1206d220ec645cf2f89a4bcbc6850b80ef4b244fecab79931919e7a08341b64736f6c63430008180033",
  "linkReferences": {},
  "deployedLinkReferences": {}
}