{
  "_format": "hh-sol-artifact-1",
  "contractName": "GenesisBadge",
  "sourceName": "contracts/GenesisBadge.sol",
  "abi": [
    {
      "inputs": [],
      "stateMutability": "nonpayable",
      "type": "constructor"
    },
    {
      "inputs": [
        {
          "internalType": "address",
          "name": "sender",
          "type": "address"
        },
        {
          "internalType": "uint256",
          "name": "tokenId",
          "type": "uint256"
        },
        {
          "internalType": "address",
          "name": "owner",
          "type": "address"
        }
      ],
      "name": "ERC721IncorrectOwner",
      "type": "error"
    },
    {
      "inputs": [
        {
          "internalType": "address",
          "name": "operator",
          "type": "address"
        },
        {
          "internalType": "uint256",
          "name": "tokenId",
          "type": "uint256"
        }
      ],
      "name": "ERC721InsufficientApproval",
      "type": "error"
    },
    {
      "inputs": [
        {
          "internalType": "address",
          "name": "approver",
          "type": "address"
        }
      ],
      "name": "ERC721InvalidApprover",
      "type": "error"
    },
    {
      "inputs": [
        {
          "internalType": "address",
          "name": "operator",
          "type": "address"
        }
      ],
      "name": "ERC721InvalidOperator",
      "type": "error"
    },
    {
      "inputs": [
        {
          "internalType": "address",
          "name": "owner",
          "type": "address"
        }
      ],
      "name": "ERC721InvalidOwner",
      "type": "error"
    },
    {
      "inputs": [
        {
          "internalType": "address",
          "name": "receiver",
          "type": "address"
        }
      ],
      "name": "ERC721InvalidReceiver",
      "type": "error"
    },
    {
      "inputs": [
        {
          "internalType": "address",
          "name": "sender",
          "type": "address"
        }
      ],
      "name": "ERC721InvalidSender",
      "type": "error"
    },
    {
      "inputs": [
        {
          "internalType": "uint256",
          "name": "tokenId",
          "type": "uint256"
        }
      ],
      "name": "ERC721NonexistentToken",
      "type": "error"
    },
    {
      "inputs": [
        {
          "internalType": "address",
          "name": "owner",
          "type": "address"
        }
      ],
      "name": "OwnableInvalidOwner",
      "type": "error"
    },
    {
      "inputs": [
        {
          "internalType": "address",
          "name": "account",
          "type": "address"
        }
      ],
      "name": "OwnableUnauthorizedAccount",
      "type": "error"
    },
    {
      "anonymous": false,
      "inputs": [
        {
          "indexed": true,
          "internalType": "address",
          "name": "owner",
          "type": "address"
        },
        {
          "indexed": true,
          "internalType": "address",
          "name": "approved",
          "type": "address"
        },
        {
          "indexed": true,
          "internalType": "uint256",
          "name": "tokenId",
          "type": "uint256"
        }
      ],
      "name": "Approval",
      "type": "event"
    },
    {
      "anonymous": false,
      "inputs": [
        {
          "indexed": true,
          "internalType": "address",
          "name": "owner",
          "type": "address"
        },
        {
          "indexed": true,
          "internalType": "address",
          "name": "operator",
          "type": "address"
        },
        {
          "indexed": false,
          "internalType": "bool",
          "name": "approved",
          "type": "bool"
        }
      ],
      "name": "ApprovalForAll",
      "type": "event"
    },
    {
      "anonymous": false,
      "inputs": [
        {
          "indexed": true,
          "internalType": "address",
          "name": "to",
          "type": "address"
        },
        {
          "indexed": true,
          "internalType": "uint256",
          "name": "tokenId",
          "type": "uint256"
        },
        {
          "indexed": false,
          "internalType": "uint8",
          "name": "tier",
          "type": "uint8"
        }
      ],
      "name": "BadgeMinted",
      "type": "event"
    },
    {
      "anonymous": false,
      "inputs": [
        {
          "indexed": false,
          "internalType": "string",
          "name": "newBaseURI",
          "type": "string"
        }
      ],
      "name": "BaseURIUpdated",
      "type": "event"
    },
    {
      "anonymous": false,
      "inputs": [
        {
          "indexed": false,
          "internalType": "uint256",
          "name": "_fromTokenId",
          "type": "uint256"
        },
        {
          "indexed": false,
          "internalType": "uint256",
          "name": "_toTokenId",
          "type": "uint256"
        }
      ],
      "name": "BatchMetadataUpdate",
      "type": "event"
    },
    {
      "anonymous": false,
      "inputs": [
        {
          "indexed": false,
          "internalType": "uint256",
          "name": "_tokenId",
          "type": "uint256"
        }
      ],
      "name": "MetadataUpdate",
      "type": "event"
    },
    {
      "anonymous": false,
      "inputs": [
        {
          "indexed": true,
          "internalType": "address",
          "name": "oldMinter",
          "type": "address"
        },
        {
          "indexed": true,
          "internalType": "address",
          "name": "newMinter",
          "type": "address"
        }
      ],
      "name": "MinterUpdated",
      "type": "event"
    },
    {
      "anonymous": false,
      "inputs": [
        {
          "indexed": true,
          "internalType": "address",
          "name": "previousOwner",
          "type": "address"
        },
        {
          "indexed": true,
          "internalType": "address",
          "name": "newOwner",
          "type": "address"
        }
      ],
      "name": "OwnershipTransferred",
      "type": "event"
    },
    {
      "anonymous": false,
      "inputs": [
        {
          "indexed": true,
          "internalType": "address",
          "name": "from",
          "type": "address"
        },
        {
          "indexed": true,
          "internalType": "address",
          "name": "to",
          "type": "address"
        },
        {
          "indexed": true,
          "internalType": "uint256",
          "name": "tokenId",
          "type": "uint256"
        }
      ],
      "name": "Transfer",
      "type": "event"
    },
    {
      "inputs": [],
      "name": "MAX_SUPPLY",
      "outputs": [
        {
          "internalType": "uint256",
          "name": "",
          "type": "uint256"
        }
      ],
      "stateMutability": "view",
      "type": "function"
    },
    {
      "inputs": [
        {
          "internalType": "address",
          "name": "to",
          "type": "address"
        },
        {
          "internalType": "uint256",
          "name": "tokenId",
          "type": "uint256"
        }
      ],
      "name": "approve",
      "outputs": [],
      "stateMutability": "nonpayable",
      "type": "function"
    },
    {
      "inputs": [
        {
          "internalType": "address",
          "name": "",
          "type": "address"
        }
      ],
      "name": "badgesMinted",
      "outputs": [
        {
          "internalType": "uint256",
          "name": "",
          "type": "uint256"
        }
      ],
      "stateMutability": "view",
      "type": "function"
    },
    {
      "inputs": [
        {
          "internalType": "address",
          "name": "owner",
          "type": "address"
        }
      ],
      "name": "balanceOf",
      "outputs": [
        {
          "internalType": "uint256",
          "name": "",
          "type": "uint256"
        }
      ],
      "stateMutability": "view",
      "type": "function"
    },
    {
      "inputs": [
        {
          "internalType": "address",
          "name": "owner",
          "type": "address"
        }
      ],
      "name": "balanceOfOwner",
      "outputs": [
        {
          "internalType": "uint256",
          "name": "",
          "type": "uint256"
        }
      ],
      "stateMutability": "view",
      "type": "function"
    },
    {
      "inputs": [
        {
          "internalType": "address[]",
          "name": "recipients",
          "type": "address[]"
        },
        {
          "internalType": "uint8[]",
          "name": "tiers",
          "type": "uint8[]"
        },
        {
          "internalType": "string[]",
          "name": "uris",
          "type": "string[]"
        }
      ],
      "name": "batchMint",
      "outputs": [],
      "stateMutability": "nonpayable",
      "type": "function"
    },
    {
      "inputs": [
        {
          "internalType": "uint256",
          "name": "tokenId",
          "type": "uint256"
        }
      ],
      "name": "getApproved",
      "outputs": [
        {
          "internalType": "address",
          "name": "",
          "type": "address"
        }
      ],
      "stateMutability": "view",
      "type": "function"
    },
    {
      "inputs": [
        {
          "internalType": "uint256",
          "name": "tokenId",
          "type": "uint256"
        }
      ],
      "name": "getTier",
      "outputs": [
        {
          "internalType": "uint8",
          "name": "",
          "type": "uint8"
        }
      ],
      "stateMutability": "view",
      "type": "function"
    },
    {
      "inputs": [
        {
          "internalType": "uint8",
          "name": "tier",
          "type": "uint8"
        }
      ],
      "name": "getTierName",
      "outputs": [
        {
          "internalType": "string",
          "name": "",
          "type": "string"
        }
      ],
      "stateMutability": "pure",
      "type": "function"
    },
    {
      "inputs": [
        {
          "internalType": "address",
          "name": "owner",
          "type": "address"
        },
        {
          "internalType": "address",
          "name": "operator",
          "type": "address"
        }
      ],
      "name": "isApprovedForAll",
      "outputs": [
        {
          "internalType": "bool",
          "name": "",
          "type": "bool"
        }
      ],
      "stateMutability": "view",
      "type": "function"
    },
    {
      "inputs": [
        {
          "internalType": "address",
          "name": "to",
          "type": "address"
        },
        {
          "internalType": "uint8",
          "name": "tier",
          "type": "uint8"
        },
        {
          "internalType": "string",
          "name": "metadataURI",
          "type": "string"
        }
      ],
      "name": "mint",
      "outputs": [
        {
          "internalType": "uint256",
          "name": "",
          "type": "uint256"
        }
      ],
      "stateMutability": "nonpayable",
      "type": "function"
    },
    {
      "inputs": [],
      "name": "minter",
      "outputs": [
        {
          "internalType": "address",
          "name": "",
          "type": "address"
        }
      ],
      "stateMutability": "view",
      "type": "function"
    },
    {
      "inputs": [],
      "name": "name",
      "outputs": [
        {
          "internalType": "string",
          "name": "",
          "type": "string"
        }
      ],
      "stateMutability": "view",
      "type": "function"
    },
    {
      "inputs": [],
      "name": "owner",
      "outputs": [
        {
          "internalType": "address",
          "name": "",
          "type": "address"
        }
      ],
      "stateMutability": "view",
      "type": "function"
    },
    {
      "inputs": [
        {
          "internalType": "uint256",
          "name": "tokenId",
          "type": "uint256"
        }
      ],
      "name": "ownerOf",
      "outputs": [
        {
          "internalType": "address",
          "name": "",
          "type": "address"
        }
      ],
      "stateMutability": "view",
      "type": "function"
    },
    {
      "inputs": [],
      "name": "renounceOwnership",
      "outputs": [],
      "stateMutability": "nonpayable",
      "type": "function"
    },
    {
      "inputs": [
        {
          "internalType": "address",
          "name": "from",
          "type": "address"
        },
        {
          "internalType": "address",
          "name": "to",
          "type": "address"
        },
        {
          "internalType": "uint256",
          "name": "tokenId",
          "type": "uint256"
        }
      ],
      "name": "safeTransferFrom",
      "outputs": [],
      "stateMutability": "nonpayable",
      "type": "function"
    },
    {
      "inputs": [
        {
          "internalType": "address",
          "name": "from",
          "type": "address"
        },
        {
          "internalType": "address",
          "name": "to",
          "type": "address"
        },
        {
          "internalType": "uint256",
          "name": "tokenId",
          "type": "uint256"
        },
        {
          "internalType": "bytes",
          "name": "data",
          "type": "bytes"
        }
      ],
      "name": "safeTransferFrom",
      "outputs": [],
      "stateMutability": "nonpayable",
      "type": "function"
    },
    {
      "inputs": [
        {
          "internalType": "address",
          "name": "operator",
          "type": "address"
        },
        {
          "internalType": "bool",
          "name": "approved",
          "type": "bool"
        }
      ],
      "name": "setApprovalForAll",
      "outputs": [],
      "stateMutability": "nonpayable",
      "type": "function"
    },
    {
      "inputs": [
        {
          "internalType": "string",
          "name": "baseURI",
          "type": "string"
        }
      ],
      "name": "setBaseURI",
      "outputs": [],
      "stateMutability": "nonpayable",
      "type": "function"
    },
    {
      "inputs": [
        {
          "internalType": "address",
          "name": "_minter",
          "type": "address"
        }
      ],
      "name": "setMinter",
      "outputs": [],
      "stateMutability": "nonpayable",
      "type": "function"
    },
    {
      "inputs": [
        {
          "internalType": "bytes4",
          "name": "interfaceId",
          "type": "bytes4"
        }
      ],
      "name": "supportsInterface",
      "outputs": [
        {
          "internalType": "bool",
          "name": "",
          "type": "bool"
        }
      ],
      "stateMutability": "view",
      "type": "function"
    },
    {
      "inputs": [],
      "name": "symbol",
      "outputs": [
        {
          "internalType": "string",
          "name": "",
          "type": "string"
        }
      ],
      "stateMutability": "view",
      "type": "function"
    },
    {
      "inputs": [
        {
          "internalType": "uint256",
          "name": "",
          "type": "uint256"
        }
      ],
      "name": "tokenTier",
      "outputs": [
        {
          "internalType": "uint8",
          "name": "",
          "type": "uint8"
        }
      ],
      "stateMutability": "view",
      "type": "function"
    },
    {
      "inputs": [
        {
          "internalType": "uint256",
          "name": "tokenId",
          "type": "uint256"
        }
      ],
      "name": "tokenURI",
      "outputs": [
        {
          "internalType": "string",
          "name": "",
          "type": "string"
        }
      ],
      "stateMutability": "view",
      "type": "function"
    },
    {
      "inputs": [
        {
          "internalType": "address",
          "name": "owner",
          "type": "address"
        }
      ],
      "name": "tokensOfOwner",
      "outputs": [
        {
          "internalType": "uint256[]",
          "name": "",
          "type": "uint256[]"
        }
      ],
      "stateMutability": "view",
      "type": "function"
    },
    {
      "inputs": [],
      "name": "totalSupply",
      "outputs": [
        {
          "internalType": "uint256",
          "name": "",
          "type": "uint256"
        }
      ],
      "stateMutability": "view",
      "type": "function"
    },
    {
      "inputs": [
        {
          "internalType": "address",
          "name": "from",
          "type": "address"
        },
        {
          "internalType": "address",
          "name": "to",
          "type": "address"
        },
        {
          "internalType": "uint256",
          "name": "tokenId",
          "type": "uint256"
        }
      ],
      "name": "transferFrom",
      "outputs": [],
      "stateMutability": "nonpayable",
      "type": "function"
    },
    {
      "inputs": [
        {
          "internalType": "address",
          "name": "newOwner",
          "type": "address"
        }
      ],
      "name": "transferOwnership",
      "outputs": [],
      "stateMutability": "nonpayable",
      "type": "function"
    }
  ],
  "bytecode": "0x60806040523480156200001157600080fd5b50336040518060400160405280601781526020017f5363726f6c6c47656e2047656e657369732042616467650000000000000000008152506040518060400160405280600781526020016647454e4553495360c81b81525081600090816200007a9190620001f4565b506001620000898282620001f4565b5050506001600160a01b038116620000bb57604051631e4fbdf760e01b81526000600482015260240160405180910390fd5b620000c681620000fb565b50604080518082019091526007815266697066733a2f2f60c81b6020820152600990620000f49082620001f4565b50620002c0565b600780546001600160a01b038381166001600160a01b0319831681179093556040519116919082907f8be0079c531659141344cd1fd0a4f28419497f9722a3daafe3b4186f6b6457e090600090a35050565b634e487b7160e01b600052604160045260246000fd5b600181811c908216806200017857607f821691505b6020821081036200019957634e487b7160e01b600052602260045260246000fd5b50919050565b601f821115620001ef576000816000526020600020601f850160051c81016020861015620001ca5750805b601f850160051c820191505b81811015620001eb57828155600101620001d6565b5050505b505050565b81516001600160401b038111156200021057620002106200014d565b620002288162000221845462000163565b846200019f565b602080601f831160018114620002605760008415620002475750858301515b600019600386901b1c1916600185901b178555620001eb565b600085815260208120601f198616915b82811015620002915788860151825594840194600190910190840162000270565b5085821015620002b05787850151600019600388901b60f8161c191681555b5050505050600190811b01905550565b611f2480620002d06000396000f3fe608060405234801561001057600080fd5b50600436106101cf5760003560e01c8063649e705f11610104578063b88d4fde116100a2578063e985e9c511610071578063e985e9c5146103f9578063f2fde38b1461040c578063fc1cc1d11461041f578063fca3b5aa1461043257600080fd5b8063b88d4fde146103ad578063c66130d7146103c0578063c87b56dd146103d3578063e64bd593146103e657600080fd5b80638462151c116100de5780638462151c146103615780638da5cb5b1461038157806395d89b4114610392578063a22cb4651461039a57600080fd5b8063649e705f1461032357806370a0823114610346578063715018a61461035957600080fd5b8063286346901161017157806342842e0e1161014b57806342842e0e146102c55780634f062c5a146102d857806355f804b3146102fd5780636352211e1461031057600080fd5b8063286346901461028957806332cb6b0c146102a957806334f0b932146102b257600080fd5b8063081812fc116101ad578063081812fc1461023c578063095ea7b31461024f57806318160ddd1461026457806323b872dd1461027657600080fd5b806301ffc9a7146101d457806306fdde03146101fc5780630754617214610211575b600080fd5b6101e76101e23660046117bb565b610445565b60405190151581526020015b60405180910390f35b610204610456565b6040516101f39190611828565b600c54610224906001600160a01b031681565b6040516001600160a01b0390911681526020016101f3565b61022461024a36600461183b565b6104e8565b61026261025d366004611870565b610511565b005b6008545b6040519081526020016101f3565b61026261028436600461189a565b610520565b6102686102973660046118d6565b600b6020526000908152604090205481565b61026861271081565b6102626102c036600461193d565b6105b0565b6102626102d336600461189a565b61077c565b6102eb6102e636600461183b565b61079c565b60405160ff90911681526020016101f3565b61026261030b366004611a83565b61080d565b61022461031e36600461183b565b61085c565b6102eb61033136600461183b565b600a6020526000908152604090205460ff1681565b6102686103543660046118d6565b610867565b6102626108af565b61037461036f3660046118d6565b6108c3565b6040516101f39190611ab8565b6007546001600160a01b0316610224565b61020461098d565b6102626103a8366004611afc565b61099c565b6102626103bb366004611b38565b6109a7565b6102686103ce3660046118d6565b6109bf565b6102046103e136600461183b565b6109ca565b6102046103f4366004611bc5565b6109d5565b6101e7610407366004611be0565b610add565b61026261041a3660046118d6565b610b0b565b61026861042d366004611c13565b610b49565b6102626104403660046118d6565b610bd6565b600061045082610c7f565b92915050565b60606000805461046590611c71565b80601f016020809104026020016040519081016040528092919081815260200182805461049190611c71565b80156104de5780601f106104b3576101008083540402835291602001916104de565b820191906000526020600020905b8154815290600101906020018083116104c157829003601f168201915b5050505050905090565b60006104f382610ca4565b506000828152600460205260409020546001600160a01b0316610450565b61051c828233610cdd565b5050565b6001600160a01b03821661054f57604051633250574960e11b8152600060048201526024015b60405180910390fd5b600061055c838333610cea565b9050836001600160a01b0316816001600160a01b0316146105aa576040516364283d7b60e01b81526001600160a01b0380861660048301526024820184905282166044820152606401610546565b50505050565b6007546001600160a01b0316331461060a5760405162461bcd60e51b815260206004820152601960248201527f4f6e6c79206f776e65722063616e206261746368206d696e74000000000000006044820152606401610546565b848314801561061857508481145b61065c5760405162461bcd60e51b8152602060048201526015602482015274082e4e4c2f240d8cadccee8d040dad2e6dac2e8c6d605b1b6044820152606401610546565b6008546127109061066e908790611cc1565b11156106b15760405162461bcd60e51b815260206004820152601260248201527145786365656473206d617820737570706c7960701b6044820152606401610546565b60005b858110156107735761076b8787838181106106d1576106d1611cd4565b90506020020160208101906106e691906118d6565b8686848181106106f8576106f8611cd4565b905060200201602081019061070d9190611bc5565b85858581811061071f5761071f611cd4565b90506020028101906107319190611cea565b8080601f016020809104026020016040519081016040528093929190818152602001838380828437600092019190915250610de392505050565b6001016106b4565b50505050505050565b610797838383604051806020016040528060008152506109a7565b505050565b6000818152600260205260408120546001600160a01b03166107f75760405162461bcd60e51b8152602060048201526014602482015273151bdad95b88191bd95cc81b9bdd08195e1a5cdd60621b6044820152606401610546565b506000908152600a602052604090205460ff1690565b610815610f7a565b60096108218282611d79565b507f6741b2fc379fad678116fe3d4d4b9a1a184ab53ba36b86ad0fa66340b1ab41ad816040516108519190611828565b60405180910390a150565b600061045082610ca4565b60006001600160a01b038216610893576040516322718ad960e21b815260006004820152602401610546565b506001600160a01b031660009081526003602052604090205490565b6108b7610f7a565b6108c16000610fa7565b565b606060006108d083610867565b905060008167ffffffffffffffff8111156108ed576108ed6119d7565b604051908082528060200260200182016040528015610916578160200160208202803683370190505b5090506000805b600854811015610983576000818152600260205260409020546001600160a01b0387811691160361097b578083838151811061095b5761095b611cd4565b60209081029190910101528161097081611e39565b925050838214610983575b60010161091d565b5090949350505050565b60606001805461046590611c71565b61051c338383610ff9565b6109b2848484610520565b6105aa3385858585611098565b600061045082610867565b6060610450826111c3565b606060ff8216610a0157505060408051808201909152600681526542726f6e7a6560d01b602082015290565b60001960ff831601610a2f57505060408051808201909152600681526529b4b63b32b960d11b602082015290565b60011960ff831601610a5b57505060408051808201909152600481526311dbdb1960e21b602082015290565b60021960ff831601610a8b575050604080518082019091526008815267506c6174696e756d60c01b602082015290565b60031960ff831601610aba575050604080518082019091526007815266111a585b5bdb9960ca1b602082015290565b50506040805180820190915260078152662ab735b737bbb760c91b602082015290565b6001600160a01b03918216600090815260056020908152604080832093909416825291909152205460ff1690565b610b13610f7a565b6001600160a01b038116610b3d57604051631e4fbdf760e01b815260006004820152602401610546565b610b4681610fa7565b50565b600c546000906001600160a01b0316331480610b6f57506007546001600160a01b031633145b610bb45760405162461bcd60e51b8152602060048201526016602482015275139bdd08185d5d1a1bdc9a5e9959081d1bc81b5a5b9d60521b6044820152606401610546565b610bbf848484610de3565b6001600854610bce9190611e52565b949350505050565b610bde610f7a565b6001600160a01b038116610c2d5760405162461bcd60e51b8152602060048201526016602482015275496e76616c6964206d696e746572206164647265737360501b6044820152606401610546565b600c80546001600160a01b038381166001600160a01b0319831681179093556040519116919082907f1cf2de25c5bf439ac0287061c3a0fa69b3b02867d0ccfd2ded34e42577050b7390600090a35050565b60006001600160e01b03198216632483248360e11b14806104505750610450826112bf565b6000818152600260205260408120546001600160a01b03168061045057604051637e27328960e01b815260048101849052602401610546565b610797838383600161130f565b6000828152600260205260408120546001600160a01b0390811690831615610d1757610d17818486611415565b6001600160a01b03811615610d5557610d3460008560008061130f565b6001600160a01b038116600090815260036020526040902080546000190190555b6001600160a01b03851615610d84576001600160a01b0385166000908152600360205260409020805460010190555b60008481526002602052604080822080546001600160a01b0319166001600160a01b0389811691821790925591518793918516917fddf252ad1be2c89b69c2b068fc378daa952ba7f163c4a11628f55a4df523b3ef91a4949350505050565b6001600160a01b038316610e395760405162461bcd60e51b815260206004820152601b60248201527f43616e6e6f74206d696e7420746f207a65726f206164647265737300000000006044820152606401610546565b61271060085410610e815760405162461bcd60e51b815260206004820152601260248201527113585e081cdd5c1c1b1e481c995858da195960721b6044820152606401610546565b600460ff83161115610ec45760405162461bcd60e51b815260206004820152600c60248201526b24b73b30b634b2103a34b2b960a11b6044820152606401610546565b600880549081906000610ed683611e39565b9190505550610ee58482611479565b610eef8183611493565b6000818152600a60209081526040808320805460ff191660ff88161790556001600160a01b0387168352600b9091528120805491610f2c83611e39565b909155505060405160ff8416815281906001600160a01b038616907f6e79522d33e3590933a0f11623ebc984abab3d341dd3e9b88e4e2503b15d9ab69060200160405180910390a350505050565b6007546001600160a01b031633146108c15760405163118cdaa760e01b8152336004820152602401610546565b600780546001600160a01b038381166001600160a01b0319831681179093556040519116919082907f8be0079c531659141344cd1fd0a4f28419497f9722a3daafe3b4186f6b6457e090600090a35050565b6001600160a01b03821661102b57604051630b61174360e31b81526001600160a01b0383166004820152602401610546565b6001600160a01b03838116600081815260056020908152604080832094871680845294825291829020805460ff191686151590811790915591519182527f17307eab39ab6107e8899845ad3d59bd9653f200f220920489ca2b5937696c31910160405180910390a3505050565b6001600160a01b0383163b156111bc57604051630a85bd0160e11b81526001600160a01b0384169063150b7a02906110da908890889087908790600401611e65565b6020604051808303816000875af1925050508015611115575060408051601f3d908101601f1916820190925261111291810190611ea2565b60015b61117e573d808015611143576040519150601f19603f3d011682016040523d82523d6000602084013e611148565b606091505b50805160000361117657604051633250574960e11b81526001600160a01b0385166004820152602401610546565b805160208201fd5b6001600160e01b03198116630a85bd0160e11b146111ba57604051633250574960e11b81526001600160a01b0385166004820152602401610546565b505b5050505050565b60606111ce82610ca4565b50600082815260066020526040812080546111e890611c71565b80601f016020809104026020016040519081016040528092919081815260200182805461121490611c71565b80156112615780601f1061123657610100808354040283529160200191611261565b820191906000526020600020905b81548152906001019060200180831161124457829003601f168201915b5050505050905060006112726114e3565b90508051600003611284575092915050565b8151156112b657808260405160200161129e929190611ebf565b60405160208183030381529060405292505050919050565b610bce846114f2565b60006001600160e01b031982166380ac58cd60e01b14806112f057506001600160e01b03198216635b5e139f60e01b145b8061045057506301ffc9a760e01b6001600160e01b0319831614610450565b808061132357506001600160a01b03821615155b156113e557600061133384610ca4565b90506001600160a01b0383161580159061135f5750826001600160a01b0316816001600160a01b031614155b801561137257506113708184610add565b155b1561139b5760405163a9fbf51f60e01b81526001600160a01b0384166004820152602401610546565b81156113e35783856001600160a01b0316826001600160a01b03167f8c5be1e5ebec7d5bd14f71427d1e84f3dd0314c0f7b2291e5b200ac8c7c3b92560405160405180910390a45b505b5050600090815260046020526040902080546001600160a01b0319166001600160a01b0392909216919091179055565b61142083838361155a565b610797576001600160a01b03831661144e57604051637e27328960e01b815260048101829052602401610546565b60405163177e802f60e01b81526001600160a01b038316600482015260248101829052604401610546565b61051c8282604051806020016040528060008152506115bd565b60008281526006602052604090206114ab8282611d79565b506040518281527ff8e1a15aba9398e019f0b49df1a4fde98ee17ae345cb5f6b5e2c27f5033e8ce79060200160405180910390a15050565b60606009805461046590611c71565b60606114fd82610ca4565b5060006115086114e3565b905060008151116115285760405180602001604052806000815250611553565b80611532846115d5565b604051602001611543929190611ebf565b6040516020818303038152906040525b9392505050565b60006001600160a01b03831615801590610bce5750826001600160a01b0316846001600160a01b0316148061159457506115948484610add565b80610bce5750506000908152600460205260409020546001600160a01b03908116911614919050565b6115c78383611668565b610797336000858585611098565b606060006115e2836116cd565b600101905060008167ffffffffffffffff811115611602576116026119d7565b6040519080825280601f01601f19166020018201604052801561162c576020820181803683370190505b5090508181016020015b600019016f181899199a1a9b1b9c1cb0b131b232b360811b600a86061a8153600a850494508461163657509392505050565b6001600160a01b03821661169257604051633250574960e11b815260006004820152602401610546565b60006116a083836000610cea565b90506001600160a01b03811615610797576040516339e3563760e11b815260006004820152602401610546565b60008072184f03e93ff9f4daa797ed6e38ed64bf6a1f0160401b831061170c5772184f03e93ff9f4daa797ed6e38ed64bf6a1f0160401b830492506040015b6d04ee2d6d415b85acef81000000008310611738576d04ee2d6d415b85acef8100000000830492506020015b662386f26fc10000831061175657662386f26fc10000830492506010015b6305f5e100831061176e576305f5e100830492506008015b612710831061178257612710830492506004015b60648310611794576064830492506002015b600a83106104505760010192915050565b6001600160e01b031981168114610b4657600080fd5b6000602082840312156117cd57600080fd5b8135611553816117a5565b60005b838110156117f35781810151838201526020016117db565b50506000910152565b600081518084526118148160208601602086016117d8565b601f01601f19169290920160200192915050565b60208152600061155360208301846117fc565b60006020828403121561184d57600080fd5b5035919050565b80356001600160a01b038116811461186b57600080fd5b919050565b6000806040838503121561188357600080fd5b61188c83611854565b946020939093013593505050565b6000806000606084860312156118af57600080fd5b6118b884611854565b92506118c660208501611854565b9150604084013590509250925092565b6000602082840312156118e857600080fd5b61155382611854565b60008083601f84011261190357600080fd5b50813567ffffffffffffffff81111561191b57600080fd5b6020830191508360208260051b850101111561193657600080fd5b9250929050565b6000806000806000806060878903121561195657600080fd5b863567ffffffffffffffff8082111561196e57600080fd5b61197a8a838b016118f1565b9098509650602089013591508082111561199357600080fd5b61199f8a838b016118f1565b909650945060408901359150808211156119b857600080fd5b506119c589828a016118f1565b979a9699509497509295939492505050565b634e487b7160e01b600052604160045260246000fd5b600067ffffffffffffffff80841115611a0857611a086119d7565b604051601f8501601f19908116603f01168101908282118183101715611a3057611a306119d7565b81604052809350858152868686011115611a4957600080fd5b858560208301376000602087830101525050509392505050565b600082601f830112611a7457600080fd5b611553838335602085016119ed565b600060208284031215611a9557600080fd5b813567ffffffffffffffff811115611aac57600080fd5b610bce84828501611a63565b6020808252825182820181905260009190848201906040850190845b81811015611af057835183529284019291840191600101611ad4565b50909695505050505050565b60008060408385031215611b0f57600080fd5b611b1883611854565b915060208301358015158114611b2d57600080fd5b809150509250929050565b60008060008060808587031215611b4e57600080fd5b611b5785611854565b9350611b6560208601611854565b925060408501359150606085013567ffffffffffffffff811115611b8857600080fd5b8501601f81018713611b9957600080fd5b611ba8878235602084016119ed565b91505092959194509250565b803560ff8116811461186b57600080fd5b600060208284031215611bd757600080fd5b61155382611bb4565b60008060408385031215611bf357600080fd5b611bfc83611854565b9150611c0a60208401611854565b90509250929050565b600080600060608486031215611c2857600080fd5b611c3184611854565b9250611c3f60208501611bb4565b9150604084013567ffffffffffffffff811115611c5b57600080fd5b611c6786828701611a63565b9150509250925092565b600181811c90821680611c8557607f821691505b602082108103611ca557634e487b7160e01b600052602260045260246000fd5b50919050565b634e487b7160e01b600052601160045260246000fd5b8082018082111561045057610450611cab565b634e487b7160e01b600052603260045260246000fd5b6000808335601e19843603018112611d0157600080fd5b83018035915067ffffffffffffffff821115611d1c57600080fd5b60200191503681900382131561193657600080fd5b601f821115610797576000816000526020600020601f850160051c81016020861015611d5a5750805b601f850160051c820191505b818110156111ba57828155600101611d66565b815167ffffffffffffffff811115611d9357611d936119d7565b611da781611da18454611c71565b84611d31565b602080601f831160018114611ddc5760008415611dc45750858301515b600019600386901b1c1916600185901b1785556111ba565b600085815260208120601f198616915b82811015611e0b57888601518255948401946001909101908401611dec565b5085821015611e295787850151600019600388901b60f8161c191681555b5050505050600190811b01905550565b600060018201611e4b57611e4b611cab565b5060010190565b8181038181111561045057610450611cab565b6001600160a01b0385811682528416602082015260408101839052608060608201819052600090611e98908301846117fc565b9695505050505050565b600060208284031215611eb457600080fd5b8151611553816117a5565b60008351611ed18184602088016117d8565b835190830190611ee58183602088016117d8565b0194935050505056fea2646970667358221220e2c82fb22fe13207ab31bf8367462b4e151c19c62263929fd68122c97dba53ad64736f6c63430008180033",
  "linkReferences": {},
  "deployedLinkReferences": {}
}