{
  "_format": "hh-sol-artifact-1",
  "contractName": "ZKVerifier",
  "sourceName": "contracts/ZKVerifier.sol",
  "abi": [
    {
      "inputs": [],
      "stateMutability": "nonpayable",
      "type": "constructor"
    },
    {
      "inputs": [
        {
          "internalType": "address",
          "name": "owner",
          "type": "address"
        }
      ],
      "name": "OwnableInvalidOwner",
      "type": "error"
    },
    {
      "inputs": [
        {
          "internalType": "address",
          "name": "account",
          "type": "address"
        }
      ],
      "name": "OwnableUnauthorizedAccount",
      "type": "error"
    },
    {
      "anonymous": false,
      "inputs": [
        {
          "indexed": true,
          "internalType": "bytes32",
          "name": "nullifier",
          "type": "bytes32"
        }
      ],
      "name": "NullifierUsed",
      "type": "event"
    },
    {
      "anonymous": false,
      "inputs": [
        {
          "indexed": true,
          "internalType": "address",
          "name": "previousOwner",
          "type": "address"
        },
        {
          "indexed": true,
          "internalType": "address",
          "name": "newOwner",
          "type": "address"
        }
      ],
      "name": "OwnershipTransferred",
      "type": "event"
    },
    {
      "anonymous": false,
      "inputs": [
        {
          "indexed": true,
          "internalType": "address",
          "name": "user",
          "type": "address"
        },
        {
          "indexed": true,
          "internalType": "enum ZKVerifier.ProofType",
          "name": "proofType",
          "type": "uint8"
        },
        {
          "indexed": false,
          "internalType": "bytes32",
          "name": "nullifier",
          "type": "bytes32"
        },
        {
          "indexed": false,
          "internalType": "uint256",
          "name": "timestamp",
          "type": "uint256"
        }
      ],
      "name": "ProofVerified",
      "type": "event"
    },
    {
      "anonymous": false,
      "inputs": [
        {
          "indexed": true,
          "internalType": "enum ZKVerifier.ProofType",
          "name": "proofType",
          "type": "uint8"
        },
        {
          "indexed": true,
          "internalType": "address",
          "name": "verifier",
          "type": "address"
        }
      ],
      "name": "VerifierUpdated",
      "type": "event"
    },
    {
      "inputs": [
        {
          "components": [
            {
              "internalType": "uint256[2]",
              "name": "a",
              "type": "uint256[2]"
            },
            {
              "internalType": "uint256[2][2]",
              "name": "b",
              "type": "uint256[2][2]"
            },
            {
              "internalType": "uint256[2]",
              "name": "c",
              "type": "uint256[2]"
            }
          ],
          "internalType": "struct ZKVerifier.Proof[]",
          "name": "proofs",
          "type": "tuple[]"
        },
        {
          "internalType": "uint256[][]",
          "name": "publicInputsArray",
          "type": "uint256[][]"
        },
        {
          "internalType": "bytes32[]",
          "name": "nullifiers",
          "type": "bytes32[]"
        },
        {
          "internalType": "enum ZKVerifier.ProofType[]",
          "name": "proofTypes",
          "type": "uint8[]"
        }
      ],
      "name": "batchVerify",
      "outputs": [
        {
          "internalType": "bool[]",
          "name": "",
          "type": "bool[]"
        }
      ],
      "stateMutability": "nonpayable",
      "type": "function"
    },
    {
      "inputs": [
        {
          "internalType": "address",
          "name": "user",
          "type": "address"
        }
      ],
      "name": "getUserProofCount",
      "outputs": [
        {
          "internalType": "uint256",
          "name": "",
          "type": "uint256"
        }
      ],
      "stateMutability": "view",
      "type": "function"
    },
    {
      "inputs": [
        {
          "internalType": "bytes32",
          "name": "nullifier",
          "type": "bytes32"
        }
      ],
      "name": "isNullifierUsed",
      "outputs": [
        {
          "internalType": "bool",
          "name": "",
          "type": "bool"
        }
      ],
      "stateMutability": "view",
      "type": "function"
    },
    {
      "inputs": [
        {
          "internalType": "bytes32",
          "name": "",
          "type": "bytes32"
        }
      ],
      "name": "nullifiersUsed",
      "outputs": [
        {
          "internalType": "bool",
          "name": "",
          "type": "bool"
        }
      ],
      "stateMutability": "view",
      "type": "function"
    },
    {
      "inputs": [],
      "name": "owner",
      "outputs": [
        {
          "internalType": "address",
          "name": "",
          "type": "address"
        }
      ],
      "stateMutability": "view",
      "type": "function"
    },
    {
      "inputs": [
        {
          "internalType": "address",
          "name": "",
          "type": "address"
        }
      ],
      "name": "proofCount",
      "outputs": [
        {
          "internalType": "uint256",
          "name": "",
          "type": "uint256"
        }
      ],
      "stateMutability": "view",
      "type": "function"
    },
    {
      "inputs": [],
      "name": "renounceOwnership",
      "outputs": [],
      "stateMutability": "nonpayable",
      "type": "function"
    },
    {
      "inputs": [
        {
          "internalType": "enum ZKVerifier.ProofType",
          "name": "proofType",
          "type": "uint8"
        },
        {
          "internalType": "address",
          "name": "verifier",
          "type": "address"
        }
      ],
      "name": "setVerifier",
      "outputs": [],
      "stateMutability": "nonpayable",
      "type": "function"
    },
    {
      "inputs": [
        {
          "internalType": "address",
          "name": "newOwner",
          "type": "address"
        }
      ],
      "name": "transferOwnership",
      "outputs": [],
      "stateMutability": "nonpayable",
      "type": "function"
    },
    {
      "inputs": [
        {
          "internalType": "enum ZKVerifier.ProofType",
          "name": "",
          "type": "uint8"
        }
      ],
      "name": "verifierContracts",
      "outputs": [
        {
          "internalType": "address",
          "name": "",
          "type": "address"
        }
      ],
      "stateMutability": "view",
      "type": "function"
    },
    {
      "inputs": [
        {
          "components": [
            {
              "internalType": "uint256[2]",
              "name": "a",
              "type": "uint256[2]"
            },
            {
              "internalType": "uint256[2][2]",
              "name": "b",
              "type": "uint256[2][2]"
            },
            {
              "internalType": "uint256[2]",
              "name": "c",
              "type": "uint256[2]"
            }
          ],
          "internalType": "struct ZKVerifier.Proof",
          "name": "proof",
          "type": "tuple"
        },
        {
          "internalType": "uint256[]",
          "name": "publicInputs",
          "type": "uint256[]"
        },
        {
          "internalType": "bytes32",
          "name": "nullifier",
          "type": "bytes32"
        }
      ],
      "name": "verifyNFTOwnership",
      "outputs": [
        {
          "internalType": "bool",
          "name": "",
          "type": "bool"
        }
      ],
      "stateMutability": "nonpayable",
      "type": "function"
    },
    {
      "inputs": [
        {
          "components": [
            {
              "internalType": "uint256[2]",
              "name": "a",
              "type": "uint256[2]"
            },
            {
              "internalType": "uint256[2][2]",
              "name": "b",
              "type": "uint256[2][2]"
            },
            {
              "internalType": "uint256[2]",
              "name": "c",
              "type": "uint256[2]"
            }
          ],
          "internalType": "struct ZKVerifier.Proof",
          "name": "proof",
          "type": "tuple"
        },
        {
          "internalType": "uint256[]",
          "name": "publicInputs",
          "type": "uint256[]"
        },
        {
          "internalType": "bytes32",
          "name": "nullifier",
          "type": "bytes32"
        }
      ],
      "name": "verifyStakeProof",
      "outputs": [
        {
          "internalType": "bool",
          "name": "",
          "type": "bool"
        }
      ],
      "stateMutability": "nonpayable",
      "type": "function"
    },
    {
      "inputs": [
        {
          "components": [
            {
              "internalType": "uint256[2]",
              "name": "a",
              "type": "uint256[2]"
            },
            {
              "internalType": "uint256[2][2]",
              "name": "b",
              "type": "uint256[2][2]"
            },
            {
              "internalType": "uint256[2]",
              "name": "c",
              "type": "uint256[2]"
            }
          ],
          "internalType": "struct ZKVerifier.Proof",
          "name": "proof",
          "type": "tuple"
        },
        {
          "internalType": "uint256[]",
          "name": "publicInputs",
          "type": "uint256[]"
        },
        {
          "internalType": "bytes32",
          "name": "nullifier",
          "type": "bytes32"
        }
      ],
      "name": "verifyTransferProof",
      "outputs": [
        {
          "internalType": "bool",
          "name": "",
          "type": "bool"
        }
      ],
      "stateMutability": "nonpayable",
      "type": "function"
    },
    {
      "inputs": [
        {
          "components": [
            {
              "internalType": "uint256[2]",
              "name": "a",
              "type": "uint256[2]"
            },
            {
              "internalType": "uint256[2][2]",
              "name": "b",
              "type": "uint256[2][2]"
            },
            {
              "internalType": "uint256[2]",
              "name": "c",
              "type": "uint256[2]"
            }
          ],
          "internalType": "struct ZKVerifier.Proof",
          "name": "proof",
          "type": "tuple"
        },
        {
          "internalType": "uint256[]",
          "name": "publicInputs",
          "type": "uint256[]"
        },
        {
          "internalType": "bytes32",
          "name": "nullifier",
          "type": "bytes32"
        }
      ],
      "name": "verifyVoteProof",
      "outputs": [
        {
          "internalType": "bool",
          "name": "",
          "type": "bool"
        }
      ],
      "stateMutability": "nonpayable",
      "type": "function"
    }
  ],
  "bytecode": "0x608060405234801561001057600080fd5b50338061003757604051631e4fbdf760e01b81526000600482015260240160405180910390fd5b61004081610046565b50610096565b600080546001600160a01b038381166001600160a01b0319831681178455604051919092169283917f8be0079c531659141344cd1fd0a4f28419497f9722a3daafe3b4186f6b6457e09190a35050565b61121f806100a56000396000f3fe608060405234801561001057600080fd5b50600436106100ea5760003560e01c80638da5cb5b1161008c578063c0f146fb11610066578063c0f146fb14610236578063ed9678b514610249578063f18021cf1461025c578063f2fde38b1461027c57600080fd5b80638da5cb5b146101ce57806390481370146101df57806398f5b01f146101ff57600080fd5b80634b27cd6f116100c85780634b27cd6f1461017d5780635afaa4ad146101a05780635e8ed1c1146101b3578063715018a6146101c657600080fd5b806322dc7b4c146100ef57806324b73ab9146101275780632fb8ff9714610168575b600080fd5b6101126100fd366004610d1f565b60009081526001602052604090205460ff1690565b60405190151581526020015b60405180910390f35b610150610135366004610d4c565b6002602052600090815260409020546001600160a01b031681565b6040516001600160a01b03909116815260200161011e565b61017b610176366004610d85565b61028f565b005b61011261018b366004610d1f565b60016020526000908152604090205460ff1681565b6101126101ae366004610e04565b610385565b6101126101c1366004610e04565b6104fe565b61017b610608565b6000546001600160a01b0316610150565b6101f26101ed366004610e69565b61061c565b60405161011e9190610f5b565b61022861020d366004610fa1565b6001600160a01b031660009081526003602052604090205490565b60405190815260200161011e565b610112610244366004610e04565b610948565b610112610257366004610e04565b610a52565b61022861026a366004610fa1565b60036020526000908152604090205481565b61017b61028a366004610fa1565b610b80565b610297610bbe565b6001600160a01b0381166102f25760405162461bcd60e51b815260206004820152601860248201527f496e76616c69642076657269666965722061646472657373000000000000000060448201526064015b60405180910390fd5b806002600084600381111561030957610309610fbc565b600381111561031a5761031a610fbc565b8152602081019190915260400160002080546001600160a01b0319166001600160a01b03928316179055811682600381111561035857610358610fbc565b6040517f856d2aea46417563969401eda075e90331470acb355537019a5d612eb32d310690600090a35050565b60008181526001602052604081205460ff16156103b45760405162461bcd60e51b81526004016102e990610fd2565b826103d15760405162461bcd60e51b81526004016102e990611002565b6000805260026020527fac33ff75c19e70fe83507db0d683fd3465c996598dc972688b7ace676c89077b546001600160a01b0316806104225760405162461bcd60e51b81526004016102e990611031565b600061043082888888610beb565b90508061044f5760405162461bcd60e51b81526004016102e99061105b565b6000848152600160208181526040808420805460ff191690931790925533835260039052812080549161048183611082565b90915550600090505b6040805186815242602082015233917f9c05779c708dbc514765d8657f6b6de795952c134ed3e328db0605c0a61d8924910160405180910390a360405184907f4aac17bcf1974f8ba294b28aaf75fe627cdcc9a03ac55bda3bfe158ab067383c90600090a26001925050505b949350505050565b60008181526001602052604081205460ff161561052d5760405162461bcd60e51b81526004016102e990610fd2565b8261054a5760405162461bcd60e51b81526004016102e990611002565b600360005260026020527f88601476d11616a71c5be67555bd1dff4b1cbf21533d2669b768b61518cfe1c3546001600160a01b03168061059c5760405162461bcd60e51b81526004016102e990611031565b60006105aa82888888610beb565b9050806105c95760405162461bcd60e51b81526004016102e99061105b565b6000848152600160208181526040808420805460ff19169093179092553383526003905281208054916105fb83611082565b909155506003905061048a565b610610610bbe565b61061a6000610ccf565b565b6060878614801561062c57508784145b801561063757508782145b61067b5760405162461bcd60e51b8152602060048201526015602482015274082e4e4c2f240d8cadccee8d040dad2e6dac2e8c6d605b1b60448201526064016102e9565b60008867ffffffffffffffff811115610696576106966110a9565b6040519080825280602002602001820160405280156106bf578160200160208202803683370190505b50905060005b8981101561093a57600160008888848181106106e3576106e36110bf565b602090810292909201358352508101919091526040016000205460ff161561072e576000828281518110610719576107196110bf565b91151560209283029190910190910152610932565b600060026000878785818110610746576107466110bf565b905060200201602081019061075b9190610d4c565b600381111561076c5761076c610fbc565b600381111561077d5761077d610fbc565b81526020810191909152604001600020546001600160a01b03169050806107c85760008383815181106107b2576107b26110bf565b9115156020928302919091019091015250610932565b6000610810828e8e868181106107e0576107e06110bf565b905061010002018d8d878181106107f9576107f96110bf565b905060200281019061080b91906110d5565b610beb565b9050801561090c5760018060008b8b8781811061082f5761082f6110bf565b602090810292909201358352508181019290925260409081016000908120805460ff1916941515949094179093553383526003909152812080549161087383611082565b919050555086868481811061088a5761088a6110bf565b905060200201602081019061089f9190610d4c565b60038111156108b0576108b0610fbc565b337f9c05779c708dbc514765d8657f6b6de795952c134ed3e328db0605c0a61d89248b8b878181106108e4576108e46110bf565b9050602002013542604051610903929190918252602082015260400190565b60405180910390a35b8084848151811061091f5761091f6110bf565b9115156020928302919091019091015250505b6001016106c5565b509998505050505050505050565b60008181526001602052604081205460ff16156109775760405162461bcd60e51b81526004016102e990610fd2565b826109945760405162461bcd60e51b81526004016102e990611002565b600160005260026020527fe90b7bceb6e7df5418fb78d8ee546e97c83a08bbccc01a0644d599ccd2a7c2e0546001600160a01b0316806109e65760405162461bcd60e51b81526004016102e990611031565b60006109f482888888610beb565b905080610a135760405162461bcd60e51b81526004016102e99061105b565b6000848152600160208181526040808420805460ff1916909317909255338352600390528120805491610a4583611082565b909155506001905061048a565b60008181526001602052604081205460ff1615610aa55760405162461bcd60e51b8152602060048201526011602482015270159bdd1948185b1c9958591e4818d85cdd607a1b60448201526064016102e9565b82610ac25760405162461bcd60e51b81526004016102e990611002565b600260008190526020527f679795a0195a1b76cdebb7c51d74e058aee92919b8c3389af86ef24535e8a28c546001600160a01b031680610b145760405162461bcd60e51b81526004016102e990611031565b6000610b2282888888610beb565b905080610b415760405162461bcd60e51b81526004016102e99061105b565b6000848152600160208181526040808420805460ff1916909317909255338352600390528120805491610b7383611082565b909155506002905061048a565b610b88610bbe565b6001600160a01b038116610bb257604051631e4fbdf760e01b8152600060048201526024016102e9565b610bbb81610ccf565b50565b6000546001600160a01b0316331461061a5760405163118cdaa760e01b81523360048201526024016102e9565b60008084600001856040018660c0018686604051602401610c1095949392919061111f565b60408051601f198184030181529181526020820180516001600160e01b03166361971b8760e11b1790525190915060009081906001600160a01b03891690610c59908590611198565b600060405180830381855afa9150503d8060008114610c94576040519150601f19603f3d011682016040523d82523d6000602084013e610c99565b606091505b509150915081610caf57600093505050506104f6565b80806020019051810190610cc391906111c7565b98975050505050505050565b600080546001600160a01b038381166001600160a01b0319831681178455604051919092169283917f8be0079c531659141344cd1fd0a4f28419497f9722a3daafe3b4186f6b6457e09190a35050565b600060208284031215610d3157600080fd5b5035919050565b803560048110610d4757600080fd5b919050565b600060208284031215610d5e57600080fd5b610d6782610d38565b9392505050565b80356001600160a01b0381168114610d4757600080fd5b60008060408385031215610d9857600080fd5b610da183610d38565b9150610daf60208401610d6e565b90509250929050565b60008083601f840112610dca57600080fd5b50813567ffffffffffffffff811115610de257600080fd5b6020830191508360208260051b8501011115610dfd57600080fd5b9250929050565b600080600080848603610140811215610e1c57600080fd5b61010080821215610e2c57600080fd5b869550850135905067ffffffffffffffff811115610e4957600080fd5b610e5587828801610db8565b959890975094956101200135949350505050565b6000806000806000806000806080898b031215610e8557600080fd5b883567ffffffffffffffff80821115610e9d57600080fd5b818b0191508b601f830112610eb157600080fd5b813581811115610ec057600080fd5b8c60208260081b8501011115610ed557600080fd5b60209283019a509850908a01359080821115610ef057600080fd5b610efc8c838d01610db8565b909850965060408b0135915080821115610f1557600080fd5b610f218c838d01610db8565b909650945060608b0135915080821115610f3a57600080fd5b50610f478b828c01610db8565b999c989b5096995094979396929594505050565b6020808252825182820181905260009190848201906040850190845b81811015610f95578351151583529284019291840191600101610f77565b50909695505050505050565b600060208284031215610fb357600080fd5b610d6782610d6e565b634e487b7160e01b600052602160045260246000fd5b602080825260169082015275139d5b1b1a599a595c88185b1c9958591e481d5cd95960521b604082015260600190565b6020808252601590820152744d697373696e67207075626c696320696e7075747360581b604082015260600190565b60208082526010908201526f15995c9a599a595c881b9bdd081cd95d60821b604082015260600190565b6020808252600d908201526c24b73b30b634b210383937b7b360991b604082015260600190565b6000600182016110a257634e487b7160e01b600052601160045260246000fd5b5060010190565b634e487b7160e01b600052604160045260246000fd5b634e487b7160e01b600052603260045260246000fd5b6000808335601e198436030181126110ec57600080fd5b83018035915067ffffffffffffffff82111561110757600080fd5b6020019150600581901b3603821315610dfd57600080fd5b60006101206040808985378084018860005b600281101561114e57838284379183019190830190600101611131565b505050808760c086013750610100830181905282018390526101406001600160fb1b0384111561117d57600080fd5b8360051b808683860137929092019091019695505050505050565b6000825160005b818110156111b9576020818601810151858301520161119f565b506000920191825250919050565b6000602082840312156111d957600080fd5b81518015158114610d6757600080fdfea2646970667358221220b89627e4dfa414047bd8a6a457cd8e86c4b4a088dba2a94d5801c3048fad0c0d64736f6c63430008180033",
  "linkReferences": {},
  "deployedLinkReferences": {}
}