{
  "_format": "hh-sol-artifact-1",
  "contractName": "zkIDVerifier",
  "sourceName": "contracts/ai/zkIDVerifier.sol",
  "abi": [
    {
      "inputs": [
        {
          "internalType": "address",
          "name": "_zkVerifier",
          "type": "address"
        }
      ],
      "stateMutability": "nonpayable",
      "type": "constructor"
    },
    {
      "inputs": [
        {
          "internalType": "address",
          "name": "sender",
          "type": "address"
        },
        {
          "internalType": "uint256",
          "name": "tokenId",
          "type": "uint256"
        },
        {
          "internalType": "address",
          "name": "owner",
          "type": "address"
        }
      ],
      "name": "ERC721IncorrectOwner",
      "type": "error"
    },
    {
      "inputs": [
        {
          "internalType": "address",
          "name": "operator",
          "type": "address"
        },
        {
          "internalType": "uint256",
          "name": "tokenId",
          "type": "uint256"
        }
      ],
      "name": "ERC721InsufficientApproval",
      "type": "error"
    },
    {
      "inputs": [
        {
          "internalType": "address",
          "name": "approver",
          "type": "address"
        }
      ],
      "name": "ERC721InvalidApprover",
      "type": "error"
    },
    {
      "inputs": [
        {
          "internalType": "address",
          "name": "operator",
          "type": "address"
        }
      ],
      "name": "ERC721InvalidOperator",
      "type": "error"
    },
    {
      "inputs": [
        {
          "internalType": "address",
          "name": "owner",
          "type": "address"
        }
      ],
      "name": "ERC721InvalidOwner",
      "type": "error"
    },
    {
      "inputs": [
        {
          "internalType": "address",
          "name": "receiver",
          "type": "address"
        }
      ],
      "name": "ERC721InvalidReceiver",
      "type": "error"
    },
    {
      "inputs": [
        {
          "internalType": "address",
          "name": "sender",
          "type": "address"
        }
      ],
      "name": "ERC721InvalidSender",
      "type": "error"
    },
    {
      "inputs": [
        {
          "internalType": "uint256",
          "name": "tokenId",
          "type": "uint256"
        }
      ],
      "name": "ERC721NonexistentToken",
      "type": "error"
    },
    {
      "inputs": [
        {
          "internalType": "address",
          "name": "owner",
          "type": "address"
        }
      ],
      "name": "OwnableInvalidOwner",
      "type": "error"
    },
    {
      "inputs": [
        {
          "internalType": "address",
          "name": "account",
          "type": "address"
        }
      ],
      "name": "OwnableUnauthorizedAccount",
      "type": "error"
    },
    {
      "inputs": [],
      "name": "ReentrancyGuardReentrantCall",
      "type": "error"
    },
    {
      "anonymous": false,
      "inputs": [
        {
          "indexed": true,
          "internalType": "address",
          "name": "user",
          "type": "address"
        },
        {
          "indexed": false,
          "internalType": "string",
          "name": "activityType",
          "type": "string"
        },
        {
          "indexed": false,
          "internalType": "uint256",
          "name": "spReward",
          "type": "uint256"
        }
      ],
      "name": "ActivityRecorded",
      "type": "event"
    },
    {
      "anonymous": false,
      "inputs": [
        {
          "indexed": true,
          "internalType": "address",
          "name": "owner",
          "type": "address"
        },
        {
          "indexed": true,
          "internalType": "address",
          "name": "approved",
          "type": "address"
        },
        {
          "indexed": true,
          "internalType": "uint256",
          "name": "tokenId",
          "type": "uint256"
        }
      ],
      "name": "Approval",
      "type": "event"
    },
    {
      "anonymous": false,
      "inputs": [
        {
          "indexed": true,
          "internalType": "address",
          "name": "owner",
          "type": "address"
        },
        {
          "indexed": true,
          "internalType": "address",
          "name": "operator",
          "type": "address"
        },
        {
          "indexed": false,
          "internalType": "bool",
          "name": "approved",
          "type": "bool"
        }
      ],
      "name": "ApprovalForAll",
      "type": "event"
    },
    {
      "anonymous": false,
      "inputs": [
        {
          "indexed": true,
          "internalType": "address",
          "name": "user",
          "type": "address"
        },
        {
          "indexed": false,
          "internalType": "uint256",
          "name": "verificationLevel",
          "type": "uint256"
        },
        {
          "indexed": false,
          "internalType": "bytes32",
          "name": "proofHash",
          "type": "bytes32"
        }
      ],
      "name": "IdentityVerified",
      "type": "event"
    },
    {
      "anonymous": false,
      "inputs": [
        {
          "indexed": true,
          "internalType": "address",
          "name": "previousOwner",
          "type": "address"
        },
        {
          "indexed": true,
          "internalType": "address",
          "name": "newOwner",
          "type": "address"
        }
      ],
      "name": "OwnershipTransferred",
      "type": "event"
    },
    {
      "anonymous": false,
      "inputs": [
        {
          "indexed": true,
          "internalType": "address",
          "name": "user",
          "type": "address"
        },
        {
          "indexed": false,
          "internalType": "bytes32",
          "name": "proofHash",
          "type": "bytes32"
        },
        {
          "indexed": false,
          "internalType": "bool",
          "name": "valid",
          "type": "bool"
        }
      ],
      "name": "ProofVerified",
      "type": "event"
    },
    {
      "anonymous": false,
      "inputs": [
        {
          "indexed": true,
          "internalType": "address",
          "name": "user",
          "type": "address"
        },
        {
          "indexed": false,
          "internalType": "uint256",
          "name": "newScore",
          "type": "uint256"
        },
        {
          "indexed": false,
          "internalType": "string",
          "name": "scoreType",
          "type": "string"
        }
      ],
      "name": "ReputationUpdated",
      "type": "event"
    },
    {
      "anonymous": false,
      "inputs": [
        {
          "indexed": true,
          "internalType": "address",
          "name": "user",
          "type": "address"
        },
        {
          "indexed": false,
          "internalType": "uint256",
          "name": "amount",
          "type": "uint256"
        },
        {
          "indexed": false,
          "internalType": "uint256",
          "name": "totalSP",
          "type": "uint256"
        }
      ],
      "name": "ScrollPowerMinted",
      "type": "event"
    },
    {
      "anonymous": false,
      "inputs": [
        {
          "indexed": true,
          "internalType": "address",
          "name": "from",
          "type": "address"
        },
        {
          "indexed": true,
          "internalType": "address",
          "name": "to",
          "type": "address"
        },
        {
          "indexed": true,
          "internalType": "uint256",
          "name": "tokenId",
          "type": "uint256"
        }
      ],
      "name": "Transfer",
      "type": "event"
    },
    {
      "inputs": [],
      "name": "LEVEL_1_SP",
      "outputs": [
        {
          "internalType": "uint256",
          "name": "",
          "type": "uint256"
        }
      ],
      "stateMutability": "view",
      "type": "function"
    },
    {
      "inputs": [],
      "name": "LEVEL_2_SP",
      "outputs": [
        {
          "internalType": "uint256",
          "name": "",
          "type": "uint256"
        }
      ],
      "stateMutability": "view",
      "type": "function"
    },
    {
      "inputs": [],
      "name": "LEVEL_3_SP",
      "outputs": [
        {
          "internalType": "uint256",
          "name": "",
          "type": "uint256"
        }
      ],
      "stateMutability": "view",
      "type": "function"
    },
    {
      "inputs": [],
      "name": "LEVEL_4_SP",
      "outputs": [
        {
          "internalType": "uint256",
          "name": "",
          "type": "uint256"
        }
      ],
      "stateMutability": "view",
      "type": "function"
    },
    {
      "inputs": [],
      "name": "LEVEL_5_SP",
      "outputs": [
        {
          "internalType": "uint256",
          "name": "",
          "type": "uint256"
        }
      ],
      "stateMutability": "view",
      "type": "function"
    },
    {
      "inputs": [
        {
          "internalType": "address",
          "name": "",
          "type": "address"
        },
        {
          "internalType": "uint256",
          "name": "",
          "type": "uint256"
        }
      ],
      "name": "approve",
      "outputs": [],
      "stateMutability": "nonpayable",
      "type": "function"
    },
    {
      "inputs": [
        {
          "internalType": "address",
          "name": "owner",
          "type": "address"
        }
      ],
      "name": "balanceOf",
      "outputs": [
        {
          "internalType": "uint256",
          "name": "",
          "type": "uint256"
        }
      ],
      "stateMutability": "view",
      "type": "function"
    },
    {
      "inputs": [
        {
          "internalType": "uint256",
          "name": "activityIndex",
          "type": "uint256"
        }
      ],
      "name": "claimActivity",
      "outputs": [],
      "stateMutability": "nonpayable",
      "type": "function"
    },
    {
      "inputs": [
        {
          "internalType": "uint256",
          "name": "tokenId",
          "type": "uint256"
        }
      ],
      "name": "getApproved",
      "outputs": [
        {
          "internalType": "address",
          "name": "",
          "type": "address"
        }
      ],
      "stateMutability": "view",
      "type": "function"
    },
    {
      "inputs": [
        {
          "internalType": "address",
          "name": "user",
          "type": "address"
        }
      ],
      "name": "getIdentity",
      "outputs": [
        {
          "internalType": "uint256",
          "name": "scrollPower",
          "type": "uint256"
        },
        {
          "internalType": "uint256",
          "name": "verificationLevel",
          "type": "uint256"
        },
        {
          "internalType": "uint256",
          "name": "lastUpdate",
          "type": "uint256"
        },
        {
          "internalType": "bool",
          "name": "verified",
          "type": "bool"
        }
      ],
      "stateMutability": "view",
      "type": "function"
    },
    {
      "inputs": [
        {
          "internalType": "address",
          "name": "user",
          "type": "address"
        }
      ],
      "name": "getPendingActivities",
      "outputs": [
        {
          "internalType": "uint256",
          "name": "count",
          "type": "uint256"
        },
        {
          "internalType": "uint256",
          "name": "totalSP",
          "type": "uint256"
        }
      ],
      "stateMutability": "view",
      "type": "function"
    },
    {
      "inputs": [
        {
          "internalType": "address",
          "name": "user",
          "type": "address"
        }
      ],
      "name": "getReputation",
      "outputs": [
        {
          "internalType": "uint256",
          "name": "totalActivities",
          "type": "uint256"
        },
        {
          "internalType": "uint256",
          "name": "consistencyScore",
          "type": "uint256"
        },
        {
          "internalType": "uint256",
          "name": "contributionScore",
          "type": "uint256"
        },
        {
          "internalType": "uint256",
          "name": "governanceScore",
          "type": "uint256"
        },
        {
          "internalType": "uint256",
          "name": "trustScore",
          "type": "uint256"
        }
      ],
      "stateMutability": "view",
      "type": "function"
    },
    {
      "inputs": [
        {
          "internalType": "address",
          "name": "user",
          "type": "address"
        }
      ],
      "name": "getScore",
      "outputs": [
        {
          "internalType": "uint256",
          "name": "",
          "type": "uint256"
        }
      ],
      "stateMutability": "view",
      "type": "function"
    },
    {
      "inputs": [
        {
          "internalType": "address",
          "name": "user",
          "type": "address"
        }
      ],
      "name": "getUserActivities",
      "outputs": [
        {
          "components": [
            {
              "internalType": "string",
              "name": "activityType",
              "type": "string"
            },
            {
              "internalType": "uint256",
              "name": "spReward",
              "type": "uint256"
            },
            {
              "internalType": "uint256",
              "name": "timestamp",
              "type": "uint256"
            },
            {
              "internalType": "bool",
              "name": "claimed",
              "type": "bool"
            }
          ],
          "internalType": "struct zkIDVerifier.Activity[]",
          "name": "",
          "type": "tuple[]"
        }
      ],
      "stateMutability": "view",
      "type": "function"
    },
    {
      "inputs": [
        {
          "internalType": "address",
          "name": "",
          "type": "address"
        }
      ],
      "name": "identities",
      "outputs": [
        {
          "internalType": "address",
          "name": "userAddress",
          "type": "address"
        },
        {
          "internalType": "uint256",
          "name": "scrollPower",
          "type": "uint256"
        },
        {
          "internalType": "uint256",
          "name": "verificationLevel",
          "type": "uint256"
        },
        {
          "internalType": "uint256",
          "name": "lastUpdate",
          "type": "uint256"
        },
        {
          "internalType": "bool",
          "name": "verified",
          "type": "bool"
        },
        {
          "internalType": "bytes32",
          "name": "zkProofHash",
          "type": "bytes32"
        }
      ],
      "stateMutability": "view",
      "type": "function"
    },
    {
      "inputs": [
        {
          "internalType": "address",
          "name": "owner",
          "type": "address"
        },
        {
          "internalType": "address",
          "name": "operator",
          "type": "address"
        }
      ],
      "name": "isApprovedForAll",
      "outputs": [
        {
          "internalType": "bool",
          "name": "",
          "type": "bool"
        }
      ],
      "stateMutability": "view",
      "type": "function"
    },
    {
      "inputs": [],
      "name": "maxScrollPower",
      "outputs": [
        {
          "internalType": "uint256",
          "name": "",
          "type": "uint256"
        }
      ],
      "stateMutability": "view",
      "type": "function"
    },
    {
      "inputs": [],
      "name": "minVerificationLevel",
      "outputs": [
        {
          "internalType": "uint256",
          "name": "",
          "type": "uint256"
        }
      ],
      "stateMutability": "view",
      "type": "function"
    },
    {
      "inputs": [
        {
          "internalType": "address",
          "name": "user",
          "type": "address"
        },
        {
          "internalType": "uint256",
          "name": "amount",
          "type": "uint256"
        },
        {
          "internalType": "string",
          "name": "reason",
          "type": "string"
        }
      ],
      "name": "mintSP",
      "outputs": [],
      "stateMutability": "nonpayable",
      "type": "function"
    },
    {
      "inputs": [],
      "name": "name",
      "outputs": [
        {
          "internalType": "string",
          "name": "",
          "type": "string"
        }
      ],
      "stateMutability": "view",
      "type": "function"
    },
    {
      "inputs": [],
      "name": "nextTokenId",
      "outputs": [
        {
          "internalType": "uint256",
          "name": "",
          "type": "uint256"
        }
      ],
      "stateMutability": "view",
      "type": "function"
    },
    {
      "inputs": [],
      "name": "owner",
      "outputs": [
        {
          "internalType": "address",
          "name": "",
          "type": "address"
        }
      ],
      "stateMutability": "view",
      "type": "function"
    },
    {
      "inputs": [
        {
          "internalType": "uint256",
          "name": "tokenId",
          "type": "uint256"
        }
      ],
      "name": "ownerOf",
      "outputs": [
        {
          "internalType": "address",
          "name": "",
          "type": "address"
        }
      ],
      "stateMutability": "view",
      "type": "function"
    },
    {
      "inputs": [
        {
          "internalType": "address",
          "name": "user",
          "type": "address"
        },
        {
          "internalType": "string",
          "name": "activityType",
          "type": "string"
        },
        {
          "internalType": "uint256",
          "name": "spReward",
          "type": "uint256"
        }
      ],
      "name": "recordActivity",
      "outputs": [],
      "stateMutability": "nonpayable",
      "type": "function"
    },
    {
      "inputs": [],
      "name": "renounceOwnership",
      "outputs": [],
      "stateMutability": "nonpayable",
      "type": "function"
    },
    {
      "inputs": [
        {
          "internalType": "address",
          "name": "",
          "type": "address"
        }
      ],
      "name": "reputations",
      "outputs": [
        {
          "internalType": "uint256",
          "name": "totalActivities",
          "type": "uint256"
        },
        {
          "internalType": "uint256",
          "name": "consistencyScore",
          "type": "uint256"
        },
        {
          "internalType": "uint256",
          "name": "contributionScore",
          "type": "uint256"
        },
        {
          "internalType": "uint256",
          "name": "governanceScore",
          "type": "uint256"
        },
        {
          "internalType": "uint256",
          "name": "trustScore",
          "type": "uint256"
        }
      ],
      "stateMutability": "view",
      "type": "function"
    },
    {
      "inputs": [
        {
          "internalType": "address",
          "name": "from",
          "type": "address"
        },
        {
          "internalType": "address",
          "name": "to",
          "type": "address"
        },
        {
          "internalType": "uint256",
          "name": "tokenId",
          "type": "uint256"
        }
      ],
      "name": "safeTransferFrom",
      "outputs": [],
      "stateMutability": "nonpayable",
      "type": "function"
    },
    {
      "inputs": [
        {
          "internalType": "address",
          "name": "from",
          "type": "address"
        },
        {
          "internalType": "address",
          "name": "to",
          "type": "address"
        },
        {
          "internalType": "uint256",
          "name": "tokenId",
          "type": "uint256"
        },
        {
          "internalType": "bytes",
          "name": "data",
          "type": "bytes"
        }
      ],
      "name": "safeTransferFrom",
      "outputs": [],
      "stateMutability": "nonpayable",
      "type": "function"
    },
    {
      "inputs": [
        {
          "internalType": "address",
          "name": "",
          "type": "address"
        },
        {
          "internalType": "bool",
          "name": "",
          "type": "bool"
        }
      ],
      "name": "setApprovalForAll",
      "outputs": [],
      "stateMutability": "nonpayable",
      "type": "function"
    },
    {
      "inputs": [
        {
          "internalType": "uint256",
          "name": "newMax",
          "type": "uint256"
        }
      ],
      "name": "setMaxScrollPower",
      "outputs": [],
      "stateMutability": "nonpayable",
      "type": "function"
    },
    {
      "inputs": [
        {
          "internalType": "address",
          "name": "newVerifier",
          "type": "address"
        }
      ],
      "name": "setZKVerifier",
      "outputs": [],
      "stateMutability": "nonpayable",
      "type": "function"
    },
    {
      "inputs": [
        {
          "internalType": "bytes4",
          "name": "interfaceId",
          "type": "bytes4"
        }
      ],
      "name": "supportsInterface",
      "outputs": [
        {
          "internalType": "bool",
          "name": "",
          "type": "bool"
        }
      ],
      "stateMutability": "view",
      "type": "function"
    },
    {
      "inputs": [],
      "name": "symbol",
      "outputs": [
        {
          "internalType": "string",
          "name": "",
          "type": "string"
        }
      ],
      "stateMutability": "view",
      "type": "function"
    },
    {
      "inputs": [
        {
          "internalType": "uint256",
          "name": "",
          "type": "uint256"
        }
      ],
      "name": "tokenToUser",
      "outputs": [
        {
          "internalType": "address",
          "name": "",
          "type": "address"
        }
      ],
      "stateMutability": "view",
      "type": "function"
    },
    {
      "inputs": [
        {
          "internalType": "uint256",
          "name": "tokenId",
          "type": "uint256"
        }
      ],
      "name": "tokenURI",
      "outputs": [
        {
          "internalType": "string",
          "name": "",
          "type": "string"
        }
      ],
      "stateMutability": "view",
      "type": "function"
    },
    {
      "inputs": [
        {
          "internalType": "address",
          "name": "from",
          "type": "address"
        },
        {
          "internalType": "address",
          "name": "to",
          "type": "address"
        },
        {
          "internalType": "uint256",
          "name": "tokenId",
          "type": "uint256"
        }
      ],
      "name": "transferFrom",
      "outputs": [],
      "stateMutability": "nonpayable",
      "type": "function"
    },
    {
      "inputs": [
        {
          "internalType": "address",
          "name": "newOwner",
          "type": "address"
        }
      ],
      "name": "transferOwnership",
      "outputs": [],
      "stateMutability": "nonpayable",
      "type": "function"
    },
    {
      "inputs": [
        {
          "internalType": "address",
          "name": "user",
          "type": "address"
        },
        {
          "internalType": "uint256",
          "name": "consistencyScore",
          "type": "uint256"
        },
        {
          "internalType": "uint256",
          "name": "contributionScore",
          "type": "uint256"
        },
        {
          "internalType": "uint256",
          "name": "governanceScore",
          "type": "uint256"
        },
        {
          "internalType": "uint256",
          "name": "trustScore",
          "type": "uint256"
        }
      ],
      "name": "updateReputation",
      "outputs": [],
      "stateMutability": "nonpayable",
      "type": "function"
    },
    {
      "inputs": [
        {
          "internalType": "bytes32",
          "name": "",
          "type": "bytes32"
        }
      ],
      "name": "usedProofs",
      "outputs": [
        {
          "internalType": "bool",
          "name": "",
          "type": "bool"
        }
      ],
      "stateMutability": "view",
      "type": "function"
    },
    {
      "inputs": [
        {
          "internalType": "address",
          "name": "",
          "type": "address"
        },
        {
          "internalType": "uint256",
          "name": "",
          "type": "uint256"
        }
      ],
      "name": "userActivities",
      "outputs": [
        {
          "internalType": "string",
          "name": "activityType",
          "type": "string"
        },
        {
          "internalType": "uint256",
          "name": "spReward",
          "type": "uint256"
        },
        {
          "internalType": "uint256",
          "name": "timestamp",
          "type": "uint256"
        },
        {
          "internalType": "bool",
          "name": "claimed",
          "type": "bool"
        }
      ],
      "stateMutability": "view",
      "type": "function"
    },
    {
      "inputs": [
        {
          "internalType": "bytes32",
          "name": "proofHash",
          "type": "bytes32"
        },
        {
          "internalType": "uint256",
          "name": "verificationLevel",
          "type": "uint256"
        },
        {
          "internalType": "bytes",
          "name": "proof",
          "type": "bytes"
        }
      ],
      "name": "verifyProof",
      "outputs": [
        {
          "internalType": "bool",
          "name": "",
          "type": "bool"
        }
      ],
      "stateMutability": "nonpayable",
      "type": "function"
    },
    {
      "inputs": [],
      "name": "zkVerifier",
      "outputs": [
        {
          "internalType": "address",
          "name": "",
          "type": "address"
        }
      ],
      "stateMutability": "view",
      "type": "function"
    }
  ],
  "bytecode": "0x60806040526001600e556001600f556127106010553480156200002157600080fd5b5060405162002ccd38038062002ccd83398101604081905262000044916200015f565b336040518060400160405280600b81526020016a29b1b937b6362837bbb2b960a91b81525060405180604001604052806002815260200161053560f41b815250816000908162000095919062000238565b506001620000a4828262000238565b5050506001600160a01b038116620000d657604051631e4fbdf760e01b81526000600482015260240160405180910390fd5b620000e1816200010d565b506001600755600d80546001600160a01b0319166001600160a01b039290921691909117905562000304565b600680546001600160a01b038381166001600160a01b0319831681179093556040519116919082907f8be0079c531659141344cd1fd0a4f28419497f9722a3daafe3b4186f6b6457e090600090a35050565b6000602082840312156200017257600080fd5b81516001600160a01b03811681146200018a57600080fd5b9392505050565b634e487b7160e01b600052604160045260246000fd5b600181811c90821680620001bc57607f821691505b602082108103620001dd57634e487b7160e01b600052602260045260246000fd5b50919050565b601f82111562000233576000816000526020600020601f850160051c810160208610156200020e5750805b601f850160051c820191505b818110156200022f578281556001016200021a565b5050505b505050565b81516001600160401b0381111562000254576200025462000191565b6200026c81620002658454620001a7565b84620001e3565b602080601f831160018114620002a457600084156200028b5750858301515b600019600386901b1c1916600185901b1785556200022f565b600085815260208120601f198616915b82811015620002d557888601518255948401946001909101908401620002b4565b5085821015620002f45787850151600019600388901b60f8161c191681555b5050505050600190811b01905550565b6129b980620003146000396000f3fe608060405234801561001057600080fd5b506004361061025e5760003560e01c8063715018a611610146578063b88d4fde116100c3578063d1398a2611610087578063d1398a2614610675578063d47875d014610688578063d6df096d146106b4578063e985e9c5146106c7578063f2fde38b146106da578063f653b81e146106ed57600080fd5b8063b88d4fde146105f0578063b8f192ce14610603578063c30a0f251461062c578063c50903461461064f578063c87b56dd1461066257600080fd5b80639c89a0e21161010a5780639c89a0e21461053b5780639eae7fff146105a75780639ee8a15e146105af578063a22cb465146105c2578063b42696c8146105d057600080fd5b8063715018a61461050857806375794a3c146105105780638ae59c69146105195780638da5cb5b1461052257806395d89b411461053357600080fd5b80632e092f9d116101df57806355a3c9ad116101a357806355a3c9ad146104aa578063563a0e28146104bd5780635f0b934c146104d05780636352211e146104d95780636542d039146104ec57806370a08231146104f557600080fd5b80632e092f9d146103bd5780632ed2c2bb146103e05780632fea7b81146103e957806332357ada1461048e57806342842e0e1461049757600080fd5b8063081812fc11610226578063081812fc14610331578063095ea7b31461035c578063135d0ad41461036f57806323b872dd14610382578063261334001461039557600080fd5b806301ffc9a71461026357806302b7e9411461028b57806305a6940e146102a257806306fa15a7146102b757806306fdde031461031c575b600080fd5b6102766102713660046121e5565b610779565b60405190151581526020015b60405180910390f35b6102946103e881565b604051908152602001610282565b6102b56102b0366004612202565b6107cb565b005b6102f46102c5366004612237565b600a60205260009081526040902080546001820154600283015460038401546004909401549293919290919085565b604080519586526020860194909452928401919091526060830152608082015260a001610282565b6103246107d8565b60405161028291906122a2565b61034461033f366004612202565b61086a565b6040516001600160a01b039091168152602001610282565b6102b561036a3660046122b5565b610893565b6102b561037d366004612328565b6108e0565b6102b5610390366004612382565b610a74565b6103a86103a3366004612237565b610aff565b60408051928352602083019190915201610282565b6103d06103cb3660046122b5565b610ca8565b60405161028294939291906123be565b61029461138881565b61046c6103f7366004612237565b6001600160a01b03908116600090815260086020908152604091829020825160c0810184528154909416845260018101549184018290526002810154928401839052600381015460608501819052600482015460ff1615156080860181905260059092015460a0909501949094529093919291565b6040805194855260208501939093529183015215156060820152608001610282565b610294600f5481565b6102b56104a5366004612382565b610d82565b6102b56104b8366004612202565b610da2565b6102766104cb3660046123ef565b610fa9565b61029460105481565b6103446104e7366004612202565b61120d565b6102946101f481565b610294610503366004612237565b611218565b6102b5611260565b610294600e5481565b6102946109c481565b6006546001600160a01b0316610344565b610324611274565b6102f4610549366004612237565b6001600160a01b03166000908152600a6020908152604091829020825160a081018452815480825260018301549382018490526002830154948201859052600383015460608301819052600490930154608090920182905294929392565b610294606481565b6102b56105bd366004612442565b611283565b6102b561036a366004612484565b6105e36105de366004612237565b6114e0565b60405161028291906124c0565b6102b56105fe366004612565565b611610565b610344610611366004612202565b600c602052600090815260409020546001600160a01b031681565b61027661063a366004612202565b600b6020526000908152604090205460ff1681565b6102b561065d366004612237565b611628565b610324610670366004612202565b61169a565b6102b5610683366004612641565b61170f565b610294610696366004612237565b6001600160a01b031660009081526008602052604090206001015490565b600d54610344906001600160a01b031681565b6102766106d5366004612683565b61190a565b6102b56106e8366004612237565b611938565b6107406106fb366004612237565b6008602052600090815260409020805460018201546002830154600384015460048501546005909501546001600160a01b039094169492939192909160ff9091169086565b604080516001600160a01b03909716875260208701959095529385019290925260608401521515608083015260a082015260c001610282565b60006001600160e01b031982166380ac58cd60e01b14806107aa57506001600160e01b03198216635b5e139f60e01b145b806107c557506301ffc9a760e01b6001600160e01b03198316145b92915050565b6107d3611973565b601055565b6060600080546107e7906126b6565b80601f0160208091040260200160405190810160405280929190818152602001828054610813906126b6565b80156108605780601f1061083557610100808354040283529160200191610860565b820191906000526020600020905b81548152906001019060200180831161084357829003601f168201915b5050505050905090565b6000610875826119a0565b506000828152600460205260409020546001600160a01b03166107c5565b60405162461bcd60e51b815260206004820152601f60248201527f536f756c626f756e643a20417070726f76616c206e6f7420616c6c6f7765640060448201526064015b60405180910390fd5b6006546001600160a01b03163314806109035750600d546001600160a01b031633145b61091f5760405162461bcd60e51b81526004016108d7906126f0565b6001600160a01b03841660009081526008602052604090206004015460ff1661095a5760405162461bcd60e51b81526004016108d790612716565b60096000856001600160a01b03166001600160a01b03168152602001908152602001600020604051806080016040528085858080601f01602080910402602001604051908101604052809392919081815260200183838082843760009201829052509385525050506020808301869052426040840152606090920181905283546001810185559381522081519192600402019081906109f99082612789565b506020820151600182015560408083015160028301556060909201516003909101805460ff1916911515919091179055516001600160a01b038516907f3c709c6a5520828465054b30f10f24b9e4b911d3d25626cb358d3a698473eb4e90610a6690869086908690612849565b60405180910390a250505050565b6001600160a01b038216610a9e57604051633250574960e11b8152600060048201526024016108d7565b6000610aab8383336119d9565b9050836001600160a01b0316816001600160a01b031614610af9576040516364283d7b60e01b81526001600160a01b03808616600483015260248201849052821660448201526064016108d7565b50505050565b6001600160a01b0381166000908152600960209081526040808320805482518185028101850190935280835284938493929190849084015b82821015610c245783829060005260206000209060040201604051806080016040529081600082018054610b6a906126b6565b80601f0160208091040260200160405190810160405280929190818152602001828054610b96906126b6565b8015610be35780601f10610bb857610100808354040283529160200191610be3565b820191906000526020600020905b815481529060010190602001808311610bc657829003601f168201915b50505091835250506001828101546020808401919091526002840154604084015260039093015460ff16151560609092019190915291835292019101610b37565b50505050905060008060005b8351811015610c9c57838181518110610c4b57610c4b612882565b602002602001015160600151610c945782610c65816128ae565b935050838181518110610c7a57610c7a612882565b60200260200101516020015182610c9191906128c7565b91505b600101610c30565b50909590945092505050565b60096020528160005260406000208181548110610cc457600080fd5b906000526020600020906004020160009150915050806000018054610ce8906126b6565b80601f0160208091040260200160405190810160405280929190818152602001828054610d14906126b6565b8015610d615780601f10610d3657610100808354040283529160200191610d61565b820191906000526020600020905b815481529060010190602001808311610d4457829003601f168201915b50505050600183015460028401546003909401549293909290915060ff1684565b610d9d83838360405180602001604052806000815250611610565b505050565b610daa611a69565b336000908152600960205260409020548110610df85760405162461bcd60e51b815260206004820152600d60248201526c092dcecc2d8d2c840d2dcc8caf609b1b60448201526064016108d7565b336000908152600960205260408120805483908110610e1957610e19612882565b60009182526020909120600490910201600381015490915060ff1615610e735760405162461bcd60e51b815260206004820152600f60248201526e105b1c9958591e4818db185a5b5959608a1b60448201526064016108d7565b336000908152600860205260409020600481015460ff16610ec55760405162461bcd60e51b815260206004820152600c60248201526b139bdd081d995c9a599a595960a21b60448201526064016108d7565b60105482600101548260010154610edc91906128c7565b1115610f1b5760405162461bcd60e51b815260206004820152600e60248201526d045786365656473206d61782053560941b60448201526064016108d7565b60038201805460ff19166001908117909155828101549082018054600090610f449084906128c7565b90915550504260038201556001808301549082015460405133927f39d29467bad0938fa0d13b8fa2e92550f813ef8f17badf34739e6007ea55ffdb92610f9292918252602082015260400190565b60405180910390a25050610fa66001600755565b50565b6000610fb3611a69565b6000858152600b602052604090205460ff16156110075760405162461bcd60e51b8152602060048201526012602482015271141c9bdbd988185b1c9958591e481d5cd95960721b60448201526064016108d7565b600f54841015801561101a575060058411155b6110565760405162461bcd60e51b815260206004820152600d60248201526c125b9d985b1a59081b195d995b609a1b60448201526064016108d7565b6000611063868585611a93565b9050806110a25760405162461bcd60e51b815260206004820152600d60248201526c24b73b30b634b210383937b7b360991b60448201526064016108d7565b6000868152600b60209081526040808320805460ff1916600117905533835260089091529020600481015460ff166110fe5780546001600160a01b03191633908117825560048201805460ff191660011790556110fe90611ad9565b6002810186905542600382015560058101879055600061111d87611b28565b90508082600101600082825461113391906128c7565b909155505060408051888152602081018a905233917f52dcbba5720a8ca5da4e0eed87dfd81e6d1fe4726470a0037a8aba1401979596910160405180910390a2604080518981526001602082015233917fe8ad06fecfe3c13cc84998449b1933654518c4ba62322f6f5f079ca0e8e82233910160405180910390a2600182015460405133917f39d29467bad0938fa0d13b8fa2e92550f813ef8f17badf34739e6007ea55ffdb916111ec91858252602082015260400190565b60405180910390a2600193505050506112056001600755565b949350505050565b60006107c5826119a0565b60006001600160a01b038216611244576040516322718ad960e21b8152600060048201526024016108d7565b506001600160a01b031660009081526003602052604090205490565b611268611973565b6112726000611b86565b565b6060600180546107e7906126b6565b6006546001600160a01b03163314806112a65750600d546001600160a01b031633145b6112c25760405162461bcd60e51b81526004016108d7906126f0565b6001600160a01b03841660009081526008602052604090206004015460ff166112fd5760405162461bcd60e51b81526004016108d790612716565b6001600160a01b038416600090815260086020526040902060105460018201546113289086906128c7565b11156113675760405162461bcd60e51b815260206004820152600e60248201526d045786365656473206d61782053560941b60448201526064016108d7565b8381600101600082825461137b91906128c7565b90915550504260038201556001600160a01b038516600090815260096020908152604091829020825160a0601f87018490049093028101830190935260808301858152909291829190879087908190850183828082843760009201829052509385525050506020808301899052426040840152600160609093018390528454928301855593815292909220815191926004020190819061141b9082612789565b5060208281015160018381019190915560408085015160028501556060909401516003909301805460ff191693151593909317909255908301548251878152918201526001600160a01b038716917f39d29467bad0938fa0d13b8fa2e92550f813ef8f17badf34739e6007ea55ffdb910160405180910390a2846001600160a01b03167f3c709c6a5520828465054b30f10f24b9e4b911d3d25626cb358d3a698473eb4e8484876040516114d193929190612849565b60405180910390a25050505050565b6001600160a01b0381166000908152600960209081526040808320805482518185028101850190935280835260609492939192909184015b82821015611605578382906000526020600020906004020160405180608001604052908160008201805461154b906126b6565b80601f0160208091040260200160405190810160405280929190818152602001828054611577906126b6565b80156115c45780601f10611599576101008083540402835291602001916115c4565b820191906000526020600020905b8154815290600101906020018083116115a757829003601f168201915b50505091835250506001828101546020808401919091526002840154604084015260039093015460ff16151560609092019190915291835292019101611518565b505050509050919050565b61161b848484610a74565b610af93385858585611bd8565b611630611973565b6001600160a01b0381166116785760405162461bcd60e51b815260206004820152600f60248201526e496e76616c6964206164647265737360881b60448201526064016108d7565b600d80546001600160a01b0319166001600160a01b0392909216919091179055565b60606116a5826119a0565b5060006116bd60408051602081019091526000815290565b905060008151116116dd5760405180602001604052806000815250611708565b806116e784611d03565b6040516020016116f89291906128da565b6040516020818303038152906040525b9392505050565b6006546001600160a01b03163314806117325750600d546001600160a01b031633145b61174e5760405162461bcd60e51b81526004016108d7906126f0565b6001600160a01b03851660009081526008602052604090206004015460ff166117895760405162461bcd60e51b81526004016108d790612716565b6001600160a01b0385166000818152600a602090815260408083206001810189905560028101889055600381018790556004810186905560098352928190205483558051888152918201819052600b828201526a636f6e73697374656e637960a81b6060830152519192916000805160206129648339815191529181900360800190a2856001600160a01b031660008051602061296483398151915285604051611859918152604060208201819052600c908201526b31b7b73a3934b13aba34b7b760a11b606082015260800190565b60405180910390a2856001600160a01b0316600080516020612964833981519152846040516118ac918152604060208201819052600a9082015269676f7665726e616e636560b01b606082015260800190565b60405180910390a2856001600160a01b0316600080516020612964833981519152836040516118fa918152604060208201819052600590820152641d1c9d5cdd60da1b606082015260800190565b60405180910390a2505050505050565b6001600160a01b03918216600090815260056020908152604080832093909416825291909152205460ff1690565b611940611973565b6001600160a01b03811661196a57604051631e4fbdf760e01b8152600060048201526024016108d7565b610fa681611b86565b6006546001600160a01b031633146112725760405163118cdaa760e01b81523360048201526024016108d7565b6000818152600260205260408120546001600160a01b0316806107c557604051637e27328960e01b8152600481018490526024016108d7565b6000828152600260205260408120546001600160a01b03168015801590611a0857506001600160a01b03851615155b15611a555760405162461bcd60e51b815260206004820152601f60248201527f536f756c626f756e643a205472616e73666572206e6f7420616c6c6f7765640060448201526064016108d7565b611a60858585611d96565b95945050505050565b600260075403611a8c57604051633ee5aeb560e01b815260040160405180910390fd5b6002600755565b600d546000906001600160a01b0316331480611ab957506006546001600160a01b031633145b15611ac657506001611708565b8315801590611205575050151592915050565b600e805460009182611aea836128ae565b919050559050611afa8282611e8f565b6000908152600c6020526040902080546001600160a01b0319166001600160a01b0392909216919091179055565b600081600103611b3a57506064919050565b81600203611b4b57506101f4919050565b81600303611b5c57506103e8919050565b81600403611b6d57506109c4919050565b81600503611b7e5750611388919050565b506000919050565b600680546001600160a01b038381166001600160a01b0319831681179093556040519116919082907f8be0079c531659141344cd1fd0a4f28419497f9722a3daafe3b4186f6b6457e090600090a35050565b6001600160a01b0383163b15611cfc57604051630a85bd0160e11b81526001600160a01b0384169063150b7a0290611c1a908890889087908790600401612909565b6020604051808303816000875af1925050508015611c55575060408051601f3d908101601f19168201909252611c5291810190612946565b60015b611cbe573d808015611c83576040519150601f19603f3d011682016040523d82523d6000602084013e611c88565b606091505b508051600003611cb657604051633250574960e11b81526001600160a01b03851660048201526024016108d7565b805160208201fd5b6001600160e01b03198116630a85bd0160e11b14611cfa57604051633250574960e11b81526001600160a01b03851660048201526024016108d7565b505b5050505050565b60606000611d1083611ead565b600101905060008167ffffffffffffffff811115611d3057611d3061254f565b6040519080825280601f01601f191660200182016040528015611d5a576020820181803683370190505b5090508181016020015b600019016f181899199a1a9b1b9c1cb0b131b232b360811b600a86061a8153600a8504945084611d6457509392505050565b6000828152600260205260408120546001600160a01b0390811690831615611dc357611dc3818486611f85565b6001600160a01b03811615611e0157611de0600085600080611fe9565b6001600160a01b038116600090815260036020526040902080546000190190555b6001600160a01b03851615611e30576001600160a01b0385166000908152600360205260409020805460010190555b60008481526002602052604080822080546001600160a01b0319166001600160a01b0389811691821790925591518793918516917fddf252ad1be2c89b69c2b068fc378daa952ba7f163c4a11628f55a4df523b3ef91a4949350505050565b611ea98282604051806020016040528060008152506120ef565b5050565b60008072184f03e93ff9f4daa797ed6e38ed64bf6a1f0160401b8310611eec5772184f03e93ff9f4daa797ed6e38ed64bf6a1f0160401b830492506040015b6d04ee2d6d415b85acef81000000008310611f18576d04ee2d6d415b85acef8100000000830492506020015b662386f26fc100008310611f3657662386f26fc10000830492506010015b6305f5e1008310611f4e576305f5e100830492506008015b6127108310611f6257612710830492506004015b60648310611f74576064830492506002015b600a83106107c55760010192915050565b611f90838383612107565b610d9d576001600160a01b038316611fbe57604051637e27328960e01b8152600481018290526024016108d7565b60405163177e802f60e01b81526001600160a01b0383166004820152602481018290526044016108d7565b8080611ffd57506001600160a01b03821615155b156120bf57600061200d846119a0565b90506001600160a01b038316158015906120395750826001600160a01b0316816001600160a01b031614155b801561204c575061204a818461190a565b155b156120755760405163a9fbf51f60e01b81526001600160a01b03841660048201526024016108d7565b81156120bd5783856001600160a01b0316826001600160a01b03167f8c5be1e5ebec7d5bd14f71427d1e84f3dd0314c0f7b2291e5b200ac8c7c3b92560405160405180910390a45b505b5050600090815260046020526040902080546001600160a01b0319166001600160a01b0392909216919091179055565b6120f9838361216a565b610d9d336000858585611bd8565b60006001600160a01b038316158015906112055750826001600160a01b0316846001600160a01b031614806121415750612141848461190a565b806112055750506000908152600460205260409020546001600160a01b03908116911614919050565b6001600160a01b03821661219457604051633250574960e11b8152600060048201526024016108d7565b60006121a2838360006119d9565b90506001600160a01b03811615610d9d576040516339e3563760e11b8152600060048201526024016108d7565b6001600160e01b031981168114610fa657600080fd5b6000602082840312156121f757600080fd5b8135611708816121cf565b60006020828403121561221457600080fd5b5035919050565b80356001600160a01b038116811461223257600080fd5b919050565b60006020828403121561224957600080fd5b6117088261221b565b60005b8381101561226d578181015183820152602001612255565b50506000910152565b6000815180845261228e816020860160208601612252565b601f01601f19169290920160200192915050565b6020815260006117086020830184612276565b600080604083850312156122c857600080fd5b6122d18361221b565b946020939093013593505050565b60008083601f8401126122f157600080fd5b50813567ffffffffffffffff81111561230957600080fd5b60208301915083602082850101111561232157600080fd5b9250929050565b6000806000806060858703121561233e57600080fd5b6123478561221b565b9350602085013567ffffffffffffffff81111561236357600080fd5b61236f878288016122df565b9598909750949560400135949350505050565b60008060006060848603121561239757600080fd5b6123a08461221b565b92506123ae6020850161221b565b9150604084013590509250925092565b6080815260006123d16080830187612276565b60208301959095525060408101929092521515606090910152919050565b6000806000806060858703121561240557600080fd5b8435935060208501359250604085013567ffffffffffffffff81111561242a57600080fd5b612436878288016122df565b95989497509550505050565b6000806000806060858703121561245857600080fd5b6124618561221b565b935060208501359250604085013567ffffffffffffffff81111561242a57600080fd5b6000806040838503121561249757600080fd5b6124a08361221b565b9150602083013580151581146124b557600080fd5b809150509250929050565b600060208083018184528085518083526040925060408601915060408160051b87010184880160005b8381101561254157603f1989840301855281516080815181865261250f82870182612276565b838b0151878c0152898401518a88015260609384015115159390960192909252505093860193908601906001016124e9565b509098975050505050505050565b634e487b7160e01b600052604160045260246000fd5b6000806000806080858703121561257b57600080fd5b6125848561221b565b93506125926020860161221b565b925060408501359150606085013567ffffffffffffffff808211156125b657600080fd5b818701915087601f8301126125ca57600080fd5b8135818111156125dc576125dc61254f565b604051601f8201601f19908116603f011681019083821181831017156126045761260461254f565b816040528281528a602084870101111561261d57600080fd5b82602086016020830137600060208483010152809550505050505092959194509250565b600080600080600060a0868803121561265957600080fd5b6126628661221b565b97602087013597506040870135966060810135965060800135945092505050565b6000806040838503121561269657600080fd5b61269f8361221b565b91506126ad6020840161221b565b90509250929050565b600181811c908216806126ca57607f821691505b6020821081036126ea57634e487b7160e01b600052602260045260246000fd5b50919050565b6020808252600c908201526b155b985d5d1a1bdc9a5e995960a21b604082015260600190565b602080825260119082015270155cd95c881b9bdd081d995c9a599a5959607a1b604082015260600190565b601f821115610d9d576000816000526020600020601f850160051c8101602086101561276a5750805b601f850160051c820191505b81811015611cfa57828155600101612776565b815167ffffffffffffffff8111156127a3576127a361254f565b6127b7816127b184546126b6565b84612741565b602080601f8311600181146127ec57600084156127d45750858301515b600019600386901b1c1916600185901b178555611cfa565b600085815260208120601f198616915b8281101561281b578886015182559484019460019091019084016127fc565b50858210156128395787850151600019600388901b60f8161c191681555b5050505050600190811b01905550565b604081528260408201528284606083013760006060848301015260006060601f19601f8601168301019050826020830152949350505050565b634e487b7160e01b600052603260045260246000fd5b634e487b7160e01b600052601160045260246000fd5b6000600182016128c0576128c0612898565b5060010190565b808201808211156107c5576107c5612898565b600083516128ec818460208801612252565b835190830190612900818360208801612252565b01949350505050565b6001600160a01b038581168252841660208201526040810183905260806060820181905260009061293c90830184612276565b9695505050505050565b60006020828403121561295857600080fd5b8151611708816121cf56fec17e77081800e4bec45161da763d23d62f41146fb2629ee32a8fea0765743a12a2646970667358221220a93c2c1c108615b27a6bfd4f500ab649182291d877c7dd02f8337a142b7d918764736f6c63430008180033",
  "linkReferences": {},
  "deployedLinkReferences": {}
}