{
  "_format": "hh-sol-artifact-1",
  "contractName": "ScrollGenDEXAggregator",
  "sourceName": "contracts/advanced/ScrollGenDEXAggregator.sol",
  "abi": [
    {
      "inputs": [
        {
          "internalType": "address",
          "name": "_feeCollector",
          "type": "address"
        }
      ],
      "stateMutability": "nonpayable",
      "type": "constructor"
    },
    {
      "inputs": [
        {
          "internalType": "address",
          "name": "owner",
          "type": "address"
        }
      ],
      "name": "OwnableInvalidOwner",
      "type": "error"
    },
    {
      "inputs": [
        {
          "internalType": "address",
          "name": "account",
          "type": "address"
        }
      ],
      "name": "OwnableUnauthorizedAccount",
      "type": "error"
    },
    {
      "inputs": [],
      "name": "ReentrancyGuardReentrantCall",
      "type": "error"
    },
    {
      "inputs": [
        {
          "internalType": "address",
          "name": "token",
          "type": "address"
        }
      ],
      "name": "SafeERC20FailedOperation",
      "type": "error"
    },
    {
      "anonymous": false,
      "inputs": [
        {
          "indexed": false,
          "internalType": "uint256",
          "name": "newRate",
          "type": "uint256"
        }
      ],
      "name": "FeeRateUpdated",
      "type": "event"
    },
    {
      "anonymous": false,
      "inputs": [
        {
          "indexed": true,
          "internalType": "address",
          "name": "newGovernance",
          "type": "address"
        }
      ],
      "name": "GovernanceUpdated",
      "type": "event"
    },
    {
      "anonymous": false,
      "inputs": [
        {
          "indexed": true,
          "internalType": "address",
          "name": "previousOwner",
          "type": "address"
        },
        {
          "indexed": true,
          "internalType": "address",
          "name": "newOwner",
          "type": "address"
        }
      ],
      "name": "OwnershipTransferred",
      "type": "event"
    },
    {
      "anonymous": false,
      "inputs": [
        {
          "indexed": true,
          "internalType": "bytes32",
          "name": "poolId",
          "type": "bytes32"
        },
        {
          "indexed": false,
          "internalType": "address",
          "name": "tokenA",
          "type": "address"
        },
        {
          "indexed": false,
          "internalType": "address",
          "name": "tokenB",
          "type": "address"
        }
      ],
      "name": "PoolAdded",
      "type": "event"
    },
    {
      "anonymous": false,
      "inputs": [
        {
          "indexed": true,
          "internalType": "bytes32",
          "name": "poolId",
          "type": "bytes32"
        },
        {
          "indexed": false,
          "internalType": "uint256",
          "name": "reserveA",
          "type": "uint256"
        },
        {
          "indexed": false,
          "internalType": "uint256",
          "name": "reserveB",
          "type": "uint256"
        }
      ],
      "name": "PoolUpdated",
      "type": "event"
    },
    {
      "anonymous": false,
      "inputs": [
        {
          "indexed": true,
          "internalType": "address",
          "name": "user",
          "type": "address"
        },
        {
          "indexed": true,
          "internalType": "address",
          "name": "tokenIn",
          "type": "address"
        },
        {
          "indexed": true,
          "internalType": "address",
          "name": "tokenOut",
          "type": "address"
        },
        {
          "indexed": false,
          "internalType": "uint256",
          "name": "amountIn",
          "type": "uint256"
        },
        {
          "indexed": false,
          "internalType": "uint256",
          "name": "amountOut",
          "type": "uint256"
        },
        {
          "indexed": false,
          "internalType": "address[]",
          "name": "path",
          "type": "address[]"
        }
      ],
      "name": "Swap",
      "type": "event"
    },
    {
      "inputs": [],
      "name": "FEE_DENOMINATOR",
      "outputs": [
        {
          "internalType": "uint256",
          "name": "",
          "type": "uint256"
        }
      ],
      "stateMutability": "view",
      "type": "function"
    },
    {
      "inputs": [],
      "name": "MAX_FEE",
      "outputs": [
        {
          "internalType": "uint256",
          "name": "",
          "type": "uint256"
        }
      ],
      "stateMutability": "view",
      "type": "function"
    },
    {
      "inputs": [
        {
          "internalType": "address",
          "name": "tokenA",
          "type": "address"
        },
        {
          "internalType": "address",
          "name": "tokenB",
          "type": "address"
        },
        {
          "internalType": "uint256",
          "name": "reserveA",
          "type": "uint256"
        },
        {
          "internalType": "uint256",
          "name": "reserveB",
          "type": "uint256"
        }
      ],
      "name": "addPool",
      "outputs": [
        {
          "internalType": "bytes32",
          "name": "",
          "type": "bytes32"
        }
      ],
      "stateMutability": "nonpayable",
      "type": "function"
    },
    {
      "inputs": [],
      "name": "baseFeeRate",
      "outputs": [
        {
          "internalType": "uint256",
          "name": "",
          "type": "uint256"
        }
      ],
      "stateMutability": "view",
      "type": "function"
    },
    {
      "inputs": [
        {
          "internalType": "uint256",
          "name": "amountIn",
          "type": "uint256"
        },
        {
          "internalType": "uint256",
          "name": "amountOut",
          "type": "uint256"
        }
      ],
      "name": "calculatePriceImpact",
      "outputs": [
        {
          "internalType": "uint256",
          "name": "",
          "type": "uint256"
        }
      ],
      "stateMutability": "pure",
      "type": "function"
    },
    {
      "inputs": [],
      "name": "feeCollector",
      "outputs": [
        {
          "internalType": "address",
          "name": "",
          "type": "address"
        }
      ],
      "stateMutability": "view",
      "type": "function"
    },
    {
      "inputs": [
        {
          "internalType": "address",
          "name": "tokenIn",
          "type": "address"
        },
        {
          "internalType": "address",
          "name": "tokenOut",
          "type": "address"
        },
        {
          "internalType": "uint256",
          "name": "amountIn",
          "type": "uint256"
        }
      ],
      "name": "findBestRoute",
      "outputs": [
        {
          "components": [
            {
              "internalType": "address[]",
              "name": "path",
              "type": "address[]"
            },
            {
              "internalType": "uint256[]",
              "name": "poolIndices",
              "type": "uint256[]"
            },
            {
              "internalType": "uint256",
              "name": "expectedOutput",
              "type": "uint256"
            },
            {
              "internalType": "uint256",
              "name": "priceImpact",
              "type": "uint256"
            }
          ],
          "internalType": "struct ScrollGenDEXAggregator.SwapRoute",
          "name": "",
          "type": "tuple"
        }
      ],
      "stateMutability": "view",
      "type": "function"
    },
    {
      "inputs": [],
      "name": "getActivePools",
      "outputs": [
        {
          "internalType": "bytes32[]",
          "name": "",
          "type": "bytes32[]"
        }
      ],
      "stateMutability": "view",
      "type": "function"
    },
    {
      "inputs": [
        {
          "internalType": "uint256",
          "name": "amountIn",
          "type": "uint256"
        },
        {
          "internalType": "uint256",
          "name": "reserveIn",
          "type": "uint256"
        },
        {
          "internalType": "uint256",
          "name": "reserveOut",
          "type": "uint256"
        }
      ],
      "name": "getAmountOut",
      "outputs": [
        {
          "internalType": "uint256",
          "name": "amountOut",
          "type": "uint256"
        }
      ],
      "stateMutability": "view",
      "type": "function"
    },
    {
      "inputs": [
        {
          "internalType": "uint256",
          "name": "amountIn",
          "type": "uint256"
        },
        {
          "internalType": "address[]",
          "name": "path",
          "type": "address[]"
        }
      ],
      "name": "getAmountsOut",
      "outputs": [
        {
          "internalType": "uint256[]",
          "name": "amounts",
          "type": "uint256[]"
        }
      ],
      "stateMutability": "view",
      "type": "function"
    },
    {
      "inputs": [
        {
          "internalType": "address",
          "name": "tokenA",
          "type": "address"
        },
        {
          "internalType": "address",
          "name": "tokenB",
          "type": "address"
        }
      ],
      "name": "getReserves",
      "outputs": [
        {
          "internalType": "uint256",
          "name": "reserveA",
          "type": "uint256"
        },
        {
          "internalType": "uint256",
          "name": "reserveB",
          "type": "uint256"
        }
      ],
      "stateMutability": "view",
      "type": "function"
    },
    {
      "inputs": [],
      "name": "governance",
      "outputs": [
        {
          "internalType": "address",
          "name": "",
          "type": "address"
        }
      ],
      "stateMutability": "view",
      "type": "function"
    },
    {
      "inputs": [],
      "name": "owner",
      "outputs": [
        {
          "internalType": "address",
          "name": "",
          "type": "address"
        }
      ],
      "stateMutability": "view",
      "type": "function"
    },
    {
      "inputs": [
        {
          "internalType": "uint256",
          "name": "",
          "type": "uint256"
        }
      ],
      "name": "poolIds",
      "outputs": [
        {
          "internalType": "bytes32",
          "name": "",
          "type": "bytes32"
        }
      ],
      "stateMutability": "view",
      "type": "function"
    },
    {
      "inputs": [
        {
          "internalType": "bytes32",
          "name": "",
          "type": "bytes32"
        }
      ],
      "name": "pools",
      "outputs": [
        {
          "internalType": "address",
          "name": "tokenA",
          "type": "address"
        },
        {
          "internalType": "address",
          "name": "tokenB",
          "type": "address"
        },
        {
          "internalType": "uint256",
          "name": "reserveA",
          "type": "uint256"
        },
        {
          "internalType": "uint256",
          "name": "reserveB",
          "type": "uint256"
        },
        {
          "internalType": "uint256",
          "name": "fee",
          "type": "uint256"
        },
        {
          "internalType": "bool",
          "name": "active",
          "type": "bool"
        }
      ],
      "stateMutability": "view",
      "type": "function"
    },
    {
      "inputs": [],
      "name": "renounceOwnership",
      "outputs": [],
      "stateMutability": "nonpayable",
      "type": "function"
    },
    {
      "inputs": [
        {
          "internalType": "uint256",
          "name": "newRate",
          "type": "uint256"
        }
      ],
      "name": "setFeeRate",
      "outputs": [],
      "stateMutability": "nonpayable",
      "type": "function"
    },
    {
      "inputs": [
        {
          "internalType": "address",
          "name": "newGovernance",
          "type": "address"
        }
      ],
      "name": "setGovernance",
      "outputs": [],
      "stateMutability": "nonpayable",
      "type": "function"
    },
    {
      "inputs": [
        {
          "internalType": "bytes32",
          "name": "poolId",
          "type": "bytes32"
        },
        {
          "internalType": "bool",
          "name": "active",
          "type": "bool"
        }
      ],
      "name": "setPoolStatus",
      "outputs": [],
      "stateMutability": "nonpayable",
      "type": "function"
    },
    {
      "inputs": [
        {
          "internalType": "uint256",
          "name": "amountIn",
          "type": "uint256"
        },
        {
          "internalType": "uint256",
          "name": "amountOutMin",
          "type": "uint256"
        },
        {
          "internalType": "address[]",
          "name": "path",
          "type": "address[]"
        },
        {
          "internalType": "address",
          "name": "to",
          "type": "address"
        },
        {
          "internalType": "uint256",
          "name": "deadline",
          "type": "uint256"
        }
      ],
      "name": "swapExactTokensForTokens",
      "outputs": [
        {
          "internalType": "uint256[]",
          "name": "amounts",
          "type": "uint256[]"
        }
      ],
      "stateMutability": "nonpayable",
      "type": "function"
    },
    {
      "inputs": [],
      "name": "totalFeesCollected",
      "outputs": [
        {
          "internalType": "uint256",
          "name": "",
          "type": "uint256"
        }
      ],
      "stateMutability": "view",
      "type": "function"
    },
    {
      "inputs": [],
      "name": "totalSwapVolume",
      "outputs": [
        {
          "internalType": "uint256",
          "name": "",
          "type": "uint256"
        }
      ],
      "stateMutability": "view",
      "type": "function"
    },
    {
      "inputs": [
        {
          "internalType": "address",
          "name": "newOwner",
          "type": "address"
        }
      ],
      "name": "transferOwnership",
      "outputs": [],
      "stateMutability": "nonpayable",
      "type": "function"
    }
  ],
  "bytecode": "0x6080604052601e6004553480156200001657600080fd5b5060405162001df238038062001df2833981016040819052620000399162000148565b33806200006157604051631e4fbdf760e01b8152600060048201526024015b60405180910390fd5b6200006c81620000f8565b50600180556001600160a01b038116620000c95760405162461bcd60e51b815260206004820152601560248201527f496e76616c69642066656520636f6c6c6563746f720000000000000000000000604482015260640162000058565b600680546001600160a01b039092166001600160a01b031992831617905560058054909116331790556200017a565b600080546001600160a01b038381166001600160a01b0319831681178455604051919092169283917f8be0079c531659141344cd1fd0a4f28419497f9722a3daafe3b4186f6b6457e09190a35050565b6000602082840312156200015b57600080fd5b81516001600160a01b03811681146200017357600080fd5b9392505050565b611c68806200018a6000396000f3fe608060405234801561001057600080fd5b506004361061014d5760003560e01c80638ec08354116100c3578063c415b95c1161007c578063c415b95c14610321578063cf2d217814610334578063d06ca61f1461033d578063d52bb6f414610350578063d73792a914610378578063f2fde38b1461038157600080fd5b80638ec0835414610249578063ab033ea914610251578063b5217bb414610264578063b6730e59146102f3578063bc063e1a14610306578063c20632ba1461030e57600080fd5b806360c6d8ae1161011557806360c6d8ae146101e157806369883b4e146101ea578063715018a6146101fd5780638b97f58a146102055780638da5cb5b146102255780638e81c7311461023657600080fd5b806301b8406514610152578063054d50d41461016e57806338ed17391461018157806345596e2e146101a15780635aa6e675146101b6575b600080fd5b61015b60075481565b6040519081526020015b60405180910390f35b61015b61017c366004611735565b610394565b61019461018f3660046117c2565b610490565b6040516101659190611832565b6101b46101af366004611876565b6106fa565b005b6005546101c9906001600160a01b031681565b6040516001600160a01b039091168152602001610165565b61015b60085481565b61015b6101f8366004611876565b6107d5565b6101b46107f6565b61021861021336600461188f565b61080a565b6040516101659190611907565b6000546001600160a01b03166101c9565b61015b610244366004611994565b61096e565b6101946109cc565b6101b461025f3660046119b6565b610b1e565b6102b9610272366004611876565b60026020819052600091825260409091208054600182015492820154600383015460048401546005909401546001600160a01b039384169590931693919290919060ff1686565b604080516001600160a01b0397881681529690951660208701529385019290925260608401526080830152151560a082015260c001610165565b6101b46103013660046119d8565b610bb8565b61015b606481565b61015b61031c366004611a0d565b610be3565b6006546101c9906001600160a01b031681565b61015b60045481565b61019461034b366004611a4f565b610dfc565b61036361035e366004611a9b565b610f58565b60408051928352602083019190915201610165565b61015b61271081565b6101b461038f3660046119b6565b6110e5565b60008084116103df5760405162461bcd60e51b8152602060048201526012602482015271125b9cdd59999a58da595b9d081a5b9c1d5d60721b60448201526064015b60405180910390fd5b6000831180156103ef5750600082115b6104345760405162461bcd60e51b8152602060048201526016602482015275496e73756666696369656e74206c697175696469747960501b60448201526064016103d6565b60006004546127106104469190611ae4565b6104509086611af7565b9050600061045e8483611af7565b905060008261046f61271088611af7565b6104799190611b0e565b90506104858183611b21565b979650505050505050565b606061049a611123565b428210156104d45760405162461bcd60e51b8152602060048201526007602482015266115e1c1a5c995960ca1b60448201526064016103d6565b60028410156104f55760405162461bcd60e51b81526004016103d690611b43565b600087116105335760405162461bcd60e51b815260206004820152600b60248201526a16995c9bc8185b5bdd5b9d60aa1b60448201526064016103d6565b61053e878686610dfc565b90508581600183516105509190611ae4565b8151811061056057610560611b69565b602002602001015110156105ac5760405162461bcd60e51b8152602060048201526013602482015272125b9cdd59999a58da595b9d081bdd5d1c1d5d606a1b60448201526064016103d6565b6105eb333089888860008181106105c5576105c5611b69565b90506020020160208101906105da91906119b6565b6001600160a01b031692919061114d565b6105f7818686866111ba565b86600760008282546106099190611b0e565b909155508590508461061c600182611ae4565b81811061062b5761062b611b69565b905060200201602081019061064091906119b6565b6001600160a01b03168585600081811061065c5761065c611b69565b905060200201602081019061067191906119b6565b6001600160a01b0316336001600160a01b03167f8d8cb5d66c60568c0afcaada09decc411800569d38937701fac56aa2356a0bda8a85600187516106b59190611ae4565b815181106106c5576106c5611b69565b60200260200101518a8a6040516106df9493929190611b7f565b60405180910390a46106f060018055565b9695505050505050565b6005546001600160a01b031633148061071d57506000546001600160a01b031633145b61075a5760405162461bcd60e51b815260206004820152600e60248201526d4e6f7420676f7665726e616e636560901b60448201526064016103d6565b606481111561079a5760405162461bcd60e51b815260206004820152600c60248201526b08ccaca40e8dede40d0d2ced60a31b60448201526064016103d6565b60048190556040518181527f208f1b468d3d61f0f085e975bd9d04367c930d599642faad06695229f3eadcd89060200160405180910390a150565b600381815481106107e557600080fd5b600091825260209091200154905081565b6107fe6113ef565b610808600061141c565b565b6108356040518060800160405280606081526020016060815260200160008152602001600081525090565b604080516002808252606082018352600092602083019080368337019050509050848160008151811061086a5761086a611b69565b60200260200101906001600160a01b031690816001600160a01b031681525050838160018151811061089e5761089e611b69565b60200260200101906001600160a01b031690816001600160a01b03168152505060006108ca848361146c565b9050600081600183516108dd9190611ae4565b815181106108ed576108ed611b69565b602002602001015190506040518060800160405280848152602001600167ffffffffffffffff81111561092257610922611bdc565b60405190808252806020026020018201604052801561094b578160200160208202803683370190505b508152602001828152602001610961878461096e565b9052979650505050505050565b600082158061097b575081155b15610988575060006109c6565b60008361099784612710611af7565b6109a19190611b21565b905061271081106109b65760009150506109c6565b6109c281612710611ae4565b9150505b92915050565b60606000805b600354811015610a305760026000600383815481106109f3576109f3611b69565b6000918252602080832090910154835282019290925260400190206005015460ff1615610a285781610a2481611bf2565b9250505b6001016109d2565b5060008167ffffffffffffffff811115610a4c57610a4c611bdc565b604051908082528060200260200182016040528015610a75578160200160208202803683370190505b5090506000805b600354811015610b15576002600060038381548110610a9d57610a9d611b69565b6000918252602080832090910154835282019290925260400190206005015460ff1615610b0d5760038181548110610ad757610ad7611b69565b9060005260206000200154838381518110610af457610af4611b69565b602090810291909101015281610b0981611bf2565b9250505b600101610a7c565b50909392505050565b610b266113ef565b6001600160a01b038116610b6e5760405162461bcd60e51b815260206004820152600f60248201526e496e76616c6964206164647265737360881b60448201526064016103d6565b600580546001600160a01b0319166001600160a01b0383169081179091556040517f9d3e522e1e47a2f6009739342b9cc7b252a1888154e843ab55ee1c81745795ab90600090a250565b610bc06113ef565b600091825260026020526040909120600501805460ff1916911515919091179055565b6000610bed6113ef565b836001600160a01b0316856001600160a01b031603610c415760405162461bcd60e51b815260206004820152601060248201526f4964656e746963616c20746f6b656e7360801b60448201526064016103d6565b6001600160a01b03851615801590610c6157506001600160a01b03841615155b610c9c5760405162461bcd60e51b815260206004820152600c60248201526b5a65726f206164647265737360a01b60448201526064016103d6565b60008585604051602001610cb1929190611c0b565b60408051601f19818403018152828252805160209182012060c0840183526001600160a01b03808b1685528981168584019081528585018a8152606087018a81526004805460808a01908152600160a08b01818152600089815260029a8b90528b81209c518d54908a166001600160a01b0319918216178e5597518d8401805491909a169816979097179097559351978a019790975590516003808a019190915595519088015591516005909601805496151560ff199097169690961790955582549081018355919093527fc2575a0e9e593c00f959f8c92f12db2869c3395a3b0502d05e2516446f71f85b018290555190915081907f4ab8528efe13708a3c6511d645464397e238f2f3b86eaca5f16ab43c5fa7d0cd90610deb90899089906001600160a01b0392831681529116602082015260400190565b60405180910390a295945050505050565b60606002821015610e1f5760405162461bcd60e51b81526004016103d690611b43565b8167ffffffffffffffff811115610e3857610e38611bdc565b604051908082528060200260200182016040528015610e61578160200160208202803683370190505b5090508381600081518110610e7857610e78611b69565b60200260200101818152505060005b610e92600184611ae4565b811015610f5057600080610ef7868685818110610eb157610eb1611b69565b9050602002016020810190610ec691906119b6565b8787610ed3876001611b0e565b818110610ee257610ee2611b69565b905060200201602081019061035e91906119b6565b91509150610f1f848481518110610f1057610f10611b69565b60200260200101518383610394565b84610f2b856001611b0e565b81518110610f3b57610f3b611b69565b60209081029190910101525050600101610e87565b509392505050565b60008060008484604051602001610f70929190611c0b565b60408051601f198184030181528282528051602091820120600081815260028084529084902060c08601855280546001600160a01b039081168752600182015416938601939093528201549284019290925260038101546060840152600481015460808401526005015460ff1615801560a084015290925061100157806040015181606001519350935050506110de565b8486604051602001611014929190611c0b565b60408051601f198184030181528282528051602091820120600081815260028084529084902060c08601855280546001600160a01b039081168752600182015416938601939093528201549284019290925260038101546060840152600481015460808401526005015460ff16151560a083018190529093509091506110cd5760405162461bcd60e51b815260206004820152600e60248201526d141bdbdb081b9bdd08199bdd5b9960921b60448201526064016103d6565b806060015181604001519350935050505b9250929050565b6110ed6113ef565b6001600160a01b03811661111757604051631e4fbdf760e01b8152600060048201526024016103d6565b6111208161141c565b50565b60026001540361114657604051633ee5aeb560e01b815260040160405180910390fd5b6002600155565b6040516001600160a01b0384811660248301528381166044830152606482018390526111b49186918216906323b872dd906084015b604051602081830303815290604052915060e01b6020820180516001600160e01b0383818316178352505050506115aa565b50505050565b60005b6111c8600184611ae4565b8110156113e8576000808585848181106111e4576111e4611b69565b90506020020160208101906111f991906119b6565b8686611206866001611b0e565b81811061121557611215611b69565b905060200201602081019061122a91906119b6565b909250905060008761123d856001611b0e565b8151811061124d5761124d611b69565b602002602001015190506000838360405160200161126c929190611c0b565b60408051601f19818403018152918152815160209283012060008181526002909352912060058101549192509060ff166112dd5783856040516020016112b3929190611c0b565b60408051601f19818403018152918152815160209283012060008181526002909352912090925090505b600581015460ff166113235760405162461bcd60e51b815260206004820152600f60248201526e506f6f6c206e6f742061637469766560881b60448201526064016103d6565b60006127108260040154856113389190611af7565b6113429190611b21565b905060006113508286611ae4565b905061135d60028b611ae4565b8803611377576113776001600160a01b0387168a8361161b565b81156113af57600654611397906001600160a01b0388811691168461161b565b81600860008282546113a99190611b0e565b90915550505b6113d58488888f8c815181106113c7576113c7611b69565b602002602001015189611651565b5050600190950194506111bd9350505050565b5050505050565b6000546001600160a01b031633146108085760405163118cdaa760e01b81523360048201526024016103d6565b600080546001600160a01b038381166001600160a01b0319831681178455604051919092169283917f8be0079c531659141344cd1fd0a4f28419497f9722a3daafe3b4186f6b6457e09190a35050565b60606002825110156114905760405162461bcd60e51b81526004016103d690611b43565b815167ffffffffffffffff8111156114aa576114aa611bdc565b6040519080825280602002602001820160405280156114d3578160200160208202803683370190505b50905082816000815181106114ea576114ea611b69565b60200260200101818152505060005b600183516115079190611ae4565b8110156115a35760008061155985848151811061152657611526611b69565b60200260200101518685600161153c9190611b0e565b8151811061154c5761154c611b69565b6020026020010151610f58565b91509150611572848481518110610f1057610f10611b69565b8461157e856001611b0e565b8151811061158e5761158e611b69565b602090810291909101015250506001016114f9565b5092915050565b600080602060008451602086016000885af1806115cd576040513d6000823e3d81fd5b50506000513d915081156115e55780600114156115f2565b6001600160a01b0384163b155b156111b457604051635274afe760e01b81526001600160a01b03851660048201526024016103d6565b6040516001600160a01b0383811660248301526044820183905261164c91859182169063a9059cbb90606401611182565b505050565b600085815260026020526040902080546001600160a01b038087169116036116ad57828160020160008282546116879190611b0e565b92505081905550818160030160008282546116a29190611ae4565b909155506116e29050565b828160030160008282546116c19190611b0e565b92505081905550818160020160008282546116dc9190611ae4565b90915550505b857f173f2fb88eff180029b782d20ee4e33035596e2ce77a437fa227ce4a6babc35a82600201548360030154604051611725929190918252602082015260400190565b60405180910390a2505050505050565b60008060006060848603121561174a57600080fd5b505081359360208301359350604090920135919050565b60008083601f84011261177357600080fd5b50813567ffffffffffffffff81111561178b57600080fd5b6020830191508360208260051b85010111156110de57600080fd5b80356001600160a01b03811681146117bd57600080fd5b919050565b60008060008060008060a087890312156117db57600080fd5b8635955060208701359450604087013567ffffffffffffffff81111561180057600080fd5b61180c89828a01611761565b909550935061181f9050606088016117a6565b9150608087013590509295509295509295565b6020808252825182820181905260009190848201906040850190845b8181101561186a5783518352928401929184019160010161184e565b50909695505050505050565b60006020828403121561188857600080fd5b5035919050565b6000806000606084860312156118a457600080fd5b6118ad846117a6565b92506118bb602085016117a6565b9150604084013590509250925092565b60008151808452602080850194506020840160005b838110156118fc578151875295820195908201906001016118e0565b509495945050505050565b60208082528251608083830152805160a0840181905260009291820190839060c08601905b808310156119555783516001600160a01b0316825292840192600192909201919084019061192c565b5092860151858403601f190160408701529261197181856118cb565b935050505060408401516060840152606084015160808401528091505092915050565b600080604083850312156119a757600080fd5b50508035926020909101359150565b6000602082840312156119c857600080fd5b6119d1826117a6565b9392505050565b600080604083850312156119eb57600080fd5b8235915060208301358015158114611a0257600080fd5b809150509250929050565b60008060008060808587031215611a2357600080fd5b611a2c856117a6565b9350611a3a602086016117a6565b93969395505050506040820135916060013590565b600080600060408486031215611a6457600080fd5b83359250602084013567ffffffffffffffff811115611a8257600080fd5b611a8e86828701611761565b9497909650939450505050565b60008060408385031215611aae57600080fd5b611ab7836117a6565b9150611ac5602084016117a6565b90509250929050565b634e487b7160e01b600052601160045260246000fd5b818103818111156109c6576109c6611ace565b80820281158282048414176109c6576109c6611ace565b808201808211156109c6576109c6611ace565b600082611b3e57634e487b7160e01b600052601260045260246000fd5b500490565b6020808252600c908201526b092dcecc2d8d2c840e0c2e8d60a31b604082015260600190565b634e487b7160e01b600052603260045260246000fd5b84815260208082018590526060604083018190528201839052600090849060808401835b86811015611bcf576001600160a01b03611bbc856117a6565b1682529282019290820190600101611ba3565b5098975050505050505050565b634e487b7160e01b600052604160045260246000fd5b600060018201611c0457611c04611ace565b5060010190565b6bffffffffffffffffffffffff19606093841b811682529190921b1660148201526028019056fea26469706673582212204619ac6192d64785a81c1e4c56f9410b71ccf2f48f71f368ac7cd8f4d81adcdd64736f6c63430008180033",
  "linkReferences": {},
  "deployedLinkReferences": {}
}